{
  "_format": "hh-sol-artifact-1",
  "contractName": "Child",
  "sourceName": "contracts/inheritenceExample.sol",
  "abi": [
    {
      "inputs": [
        {
          "internalType": "uint256",
          "name": "_parentVar",
          "type": "uint256"
        },
        {
          "internalType": "uint256",
          "name": "_childVar",
          "type": "uint256"
        }
      ],
      "stateMutability": "nonpayable",
      "type": "constructor"
    },
    {
      "inputs": [],
      "name": "childVar",
      "outputs": [
        {
          "internalType": "uint256",
          "name": "",
          "type": "uint256"
        }
      ],
      "stateMutability": "view",
      "type": "function"
    },
    {
      "inputs": [],
      "name": "parentVar",
      "outputs": [
        {
          "internalType": "uint256",
          "name": "",
          "type": "uint256"
        }
      ],
      "stateMutability": "view",
      "type": "function"
    }
  ],
  "bytecode": "0x608060405234801561001057600080fd5b506040516101f43803806101f4833981810160405281019061003291906100f2565b8161004d6723ec2d952b8cdf0760c01b6100b160201b60201c565b610067675c3f3904dc4f32ec60c01b6100b160201b60201c565b806000819055505061008967e03706c123ca263e60c01b6100b460201b60201c565b6100a367bb36fb6d977d789560c01b6100b460201b60201c565b806001819055505050610132565b50565b50565b600080fd5b6000819050919050565b6100cf816100bc565b81146100da57600080fd5b50565b6000815190506100ec816100c6565b92915050565b60008060408385031215610109576101086100b7565b5b6000610117858286016100dd565b9250506020610128858286016100dd565b9150509250929050565b60b4806101406000396000f3fe6080604052348015600f57600080fd5b506004361060325760003560e01c80635c7e8f431460375780638ff682ab146051575b600080fd5b603d606b565b60405160489190608e565b60405180910390f35b60576071565b60405160629190608e565b60405180910390f35b60015481565b60005481565b6000819050919050565b6088816077565b82525050565b600060208201905060a160008301846081565b9291505056fea164736f6c634300081b000a",
  "linkReferences": {},
  "deployedLinkReferences": {}
}