{
  "_format": "hh-sol-artifact-1",
  "contractName": "Example",
  "sourceName": "contracts/inheritenceExample.sol",
  "abi": [
    {
      "inputs": [
        {
          "internalType": "uint256",
          "name": "_parentVar",
          "type": "uint256"
        },
        {
          "internalType": "uint256",
          "name": "_childVar",
          "type": "uint256"
        }
      ],
      "stateMutability": "nonpayable",
      "type": "constructor"
    },
    {
      "inputs": [],
      "name": "getChildVar",
      "outputs": [
        {
          "internalType": "uint256",
          "name": "",
          "type": "uint256"
        }
      ],
      "stateMutability": "view",
      "type": "function"
    },
    {
      "inputs": [],
      "name": "getParentVar",
      "outputs": [
        {
          "internalType": "uint256",
          "name": "",
          "type": "uint256"
        }
      ],
      "stateMutability": "view",
      "type": "function"
    },
    {
      "inputs": [],
      "name": "myChild",
      "outputs": [
        {
          "internalType": "contract Child",
          "name": "",
          "type": "address"
        }
      ],
      "stateMutability": "view",
      "type": "function"
    }
  ],
  "bytecode": "0x608060405234801561001057600080fd5b5060405161074c38038061074c8339818101604052810190610032919061012d565b61004c67391f472954416d1860c01b6100e260201b60201c565b610066673ca699120fd2614d60c01b6100e260201b60201c565b8181604051610074906100e5565b61007f92919061017c565b604051809103906000f08015801561009b573d6000803e3d6000fd5b506000806101000a81548173ffffffffffffffffffffffffffffffffffffffff021916908373ffffffffffffffffffffffffffffffffffffffff16021790555050506101a5565b50565b6101f48061055883390190565b600080fd5b6000819050919050565b61010a816100f7565b811461011557600080fd5b50565b60008151905061012781610101565b92915050565b60008060408385031215610144576101436100f2565b5b600061015285828601610118565b925050602061016385828601610118565b9150509250929050565b610176816100f7565b82525050565b6000604082019050610191600083018561016d565b61019e602083018461016d565b9392505050565b6103a4806101b46000396000f3fe608060405234801561001057600080fd5b50600436106100415760003560e01c8063029ea38d14610046578063957ff9df14610064578063f73c5c7c14610082575b600080fd5b61004e6100a0565b60405161005b9190610284565b60405180910390f35b61006c610172565b6040516100799190610284565b60405180910390f35b61008a610244565b604051610097919061031e565b60405180910390f35b60006100b6674d09b32d89f4ce8f60c01b610268565b6100ca67730b8e2b1848c0c360c01b610268565b6100de67922891746e0ef22660c01b610268565b60008054906101000a900473ffffffffffffffffffffffffffffffffffffffff1673ffffffffffffffffffffffffffffffffffffffff16638ff682ab6040518163ffffffff1660e01b8152600401602060405180830381865afa158015610149573d6000803e3d6000fd5b505050506040513d601f19601f8201168201806040525081019061016d919061036a565b905090565b60006101886705fcca6d28d3e4b360c01b610268565b61019c6703ea22fa3064ba2160c01b610268565b6101b067653db48e95182dfe60c01b610268565b60008054906101000a900473ffffffffffffffffffffffffffffffffffffffff1673ffffffffffffffffffffffffffffffffffffffff16635c7e8f436040518163ffffffff1660e01b8152600401602060405180830381865afa15801561021b573d6000803e3d6000fd5b505050506040513d601f19601f8201168201806040525081019061023f919061036a565b905090565b60008054906101000a900473ffffffffffffffffffffffffffffffffffffffff1681565b50565b6000819050919050565b61027e8161026b565b82525050565b60006020820190506102996000830184610275565b92915050565b600073ffffffffffffffffffffffffffffffffffffffff82169050919050565b6000819050919050565b60006102e46102df6102da8461029f565b6102bf565b61029f565b9050919050565b60006102f6826102c9565b9050919050565b6000610308826102eb565b9050919050565b610318816102fd565b82525050565b6000602082019050610333600083018461030f565b92915050565b600080fd5b6103478161026b565b811461035257600080fd5b50565b6000815190506103648161033e565b92915050565b6000602082840312156103805761037f610339565b5b600061038e84828501610355565b9150509291505056fea164736f6c634300081b000a608060405234801561001057600080fd5b506040516101f43803806101f4833981810160405281019061003291906100f2565b8161004d6723ec2d952b8cdf0760c01b6100b160201b60201c565b610067675c3f3904dc4f32ec60c01b6100b160201b60201c565b806000819055505061008967e03706c123ca263e60c01b6100b460201b60201c565b6100a367bb36fb6d977d789560c01b6100b460201b60201c565b806001819055505050610132565b50565b50565b600080fd5b6000819050919050565b6100cf816100bc565b81146100da57600080fd5b50565b6000815190506100ec816100c6565b92915050565b60008060408385031215610109576101086100b7565b5b6000610117858286016100dd565b9250506020610128858286016100dd565b9150509250929050565b60b4806101406000396000f3fe6080604052348015600f57600080fd5b506004361060325760003560e01c80635c7e8f431460375780638ff682ab146051575b600080fd5b603d606b565b60405160489190608e565b60405180910390f35b60576071565b60405160629190608e565b60405180910390f35b60015481565b60005481565b6000819050919050565b6088816077565b82525050565b600060208201905060a160008301846081565b9291505056fea164736f6c634300081b000a",
  "linkReferences": {},
  "deployedLinkReferences": {}
}