{
  "_format": "hh-sol-artifact-1",
  "contractName": "Parent",
  "sourceName": "contracts/inheritenceExample.sol",
  "abi": [
    {
      "inputs": [
        {
          "internalType": "uint256",
          "name": "_parentVar",
          "type": "uint256"
        }
      ],
      "stateMutability": "nonpayable",
      "type": "constructor"
    },
    {
      "inputs": [],
      "name": "parentVar",
      "outputs": [
        {
          "internalType": "uint256",
          "name": "",
          "type": "uint256"
        }
      ],
      "stateMutability": "view",
      "type": "function"
    }
  ],
  "bytecode": "0x6080604052348015600f57600080fd5b506040516101643803806101648339818101604052810190602f919060a4565b60476723ec2d952b8cdf0760c01b606b60201b60201c565b605f675c3f3904dc4f32ec60c01b606b60201b60201c565b806000819055505060cc565b50565b600080fd5b6000819050919050565b6084816073565b8114608e57600080fd5b50565b600081519050609e81607d565b92915050565b60006020828403121560b75760b6606e565b5b600060c3848285016091565b91505092915050565b608a806100da6000396000f3fe6080604052348015600f57600080fd5b506004361060285760003560e01c80638ff682ab14602d575b600080fd5b60336047565b604051603e91906064565b60405180910390f35b60005481565b6000819050919050565b605e81604d565b82525050565b6000602082019050607760008301846057565b9291505056fea164736f6c634300081b000a",
  "linkReferences": {},
  "deployedLinkReferences": {}
}