{"contracts/MutationOperatorsExample.sol":{"MutationOperatorsExample":{"abi":[{"inputs":[],"stateMutability":"nonpayable","type":"constructor"},{"inputs":[{"internalType":"uint256","name":"_value","type":"uint256"}],"name":"addValue","outputs":[],"stateMutability":"nonpayable","type":"function"},{"inputs":[],"name":"constantValue","outputs":[{"internalType":"uint256","name":"","type":"uint256"}],"stateMutability":"view","type":"function"},{"inputs":[],"name":"currentStatus","outputs":[{"internalType":"enum MutationOperatorsExample.Status","name":"","type":"uint8"}],"stateMutability":"view","type":"function"},{"inputs":[],"name":"data","outputs":[{"internalType":"uint256","name":"","type":"uint256"}],"stateMutability":"view","type":"function"},{"inputs":[{"internalType":"uint256","name":"index","type":"uint256"}],"name":"deleteValue","outputs":[],"stateMutability":"nonpayable","type":"function"},{"inputs":[{"internalType":"uint256","name":"index","type":"uint256"}],"name":"getValue","outputs":[{"internalType":"uint256","name":"","type":"uint256"}],"stateMutability":"view","type":"function"},{"inputs":[],"name":"owner","outputs":[{"internalType":"address","name":"","type":"address"}],"stateMutability":"view","type":"function"},{"inputs":[],"name":"selfDestruct","outputs":[],"stateMutability":"nonpayable","type":"function"},{"inputs":[{"internalType":"uint256","name":"_data","type":"uint256"}],"name":"setData","outputs":[],"stateMutability":"nonpayable","type":"function"},{"inputs":[],"name":"toggleStatus","outputs":[],"stateMutability":"nonpayable","type":"function"},{"inputs":[{"internalType":"address payable","name":"recipient","type":"address"}],"name":"transferEther","outputs":[],"stateMutability":"payable","type":"function"},{"inputs":[{"internalType":"uint256","name":"a","type":"uint256"},{"internalType":"uint256","name":"b","type":"uint256"}],"name":"useSafeMath","outputs":[{"internalType":"uint256","name":"","type":"uint256"}],"stateMutability":"pure","type":"function"},{"inputs":[{"internalType":"uint256","name":"","type":"uint256"}],"name":"values","outputs":[{"internalType":"uint256","name":"","type":"uint256"}],"stateMutability":"view","type":"function"}],"evm":{"bytecode":{"linkReferences":{},"object":"608060405234801561001057600080fd5b5061002b67f7eb84278622cb8360c01b6100f160201b60201c565b610045678cfb26815b31498960c01b6100f160201b60201c565b336000806101000a81548173ffffffffffffffffffffffffffffffffffffffff021916908373ffffffffffffffffffffffffffffffffffffffff16021790555061009f67c4556dd19272856f60c01b6100f160201b60201c565b602a6001819055506100c1675fb85abdf1c1744960c01b6100f160201b60201c565b6000600360006101000a81548160ff021916908360018111156100e7576100e66100f4565b5b0217905550610123565b50565b7f4e487b7100000000000000000000000000000000000000000000000000000000600052602160045260246000fd5b610ee4806101326000396000f3fe6080604052600436106100c25760003560e01c806373d4a13a1161007f5780639cb8a26a116100595780639cb8a26a1461026b578063c02857bd14610282578063dc7e927014610299578063ef8a9235146102c4576100c2565b806373d4a13a146101d85780637e039931146102035780638da5cb5b14610240576100c2565b80630cf3dfd9146100c75780630ff4c916146100f05780635b4b73a91461012d5780635b9af12b146101565780635e383d211461017f5780636b55e991146101bc575b600080fd5b3480156100d357600080fd5b506100ee60048036038101906100e99190610b6c565b6102ef565b005b3480156100fc57600080fd5b5061011760048036038101906101129190610b6c565b61046a565b6040516101249190610ba8565b60405180910390f35b34801561013957600080fd5b50610154600480360381019061014f9190610b6c565b6104ce565b005b34801561016257600080fd5b5061017d60048036038101906101789190610b6c565b61062e565b005b34801561018b57600080fd5b506101a660048036038101906101a19190610b6c565b610696565b6040516101b39190610ba8565b60405180910390f35b6101d660048036038101906101d19190610c21565b6106ba565b005b3480156101e457600080fd5b506101ed6107d3565b6040516101fa9190610ba8565b60405180910390f35b34801561020f57600080fd5b5061022a60048036038101906102259190610c4e565b6107d9565b6040516102379190610ba8565b60405180910390f35b34801561024c57600080fd5b5061025561082b565b6040516102629190610caf565b60405180910390f35b34801561027757600080fd5b5061028061084f565b005b34801561028e57600080fd5b506102976109f1565b005b3480156102a557600080fd5b506102ae610b16565b6040516102bb9190610ba8565b60405180910390f35b3480156102d057600080fd5b506102d9610b1b565b6040516102e69190610d41565b60405180910390f35b61030367a252ca98dbfa1bb460c01b610b2e565b610317672f0435280835a90260c01b610b2e565b61032b67dfd34ac636689aaa60c01b610b2e565b61033f67a845a865b41ebdc860c01b610b2e565b61035367ae2c9101a3facf4660c01b610b2e565b60008054906101000a900473ffffffffffffffffffffffffffffffffffffffff1673ffffffffffffffffffffffffffffffffffffffff163373ffffffffffffffffffffffffffffffffffffffff16146103e1576040517f08c379a00000000000000000000000000000000000000000000000000000000081526004016103d890610db9565b60405180910390fd5b6103f567149ef6976a7f33ac60c01b610b2e565b61040967d178a3a66986afa560c01b610b2e565b61041d67d396c6771dc31ffa60c01b610b2e565b610431674bccfb952e1c31f060c01b610b2e565b6104456739be61b9879584ec60c01b610b2e565b6002818154811061045957610458610dd9565b5b906000526020600020016000905550565b60006104806781a2c6ea1e49e9bf60c01b610b2e565b61049467847f566c777ac3c760c01b610b2e565b6104a8679f9d0225a5c9bcff60c01b610b2e565b600282815481106104bc576104bb610dd9565b5b90600052602060002001549050919050565b6104e2676fcbeb949f22ed5b60c01b610b2e565b6104f6672f0435280835a90260c01b610b2e565b61050a67dfd34ac636689aaa60c01b610b2e565b61051e67a845a865b41ebdc860c01b610b2e565b61053267ae2c9101a3facf4660c01b610b2e565b60008054906101000a900473ffffffffffffffffffffffffffffffffffffffff1673ffffffffffffffffffffffffffffffffffffffff163373ffffffffffffffffffffffffffffffffffffffff16146105c0576040517f08c379a00000000000000000000000000000000000000000000000000000000081526004016105b790610db9565b60405180910390fd5b6105d467149ef6976a7f33ac60c01b610b2e565b6105e867d178a3a66986afa560c01b610b2e565b6105fc67669809268dd751bb60c01b610b2e565b610610677274926d984e8e7460c01b610b2e565b61062467d320eb5d4eb45be360c01b610b2e565b8060018190555050565b6106426766536d3dff80594460c01b610b2e565b61065667afdaf4c9d91042c360c01b610b2e565b61066a67e00325840419983160c01b610b2e565b600281908060018154018082558091505060019003906000526020600020016000909190919091505550565b600281815481106106a657600080fd5b906000526020600020016000915090505481565b6106ce6732c576ac8301168660c01b610b2e565b6106e2676c44737c98ff831c60c01b610b2e565b6106f66733dabca0b986839f60c01b610b2e565b61070a67767e7cd592b49f8960c01b610b2e565b6000341161074d576040517f08c379a000000000000000000000000000000000000000000000000000000000815260040161074490610e54565b60405180910390fd5b61076167cf96861293a2b39f60c01b610b2e565b61077567a9deb58f7a814cd960c01b610b2e565b61078967565122e6c34789d960c01b610b2e565b8073ffffffffffffffffffffffffffffffffffffffff166108fc349081150290604051600060405180830381858888f193505050501580156107cf573d6000803e3d6000fd5b5050565b60015481565b60006107ef67c8bce8fde3430e1360c01b610b2e565b6108036748302f0e7be1e66860c01b610b2e565b61081767144ec9b5a808ab1e60c01b610b2e565b81836108239190610ea3565b905092915050565b60008054906101000a900473ffffffffffffffffffffffffffffffffffffffff1681565b61086367f7f14ebf1d62859060c01b610b2e565b610877672f0435280835a90260c01b610b2e565b61088b67dfd34ac636689aaa60c01b610b2e565b61089f67a845a865b41ebdc860c01b610b2e565b6108b367ae2c9101a3facf4660c01b610b2e565b60008054906101000a900473ffffffffffffffffffffffffffffffffffffffff1673ffffffffffffffffffffffffffffffffffffffff163373ffffffffffffffffffffffffffffffffffffffff1614610941576040517f08c379a000000000000000000000000000000000000000000000000000000000815260040161093890610db9565b60405180910390fd5b61095567149ef6976a7f33ac60c01b610b2e565b61096967d178a3a66986afa560c01b610b2e565b61097d6733698446d5d2337760c01b610b2e565b61099066b61366d6021abe60c01b610b2e565b6109a467de2d6ee7c306fa1760c01b610b2e565b6109b867016e2433e0a4f3c460c01b610b2e565b60008054906101000a900473ffffffffffffffffffffffffffffffffffffffff1673ffffffffffffffffffffffffffffffffffffffff16ff5b610a0567d68fcaa2618f0a7260c01b610b2e565b610a1967352acd928886dee460c01b610b2e565b610a2d678e201cca7e40a89660c01b610b2e565b60006001811115610a4157610a40610cca565b5b600360009054906101000a900460ff166001811115610a6357610a62610cca565b5b03610ac057610a7c67372ec74f055c888b60c01b610b2e565b610a90672768f4c4e91e166160c01b610b2e565b6001600360006101000a81548160ff02191690836001811115610ab657610ab5610cca565b5b0217905550610b14565b610ad46767d11520e3a4b90260c01b610b2e565b610ae867788eac63a6caad7560c01b610b2e565b6000600360006101000a81548160ff02191690836001811115610b0e57610b0d610cca565b5b02179055505b565b606481565b600360009054906101000a900460ff1681565b50565b600080fd5b6000819050919050565b610b4981610b36565b8114610b5457600080fd5b50565b600081359050610b6681610b40565b92915050565b600060208284031215610b8257610b81610b31565b5b6000610b9084828501610b57565b91505092915050565b610ba281610b36565b82525050565b6000602082019050610bbd6000830184610b99565b92915050565b600073ffffffffffffffffffffffffffffffffffffffff82169050919050565b6000610bee82610bc3565b9050919050565b610bfe81610be3565b8114610c0957600080fd5b50565b600081359050610c1b81610bf5565b92915050565b600060208284031215610c3757610c36610b31565b5b6000610c4584828501610c0c565b91505092915050565b60008060408385031215610c6557610c64610b31565b5b6000610c7385828601610b57565b9250506020610c8485828601610b57565b9150509250929050565b6000610c9982610bc3565b9050919050565b610ca981610c8e565b82525050565b6000602082019050610cc46000830184610ca0565b92915050565b7f4e487b7100000000000000000000000000000000000000000000000000000000600052602160045260246000fd5b60028110610d0a57610d09610cca565b5b50565b6000819050610d1b82610cf9565b919050565b6000610d2b82610d0d565b9050919050565b610d3b81610d20565b82525050565b6000602082019050610d566000830184610d32565b92915050565b600082825260208201905092915050565b7f4e6f7420746865206f776e657200000000000000000000000000000000000000600082015250565b6000610da3600d83610d5c565b9150610dae82610d6d565b602082019050919050565b60006020820190508181036000830152610dd281610d96565b9050919050565b7f4e487b7100000000000000000000000000000000000000000000000000000000600052603260045260246000fd5b7f4e6f2065746865722073656e7400000000000000000000000000000000000000600082015250565b6000610e3e600d83610d5c565b9150610e4982610e08565b602082019050919050565b60006020820190508181036000830152610e6d81610e31565b9050919050565b7f4e487b7100000000000000000000000000000000000000000000000000000000600052601160045260246000fd5b6000610eae82610b36565b9150610eb983610b36565b9250828201905080821115610ed157610ed0610e74565b5b9291505056fea164736f6c634300081b000a","opcodes":"PUSH1 0x80 PUSH1 0x40 MSTORE CALLVALUE DUP1 ISZERO PUSH2 0x10 JUMPI PUSH1 0x0 DUP1 REVERT JUMPDEST POP PUSH2 0x2B PUSH8 0xF7EB84278622CB83 PUSH1 0xC0 SHL PUSH2 0xF1 PUSH1 0x20 SHL PUSH1 0x20 SHR JUMP JUMPDEST PUSH2 0x45 PUSH8 0x8CFB26815B314989 PUSH1 0xC0 SHL PUSH2 0xF1 PUSH1 0x20 SHL PUSH1 0x20 SHR JUMP JUMPDEST CALLER PUSH1 0x0 DUP1 PUSH2 0x100 EXP DUP2 SLOAD DUP2 PUSH20 0xFFFFFFFFFFFFFFFFFFFFFFFFFFFFFFFFFFFFFFFF MUL NOT AND SWAP1 DUP4 PUSH20 0xFFFFFFFFFFFFFFFFFFFFFFFFFFFFFFFFFFFFFFFF AND MUL OR SWAP1 SSTORE POP PUSH2 0x9F PUSH8 0xC4556DD19272856F PUSH1 0xC0 SHL PUSH2 0xF1 PUSH1 0x20 SHL PUSH1 0x20 SHR JUMP JUMPDEST PUSH1 0x2A PUSH1 0x1 DUP2 SWAP1 SSTORE POP PUSH2 0xC1 PUSH8 0x5FB85ABDF1C17449 PUSH1 0xC0 SHL PUSH2 0xF1 PUSH1 0x20 SHL PUSH1 0x20 SHR JUMP JUMPDEST PUSH1 0x0 PUSH1 0x3 PUSH1 0x0 PUSH2 0x100 EXP DUP2 SLOAD DUP2 PUSH1 0xFF MUL NOT AND SWAP1 DUP4 PUSH1 0x1 DUP2 GT ISZERO PUSH2 0xE7 JUMPI PUSH2 0xE6 PUSH2 0xF4 JUMP JUMPDEST JUMPDEST MUL OR SWAP1 SSTORE POP PUSH2 0x123 JUMP JUMPDEST POP JUMP JUMPDEST PUSH32 0x4E487B7100000000000000000000000000000000000000000000000000000000 PUSH1 0x0 MSTORE PUSH1 0x21 PUSH1 0x4 MSTORE PUSH1 0x24 PUSH1 0x0 REVERT JUMPDEST PUSH2 0xEE4 DUP1 PUSH2 0x132 PUSH1 0x0 CODECOPY PUSH1 0x0 RETURN INVALID PUSH1 0x80 PUSH1 0x40 MSTORE PUSH1 0x4 CALLDATASIZE LT PUSH2 0xC2 JUMPI PUSH1 0x0 CALLDATALOAD PUSH1 0xE0 SHR DUP1 PUSH4 0x73D4A13A GT PUSH2 0x7F JUMPI DUP1 PUSH4 0x9CB8A26A GT PUSH2 0x59 JUMPI DUP1 PUSH4 0x9CB8A26A EQ PUSH2 0x26B JUMPI DUP1 PUSH4 0xC02857BD EQ PUSH2 0x282 JUMPI DUP1 PUSH4 0xDC7E9270 EQ PUSH2 0x299 JUMPI DUP1 PUSH4 0xEF8A9235 EQ PUSH2 0x2C4 JUMPI PUSH2 0xC2 JUMP JUMPDEST DUP1 PUSH4 0x73D4A13A EQ PUSH2 0x1D8 JUMPI DUP1 PUSH4 0x7E039931 EQ PUSH2 0x203 JUMPI DUP1 PUSH4 0x8DA5CB5B EQ PUSH2 0x240 JUMPI PUSH2 0xC2 JUMP JUMPDEST DUP1 PUSH4 0xCF3DFD9 EQ PUSH2 0xC7 JUMPI DUP1 PUSH4 0xFF4C916 EQ PUSH2 0xF0 JUMPI DUP1 PUSH4 0x5B4B73A9 EQ PUSH2 0x12D JUMPI DUP1 PUSH4 0x5B9AF12B EQ PUSH2 0x156 JUMPI DUP1 PUSH4 0x5E383D21 EQ PUSH2 0x17F JUMPI DUP1 PUSH4 0x6B55E991 EQ PUSH2 0x1BC JUMPI JUMPDEST PUSH1 0x0 DUP1 REVERT JUMPDEST CALLVALUE DUP1 ISZERO PUSH2 0xD3 JUMPI PUSH1 0x0 DUP1 REVERT JUMPDEST POP PUSH2 0xEE PUSH1 0x4 DUP1 CALLDATASIZE SUB DUP2 ADD SWAP1 PUSH2 0xE9 SWAP2 SWAP1 PUSH2 0xB6C JUMP JUMPDEST PUSH2 0x2EF JUMP JUMPDEST STOP JUMPDEST CALLVALUE DUP1 ISZERO PUSH2 0xFC JUMPI PUSH1 0x0 DUP1 REVERT JUMPDEST POP PUSH2 0x117 PUSH1 0x4 DUP1 CALLDATASIZE SUB DUP2 ADD SWAP1 PUSH2 0x112 SWAP2 SWAP1 PUSH2 0xB6C JUMP JUMPDEST PUSH2 0x46A JUMP JUMPDEST PUSH1 0x40 MLOAD PUSH2 0x124 SWAP2 SWAP1 PUSH2 0xBA8 JUMP JUMPDEST PUSH1 0x40 MLOAD DUP1 SWAP2 SUB SWAP1 RETURN JUMPDEST CALLVALUE DUP1 ISZERO PUSH2 0x139 JUMPI PUSH1 0x0 DUP1 REVERT JUMPDEST POP PUSH2 0x154 PUSH1 0x4 DUP1 CALLDATASIZE SUB DUP2 ADD SWAP1 PUSH2 0x14F SWAP2 SWAP1 PUSH2 0xB6C JUMP JUMPDEST PUSH2 0x4CE JUMP JUMPDEST STOP JUMPDEST CALLVALUE DUP1 ISZERO PUSH2 0x162 JUMPI PUSH1 0x0 DUP1 REVERT JUMPDEST POP PUSH2 0x17D PUSH1 0x4 DUP1 CALLDATASIZE SUB DUP2 ADD SWAP1 PUSH2 0x178 SWAP2 SWAP1 PUSH2 0xB6C JUMP JUMPDEST PUSH2 0x62E JUMP JUMPDEST STOP JUMPDEST CALLVALUE DUP1 ISZERO PUSH2 0x18B JUMPI PUSH1 0x0 DUP1 REVERT JUMPDEST POP PUSH2 0x1A6 PUSH1 0x4 DUP1 CALLDATASIZE SUB DUP2 ADD SWAP1 PUSH2 0x1A1 SWAP2 SWAP1 PUSH2 0xB6C JUMP JUMPDEST PUSH2 0x696 JUMP JUMPDEST PUSH1 0x40 MLOAD PUSH2 0x1B3 SWAP2 SWAP1 PUSH2 0xBA8 JUMP JUMPDEST PUSH1 0x40 MLOAD DUP1 SWAP2 SUB SWAP1 RETURN JUMPDEST PUSH2 0x1D6 PUSH1 0x4 DUP1 CALLDATASIZE SUB DUP2 ADD SWAP1 PUSH2 0x1D1 SWAP2 SWAP1 PUSH2 0xC21 JUMP JUMPDEST PUSH2 0x6BA JUMP JUMPDEST STOP JUMPDEST CALLVALUE DUP1 ISZERO PUSH2 0x1E4 JUMPI PUSH1 0x0 DUP1 REVERT JUMPDEST POP PUSH2 0x1ED PUSH2 0x7D3 JUMP JUMPDEST PUSH1 0x40 MLOAD PUSH2 0x1FA SWAP2 SWAP1 PUSH2 0xBA8 JUMP JUMPDEST PUSH1 0x40 MLOAD DUP1 SWAP2 SUB SWAP1 RETURN JUMPDEST CALLVALUE DUP1 ISZERO PUSH2 0x20F JUMPI PUSH1 0x0 DUP1 REVERT JUMPDEST POP PUSH2 0x22A PUSH1 0x4 DUP1 CALLDATASIZE SUB DUP2 ADD SWAP1 PUSH2 0x225 SWAP2 SWAP1 PUSH2 0xC4E JUMP JUMPDEST PUSH2 0x7D9 JUMP JUMPDEST PUSH1 0x40 MLOAD PUSH2 0x237 SWAP2 SWAP1 PUSH2 0xBA8 JUMP JUMPDEST PUSH1 0x40 MLOAD DUP1 SWAP2 SUB SWAP1 RETURN JUMPDEST CALLVALUE DUP1 ISZERO PUSH2 0x24C JUMPI PUSH1 0x0 DUP1 REVERT JUMPDEST POP PUSH2 0x255 PUSH2 0x82B JUMP JUMPDEST PUSH1 0x40 MLOAD PUSH2 0x262 SWAP2 SWAP1 PUSH2 0xCAF JUMP JUMPDEST PUSH1 0x40 MLOAD DUP1 SWAP2 SUB SWAP1 RETURN JUMPDEST CALLVALUE DUP1 ISZERO PUSH2 0x277 JUMPI PUSH1 0x0 DUP1 REVERT JUMPDEST POP PUSH2 0x280 PUSH2 0x84F JUMP JUMPDEST STOP JUMPDEST CALLVALUE DUP1 ISZERO PUSH2 0x28E JUMPI PUSH1 0x0 DUP1 REVERT JUMPDEST POP PUSH2 0x297 PUSH2 0x9F1 JUMP JUMPDEST STOP JUMPDEST CALLVALUE DUP1 ISZERO PUSH2 0x2A5 JUMPI PUSH1 0x0 DUP1 REVERT JUMPDEST POP PUSH2 0x2AE PUSH2 0xB16 JUMP JUMPDEST PUSH1 0x40 MLOAD PUSH2 0x2BB SWAP2 SWAP1 PUSH2 0xBA8 JUMP JUMPDEST PUSH1 0x40 MLOAD DUP1 SWAP2 SUB SWAP1 RETURN JUMPDEST CALLVALUE DUP1 ISZERO PUSH2 0x2D0 JUMPI PUSH1 0x0 DUP1 REVERT JUMPDEST POP PUSH2 0x2D9 PUSH2 0xB1B JUMP JUMPDEST PUSH1 0x40 MLOAD PUSH2 0x2E6 SWAP2 SWAP1 PUSH2 0xD41 JUMP JUMPDEST PUSH1 0x40 MLOAD DUP1 SWAP2 SUB SWAP1 RETURN JUMPDEST PUSH2 0x303 PUSH8 0xA252CA98DBFA1BB4 PUSH1 0xC0 SHL PUSH2 0xB2E JUMP JUMPDEST PUSH2 0x317 PUSH8 0x2F0435280835A902 PUSH1 0xC0 SHL PUSH2 0xB2E JUMP JUMPDEST PUSH2 0x32B PUSH8 0xDFD34AC636689AAA PUSH1 0xC0 SHL PUSH2 0xB2E JUMP JUMPDEST PUSH2 0x33F PUSH8 0xA845A865B41EBDC8 PUSH1 0xC0 SHL PUSH2 0xB2E JUMP JUMPDEST PUSH2 0x353 PUSH8 0xAE2C9101A3FACF46 PUSH1 0xC0 SHL PUSH2 0xB2E JUMP JUMPDEST PUSH1 0x0 DUP1 SLOAD SWAP1 PUSH2 0x100 EXP SWAP1 DIV PUSH20 0xFFFFFFFFFFFFFFFFFFFFFFFFFFFFFFFFFFFFFFFF AND PUSH20 0xFFFFFFFFFFFFFFFFFFFFFFFFFFFFFFFFFFFFFFFF AND CALLER PUSH20 0xFFFFFFFFFFFFFFFFFFFFFFFFFFFFFFFFFFFFFFFF AND EQ PUSH2 0x3E1 JUMPI PUSH1 0x40 MLOAD PUSH32 0x8C379A000000000000000000000000000000000000000000000000000000000 DUP2 MSTORE PUSH1 0x4 ADD PUSH2 0x3D8 SWAP1 PUSH2 0xDB9 JUMP JUMPDEST PUSH1 0x40 MLOAD DUP1 SWAP2 SUB SWAP1 REVERT JUMPDEST PUSH2 0x3F5 PUSH8 0x149EF6976A7F33AC PUSH1 0xC0 SHL PUSH2 0xB2E JUMP JUMPDEST PUSH2 0x409 PUSH8 0xD178A3A66986AFA5 PUSH1 0xC0 SHL PUSH2 0xB2E JUMP JUMPDEST PUSH2 0x41D PUSH8 0xD396C6771DC31FFA PUSH1 0xC0 SHL PUSH2 0xB2E JUMP JUMPDEST PUSH2 0x431 PUSH8 0x4BCCFB952E1C31F0 PUSH1 0xC0 SHL PUSH2 0xB2E JUMP JUMPDEST PUSH2 0x445 PUSH8 0x39BE61B9879584EC PUSH1 0xC0 SHL PUSH2 0xB2E JUMP JUMPDEST PUSH1 0x2 DUP2 DUP2 SLOAD DUP2 LT PUSH2 0x459 JUMPI PUSH2 0x458 PUSH2 0xDD9 JUMP JUMPDEST JUMPDEST SWAP1 PUSH1 0x0 MSTORE PUSH1 0x20 PUSH1 0x0 KECCAK256 ADD PUSH1 0x0 SWAP1 SSTORE POP JUMP JUMPDEST PUSH1 0x0 PUSH2 0x480 PUSH8 0x81A2C6EA1E49E9BF PUSH1 0xC0 SHL PUSH2 0xB2E JUMP JUMPDEST PUSH2 0x494 PUSH8 0x847F566C777AC3C7 PUSH1 0xC0 SHL PUSH2 0xB2E JUMP JUMPDEST PUSH2 0x4A8 PUSH8 0x9F9D0225A5C9BCFF PUSH1 0xC0 SHL PUSH2 0xB2E JUMP JUMPDEST PUSH1 0x2 DUP3 DUP2 SLOAD DUP2 LT PUSH2 0x4BC JUMPI PUSH2 0x4BB PUSH2 0xDD9 JUMP JUMPDEST JUMPDEST SWAP1 PUSH1 0x0 MSTORE PUSH1 0x20 PUSH1 0x0 KECCAK256 ADD SLOAD SWAP1 POP SWAP2 SWAP1 POP JUMP JUMPDEST PUSH2 0x4E2 PUSH8 0x6FCBEB949F22ED5B PUSH1 0xC0 SHL PUSH2 0xB2E JUMP JUMPDEST PUSH2 0x4F6 PUSH8 0x2F0435280835A902 PUSH1 0xC0 SHL PUSH2 0xB2E JUMP JUMPDEST PUSH2 0x50A PUSH8 0xDFD34AC636689AAA PUSH1 0xC0 SHL PUSH2 0xB2E JUMP JUMPDEST PUSH2 0x51E PUSH8 0xA845A865B41EBDC8 PUSH1 0xC0 SHL PUSH2 0xB2E JUMP JUMPDEST PUSH2 0x532 PUSH8 0xAE2C9101A3FACF46 PUSH1 0xC0 SHL PUSH2 0xB2E JUMP JUMPDEST PUSH1 0x0 DUP1 SLOAD SWAP1 PUSH2 0x100 EXP SWAP1 DIV PUSH20 0xFFFFFFFFFFFFFFFFFFFFFFFFFFFFFFFFFFFFFFFF AND PUSH20 0xFFFFFFFFFFFFFFFFFFFFFFFFFFFFFFFFFFFFFFFF AND CALLER PUSH20 0xFFFFFFFFFFFFFFFFFFFFFFFFFFFFFFFFFFFFFFFF AND EQ PUSH2 0x5C0 JUMPI PUSH1 0x40 MLOAD PUSH32 0x8C379A000000000000000000000000000000000000000000000000000000000 DUP2 MSTORE PUSH1 0x4 ADD PUSH2 0x5B7 SWAP1 PUSH2 0xDB9 JUMP JUMPDEST PUSH1 0x40 MLOAD DUP1 SWAP2 SUB SWAP1 REVERT JUMPDEST PUSH2 0x5D4 PUSH8 0x149EF6976A7F33AC PUSH1 0xC0 SHL PUSH2 0xB2E JUMP JUMPDEST PUSH2 0x5E8 PUSH8 0xD178A3A66986AFA5 PUSH1 0xC0 SHL PUSH2 0xB2E JUMP JUMPDEST PUSH2 0x5FC PUSH8 0x669809268DD751BB PUSH1 0xC0 SHL PUSH2 0xB2E JUMP JUMPDEST PUSH2 0x610 PUSH8 0x7274926D984E8E74 PUSH1 0xC0 SHL PUSH2 0xB2E JUMP JUMPDEST PUSH2 0x624 PUSH8 0xD320EB5D4EB45BE3 PUSH1 0xC0 SHL PUSH2 0xB2E JUMP JUMPDEST DUP1 PUSH1 0x1 DUP2 SWAP1 SSTORE POP POP JUMP JUMPDEST PUSH2 0x642 PUSH8 0x66536D3DFF805944 PUSH1 0xC0 SHL PUSH2 0xB2E JUMP JUMPDEST PUSH2 0x656 PUSH8 0xAFDAF4C9D91042C3 PUSH1 0xC0 SHL PUSH2 0xB2E JUMP JUMPDEST PUSH2 0x66A PUSH8 0xE003258404199831 PUSH1 0xC0 SHL PUSH2 0xB2E JUMP JUMPDEST PUSH1 0x2 DUP2 SWAP1 DUP1 PUSH1 0x1 DUP2 SLOAD ADD DUP1 DUP3 SSTORE DUP1 SWAP2 POP POP PUSH1 0x1 SWAP1 SUB SWAP1 PUSH1 0x0 MSTORE PUSH1 0x20 PUSH1 0x0 KECCAK256 ADD PUSH1 0x0 SWAP1 SWAP2 SWAP1 SWAP2 SWAP1 SWAP2 POP SSTORE POP JUMP JUMPDEST PUSH1 0x2 DUP2 DUP2 SLOAD DUP2 LT PUSH2 0x6A6 JUMPI PUSH1 0x0 DUP1 REVERT JUMPDEST SWAP1 PUSH1 0x0 MSTORE PUSH1 0x20 PUSH1 0x0 KECCAK256 ADD PUSH1 0x0 SWAP2 POP SWAP1 POP SLOAD DUP2 JUMP JUMPDEST PUSH2 0x6CE PUSH8 0x32C576AC83011686 PUSH1 0xC0 SHL PUSH2 0xB2E JUMP JUMPDEST PUSH2 0x6E2 PUSH8 0x6C44737C98FF831C PUSH1 0xC0 SHL PUSH2 0xB2E JUMP JUMPDEST PUSH2 0x6F6 PUSH8 0x33DABCA0B986839F PUSH1 0xC0 SHL PUSH2 0xB2E JUMP JUMPDEST PUSH2 0x70A PUSH8 0x767E7CD592B49F89 PUSH1 0xC0 SHL PUSH2 0xB2E JUMP JUMPDEST PUSH1 0x0 CALLVALUE GT PUSH2 0x74D JUMPI PUSH1 0x40 MLOAD PUSH32 0x8C379A000000000000000000000000000000000000000000000000000000000 DUP2 MSTORE PUSH1 0x4 ADD PUSH2 0x744 SWAP1 PUSH2 0xE54 JUMP JUMPDEST PUSH1 0x40 MLOAD DUP1 SWAP2 SUB SWAP1 REVERT JUMPDEST PUSH2 0x761 PUSH8 0xCF96861293A2B39F PUSH1 0xC0 SHL PUSH2 0xB2E JUMP JUMPDEST PUSH2 0x775 PUSH8 0xA9DEB58F7A814CD9 PUSH1 0xC0 SHL PUSH2 0xB2E JUMP JUMPDEST PUSH2 0x789 PUSH8 0x565122E6C34789D9 PUSH1 0xC0 SHL PUSH2 0xB2E JUMP JUMPDEST DUP1 PUSH20 0xFFFFFFFFFFFFFFFFFFFFFFFFFFFFFFFFFFFFFFFF AND PUSH2 0x8FC CALLVALUE SWAP1 DUP2 ISZERO MUL SWAP1 PUSH1 0x40 MLOAD PUSH1 0x0 PUSH1 0x40 MLOAD DUP1 DUP4 SUB DUP2 DUP6 DUP9 DUP9 CALL SWAP4 POP POP POP POP ISZERO DUP1 ISZERO PUSH2 0x7CF JUMPI RETURNDATASIZE PUSH1 0x0 DUP1 RETURNDATACOPY RETURNDATASIZE PUSH1 0x0 REVERT JUMPDEST POP POP JUMP JUMPDEST PUSH1 0x1 SLOAD DUP2 JUMP JUMPDEST PUSH1 0x0 PUSH2 0x7EF PUSH8 0xC8BCE8FDE3430E13 PUSH1 0xC0 SHL PUSH2 0xB2E JUMP JUMPDEST PUSH2 0x803 PUSH8 0x48302F0E7BE1E668 PUSH1 0xC0 SHL PUSH2 0xB2E JUMP JUMPDEST PUSH2 0x817 PUSH8 0x144EC9B5A808AB1E PUSH1 0xC0 SHL PUSH2 0xB2E JUMP JUMPDEST DUP2 DUP4 PUSH2 0x823 SWAP2 SWAP1 PUSH2 0xEA3 JUMP JUMPDEST SWAP1 POP SWAP3 SWAP2 POP POP JUMP JUMPDEST PUSH1 0x0 DUP1 SLOAD SWAP1 PUSH2 0x100 EXP SWAP1 DIV PUSH20 0xFFFFFFFFFFFFFFFFFFFFFFFFFFFFFFFFFFFFFFFF AND DUP2 JUMP JUMPDEST PUSH2 0x863 PUSH8 0xF7F14EBF1D628590 PUSH1 0xC0 SHL PUSH2 0xB2E JUMP JUMPDEST PUSH2 0x877 PUSH8 0x2F0435280835A902 PUSH1 0xC0 SHL PUSH2 0xB2E JUMP JUMPDEST PUSH2 0x88B PUSH8 0xDFD34AC636689AAA PUSH1 0xC0 SHL PUSH2 0xB2E JUMP JUMPDEST PUSH2 0x89F PUSH8 0xA845A865B41EBDC8 PUSH1 0xC0 SHL PUSH2 0xB2E JUMP JUMPDEST PUSH2 0x8B3 PUSH8 0xAE2C9101A3FACF46 PUSH1 0xC0 SHL PUSH2 0xB2E JUMP JUMPDEST PUSH1 0x0 DUP1 SLOAD SWAP1 PUSH2 0x100 EXP SWAP1 DIV PUSH20 0xFFFFFFFFFFFFFFFFFFFFFFFFFFFFFFFFFFFFFFFF AND PUSH20 0xFFFFFFFFFFFFFFFFFFFFFFFFFFFFFFFFFFFFFFFF AND CALLER PUSH20 0xFFFFFFFFFFFFFFFFFFFFFFFFFFFFFFFFFFFFFFFF AND EQ PUSH2 0x941 JUMPI PUSH1 0x40 MLOAD PUSH32 0x8C379A000000000000000000000000000000000000000000000000000000000 DUP2 MSTORE PUSH1 0x4 ADD PUSH2 0x938 SWAP1 PUSH2 0xDB9 JUMP JUMPDEST PUSH1 0x40 MLOAD DUP1 SWAP2 SUB SWAP1 REVERT JUMPDEST PUSH2 0x955 PUSH8 0x149EF6976A7F33AC PUSH1 0xC0 SHL PUSH2 0xB2E JUMP JUMPDEST PUSH2 0x969 PUSH8 0xD178A3A66986AFA5 PUSH1 0xC0 SHL PUSH2 0xB2E JUMP JUMPDEST PUSH2 0x97D PUSH8 0x33698446D5D23377 PUSH1 0xC0 SHL PUSH2 0xB2E JUMP JUMPDEST PUSH2 0x990 PUSH7 0xB61366D6021ABE PUSH1 0xC0 SHL PUSH2 0xB2E JUMP JUMPDEST PUSH2 0x9A4 PUSH8 0xDE2D6EE7C306FA17 PUSH1 0xC0 SHL PUSH2 0xB2E JUMP JUMPDEST PUSH2 0x9B8 PUSH8 0x16E2433E0A4F3C4 PUSH1 0xC0 SHL PUSH2 0xB2E JUMP JUMPDEST PUSH1 0x0 DUP1 SLOAD SWAP1 PUSH2 0x100 EXP SWAP1 DIV PUSH20 0xFFFFFFFFFFFFFFFFFFFFFFFFFFFFFFFFFFFFFFFF AND PUSH20 0xFFFFFFFFFFFFFFFFFFFFFFFFFFFFFFFFFFFFFFFF AND SELFDESTRUCT JUMPDEST PUSH2 0xA05 PUSH8 0xD68FCAA2618F0A72 PUSH1 0xC0 SHL PUSH2 0xB2E JUMP JUMPDEST PUSH2 0xA19 PUSH8 0x352ACD928886DEE4 PUSH1 0xC0 SHL PUSH2 0xB2E JUMP JUMPDEST PUSH2 0xA2D PUSH8 0x8E201CCA7E40A896 PUSH1 0xC0 SHL PUSH2 0xB2E JUMP JUMPDEST PUSH1 0x0 PUSH1 0x1 DUP2 GT ISZERO PUSH2 0xA41 JUMPI PUSH2 0xA40 PUSH2 0xCCA JUMP JUMPDEST JUMPDEST PUSH1 0x3 PUSH1 0x0 SWAP1 SLOAD SWAP1 PUSH2 0x100 EXP SWAP1 DIV PUSH1 0xFF AND PUSH1 0x1 DUP2 GT ISZERO PUSH2 0xA63 JUMPI PUSH2 0xA62 PUSH2 0xCCA JUMP JUMPDEST JUMPDEST SUB PUSH2 0xAC0 JUMPI PUSH2 0xA7C PUSH8 0x372EC74F055C888B PUSH1 0xC0 SHL PUSH2 0xB2E JUMP JUMPDEST PUSH2 0xA90 PUSH8 0x2768F4C4E91E1661 PUSH1 0xC0 SHL PUSH2 0xB2E JUMP JUMPDEST PUSH1 0x1 PUSH1 0x3 PUSH1 0x0 PUSH2 0x100 EXP DUP2 SLOAD DUP2 PUSH1 0xFF MUL NOT AND SWAP1 DUP4 PUSH1 0x1 DUP2 GT ISZERO PUSH2 0xAB6 JUMPI PUSH2 0xAB5 PUSH2 0xCCA JUMP JUMPDEST JUMPDEST MUL OR SWAP1 SSTORE POP PUSH2 0xB14 JUMP JUMPDEST PUSH2 0xAD4 PUSH8 0x67D11520E3A4B902 PUSH1 0xC0 SHL PUSH2 0xB2E JUMP JUMPDEST PUSH2 0xAE8 PUSH8 0x788EAC63A6CAAD75 PUSH1 0xC0 SHL PUSH2 0xB2E JUMP JUMPDEST PUSH1 0x0 PUSH1 0x3 PUSH1 0x0 PUSH2 0x100 EXP DUP2 SLOAD DUP2 PUSH1 0xFF MUL NOT AND SWAP1 DUP4 PUSH1 0x1 DUP2 GT ISZERO PUSH2 0xB0E JUMPI PUSH2 0xB0D PUSH2 0xCCA JUMP JUMPDEST JUMPDEST MUL OR SWAP1 SSTORE POP JUMPDEST JUMP JUMPDEST PUSH1 0x64 DUP2 JUMP JUMPDEST PUSH1 0x3 PUSH1 0x0 SWAP1 SLOAD SWAP1 PUSH2 0x100 EXP SWAP1 DIV PUSH1 0xFF AND DUP2 JUMP JUMPDEST POP JUMP JUMPDEST PUSH1 0x0 DUP1 REVERT JUMPDEST PUSH1 0x0 DUP2 SWAP1 POP SWAP2 SWAP1 POP JUMP JUMPDEST PUSH2 0xB49 DUP2 PUSH2 0xB36 JUMP JUMPDEST DUP2 EQ PUSH2 0xB54 JUMPI PUSH1 0x0 DUP1 REVERT JUMPDEST POP JUMP JUMPDEST PUSH1 0x0 DUP2 CALLDATALOAD SWAP1 POP PUSH2 0xB66 DUP2 PUSH2 0xB40 JUMP JUMPDEST SWAP3 SWAP2 POP POP JUMP JUMPDEST PUSH1 0x0 PUSH1 0x20 DUP3 DUP5 SUB SLT ISZERO PUSH2 0xB82 JUMPI PUSH2 0xB81 PUSH2 0xB31 JUMP JUMPDEST JUMPDEST PUSH1 0x0 PUSH2 0xB90 DUP5 DUP3 DUP6 ADD PUSH2 0xB57 JUMP JUMPDEST SWAP2 POP POP SWAP3 SWAP2 POP POP JUMP JUMPDEST PUSH2 0xBA2 DUP2 PUSH2 0xB36 JUMP JUMPDEST DUP3 MSTORE POP POP JUMP JUMPDEST PUSH1 0x0 PUSH1 0x20 DUP3 ADD SWAP1 POP PUSH2 0xBBD PUSH1 0x0 DUP4 ADD DUP5 PUSH2 0xB99 JUMP JUMPDEST SWAP3 SWAP2 POP POP JUMP JUMPDEST PUSH1 0x0 PUSH20 0xFFFFFFFFFFFFFFFFFFFFFFFFFFFFFFFFFFFFFFFF DUP3 AND SWAP1 POP SWAP2 SWAP1 POP JUMP JUMPDEST PUSH1 0x0 PUSH2 0xBEE DUP3 PUSH2 0xBC3 JUMP JUMPDEST SWAP1 POP SWAP2 SWAP1 POP JUMP JUMPDEST PUSH2 0xBFE DUP2 PUSH2 0xBE3 JUMP JUMPDEST DUP2 EQ PUSH2 0xC09 JUMPI PUSH1 0x0 DUP1 REVERT JUMPDEST POP JUMP JUMPDEST PUSH1 0x0 DUP2 CALLDATALOAD SWAP1 POP PUSH2 0xC1B DUP2 PUSH2 0xBF5 JUMP JUMPDEST SWAP3 SWAP2 POP POP JUMP JUMPDEST PUSH1 0x0 PUSH1 0x20 DUP3 DUP5 SUB SLT ISZERO PUSH2 0xC37 JUMPI PUSH2 0xC36 PUSH2 0xB31 JUMP JUMPDEST JUMPDEST PUSH1 0x0 PUSH2 0xC45 DUP5 DUP3 DUP6 ADD PUSH2 0xC0C JUMP JUMPDEST SWAP2 POP POP SWAP3 SWAP2 POP POP JUMP JUMPDEST PUSH1 0x0 DUP1 PUSH1 0x40 DUP4 DUP6 SUB SLT ISZERO PUSH2 0xC65 JUMPI PUSH2 0xC64 PUSH2 0xB31 JUMP JUMPDEST JUMPDEST PUSH1 0x0 PUSH2 0xC73 DUP6 DUP3 DUP7 ADD PUSH2 0xB57 JUMP JUMPDEST SWAP3 POP POP PUSH1 0x20 PUSH2 0xC84 DUP6 DUP3 DUP7 ADD PUSH2 0xB57 JUMP JUMPDEST SWAP2 POP POP SWAP3 POP SWAP3 SWAP1 POP JUMP JUMPDEST PUSH1 0x0 PUSH2 0xC99 DUP3 PUSH2 0xBC3 JUMP JUMPDEST SWAP1 POP SWAP2 SWAP1 POP JUMP JUMPDEST PUSH2 0xCA9 DUP2 PUSH2 0xC8E JUMP JUMPDEST DUP3 MSTORE POP POP JUMP JUMPDEST PUSH1 0x0 PUSH1 0x20 DUP3 ADD SWAP1 POP PUSH2 0xCC4 PUSH1 0x0 DUP4 ADD DUP5 PUSH2 0xCA0 JUMP JUMPDEST SWAP3 SWAP2 POP POP JUMP JUMPDEST PUSH32 0x4E487B7100000000000000000000000000000000000000000000000000000000 PUSH1 0x0 MSTORE PUSH1 0x21 PUSH1 0x4 MSTORE PUSH1 0x24 PUSH1 0x0 REVERT JUMPDEST PUSH1 0x2 DUP2 LT PUSH2 0xD0A JUMPI PUSH2 0xD09 PUSH2 0xCCA JUMP JUMPDEST JUMPDEST POP JUMP JUMPDEST PUSH1 0x0 DUP2 SWAP1 POP PUSH2 0xD1B DUP3 PUSH2 0xCF9 JUMP JUMPDEST SWAP2 SWAP1 POP JUMP JUMPDEST PUSH1 0x0 PUSH2 0xD2B DUP3 PUSH2 0xD0D JUMP JUMPDEST SWAP1 POP SWAP2 SWAP1 POP JUMP JUMPDEST PUSH2 0xD3B DUP2 PUSH2 0xD20 JUMP JUMPDEST DUP3 MSTORE POP POP JUMP JUMPDEST PUSH1 0x0 PUSH1 0x20 DUP3 ADD SWAP1 POP PUSH2 0xD56 PUSH1 0x0 DUP4 ADD DUP5 PUSH2 0xD32 JUMP JUMPDEST SWAP3 SWAP2 POP POP JUMP JUMPDEST PUSH1 0x0 DUP3 DUP3 MSTORE PUSH1 0x20 DUP3 ADD SWAP1 POP SWAP3 SWAP2 POP POP JUMP JUMPDEST PUSH32 0x4E6F7420746865206F776E657200000000000000000000000000000000000000 PUSH1 0x0 DUP3 ADD MSTORE POP JUMP JUMPDEST PUSH1 0x0 PUSH2 0xDA3 PUSH1 0xD DUP4 PUSH2 0xD5C JUMP JUMPDEST SWAP2 POP PUSH2 0xDAE DUP3 PUSH2 0xD6D JUMP JUMPDEST PUSH1 0x20 DUP3 ADD SWAP1 POP SWAP2 SWAP1 POP JUMP JUMPDEST PUSH1 0x0 PUSH1 0x20 DUP3 ADD SWAP1 POP DUP2 DUP2 SUB PUSH1 0x0 DUP4 ADD MSTORE PUSH2 0xDD2 DUP2 PUSH2 0xD96 JUMP JUMPDEST SWAP1 POP SWAP2 SWAP1 POP JUMP JUMPDEST PUSH32 0x4E487B7100000000000000000000000000000000000000000000000000000000 PUSH1 0x0 MSTORE PUSH1 0x32 PUSH1 0x4 MSTORE PUSH1 0x24 PUSH1 0x0 REVERT JUMPDEST PUSH32 0x4E6F2065746865722073656E7400000000000000000000000000000000000000 PUSH1 0x0 DUP3 ADD MSTORE POP JUMP JUMPDEST PUSH1 0x0 PUSH2 0xE3E PUSH1 0xD DUP4 PUSH2 0xD5C JUMP JUMPDEST SWAP2 POP PUSH2 0xE49 DUP3 PUSH2 0xE08 JUMP JUMPDEST PUSH1 0x20 DUP3 ADD SWAP1 POP SWAP2 SWAP1 POP JUMP JUMPDEST PUSH1 0x0 PUSH1 0x20 DUP3 ADD SWAP1 POP DUP2 DUP2 SUB PUSH1 0x0 DUP4 ADD MSTORE PUSH2 0xE6D DUP2 PUSH2 0xE31 JUMP JUMPDEST SWAP1 POP SWAP2 SWAP1 POP JUMP JUMPDEST PUSH32 0x4E487B7100000000000000000000000000000000000000000000000000000000 PUSH1 0x0 MSTORE PUSH1 0x11 PUSH1 0x4 MSTORE PUSH1 0x24 PUSH1 0x0 REVERT JUMPDEST PUSH1 0x0 PUSH2 0xEAE DUP3 PUSH2 0xB36 JUMP JUMPDEST SWAP2 POP PUSH2 0xEB9 DUP4 PUSH2 0xB36 JUMP JUMPDEST SWAP3 POP DUP3 DUP3 ADD SWAP1 POP DUP1 DUP3 GT ISZERO PUSH2 0xED1 JUMPI PUSH2 0xED0 PUSH2 0xE74 JUMP JUMPDEST JUMPDEST SWAP3 SWAP2 POP POP JUMP INVALID LOG1 PUSH5 0x736F6C6343 STOP ADDMOD SHL STOP EXP "},"methodIdentifiers":{"addValue(uint256)":"5b9af12b","constantValue()":"dc7e9270","currentStatus()":"ef8a9235","data()":"73d4a13a","deleteValue(uint256)":"0cf3dfd9","getValue(uint256)":"0ff4c916","owner()":"8da5cb5b","selfDestruct()":"9cb8a26a","setData(uint256)":"5b4b73a9","toggleStatus()":"c02857bd","transferEther(address)":"6b55e991","useSafeMath(uint256,uint256)":"7e039931","values(uint256)":"5e383d21"}},"storageLayout":{"storage":[{"astId":4574,"contract":"contracts/MutationOperatorsExample.sol:MutationOperatorsExample","label":"owner","offset":0,"slot":"0","type":"t_address"},{"astId":4576,"contract":"contracts/MutationOperatorsExample.sol:MutationOperatorsExample","label":"data","offset":0,"slot":"1","type":"t_uint256"},{"astId":4582,"contract":"contracts/MutationOperatorsExample.sol:MutationOperatorsExample","label":"values","offset":0,"slot":"2","type":"t_array(t_uint256)dyn_storage"},{"astId":4588,"contract":"contracts/MutationOperatorsExample.sol:MutationOperatorsExample","label":"currentStatus","offset":0,"slot":"3","type":"t_enum(Status)4585"}],"types":{"t_address":{"encoding":"inplace","label":"address","numberOfBytes":"20"},"t_array(t_uint256)dyn_storage":{"base":"t_uint256","encoding":"dynamic_array","label":"uint256[]","numberOfBytes":"32"},"t_enum(Status)4585":{"encoding":"inplace","label":"enum MutationOperatorsExample.Status","numberOfBytes":"1"},"t_uint256":{"encoding":"inplace","label":"uint256","numberOfBytes":"32"}}}}}}