{"contracts/fixedvsVariableExample.sol":{"VariableOptimization":{"abi":[{"inputs":[{"internalType":"uint256","name":"newValue","type":"uint256"}],"name":"addToDynamicArray","outputs":[],"stateMutability":"nonpayable","type":"function"},{"inputs":[{"internalType":"uint256","name":"","type":"uint256"}],"name":"dynamicArray","outputs":[{"internalType":"uint256","name":"","type":"uint256"}],"stateMutability":"view","type":"function"},{"inputs":[],"name":"dynamicString","outputs":[{"internalType":"string","name":"","type":"string"}],"stateMutability":"view","type":"function"},{"inputs":[{"internalType":"uint256","name":"","type":"uint256"}],"name":"fixedSizeArray","outputs":[{"internalType":"uint256","name":"","type":"uint256"}],"stateMutability":"view","type":"function"},{"inputs":[],"name":"fixedSizeString","outputs":[{"internalType":"bytes32","name":"","type":"bytes32"}],"stateMutability":"view","type":"function"},{"inputs":[],"name":"fixedVar","outputs":[{"internalType":"uint256","name":"","type":"uint256"}],"stateMutability":"view","type":"function"},{"inputs":[],"name":"removeFromDynamicArray","outputs":[],"stateMutability":"nonpayable","type":"function"},{"inputs":[{"internalType":"string","name":"_value","type":"string"}],"name":"setDynamicString","outputs":[],"stateMutability":"nonpayable","type":"function"},{"inputs":[],"name":"setFixedSizeString","outputs":[],"stateMutability":"nonpayable","type":"function"}],"evm":{"bytecode":{"linkReferences":{},"object":"6080604052348015600f57600080fd5b50610b0a8061001f6000396000f3fe608060405234801561001057600080fd5b50600436106100935760003560e01c806363d530711161006657806363d530711461010e5780639a9bdca714610118578063a4a2908c14610148578063bbe8058a14610166578063da5e1cfd1461018257610093565b806310cb52631461009857806312399d88146100b65780631d9e19b9146100e65780635a0aa04f146100f0575b600080fd5b6100a061019e565b6040516100ad9190610498565b60405180910390f35b6100d060048036038101906100cb91906104f3565b6101a4565b6040516100dd9190610498565b60405180910390f35b6100ee6101bf565b005b6100f8610223565b60405161010591906105b0565b60405180910390f35b6101166102b1565b005b610132600480360381019061012d91906104f3565b6103af565b60405161013f9190610498565b60405180910390f35b6101506103d3565b60405161015d91906105eb565b60405180910390f35b610180600480360381019061017b919061073b565b6103d9565b005b61019c600480360381019061019791906104f3565b610414565b005b60005481565b600181600581106101b457600080fd5b016000915090505481565b6101d3675ad88ae47ed1e60c60c01b61047c565b6101e767edc0f7ba3554d27660c01b61047c565b6101fb673c5f67a2ff1031ec60c01b61047c565b60007f2e2e2e2e2e000000000000000000000000000000000000000000000000000000905050565b60088054610230906107b3565b80601f016020809104026020016040519081016040528092919081815260200182805461025c906107b3565b80156102a95780601f1061027e576101008083540402835291602001916102a9565b820191906000526020600020905b81548152906001019060200180831161028c57829003601f168201915b505050505081565b6102c567b0f4c272688ea5a360c01b61047c565b6102d96759715778bfeca90c60c01b61047c565b6102ed6797c5acb8c9629c3760c01b61047c565b61030167c07e357c11872c1060c01b61047c565b600060068054905011610349576040517f08c379a000000000000000000000000000000000000000000000000000000000815260040161034090610830565b60405180910390fd5b61035d67a93f4f90b9bf0a9760c01b61047c565b61037167035e27f30b9e141760c01b61047c565b610385679668aa1bfc523fb760c01b61047c565b600680548061039757610396610850565b5b60019003818190600052602060002001600090559055565b600681815481106103bf57600080fd5b906000526020600020016000915090505481565b60075481565b6103ed67fd5d425565e1106660c01b61047c565b61040167593fcc8232bb801d60c01b61047c565b80600890816104109190610a2b565b5050565b61042867af63a41fb63f0e4e60c01b61047c565b61043c671756ea30fa13f92960c01b61047c565b61045067a66201f926b01ec360c01b61047c565b600681908060018154018082558091505060019003906000526020600020016000909190919091505550565b50565b6000819050919050565b6104928161047f565b82525050565b60006020820190506104ad6000830184610489565b92915050565b6000604051905090565b600080fd5b600080fd5b6104d08161047f565b81146104db57600080fd5b50565b6000813590506104ed816104c7565b92915050565b600060208284031215610509576105086104bd565b5b6000610517848285016104de565b91505092915050565b600081519050919050565b600082825260208201905092915050565b60005b8381101561055a57808201518184015260208101905061053f565b60008484015250505050565b6000601f19601f8301169050919050565b600061058282610520565b61058c818561052b565b935061059c81856020860161053c565b6105a581610566565b840191505092915050565b600060208201905081810360008301526105ca8184610577565b905092915050565b6000819050919050565b6105e5816105d2565b82525050565b600060208201905061060060008301846105dc565b92915050565b600080fd5b600080fd5b7f4e487b7100000000000000000000000000000000000000000000000000000000600052604160045260246000fd5b61064882610566565b810181811067ffffffffffffffff8211171561066757610666610610565b5b80604052505050565b600061067a6104b3565b9050610686828261063f565b919050565b600067ffffffffffffffff8211156106a6576106a5610610565b5b6106af82610566565b9050602081019050919050565b82818337600083830152505050565b60006106de6106d98461068b565b610670565b9050828152602081018484840111156106fa576106f961060b565b5b6107058482856106bc565b509392505050565b600082601f83011261072257610721610606565b5b81356107328482602086016106cb565b91505092915050565b600060208284031215610751576107506104bd565b5b600082013567ffffffffffffffff81111561076f5761076e6104c2565b5b61077b8482850161070d565b91505092915050565b7f4e487b7100000000000000000000000000000000000000000000000000000000600052602260045260246000fd5b600060028204905060018216806107cb57607f821691505b6020821081036107de576107dd610784565b5b50919050565b7f417272617920697320656d707479000000000000000000000000000000000000600082015250565b600061081a600e8361052b565b9150610825826107e4565b602082019050919050565b600060208201905081810360008301526108498161080d565b9050919050565b7f4e487b7100000000000000000000000000000000000000000000000000000000600052603160045260246000fd5b60008190508160005260206000209050919050565b60006020601f8301049050919050565b600082821b905092915050565b6000600883026108e17fffffffffffffffffffffffffffffffffffffffffffffffffffffffffffffffff826108a4565b6108eb86836108a4565b95508019841693508086168417925050509392505050565b6000819050919050565b600061092861092361091e8461047f565b610903565b61047f565b9050919050565b6000819050919050565b6109428361090d565b61095661094e8261092f565b8484546108b1565b825550505050565b600090565b61096b61095e565b610976818484610939565b505050565b5b8181101561099a5761098f600082610963565b60018101905061097c565b5050565b601f8211156109df576109b08161087f565b6109b984610894565b810160208510156109c8578190505b6109dc6109d485610894565b83018261097b565b50505b505050565b600082821c905092915050565b6000610a02600019846008026109e4565b1980831691505092915050565b6000610a1b83836109f1565b9150826002028217905092915050565b610a3482610520565b67ffffffffffffffff811115610a4d57610a4c610610565b5b610a5782546107b3565b610a6282828561099e565b600060209050601f831160018114610a955760008415610a83578287015190505b610a8d8582610a0f565b865550610af5565b601f198416610aa38661087f565b60005b82811015610acb57848901518255600182019150602085019450602081019050610aa6565b86831015610ae85784890151610ae4601f8916826109f1565b8355505b6001600288020188555050505b50505050505056fea164736f6c634300081b000a","opcodes":"PUSH1 0x80 PUSH1 0x40 MSTORE CALLVALUE DUP1 ISZERO PUSH1 0xF JUMPI PUSH1 0x0 DUP1 REVERT JUMPDEST POP PUSH2 0xB0A DUP1 PUSH2 0x1F PUSH1 0x0 CODECOPY PUSH1 0x0 RETURN INVALID PUSH1 0x80 PUSH1 0x40 MSTORE CALLVALUE DUP1 ISZERO PUSH2 0x10 JUMPI PUSH1 0x0 DUP1 REVERT JUMPDEST POP PUSH1 0x4 CALLDATASIZE LT PUSH2 0x93 JUMPI PUSH1 0x0 CALLDATALOAD PUSH1 0xE0 SHR DUP1 PUSH4 0x63D53071 GT PUSH2 0x66 JUMPI DUP1 PUSH4 0x63D53071 EQ PUSH2 0x10E JUMPI DUP1 PUSH4 0x9A9BDCA7 EQ PUSH2 0x118 JUMPI DUP1 PUSH4 0xA4A2908C EQ PUSH2 0x148 JUMPI DUP1 PUSH4 0xBBE8058A EQ PUSH2 0x166 JUMPI DUP1 PUSH4 0xDA5E1CFD EQ PUSH2 0x182 JUMPI PUSH2 0x93 JUMP JUMPDEST DUP1 PUSH4 0x10CB5263 EQ PUSH2 0x98 JUMPI DUP1 PUSH4 0x12399D88 EQ PUSH2 0xB6 JUMPI DUP1 PUSH4 0x1D9E19B9 EQ PUSH2 0xE6 JUMPI DUP1 PUSH4 0x5A0AA04F EQ PUSH2 0xF0 JUMPI JUMPDEST PUSH1 0x0 DUP1 REVERT JUMPDEST PUSH2 0xA0 PUSH2 0x19E JUMP JUMPDEST PUSH1 0x40 MLOAD PUSH2 0xAD SWAP2 SWAP1 PUSH2 0x498 JUMP JUMPDEST PUSH1 0x40 MLOAD DUP1 SWAP2 SUB SWAP1 RETURN JUMPDEST PUSH2 0xD0 PUSH1 0x4 DUP1 CALLDATASIZE SUB DUP2 ADD SWAP1 PUSH2 0xCB SWAP2 SWAP1 PUSH2 0x4F3 JUMP JUMPDEST PUSH2 0x1A4 JUMP JUMPDEST PUSH1 0x40 MLOAD PUSH2 0xDD SWAP2 SWAP1 PUSH2 0x498 JUMP JUMPDEST PUSH1 0x40 MLOAD DUP1 SWAP2 SUB SWAP1 RETURN JUMPDEST PUSH2 0xEE PUSH2 0x1BF JUMP JUMPDEST STOP JUMPDEST PUSH2 0xF8 PUSH2 0x223 JUMP JUMPDEST PUSH1 0x40 MLOAD PUSH2 0x105 SWAP2 SWAP1 PUSH2 0x5B0 JUMP JUMPDEST PUSH1 0x40 MLOAD DUP1 SWAP2 SUB SWAP1 RETURN JUMPDEST PUSH2 0x116 PUSH2 0x2B1 JUMP JUMPDEST STOP JUMPDEST PUSH2 0x132 PUSH1 0x4 DUP1 CALLDATASIZE SUB DUP2 ADD SWAP1 PUSH2 0x12D SWAP2 SWAP1 PUSH2 0x4F3 JUMP JUMPDEST PUSH2 0x3AF JUMP JUMPDEST PUSH1 0x40 MLOAD PUSH2 0x13F SWAP2 SWAP1 PUSH2 0x498 JUMP JUMPDEST PUSH1 0x40 MLOAD DUP1 SWAP2 SUB SWAP1 RETURN JUMPDEST PUSH2 0x150 PUSH2 0x3D3 JUMP JUMPDEST PUSH1 0x40 MLOAD PUSH2 0x15D SWAP2 SWAP1 PUSH2 0x5EB JUMP JUMPDEST PUSH1 0x40 MLOAD DUP1 SWAP2 SUB SWAP1 RETURN JUMPDEST PUSH2 0x180 PUSH1 0x4 DUP1 CALLDATASIZE SUB DUP2 ADD SWAP1 PUSH2 0x17B SWAP2 SWAP1 PUSH2 0x73B JUMP JUMPDEST PUSH2 0x3D9 JUMP JUMPDEST STOP JUMPDEST PUSH2 0x19C PUSH1 0x4 DUP1 CALLDATASIZE SUB DUP2 ADD SWAP1 PUSH2 0x197 SWAP2 SWAP1 PUSH2 0x4F3 JUMP JUMPDEST PUSH2 0x414 JUMP JUMPDEST STOP JUMPDEST PUSH1 0x0 SLOAD DUP2 JUMP JUMPDEST PUSH1 0x1 DUP2 PUSH1 0x5 DUP2 LT PUSH2 0x1B4 JUMPI PUSH1 0x0 DUP1 REVERT JUMPDEST ADD PUSH1 0x0 SWAP2 POP SWAP1 POP SLOAD DUP2 JUMP JUMPDEST PUSH2 0x1D3 PUSH8 0x5AD88AE47ED1E60C PUSH1 0xC0 SHL PUSH2 0x47C JUMP JUMPDEST PUSH2 0x1E7 PUSH8 0xEDC0F7BA3554D276 PUSH1 0xC0 SHL PUSH2 0x47C JUMP JUMPDEST PUSH2 0x1FB PUSH8 0x3C5F67A2FF1031EC PUSH1 0xC0 SHL PUSH2 0x47C JUMP JUMPDEST PUSH1 0x0 PUSH32 0x2E2E2E2E2E000000000000000000000000000000000000000000000000000000 SWAP1 POP POP JUMP JUMPDEST PUSH1 0x8 DUP1 SLOAD PUSH2 0x230 SWAP1 PUSH2 0x7B3 JUMP JUMPDEST DUP1 PUSH1 0x1F ADD PUSH1 0x20 DUP1 SWAP2 DIV MUL PUSH1 0x20 ADD PUSH1 0x40 MLOAD SWAP1 DUP2 ADD PUSH1 0x40 MSTORE DUP1 SWAP3 SWAP2 SWAP1 DUP2 DUP2 MSTORE PUSH1 0x20 ADD DUP3 DUP1 SLOAD PUSH2 0x25C SWAP1 PUSH2 0x7B3 JUMP JUMPDEST DUP1 ISZERO PUSH2 0x2A9 JUMPI DUP1 PUSH1 0x1F LT PUSH2 0x27E JUMPI PUSH2 0x100 DUP1 DUP4 SLOAD DIV MUL DUP4 MSTORE SWAP2 PUSH1 0x20 ADD SWAP2 PUSH2 0x2A9 JUMP JUMPDEST DUP3 ADD SWAP2 SWAP1 PUSH1 0x0 MSTORE PUSH1 0x20 PUSH1 0x0 KECCAK256 SWAP1 JUMPDEST DUP2 SLOAD DUP2 MSTORE SWAP1 PUSH1 0x1 ADD SWAP1 PUSH1 0x20 ADD DUP1 DUP4 GT PUSH2 0x28C JUMPI DUP3 SWAP1 SUB PUSH1 0x1F AND DUP3 ADD SWAP2 JUMPDEST POP POP POP POP POP DUP2 JUMP JUMPDEST PUSH2 0x2C5 PUSH8 0xB0F4C272688EA5A3 PUSH1 0xC0 SHL PUSH2 0x47C JUMP JUMPDEST PUSH2 0x2D9 PUSH8 0x59715778BFECA90C PUSH1 0xC0 SHL PUSH2 0x47C JUMP JUMPDEST PUSH2 0x2ED PUSH8 0x97C5ACB8C9629C37 PUSH1 0xC0 SHL PUSH2 0x47C JUMP JUMPDEST PUSH2 0x301 PUSH8 0xC07E357C11872C10 PUSH1 0xC0 SHL PUSH2 0x47C JUMP JUMPDEST PUSH1 0x0 PUSH1 0x6 DUP1 SLOAD SWAP1 POP GT PUSH2 0x349 JUMPI PUSH1 0x40 MLOAD PUSH32 0x8C379A000000000000000000000000000000000000000000000000000000000 DUP2 MSTORE PUSH1 0x4 ADD PUSH2 0x340 SWAP1 PUSH2 0x830 JUMP JUMPDEST PUSH1 0x40 MLOAD DUP1 SWAP2 SUB SWAP1 REVERT JUMPDEST PUSH2 0x35D PUSH8 0xA93F4F90B9BF0A97 PUSH1 0xC0 SHL PUSH2 0x47C JUMP JUMPDEST PUSH2 0x371 PUSH8 0x35E27F30B9E1417 PUSH1 0xC0 SHL PUSH2 0x47C JUMP JUMPDEST PUSH2 0x385 PUSH8 0x9668AA1BFC523FB7 PUSH1 0xC0 SHL PUSH2 0x47C JUMP JUMPDEST PUSH1 0x6 DUP1 SLOAD DUP1 PUSH2 0x397 JUMPI PUSH2 0x396 PUSH2 0x850 JUMP JUMPDEST JUMPDEST PUSH1 0x1 SWAP1 SUB DUP2 DUP2 SWAP1 PUSH1 0x0 MSTORE PUSH1 0x20 PUSH1 0x0 KECCAK256 ADD PUSH1 0x0 SWAP1 SSTORE SWAP1 SSTORE JUMP JUMPDEST PUSH1 0x6 DUP2 DUP2 SLOAD DUP2 LT PUSH2 0x3BF JUMPI PUSH1 0x0 DUP1 REVERT JUMPDEST SWAP1 PUSH1 0x0 MSTORE PUSH1 0x20 PUSH1 0x0 KECCAK256 ADD PUSH1 0x0 SWAP2 POP SWAP1 POP SLOAD DUP2 JUMP JUMPDEST PUSH1 0x7 SLOAD DUP2 JUMP JUMPDEST PUSH2 0x3ED PUSH8 0xFD5D425565E11066 PUSH1 0xC0 SHL PUSH2 0x47C JUMP JUMPDEST PUSH2 0x401 PUSH8 0x593FCC8232BB801D PUSH1 0xC0 SHL PUSH2 0x47C JUMP JUMPDEST DUP1 PUSH1 0x8 SWAP1 DUP2 PUSH2 0x410 SWAP2 SWAP1 PUSH2 0xA2B JUMP JUMPDEST POP POP JUMP JUMPDEST PUSH2 0x428 PUSH8 0xAF63A41FB63F0E4E PUSH1 0xC0 SHL PUSH2 0x47C JUMP JUMPDEST PUSH2 0x43C PUSH8 0x1756EA30FA13F929 PUSH1 0xC0 SHL PUSH2 0x47C JUMP JUMPDEST PUSH2 0x450 PUSH8 0xA66201F926B01EC3 PUSH1 0xC0 SHL PUSH2 0x47C JUMP JUMPDEST PUSH1 0x6 DUP2 SWAP1 DUP1 PUSH1 0x1 DUP2 SLOAD ADD DUP1 DUP3 SSTORE DUP1 SWAP2 POP POP PUSH1 0x1 SWAP1 SUB SWAP1 PUSH1 0x0 MSTORE PUSH1 0x20 PUSH1 0x0 KECCAK256 ADD PUSH1 0x0 SWAP1 SWAP2 SWAP1 SWAP2 SWAP1 SWAP2 POP SSTORE POP JUMP JUMPDEST POP JUMP JUMPDEST PUSH1 0x0 DUP2 SWAP1 POP SWAP2 SWAP1 POP JUMP JUMPDEST PUSH2 0x492 DUP2 PUSH2 0x47F JUMP JUMPDEST DUP3 MSTORE POP POP JUMP JUMPDEST PUSH1 0x0 PUSH1 0x20 DUP3 ADD SWAP1 POP PUSH2 0x4AD PUSH1 0x0 DUP4 ADD DUP5 PUSH2 0x489 JUMP JUMPDEST SWAP3 SWAP2 POP POP JUMP JUMPDEST PUSH1 0x0 PUSH1 0x40 MLOAD SWAP1 POP SWAP1 JUMP JUMPDEST PUSH1 0x0 DUP1 REVERT JUMPDEST PUSH1 0x0 DUP1 REVERT JUMPDEST PUSH2 0x4D0 DUP2 PUSH2 0x47F JUMP JUMPDEST DUP2 EQ PUSH2 0x4DB JUMPI PUSH1 0x0 DUP1 REVERT JUMPDEST POP JUMP JUMPDEST PUSH1 0x0 DUP2 CALLDATALOAD SWAP1 POP PUSH2 0x4ED DUP2 PUSH2 0x4C7 JUMP JUMPDEST SWAP3 SWAP2 POP POP JUMP JUMPDEST PUSH1 0x0 PUSH1 0x20 DUP3 DUP5 SUB SLT ISZERO PUSH2 0x509 JUMPI PUSH2 0x508 PUSH2 0x4BD JUMP JUMPDEST JUMPDEST PUSH1 0x0 PUSH2 0x517 DUP5 DUP3 DUP6 ADD PUSH2 0x4DE JUMP JUMPDEST SWAP2 POP POP SWAP3 SWAP2 POP POP JUMP JUMPDEST PUSH1 0x0 DUP2 MLOAD SWAP1 POP SWAP2 SWAP1 POP JUMP JUMPDEST PUSH1 0x0 DUP3 DUP3 MSTORE PUSH1 0x20 DUP3 ADD SWAP1 POP SWAP3 SWAP2 POP POP JUMP JUMPDEST PUSH1 0x0 JUMPDEST DUP4 DUP2 LT ISZERO PUSH2 0x55A JUMPI DUP1 DUP3 ADD MLOAD DUP2 DUP5 ADD MSTORE PUSH1 0x20 DUP2 ADD SWAP1 POP PUSH2 0x53F JUMP JUMPDEST PUSH1 0x0 DUP5 DUP5 ADD MSTORE POP POP POP POP JUMP JUMPDEST PUSH1 0x0 PUSH1 0x1F NOT PUSH1 0x1F DUP4 ADD AND SWAP1 POP SWAP2 SWAP1 POP JUMP JUMPDEST PUSH1 0x0 PUSH2 0x582 DUP3 PUSH2 0x520 JUMP JUMPDEST PUSH2 0x58C DUP2 DUP6 PUSH2 0x52B JUMP JUMPDEST SWAP4 POP PUSH2 0x59C DUP2 DUP6 PUSH1 0x20 DUP7 ADD PUSH2 0x53C JUMP JUMPDEST PUSH2 0x5A5 DUP2 PUSH2 0x566 JUMP JUMPDEST DUP5 ADD SWAP2 POP POP SWAP3 SWAP2 POP POP JUMP JUMPDEST PUSH1 0x0 PUSH1 0x20 DUP3 ADD SWAP1 POP DUP2 DUP2 SUB PUSH1 0x0 DUP4 ADD MSTORE PUSH2 0x5CA DUP2 DUP5 PUSH2 0x577 JUMP JUMPDEST SWAP1 POP SWAP3 SWAP2 POP POP JUMP JUMPDEST PUSH1 0x0 DUP2 SWAP1 POP SWAP2 SWAP1 POP JUMP JUMPDEST PUSH2 0x5E5 DUP2 PUSH2 0x5D2 JUMP JUMPDEST DUP3 MSTORE POP POP JUMP JUMPDEST PUSH1 0x0 PUSH1 0x20 DUP3 ADD SWAP1 POP PUSH2 0x600 PUSH1 0x0 DUP4 ADD DUP5 PUSH2 0x5DC JUMP JUMPDEST SWAP3 SWAP2 POP POP JUMP JUMPDEST PUSH1 0x0 DUP1 REVERT JUMPDEST PUSH1 0x0 DUP1 REVERT JUMPDEST PUSH32 0x4E487B7100000000000000000000000000000000000000000000000000000000 PUSH1 0x0 MSTORE PUSH1 0x41 PUSH1 0x4 MSTORE PUSH1 0x24 PUSH1 0x0 REVERT JUMPDEST PUSH2 0x648 DUP3 PUSH2 0x566 JUMP JUMPDEST DUP2 ADD DUP2 DUP2 LT PUSH8 0xFFFFFFFFFFFFFFFF DUP3 GT OR ISZERO PUSH2 0x667 JUMPI PUSH2 0x666 PUSH2 0x610 JUMP JUMPDEST JUMPDEST DUP1 PUSH1 0x40 MSTORE POP POP POP JUMP JUMPDEST PUSH1 0x0 PUSH2 0x67A PUSH2 0x4B3 JUMP JUMPDEST SWAP1 POP PUSH2 0x686 DUP3 DUP3 PUSH2 0x63F JUMP JUMPDEST SWAP2 SWAP1 POP JUMP JUMPDEST PUSH1 0x0 PUSH8 0xFFFFFFFFFFFFFFFF DUP3 GT ISZERO PUSH2 0x6A6 JUMPI PUSH2 0x6A5 PUSH2 0x610 JUMP JUMPDEST JUMPDEST PUSH2 0x6AF DUP3 PUSH2 0x566 JUMP JUMPDEST SWAP1 POP PUSH1 0x20 DUP2 ADD SWAP1 POP SWAP2 SWAP1 POP JUMP JUMPDEST DUP3 DUP2 DUP4 CALLDATACOPY PUSH1 0x0 DUP4 DUP4 ADD MSTORE POP POP POP JUMP JUMPDEST PUSH1 0x0 PUSH2 0x6DE PUSH2 0x6D9 DUP5 PUSH2 0x68B JUMP JUMPDEST PUSH2 0x670 JUMP JUMPDEST SWAP1 POP DUP3 DUP2 MSTORE PUSH1 0x20 DUP2 ADD DUP5 DUP5 DUP5 ADD GT ISZERO PUSH2 0x6FA JUMPI PUSH2 0x6F9 PUSH2 0x60B JUMP JUMPDEST JUMPDEST PUSH2 0x705 DUP5 DUP3 DUP6 PUSH2 0x6BC JUMP JUMPDEST POP SWAP4 SWAP3 POP POP POP JUMP JUMPDEST PUSH1 0x0 DUP3 PUSH1 0x1F DUP4 ADD SLT PUSH2 0x722 JUMPI PUSH2 0x721 PUSH2 0x606 JUMP JUMPDEST JUMPDEST DUP2 CALLDATALOAD PUSH2 0x732 DUP5 DUP3 PUSH1 0x20 DUP7 ADD PUSH2 0x6CB JUMP JUMPDEST SWAP2 POP POP SWAP3 SWAP2 POP POP JUMP JUMPDEST PUSH1 0x0 PUSH1 0x20 DUP3 DUP5 SUB SLT ISZERO PUSH2 0x751 JUMPI PUSH2 0x750 PUSH2 0x4BD JUMP JUMPDEST JUMPDEST PUSH1 0x0 DUP3 ADD CALLDATALOAD PUSH8 0xFFFFFFFFFFFFFFFF DUP2 GT ISZERO PUSH2 0x76F JUMPI PUSH2 0x76E PUSH2 0x4C2 JUMP JUMPDEST JUMPDEST PUSH2 0x77B DUP5 DUP3 DUP6 ADD PUSH2 0x70D JUMP JUMPDEST SWAP2 POP POP SWAP3 SWAP2 POP POP JUMP JUMPDEST PUSH32 0x4E487B7100000000000000000000000000000000000000000000000000000000 PUSH1 0x0 MSTORE PUSH1 0x22 PUSH1 0x4 MSTORE PUSH1 0x24 PUSH1 0x0 REVERT JUMPDEST PUSH1 0x0 PUSH1 0x2 DUP3 DIV SWAP1 POP PUSH1 0x1 DUP3 AND DUP1 PUSH2 0x7CB JUMPI PUSH1 0x7F DUP3 AND SWAP2 POP JUMPDEST PUSH1 0x20 DUP3 LT DUP2 SUB PUSH2 0x7DE JUMPI PUSH2 0x7DD PUSH2 0x784 JUMP JUMPDEST JUMPDEST POP SWAP2 SWAP1 POP JUMP JUMPDEST PUSH32 0x417272617920697320656D707479000000000000000000000000000000000000 PUSH1 0x0 DUP3 ADD MSTORE POP JUMP JUMPDEST PUSH1 0x0 PUSH2 0x81A PUSH1 0xE DUP4 PUSH2 0x52B JUMP JUMPDEST SWAP2 POP PUSH2 0x825 DUP3 PUSH2 0x7E4 JUMP JUMPDEST PUSH1 0x20 DUP3 ADD SWAP1 POP SWAP2 SWAP1 POP JUMP JUMPDEST PUSH1 0x0 PUSH1 0x20 DUP3 ADD SWAP1 POP DUP2 DUP2 SUB PUSH1 0x0 DUP4 ADD MSTORE PUSH2 0x849 DUP2 PUSH2 0x80D JUMP JUMPDEST SWAP1 POP SWAP2 SWAP1 POP JUMP JUMPDEST PUSH32 0x4E487B7100000000000000000000000000000000000000000000000000000000 PUSH1 0x0 MSTORE PUSH1 0x31 PUSH1 0x4 MSTORE PUSH1 0x24 PUSH1 0x0 REVERT JUMPDEST PUSH1 0x0 DUP2 SWAP1 POP DUP2 PUSH1 0x0 MSTORE PUSH1 0x20 PUSH1 0x0 KECCAK256 SWAP1 POP SWAP2 SWAP1 POP JUMP JUMPDEST PUSH1 0x0 PUSH1 0x20 PUSH1 0x1F DUP4 ADD DIV SWAP1 POP SWAP2 SWAP1 POP JUMP JUMPDEST PUSH1 0x0 DUP3 DUP3 SHL SWAP1 POP SWAP3 SWAP2 POP POP JUMP JUMPDEST PUSH1 0x0 PUSH1 0x8 DUP4 MUL PUSH2 0x8E1 PUSH32 0xFFFFFFFFFFFFFFFFFFFFFFFFFFFFFFFFFFFFFFFFFFFFFFFFFFFFFFFFFFFFFFFF DUP3 PUSH2 0x8A4 JUMP JUMPDEST PUSH2 0x8EB DUP7 DUP4 PUSH2 0x8A4 JUMP JUMPDEST SWAP6 POP DUP1 NOT DUP5 AND SWAP4 POP DUP1 DUP7 AND DUP5 OR SWAP3 POP POP POP SWAP4 SWAP3 POP POP POP JUMP JUMPDEST PUSH1 0x0 DUP2 SWAP1 POP SWAP2 SWAP1 POP JUMP JUMPDEST PUSH1 0x0 PUSH2 0x928 PUSH2 0x923 PUSH2 0x91E DUP5 PUSH2 0x47F JUMP JUMPDEST PUSH2 0x903 JUMP JUMPDEST PUSH2 0x47F JUMP JUMPDEST SWAP1 POP SWAP2 SWAP1 POP JUMP JUMPDEST PUSH1 0x0 DUP2 SWAP1 POP SWAP2 SWAP1 POP JUMP JUMPDEST PUSH2 0x942 DUP4 PUSH2 0x90D JUMP JUMPDEST PUSH2 0x956 PUSH2 0x94E DUP3 PUSH2 0x92F JUMP JUMPDEST DUP5 DUP5 SLOAD PUSH2 0x8B1 JUMP JUMPDEST DUP3 SSTORE POP POP POP POP JUMP JUMPDEST PUSH1 0x0 SWAP1 JUMP JUMPDEST PUSH2 0x96B PUSH2 0x95E JUMP JUMPDEST PUSH2 0x976 DUP2 DUP5 DUP5 PUSH2 0x939 JUMP JUMPDEST POP POP POP JUMP JUMPDEST JUMPDEST DUP2 DUP2 LT ISZERO PUSH2 0x99A JUMPI PUSH2 0x98F PUSH1 0x0 DUP3 PUSH2 0x963 JUMP JUMPDEST PUSH1 0x1 DUP2 ADD SWAP1 POP PUSH2 0x97C JUMP JUMPDEST POP POP JUMP JUMPDEST PUSH1 0x1F DUP3 GT ISZERO PUSH2 0x9DF JUMPI PUSH2 0x9B0 DUP2 PUSH2 0x87F JUMP JUMPDEST PUSH2 0x9B9 DUP5 PUSH2 0x894 JUMP JUMPDEST DUP2 ADD PUSH1 0x20 DUP6 LT ISZERO PUSH2 0x9C8 JUMPI DUP2 SWAP1 POP JUMPDEST PUSH2 0x9DC PUSH2 0x9D4 DUP6 PUSH2 0x894 JUMP JUMPDEST DUP4 ADD DUP3 PUSH2 0x97B JUMP JUMPDEST POP POP JUMPDEST POP POP POP JUMP JUMPDEST PUSH1 0x0 DUP3 DUP3 SHR SWAP1 POP SWAP3 SWAP2 POP POP JUMP JUMPDEST PUSH1 0x0 PUSH2 0xA02 PUSH1 0x0 NOT DUP5 PUSH1 0x8 MUL PUSH2 0x9E4 JUMP JUMPDEST NOT DUP1 DUP4 AND SWAP2 POP POP SWAP3 SWAP2 POP POP JUMP JUMPDEST PUSH1 0x0 PUSH2 0xA1B DUP4 DUP4 PUSH2 0x9F1 JUMP JUMPDEST SWAP2 POP DUP3 PUSH1 0x2 MUL DUP3 OR SWAP1 POP SWAP3 SWAP2 POP POP JUMP JUMPDEST PUSH2 0xA34 DUP3 PUSH2 0x520 JUMP JUMPDEST PUSH8 0xFFFFFFFFFFFFFFFF DUP2 GT ISZERO PUSH2 0xA4D JUMPI PUSH2 0xA4C PUSH2 0x610 JUMP JUMPDEST JUMPDEST PUSH2 0xA57 DUP3 SLOAD PUSH2 0x7B3 JUMP JUMPDEST PUSH2 0xA62 DUP3 DUP3 DUP6 PUSH2 0x99E JUMP JUMPDEST PUSH1 0x0 PUSH1 0x20 SWAP1 POP PUSH1 0x1F DUP4 GT PUSH1 0x1 DUP2 EQ PUSH2 0xA95 JUMPI PUSH1 0x0 DUP5 ISZERO PUSH2 0xA83 JUMPI DUP3 DUP8 ADD MLOAD SWAP1 POP JUMPDEST PUSH2 0xA8D DUP6 DUP3 PUSH2 0xA0F JUMP JUMPDEST DUP7 SSTORE POP PUSH2 0xAF5 JUMP JUMPDEST PUSH1 0x1F NOT DUP5 AND PUSH2 0xAA3 DUP7 PUSH2 0x87F JUMP JUMPDEST PUSH1 0x0 JUMPDEST DUP3 DUP2 LT ISZERO PUSH2 0xACB JUMPI DUP5 DUP10 ADD MLOAD DUP3 SSTORE PUSH1 0x1 DUP3 ADD SWAP2 POP PUSH1 0x20 DUP6 ADD SWAP5 POP PUSH1 0x20 DUP2 ADD SWAP1 POP PUSH2 0xAA6 JUMP JUMPDEST DUP7 DUP4 LT ISZERO PUSH2 0xAE8 JUMPI DUP5 DUP10 ADD MLOAD PUSH2 0xAE4 PUSH1 0x1F DUP10 AND DUP3 PUSH2 0x9F1 JUMP JUMPDEST DUP4 SSTORE POP JUMPDEST PUSH1 0x1 PUSH1 0x2 DUP9 MUL ADD DUP9 SSTORE POP POP POP JUMPDEST POP POP POP POP POP POP JUMP INVALID LOG1 PUSH5 0x736F6C6343 STOP ADDMOD SHL STOP EXP "},"methodIdentifiers":{"addToDynamicArray(uint256)":"da5e1cfd","dynamicArray(uint256)":"9a9bdca7","dynamicString()":"5a0aa04f","fixedSizeArray(uint256)":"12399d88","fixedSizeString()":"a4a2908c","fixedVar()":"10cb5263","removeFromDynamicArray()":"63d53071","setDynamicString(string)":"bbe8058a","setFixedSizeString()":"1d9e19b9"}},"storageLayout":{"storage":[{"astId":5512,"contract":"contracts/fixedvsVariableExample.sol:VariableOptimization","label":"fixedVar","offset":0,"slot":"0","type":"t_uint256"},{"astId":5516,"contract":"contracts/fixedvsVariableExample.sol:VariableOptimization","label":"fixedSizeArray","offset":0,"slot":"1","type":"t_array(t_uint256)5_storage"},{"astId":5519,"contract":"contracts/fixedvsVariableExample.sol:VariableOptimization","label":"dynamicArray","offset":0,"slot":"6","type":"t_array(t_uint256)dyn_storage"},{"astId":5590,"contract":"contracts/fixedvsVariableExample.sol:VariableOptimization","label":"fixedSizeString","offset":0,"slot":"7","type":"t_bytes32"},{"astId":5592,"contract":"contracts/fixedvsVariableExample.sol:VariableOptimization","label":"dynamicString","offset":0,"slot":"8","type":"t_string_storage"}],"types":{"t_array(t_uint256)5_storage":{"base":"t_uint256","encoding":"inplace","label":"uint256[5]","numberOfBytes":"160"},"t_array(t_uint256)dyn_storage":{"base":"t_uint256","encoding":"dynamic_array","label":"uint256[]","numberOfBytes":"32"},"t_bytes32":{"encoding":"inplace","label":"bytes32","numberOfBytes":"32"},"t_string_storage":{"encoding":"bytes","label":"string","numberOfBytes":"32"},"t_uint256":{"encoding":"inplace","label":"uint256","numberOfBytes":"32"}}}}}}