{"contracts/FincubeDAO.sol":{"FinCubeDAO":{"abi":[{"inputs":[{"internalType":"address","name":"target","type":"address"}],"name":"AddressEmptyCode","type":"error"},{"inputs":[{"internalType":"address","name":"implementation","type":"address"}],"name":"ERC1967InvalidImplementation","type":"error"},{"inputs":[],"name":"ERC1967NonPayable","type":"error"},{"inputs":[],"name":"FailedCall","type":"error"},{"inputs":[],"name":"InvalidInitialization","type":"error"},{"inputs":[],"name":"NotInitializing","type":"error"},{"inputs":[{"internalType":"address","name":"owner","type":"address"}],"name":"OwnableInvalidOwner","type":"error"},{"inputs":[{"internalType":"address","name":"account","type":"address"}],"name":"OwnableUnauthorizedAccount","type":"error"},{"inputs":[],"name":"UUPSUnauthorizedCallContext","type":"error"},{"inputs":[{"internalType":"bytes32","name":"slot","type":"bytes32"}],"name":"UUPSUnsupportedProxiableUUID","type":"error"},{"anonymous":false,"inputs":[{"indexed":false,"internalType":"uint64","name":"version","type":"uint64"}],"name":"Initialized","type":"event"},{"anonymous":false,"inputs":[{"indexed":true,"internalType":"address","name":"member","type":"address"}],"name":"MemberApproved","type":"event"},{"anonymous":false,"inputs":[{"indexed":true,"internalType":"address","name":"_newMember","type":"address"},{"indexed":false,"internalType":"string","name":"_memberURI","type":"string"}],"name":"MemberRegistered","type":"event"},{"anonymous":false,"inputs":[{"indexed":true,"internalType":"address","name":"previousOwner","type":"address"},{"indexed":true,"internalType":"address","name":"newOwner","type":"address"}],"name":"OwnershipTransferred","type":"event"},{"anonymous":false,"inputs":[{"indexed":true,"internalType":"enum FinCubeDAO.ProposalType","name":"proposalType","type":"uint8"},{"indexed":true,"internalType":"uint256","name":"proposalId","type":"uint256"},{"indexed":false,"internalType":"bytes","name":"data","type":"bytes"}],"name":"ProposalAdded","type":"event"},{"anonymous":false,"inputs":[{"indexed":true,"internalType":"uint256","name":"proposalId","type":"uint256"}],"name":"ProposalCanceled","type":"event"},{"anonymous":false,"inputs":[{"indexed":false,"internalType":"uint256","name":"proposalId","type":"uint256"},{"indexed":false,"internalType":"address","name":"proposer","type":"address"},{"indexed":false,"internalType":"address[]","name":"targets","type":"address[]"},{"indexed":false,"internalType":"uint256[]","name":"values","type":"uint256[]"},{"indexed":false,"internalType":"string[]","name":"signatures","type":"string[]"},{"indexed":false,"internalType":"bytes[]","name":"calldatas","type":"bytes[]"},{"indexed":false,"internalType":"uint256","name":"voteStart","type":"uint256"},{"indexed":false,"internalType":"uint256","name":"voteEnd","type":"uint256"},{"indexed":false,"internalType":"string","name":"description","type":"string"}],"name":"ProposalCreated","type":"event"},{"anonymous":false,"inputs":[{"indexed":true,"internalType":"uint256","name":"proposalId","type":"uint256"}],"name":"ProposalExecuted","type":"event"},{"anonymous":false,"inputs":[{"indexed":true,"internalType":"address","name":"implementation","type":"address"}],"name":"Upgraded","type":"event"},{"anonymous":false,"inputs":[{"indexed":true,"internalType":"address","name":"voter","type":"address"},{"indexed":false,"internalType":"uint256","name":"proposalId","type":"uint256"},{"indexed":false,"internalType":"uint8","name":"support","type":"uint8"},{"indexed":false,"internalType":"uint256","name":"weight","type":"uint256"},{"indexed":false,"internalType":"string","name":"reason","type":"string"}],"name":"VoteCast","type":"event"},{"inputs":[],"name":"UPGRADE_INTERFACE_VERSION","outputs":[{"internalType":"string","name":"","type":"string"}],"stateMutability":"view","type":"function"},{"inputs":[{"internalType":"uint256","name":"proposalId","type":"uint256"}],"name":"cancelProposal","outputs":[],"stateMutability":"nonpayable","type":"function"},{"inputs":[{"internalType":"uint256","name":"proposalId","type":"uint256"},{"internalType":"bool","name":"support","type":"bool"}],"name":"castVote","outputs":[],"stateMutability":"nonpayable","type":"function"},{"inputs":[{"internalType":"address","name":"_member","type":"address"}],"name":"checkIsMemberApproved","outputs":[{"internalType":"bool","name":"","type":"bool"}],"stateMutability":"view","type":"function"},{"inputs":[],"name":"daoURI","outputs":[{"internalType":"string","name":"","type":"string"}],"stateMutability":"view","type":"function"},{"inputs":[{"internalType":"uint256","name":"proposalId","type":"uint256"}],"name":"executeProposal","outputs":[],"stateMutability":"nonpayable","type":"function"},{"inputs":[],"name":"getOngoingProposals","outputs":[{"components":[{"internalType":"bool","name":"executed","type":"bool"},{"internalType":"bool","name":"canceled","type":"bool"},{"internalType":"address","name":"proposer","type":"address"},{"internalType":"bytes","name":"data","type":"bytes"},{"internalType":"address","name":"target","type":"address"},{"internalType":"uint48","name":"voteStart","type":"uint48"},{"internalType":"uint48","name":"voteDuration","type":"uint48"},{"internalType":"uint256","name":"yesvotes","type":"uint256"},{"internalType":"uint256","name":"novotes","type":"uint256"},{"internalType":"string","name":"proposalURI","type":"string"}],"internalType":"struct FinCubeDAO.Proposal[]","name":"","type":"tuple[]"}],"stateMutability":"view","type":"function"},{"inputs":[],"name":"getOngoingProposalsCount","outputs":[{"internalType":"uint256","name":"ongoingCount","type":"uint256"}],"stateMutability":"view","type":"function"},{"inputs":[{"internalType":"uint256","name":"cursor","type":"uint256"},{"internalType":"uint256","name":"howMany","type":"uint256"}],"name":"getProposalsByPage","outputs":[{"components":[{"internalType":"bool","name":"executed","type":"bool"},{"internalType":"bool","name":"canceled","type":"bool"},{"internalType":"address","name":"proposer","type":"address"},{"internalType":"bytes","name":"data","type":"bytes"},{"internalType":"address","name":"target","type":"address"},{"internalType":"uint48","name":"voteStart","type":"uint48"},{"internalType":"uint48","name":"voteDuration","type":"uint48"},{"internalType":"uint256","name":"yesvotes","type":"uint256"},{"internalType":"uint256","name":"novotes","type":"uint256"},{"internalType":"string","name":"proposalURI","type":"string"}],"internalType":"struct FinCubeDAO.Proposal[]","name":"paginateProposals","type":"tuple[]"},{"internalType":"uint256","name":"newCursor","type":"uint256"}],"stateMutability":"view","type":"function"},{"inputs":[],"name":"getVotingDelay","outputs":[{"internalType":"uint256","name":"","type":"uint256"}],"stateMutability":"view","type":"function"},{"inputs":[],"name":"getVotingPeriod","outputs":[{"internalType":"uint256","name":"","type":"uint256"}],"stateMutability":"view","type":"function"},{"inputs":[{"internalType":"string","name":"_daoURI","type":"string"},{"internalType":"string","name":"_ownerURI","type":"string"}],"name":"initialize","outputs":[],"stateMutability":"nonpayable","type":"function"},{"inputs":[{"internalType":"address","name":"_newMember","type":"address"},{"internalType":"string","name":"description","type":"string"}],"name":"newMemberApprovalProposal","outputs":[],"stateMutability":"nonpayable","type":"function"},{"inputs":[],"name":"owner","outputs":[{"internalType":"address","name":"","type":"address"}],"stateMutability":"view","type":"function"},{"inputs":[],"name":"proposalThreshold","outputs":[{"internalType":"uint256","name":"threshold","type":"uint256"}],"stateMutability":"view","type":"function"},{"inputs":[{"internalType":"address[]","name":"targets","type":"address[]"},{"internalType":"uint256[]","name":"values","type":"uint256[]"},{"internalType":"bytes[]","name":"calldatas","type":"bytes[]"},{"internalType":"string","name":"description","type":"string"}],"name":"propose","outputs":[{"internalType":"uint256","name":"proposalId","type":"uint256"}],"stateMutability":"nonpayable","type":"function"},{"inputs":[],"name":"proxiableUUID","outputs":[{"internalType":"bytes32","name":"","type":"bytes32"}],"stateMutability":"view","type":"function"},{"inputs":[{"internalType":"address","name":"_newMember","type":"address"},{"internalType":"string","name":"_memberURI","type":"string"}],"name":"registerMember","outputs":[],"stateMutability":"nonpayable","type":"function"},{"inputs":[],"name":"renounceOwnership","outputs":[],"stateMutability":"nonpayable","type":"function"},{"inputs":[{"internalType":"uint256","name":"_votingDelay","type":"uint256"}],"name":"setVotingDelay","outputs":[],"stateMutability":"nonpayable","type":"function"},{"inputs":[{"internalType":"uint256","name":"_votingPeriod","type":"uint256"}],"name":"setVotingPeriod","outputs":[],"stateMutability":"nonpayable","type":"function"},{"inputs":[{"internalType":"address","name":"newOwner","type":"address"}],"name":"transferOwnership","outputs":[],"stateMutability":"nonpayable","type":"function"},{"inputs":[{"internalType":"address","name":"newImplementation","type":"address"},{"internalType":"bytes","name":"data","type":"bytes"}],"name":"upgradeToAndCall","outputs":[],"stateMutability":"payable","type":"function"},{"inputs":[],"name":"votingDelay","outputs":[{"internalType":"uint256","name":"","type":"uint256"}],"stateMutability":"view","type":"function"},{"inputs":[],"name":"votingPeriod","outputs":[{"internalType":"uint256","name":"","type":"uint256"}],"stateMutability":"view","type":"function"}],"evm":{"bytecode":{"linkReferences":{},"object":"60a06040523073ffffffffffffffffffffffffffffffffffffffff1660809073ffffffffffffffffffffffffffffffffffffffff16815250348015604257600080fd5b50608051616f5261006c60003960008181614675015281816146ca01526148c10152616f526000f3fe6080604052600436106101665760003560e01c80637034731b116100d1578063ad3cb1cc1161008a578063cfbc02d411610064578063cfbc02d4146104e8578063e0a8f6f514610525578063ea0217cf1461054e578063f2fde38b1461057757610166565b8063ad3cb1cc14610467578063afe666f614610492578063b58131b0146104bd57610166565b80637034731b1461036957806370b0f66014610394578063715018a6146103bd5780637d5e81e2146103d45780638da5cb5b14610411578063a2b170b01461043c57610166565b80633932abb1116101235780633932abb1146102655780633ecc6a43146102905780634cd88b76146102bb5780634f1ef286146102e457806352d1902d146103005780635643a8b81461032b57610166565b806302a251a31461016b5780630aa5adfc146101965780630d61b519146101bf5780630da85852146101e857806315373e3d1461021157806327f5884b1461023a575b600080fd5b34801561017757600080fd5b506101806105a0565b60405161018d9190614fb8565b60405180910390f35b3480156101a257600080fd5b506101bd60048036038101906101b8919061518b565b6105a6565b005b3480156101cb57600080fd5b506101e660048036038101906101e19190615213565b610868565b005b3480156101f457600080fd5b5061020f600480360381019061020a919061518b565b610f74565b005b34801561021d57600080fd5b5061023860048036038101906102339190615278565b6118a6565b005b34801561024657600080fd5b5061024f611fa5565b60405161025c9190614fb8565b60405180910390f35b34801561027157600080fd5b5061027a6121d6565b6040516102879190614fb8565b60405180910390f35b34801561029c57600080fd5b506102a56121dc565b6040516102b29190614fb8565b60405180910390f35b3480156102c757600080fd5b506102e260048036038101906102dd91906152b8565b612222565b005b6102fe60048036038101906102f991906153d1565b612586565b005b34801561030c57600080fd5b506103156125a5565b6040516103229190615446565b60405180910390f35b34801561033757600080fd5b50610352600480360381019061034d9190615461565b6125d8565b604051610360929190615766565b60405180910390f35b34801561037557600080fd5b5061037e612a8a565b60405161038b91906157e0565b60405180910390f35b3480156103a057600080fd5b506103bb60048036038101906103b69190615213565b612b18565b005b3480156103c957600080fd5b506103d2612b7a565b005b3480156103e057600080fd5b506103fb60048036038101906103f69190615a6e565b612b8e565b6040516104089190614fb8565b60405180910390f35b34801561041d57600080fd5b50610426613488565b6040516104339190615b54565b60405180910390f35b34801561044857600080fd5b506104516134c0565b60405161045e9190614fb8565b60405180910390f35b34801561047357600080fd5b5061047c613506565b60405161048991906157e0565b60405180910390f35b34801561049e57600080fd5b506104a761353f565b6040516104b49190615b6f565b60405180910390f35b3480156104c957600080fd5b506104d2613b11565b6040516104df9190614fb8565b60405180910390f35b3480156104f457600080fd5b5061050f600480360381019061050a9190615b91565b613b5b565b60405161051c9190615bcd565b60405180910390f35b34801561053157600080fd5b5061054c60048036038101906105479190615213565b613e08565b005b34801561055a57600080fd5b5061057560048036038101906105709190615213565b61429d565b005b34801561058357600080fd5b5061059e60048036038101906105999190615b91565b6142ff565b005b60045481565b6105ba67c15c3ea2945d661460c01b614385565b816105cf67e38a8cced5b8b37360c01b614385565b6105e367ade61ed2340b66b660c01b614385565b6105f7679b9125af79c97c7f60c01b614385565b61060b6765e06443517038e360c01b614385565b6000600560008373ffffffffffffffffffffffffffffffffffffffff1673ffffffffffffffffffffffffffffffffffffffff168152602001908152602001600020600101805461065a90615c17565b9050111561069d576040517f08c379a000000000000000000000000000000000000000000000000000000000815260040161069490615c94565b60405180910390fd5b6106b16725b66ce331ba218760c01b614385565b6106c5676733437ea76ed67660c01b614385565b6106d96708235f03d4573e3860c01b614385565b6106ed673ea705780f818da360c01b614385565b61070167bde52568c5b11ed060c01b614385565b61071567166f8436d6213fdd60c01b614385565b61071d614ef0565b61073167c35055cf5af5ccba60c01b614385565b82816020018190525061074e674ae4f124bec7ef5460c01b614385565b6000816000019015159081151581525050610773678c72c7a2810f86a760c01b614385565b80600560008673ffffffffffffffffffffffffffffffffffffffff1673ffffffffffffffffffffffffffffffffffffffff16815260200190815260200160002060008201518160000160006101000a81548160ff02191690831515021790555060208201518160010190816107e89190615e60565b50905050610800676a677c94502ebaf860c01b614385565b61081467ae812e2b65511ab260c01b614385565b8373ffffffffffffffffffffffffffffffffffffffff167f3b09349069a59bcde8c2609afc86c80b77c81085ac8cd8662981621f7ea3574b8460405161085a91906157e0565b60405180910390a250505050565b61087c67e337774f760e9a4060c01b614385565b6108906746e1310d104b915e60c01b614385565b6108a46724571ee16619290a60c01b614385565b60006006600083815260200190815260200160002090506108cf677ca0eff31b38e2bb60c01b614385565b6108e3674143d54f2137564f60c01b614385565b6108f767733a2835eb3cacaf60c01b614385565b8060020160149054906101000a900465ffffffffffff1665ffffffffffff1642118015610941575080600201601a9054906101000a900465ffffffffffff1665ffffffffffff1642105b15610981576040517f08c379a000000000000000000000000000000000000000000000000000000000815260040161097890615f7e565b60405180910390fd5b61099567b2740785c0d9165560c01b614385565b6109a967fabd2290e3a6a3a760c01b614385565b6109bd67a4602adc2292e54860c01b614385565b6109d167c454f4fd74dd3e4560c01b614385565b8060000160009054906101000a900460ff161580156109ff57508060000160019054906101000a900460ff16155b610a3e576040517f08c379a0000000000000000000000000000000000000000000000000000000008152600401610a3590616010565b60405180910390fd5b610a5267292d88771f86ad5160c01b614385565b610a6667d09cdd8f0381252e60c01b614385565b610a7a67c5a2e7c9f6eedca460c01b614385565b610a8e67ba38543974c696c960c01b614385565b6001610a98613b11565b610aa2919061605f565b816003015411610ae7576040517f08c379a0000000000000000000000000000000000000000000000000000000008152600401610ade90616105565b60405180910390fd5b610afb67dcde73431e72ddc960c01b614385565b610b0f67010367fff1aebf4160c01b614385565b610b236726e9d4f85919a79360c01b614385565b60006001811115610b3757610b36616125565b5b6008600084815260200190815260200160002060009054906101000a900460ff166001811115610b6a57610b69616125565b5b03610cd357610b8367826bb188ca8e1f6960c01b614385565b610b9767a0dc6a2b572237ac60c01b614385565b610bab67b5ef359aaf7df06f60c01b614385565b610c48610c43826001018054610bc090615c17565b80601f0160208091040260200160405190810160405280929190818152602001828054610bec90615c17565b8015610c395780601f10610c0e57610100808354040283529160200191610c39565b820191906000526020600020905b815481529060010190602001808311610c1c57829003601f168201915b5050505050614388565b6143be565b610c5c67c931b195fd31276d60c01b614385565b60018160000160006101000a81548160ff021916908315150217905550610c8d674527d30fb3324f6060c01b614385565b610ca16759e73e4455d5b8cd60c01b614385565b817f712ae1383f79ac853f8d882153778e0260ef8f03b504e2866e0593e04d2b291f60405160405180910390a2610f70565b610ce7672f17e21fac71bba760c01b614385565b610cfb67707f97b91e9f7e9d60c01b614385565b600180811115610d0e57610d0d616125565b5b6008600084815260200190815260200160002060009054906101000a900460ff166001811115610d4157610d40616125565b5b03610f5a57610d5a67a544a4ada40d58a860c01b614385565b610d6e67bf1f35acd62d5a6860c01b614385565b610d82677f17a20c55ed1c7d60c01b614385565b60008160020160009054906101000a900473ffffffffffffffffffffffffffffffffffffffff1673ffffffffffffffffffffffffffffffffffffffff1682600101604051610dd091906161f7565b6000604051808303816000865af19150503d8060008114610e0d576040519150601f19603f3d011682016040523d82523d6000602084013e610e12565b606091505b50509050610e2a67279dd7c23bd22dbc60c01b614385565b610e3e67d6013c9b4de69d9560c01b614385565b80610eba57610e5767e70cba83f952d8c160c01b614385565b610e6b6751194983af9b9d6660c01b614385565b610e7f672ad5f63be947735e60c01b614385565b6040517f08c379a0000000000000000000000000000000000000000000000000000000008152600401610eb19061625a565b60405180910390fd5b610ece670873a5de28ac246d60c01b614385565b610ee26745e72fb56f6f917660c01b614385565b60018260000160006101000a81548160ff021916908315150217905550610f1367b9932f1a79bacca860c01b614385565b610f2767ea5463426d80966e60c01b614385565b827f712ae1383f79ac853f8d882153778e0260ef8f03b504e2866e0593e04d2b291f60405160405180910390a250610f6f565b610f6e679a720781291b41c660c01b614385565b5b5b5050565b610f886719a3a620ce65216160c01b614385565b33610f9d67fb075bfcf845469b60c01b614385565b610fb167c1a4c3c680f3d41560c01b614385565b610fc567eefcf17106c3e89060c01b614385565b610fd967d5e35333d20037ae60c01b614385565b6000600560008373ffffffffffffffffffffffffffffffffffffffff1673ffffffffffffffffffffffffffffffffffffffff168152602001908152602001600020600101805461102890615c17565b90501161106a576040517f08c379a0000000000000000000000000000000000000000000000000000000008152600401611061906162c6565b60405180910390fd5b61107e6780539a81ada525d560c01b614385565b6110926736664c8e5f023eea60c01b614385565b6110a66707aa28d33f25a9cc60c01b614385565b6110ba6704acf237dad5fe4b60c01b614385565b60011515600560008373ffffffffffffffffffffffffffffffffffffffff1673ffffffffffffffffffffffffffffffffffffffff16815260200190815260200160002060000160009054906101000a900460ff16151514611150576040517f08c379a000000000000000000000000000000000000000000000000000000000815260040161114790616332565b60405180910390fd5b611164673772baa68b2f15bd60c01b614385565b61117867b675e2e2761b371260c01b614385565b61118c67c9054cf8420a25d260c01b614385565b6111a0677bbad3140fd32d0b60c01b614385565b826111b5674d71f1643d03a85060c01b614385565b6111c96711e6eac2c5794fd360c01b614385565b6111dd67534d33ecc88294da60c01b614385565b6111f167ca05b5fd2c99963e60c01b614385565b6000600560008373ffffffffffffffffffffffffffffffffffffffff1673ffffffffffffffffffffffffffffffffffffffff168152602001908152602001600020600101805461124090615c17565b905011611282576040517f08c379a00000000000000000000000000000000000000000000000000000000081526004016112799061639e565b60405180910390fd5b61129667c83c6c0842d2131060c01b614385565b6112aa67fd5c77762c4a174160c01b614385565b6112be673c434570d4a0ce0060c01b614385565b6112d2676c267111791ea41660c01b614385565b6112e6677aeac3391738970760c01b614385565b6112fa673420e343bb5fefdf60c01b614385565b61130e6715506c915fc09dfb60c01b614385565b611322674ea39614eae1bb3c60c01b614385565b600060035411611367576040517f08c379a000000000000000000000000000000000000000000000000000000000815260040161135e9061640a565b60405180910390fd5b61137b6723ab28b14541b06e60c01b614385565b61138f6706b4c0d526c379a860c01b614385565b6113a367269b2e11192e1a7160c01b614385565b6113b767887e28b2e78621e860c01b614385565b6113cb675aadd74f6660f07660c01b614385565b6113df6780b59aad4834524460c01b614385565b6113f367fb6fcd238ea3947560c01b614385565b611407673192852f6a14674360c01b614385565b60006004541161144c576040517f08c379a000000000000000000000000000000000000000000000000000000000815260040161144390616476565b60405180910390fd5b61146067c4eb7ec055f01cf560c01b614385565b61147467d2a9e4409e55e1d560c01b614385565b61148867b89147f2a444e4a560c01b614385565b61149c67b40e327eeb2d5d5b60c01b614385565b6114b0674038e4d92cb14e8160c01b614385565b6114c46749432da15ec245c760c01b614385565b60004290506114dd67d1a345b482c3e80960c01b614385565b6114f16753b47607dec2577860c01b614385565b60006114fb6134c0565b826115069190616496565b905061151c67f9f1d2e9d9baecc760c01b614385565b61153067ed67647b3e2d06e160c01b614385565b600061153a6121dc565b826115459190616496565b905061155b67833fd338d390120560c01b614385565b61156f6795837fe6f01dd9cb60c01b614385565b600061157a886145c8565b905061159067e018417b294fa22260c01b614385565b6040518061014001604052806000151581526020016000151581526020013373ffffffffffffffffffffffffffffffffffffffff16815260200182815260200161dead73ffffffffffffffffffffffffffffffffffffffff1681526020018465ffffffffffff1681526020018365ffffffffffff16815260200160008152602001600081526020018881525060066000600154815260200190815260200160002060008201518160000160006101000a81548160ff02191690831515021790555060208201518160000160016101000a81548160ff02191690831515021790555060408201518160000160026101000a81548173ffffffffffffffffffffffffffffffffffffffff021916908373ffffffffffffffffffffffffffffffffffffffff16021790555060608201518160010190816116cd9190616516565b5060808201518160020160006101000a81548173ffffffffffffffffffffffffffffffffffffffff021916908373ffffffffffffffffffffffffffffffffffffffff16021790555060a08201518160020160146101000a81548165ffffffffffff021916908365ffffffffffff16021790555060c082015181600201601a6101000a81548165ffffffffffff021916908365ffffffffffff16021790555060e0820151816003015561010082015181600401556101208201518160050190816117969190615e60565b509050506117ae673dc8aba21e7cac3160c01b614385565b600060086000600154815260200190815260200160002060006101000a81548160ff021916908360018111156117e7576117e6616125565b5b021790555061180067fc0ac34e68f5cad760c01b614385565b6118146766a5917ea514d4c560c01b614385565b6001546000600181111561182b5761182a616125565b5b7fa7111a86c2f98a3baf7875ce595b4575567bb709a32769f65176d6e1cbed526e8360405161185a9190616632565b60405180910390a361187667aaf4a9e37458130c60c01b614385565b61188a676bc5f2b5c0cf444c60c01b614385565b6001600081548092919060010191905055505050505050505050565b6118ba677e1619c0eb6ce64d60c01b614385565b336118cf67fb075bfcf845469b60c01b614385565b6118e367c1a4c3c680f3d41560c01b614385565b6118f767eefcf17106c3e89060c01b614385565b61190b67d5e35333d20037ae60c01b614385565b6000600560008373ffffffffffffffffffffffffffffffffffffffff1673ffffffffffffffffffffffffffffffffffffffff168152602001908152602001600020600101805461195a90615c17565b90501161199c576040517f08c379a0000000000000000000000000000000000000000000000000000000008152600401611993906162c6565b60405180910390fd5b6119b06780539a81ada525d560c01b614385565b6119c46736664c8e5f023eea60c01b614385565b6119d86707aa28d33f25a9cc60c01b614385565b6119ec6704acf237dad5fe4b60c01b614385565b60011515600560008373ffffffffffffffffffffffffffffffffffffffff1673ffffffffffffffffffffffffffffffffffffffff16815260200190815260200160002060000160009054906101000a900460ff16151514611a82576040517f08c379a0000000000000000000000000000000000000000000000000000000008152600401611a7990616332565b60405180910390fd5b611a96673772baa68b2f15bd60c01b614385565b611aaa67b675e2e2761b371260c01b614385565b611abe67ea49a137e84d6f7c60c01b614385565b611ad267c04dcbb03816064560c01b614385565b611ae667fc9807296c975d6760c01b614385565b611afa672deea7555b7c4eef60c01b614385565b6000600760008581526020019081526020016000209050611b2567d3aa3be0a03abb1360c01b614385565b611b39675ef3fc389f04083e60c01b614385565b6000600660008681526020019081526020016000209050611b6467f2b869b23efdde1e60c01b614385565b611b7867b56fb60f71208f3f60c01b614385565b611b8c670e773efa5f9695c060c01b614385565b8060020160149054906101000a900465ffffffffffff1665ffffffffffff1642118015611bd6575080600201601a9054906101000a900465ffffffffffff1665ffffffffffff1642105b611c15576040517f08c379a0000000000000000000000000000000000000000000000000000000008152600401611c0c906166c6565b60405180910390fd5b611c296776c3f6a80ae07f2d60c01b614385565b611c3d6785d69ffd0faf812f60c01b614385565b611c5167974bfe9930e9512b60c01b614385565b611c6567118515bfed4cd50760c01b614385565b8160000160003373ffffffffffffffffffffffffffffffffffffffff1673ffffffffffffffffffffffffffffffffffffffff16815260200190815260200160002060009054906101000a900460ff16158015611d0d57508160010160003373ffffffffffffffffffffffffffffffffffffffff1673ffffffffffffffffffffffffffffffffffffffff16815260200190815260200160002060009054906101000a900460ff16155b611d4c576040517f08c379a0000000000000000000000000000000000000000000000000000000008152600401611d4390616732565b60405180910390fd5b611d60676142b52c85f66bc360c01b614385565b611d7467ee8431b1ebbf9ea760c01b614385565b611d8867d61aa49c254cb6e360c01b614385565b8315611e5157611da2676a18edf98f193ec460c01b614385565b611db6672f75f55b7488ad2a60c01b614385565b611dca67cc3e86fa398cd72660c01b614385565b8060030160008154809291906001019190505550611df267e941be765a91c4c860c01b614385565b60018260000160003373ffffffffffffffffffffffffffffffffffffffff1673ffffffffffffffffffffffffffffffffffffffff16815260200190815260200160002060006101000a81548160ff021916908315150217905550611f10565b611e6567c197a856241fc9f460c01b614385565b611e79676990501246cafeb460c01b614385565b611e8d67ebcd647f74a59c6b60c01b614385565b8060040160008154809291906001019190505550611eb5672283026da3f3316860c01b614385565b60018260010160003373ffffffffffffffffffffffffffffffffffffffff1673ffffffffffffffffffffffffffffffffffffffff16815260200190815260200160002060006101000a81548160ff0219169083151502179055505b611f2467fc79af117e56cf2660c01b614385565b611f3867641e0c20a9fec60960c01b614385565b3373ffffffffffffffffffffffffffffffffffffffff167fb8e138887d0aa13bab447e82de9d5c1777041ecd21ca36ba824ff1e6c07ddda48686611f7d576000611f80565b60015b600085600501604051611f96949392919061682d565b60405180910390a25050505050565b6000611fbb67f6af478933c588ee60c01b614385565b611fcf6723fefa6ea44591fa60c01b614385565b611fe3676a82211d099f058760c01b614385565b60006001549050611ffe6722d55a9543ac743a60c01b614385565b61201267260181761069635660c01b614385565b600042905061202b674a5b11d59a6f13aa60c01b614385565b61203f6763d366e511ca6db660c01b614385565b60005b828110156121d05761205e67a45e913c0ef5e0b660c01b614385565b612072678627c323d77d1aba60c01b614385565b6006600082815260200190815260200160002060000160009054906101000a900460ff161580156120c457506006600082815260200190815260200160002060000160019054906101000a900460ff16155b80156120ff57506006600082815260200190815260200160002060020160149054906101000a900465ffffffffffff1665ffffffffffff1682115b801561213a575060066000828152602001908152602001600020600201601a9054906101000a900465ffffffffffff1665ffffffffffff1682105b156121885761215367db1bd6cb21585eaf60c01b614385565b61216767ac5a22adddc0ac4c60c01b614385565b61217b67ea51c5381f1c755160c01b614385565b838060010194505061219d565b61219c67641cd0a9f3d37d4060c01b614385565b5b6121b1678bb452acb5b3dc1d60c01b614385565b6121c567feea11b56a19c3d860c01b614385565b806001019050612042565b50505090565b60035481565b60006121f267b1c97adb8ab3defe60c01b614385565b6122066715414de5d411238b60c01b614385565b61221a67dc9ecd21f24a3b9160c01b614385565b600454905090565b612236677e102c9dca1921c960c01b614385565b600061224061462d565b905060008160000160089054906101000a900460ff1615905060008260000160009054906101000a900467ffffffffffffffff1690506000808267ffffffffffffffff1614801561228e5750825b9050600060018367ffffffffffffffff161480156122c3575060003073ffffffffffffffffffffffffffffffffffffffff163b145b9050811580156122d1575080155b15612308576040517ff92ee8a900000000000000000000000000000000000000000000000000000000815260040160405180910390fd5b60018560000160006101000a81548167ffffffffffffffff021916908367ffffffffffffffff16021790555083156123585760018560000160086101000a81548160ff0219169083151502179055505b61236c67a1f541ca7edc3f3c60c01b614385565b6123806730a6553f67756d4460c01b614385565b612394671cc91e8041fee8ee60c01b614385565b6123a867d5c2b14a305f76c260c01b614385565b6123b133614655565b6123c567a5f3238cc6b23cdf60c01b614385565b6123d9677d30ba20331466fa60c01b614385565b6123e1614669565b6123f5677843a9633a89854e60c01b614385565b612409679345c46cc695604160c01b614385565b612411614ef0565b61242567ff9d746696a0197f60c01b614385565b86816020018190525061244267f838d539afa5dc6a60c01b614385565b600181600001901515908115158152505061246767530a39ce6b4e0ece60c01b614385565b80600560003373ffffffffffffffffffffffffffffffffffffffff1673ffffffffffffffffffffffffffffffffffffffff16815260200190815260200160002060008201518160000160006101000a81548160ff02191690831515021790555060208201518160010190816124dc9190615e60565b509050506124f4678375e39705ae8cff60c01b614385565b600160008190555061251067b409037cc53fedef60c01b614385565b876002908161251f9190615e60565b5050831561257d5760008560000160086101000a81548160ff0219169083151502179055507fc7f505b2f371ae2175ee4913f4499e1f2633a7b5936321eed1cdaeb6115181d2600160405161257491906168c8565b60405180910390a15b50505050505050565b61258e614673565b61259782614759565b6125a182826147a0565b5050565b60006125af6148bf565b7f360894a13ba1a3210667c828492db98dca3e2076cc3735a920a3ca505d382bbc60001b905090565b606060006125f06722c97b7286e43daa60c01b614385565b612604671d7518cd7744bd1f60c01b614385565b8267ffffffffffffffff81111561261e5761261d615060565b5b60405190808252806020026020018201604052801561265757816020015b612644614f0c565b81526020019060019003908161263c5790505b50915061266e6736779a7d0cadb75060c01b614385565b6126826747eecb58696e6dec60c01b614385565b600083905061269b67dd20f159bbaf9d0560c01b614385565b6126af6770ed242d7868914760c01b614385565b8483516126bc919061605f565b8111156126ff576126d76785364677fd48f0b360c01b614385565b6126eb67aac42dadccec224c60c01b614385565b8483516126f8919061605f565b9050612714565b61271367c8a70738652ed87560c01b614385565b5b612728676e5f718ec60f65c260c01b614385565b61273c67a1c7d2eede2de0ff60c01b614385565b60005b81811015612a485761275b6704abd2fa7495b4dc60c01b614385565b60066000828861276b91906168e3565b8152602001908152602001600020604051806101400160405290816000820160009054906101000a900460ff161515151581526020016000820160019054906101000a900460ff161515151581526020016000820160029054906101000a900473ffffffffffffffffffffffffffffffffffffffff1673ffffffffffffffffffffffffffffffffffffffff1673ffffffffffffffffffffffffffffffffffffffff16815260200160018201805461282190615c17565b80601f016020809104026020016040519081016040528092919081815260200182805461284d90615c17565b801561289a5780601f1061286f5761010080835404028352916020019161289a565b820191906000526020600020905b81548152906001019060200180831161287d57829003601f168201915b505050505081526020016002820160009054906101000a900473ffffffffffffffffffffffffffffffffffffffff1673ffffffffffffffffffffffffffffffffffffffff1673ffffffffffffffffffffffffffffffffffffffff1681526020016002820160149054906101000a900465ffffffffffff1665ffffffffffff1665ffffffffffff16815260200160028201601a9054906101000a900465ffffffffffff1665ffffffffffff1665ffffffffffff168152602001600382015481526020016004820154815260200160058201805461297590615c17565b80601f01602080910402602001604051908101604052809291908181526020018280546129a190615c17565b80156129ee5780601f106129c3576101008083540402835291602001916129ee565b820191906000526020600020905b8154815290600101906020018083116129d157829003601f168201915b505050505081525050848281518110612a0a57612a09616917565b5b6020026020010181905250612a2967225ba18b524aa29f60c01b614385565b612a3d6718e9383b3e82392c60c01b614385565b80600101905061273f565b50612a5d67655b27c5e03836a460c01b614385565b612a71670216d2a74c95eaf760c01b614385565b828186612a7e91906168e3565b92509250509250929050565b60028054612a9790615c17565b80601f0160208091040260200160405190810160405280929190818152602001828054612ac390615c17565b8015612b105780601f10612ae557610100808354040283529160200191612b10565b820191906000526020600020905b815481529060010190602001808311612af357829003601f168201915b505050505081565b612b2c677f5dcc9acdc3a8d260c01b614385565b612b34614946565b612b48673504a8084799283b60c01b614385565b612b5c67f1a89c0bdaea3e7c60c01b614385565b612b70672664f3ede90ec97660c01b614385565b8060038190555050565b612b82614946565b612b8c60006149cd565b565b6000612ba467aba0c161043e682e60c01b614385565b33612bb967fb075bfcf845469b60c01b614385565b612bcd67c1a4c3c680f3d41560c01b614385565b612be167eefcf17106c3e89060c01b614385565b612bf567d5e35333d20037ae60c01b614385565b6000600560008373ffffffffffffffffffffffffffffffffffffffff1673ffffffffffffffffffffffffffffffffffffffff1681526020019081526020016000206001018054612c4490615c17565b905011612c86576040517f08c379a0000000000000000000000000000000000000000000000000000000008152600401612c7d906162c6565b60405180910390fd5b612c9a6780539a81ada525d560c01b614385565b612cae6736664c8e5f023eea60c01b614385565b612cc26707aa28d33f25a9cc60c01b614385565b612cd66704acf237dad5fe4b60c01b614385565b60011515600560008373ffffffffffffffffffffffffffffffffffffffff1673ffffffffffffffffffffffffffffffffffffffff16815260200190815260200160002060000160009054906101000a900460ff16151514612d6c576040517f08c379a0000000000000000000000000000000000000000000000000000000008152600401612d6390616332565b60405180910390fd5b612d80673772baa68b2f15bd60c01b614385565b612d9467b675e2e2761b371260c01b614385565b612da867a7428a2f977103bb60c01b614385565b612dbc67bbfd2aeab18b7de060c01b614385565b612dd0677aeac3391738970760c01b614385565b612de4673420e343bb5fefdf60c01b614385565b612df86715506c915fc09dfb60c01b614385565b612e0c674ea39614eae1bb3c60c01b614385565b600060035411612e51576040517f08c379a0000000000000000000000000000000000000000000000000000000008152600401612e489061640a565b60405180910390fd5b612e656723ab28b14541b06e60c01b614385565b612e796706b4c0d526c379a860c01b614385565b612e8d6760222c8e8cb9ce3260c01b614385565b612ea1676a7e651827ab204360c01b614385565b612eb5675aadd74f6660f07660c01b614385565b612ec96780b59aad4834524460c01b614385565b612edd67fb6fcd238ea3947560c01b614385565b612ef1673192852f6a14674360c01b614385565b600060045411612f36576040517f08c379a0000000000000000000000000000000000000000000000000000000008152600401612f2d90616476565b60405180910390fd5b612f4a67c4eb7ec055f01cf560c01b614385565b612f5e67d2a9e4409e55e1d560c01b614385565b612f726759d9edf90b352ef760c01b614385565b612f86679a8015ff1779b87660c01b614385565b612f9a67b67510212d4bac4360c01b614385565b612fae67bddfa0b703d3a2b060c01b614385565b6000429050612fc7674014a148d6db0a8760c01b614385565b612fdb676173686c916d186060c01b614385565b6000612fe56134c0565b82612ff09190616496565b9050613006677c2cab52ab95d4b060c01b614385565b61301a67f7e743decc4a7a6560c01b614385565b60006130246121dc565b8261302f9190616496565b905061304567617ce190d18d5b3760c01b614385565b600154945061305e6736a350152f3ec7a560c01b614385565b6040518061014001604052806000151581526020016000151581526020013373ffffffffffffffffffffffffffffffffffffffff168152602001886000815181106130ac576130ab616917565b5b602002602001015181526020018a6000815181106130cd576130cc616917565b5b602002602001015173ffffffffffffffffffffffffffffffffffffffff1681526020018365ffffffffffff1681526020018265ffffffffffff16815260200160008152602001600081526020018781525060066000600154815260200190815260200160002060008201518160000160006101000a81548160ff02191690831515021790555060208201518160000160016101000a81548160ff02191690831515021790555060408201518160000160026101000a81548173ffffffffffffffffffffffffffffffffffffffff021916908373ffffffffffffffffffffffffffffffffffffffff16021790555060608201518160010190816131cf9190616516565b5060808201518160020160006101000a81548173ffffffffffffffffffffffffffffffffffffffff021916908373ffffffffffffffffffffffffffffffffffffffff16021790555060a08201518160020160146101000a81548165ffffffffffff021916908365ffffffffffff16021790555060c082015181600201601a6101000a81548165ffffffffffff021916908365ffffffffffff16021790555060e0820151816003015561010082015181600401556101208201518160050190816132989190615e60565b509050506132b0676dda4bb4598968a660c01b614385565b600160086000600154815260200190815260200160002060006101000a81548160ff021916908360018111156132e9576132e8616125565b5b021790555061330267708ff32754fc75ef60c01b614385565b61331667c9b35d06dd3fd4a560c01b614385565b60015460018081111561332c5761332b616125565b5b7fa7111a86c2f98a3baf7875ce595b4575567bb709a32769f65176d6e1cbed526e8960008151811061336157613360616917565b5b60200260200101516040516133769190616632565b60405180910390a361339267de37aaafbf3c288660c01b614385565b6133a6679e727b9a683b60ba60c01b614385565b60606133bc67560318693fc149e060c01b614385565b6133d067f7acb9d5c12fbb1660c01b614385565b7f7d84a6263ae0d98d3329bd7b46bb4e8d6f98cd35a7adb45c274c8b7fd5ebd5e0600154338c8c858d89898f60405161341199989796959493929190616c59565b60405180910390a161342d67727e6ecf0a1cf9bd60c01b614385565b61344167ee32ad28888e491460c01b614385565b60016000815480929190600101919050555061346767858da7f750a0977a60c01b614385565b61347b670fe269288c43539f60c01b614385565b5050505050949350505050565b600080613493614aa4565b90508060000160009054906101000a900473ffffffffffffffffffffffffffffffffffffffff1691505090565b60006134d667a5ff78d86ecacf1d60c01b614385565b6134ea67878af09a2400dd5560c01b614385565b6134fe677562eaa43cd2bec660c01b614385565b600354905090565b6040518060400160405280600581526020017f352e302e3000000000000000000000000000000000000000000000000000000081525081565b606061355567faa666674903afd960c01b614385565b6135696737f50ba5de107b1460c01b614385565b61357d67b7f21cb72ee7e2b360c01b614385565b6000613587611fa5565b905061359d67a97e83cbae524dee60c01b614385565b6135b167fc127d7770a279c260c01b614385565b60008167ffffffffffffffff8111156135cd576135cc615060565b5b60405190808252806020026020018201604052801561360657816020015b6135f3614f0c565b8152602001906001900390816135eb5790505b50905061361d67367ffb75f36a6cd960c01b614385565b61363167c6b9aa17def9282b60c01b614385565b600042905061364a67bb31bb28c4c6eb9d60c01b614385565b61365e67dfaf3bfe3bbcf80f60c01b614385565b600061367467728ac1386ed7b8b360c01b614385565b61368867149e5384457c636e60c01b614385565b60005b600154811015613ade576136a967eb07c0b4685c6f3460c01b614385565b6136bd67e5d04616c3cbb44460c01b614385565b6006600082815260200190815260200160002060000160009054906101000a900460ff1615801561370f57506006600082815260200190815260200160002060000160019054906101000a900460ff16155b801561374a57506006600082815260200190815260200160002060020160149054906101000a900465ffffffffffff1665ffffffffffff1683115b8015613785575060066000828152602001908152602001600020600201601a9054906101000a900465ffffffffffff1665ffffffffffff1683105b15613a965761379e67490da009f77a692f60c01b614385565b6137b267b15a7c3093d0a11760c01b614385565b60066000828152602001908152602001600020604051806101400160405290816000820160009054906101000a900460ff161515151581526020016000820160019054906101000a900460ff161515151581526020016000820160029054906101000a900473ffffffffffffffffffffffffffffffffffffffff1673ffffffffffffffffffffffffffffffffffffffff1673ffffffffffffffffffffffffffffffffffffffff16815260200160018201805461386d90615c17565b80601f016020809104026020016040519081016040528092919081815260200182805461389990615c17565b80156138e65780601f106138bb576101008083540402835291602001916138e6565b820191906000526020600020905b8154815290600101906020018083116138c957829003601f168201915b505050505081526020016002820160009054906101000a900473ffffffffffffffffffffffffffffffffffffffff1673ffffffffffffffffffffffffffffffffffffffff1673ffffffffffffffffffffffffffffffffffffffff1681526020016002820160149054906101000a900465ffffffffffff1665ffffffffffff1665ffffffffffff16815260200160028201601a9054906101000a900465ffffffffffff1665ffffffffffff1665ffffffffffff16815260200160038201548152602001600482015481526020016005820180546139c190615c17565b80601f01602080910402602001604051908101604052809291908181526020018280546139ed90615c17565b8015613a3a5780601f10613a0f57610100808354040283529160200191613a3a565b820191906000526020600020905b815481529060010190602001808311613a1d57829003601f168201915b505050505081525050848381518110613a5657613a55616917565b5b6020026020010181905250613a75670ae85993ebbc3fbc60c01b614385565b613a896712927d69e2f53f6d60c01b614385565b8180600101925050613aab565b613aaa67881558aa43f193a360c01b614385565b5b613abf67e735d4cd6fb8f82060c01b614385565b613ad367702dfb22f70ae8a660c01b614385565b80600101905061368b565b50613af367a01098a4fecc1ff160c01b614385565b613b07674a62205ea9f7f36660c01b614385565b8294505050505090565b6000613b276792551046d814c1ad60c01b614385565b613b3b67c5ea70dcc89a61d860c01b614385565b60026001600054613b4c91906168e3565b613b569190616d38565b905090565b6000613b71672f05b324d0fd275160c01b614385565b33613b8667fb075bfcf845469b60c01b614385565b613b9a67c1a4c3c680f3d41560c01b614385565b613bae67eefcf17106c3e89060c01b614385565b613bc267d5e35333d20037ae60c01b614385565b6000600560008373ffffffffffffffffffffffffffffffffffffffff1673ffffffffffffffffffffffffffffffffffffffff1681526020019081526020016000206001018054613c1190615c17565b905011613c53576040517f08c379a0000000000000000000000000000000000000000000000000000000008152600401613c4a906162c6565b60405180910390fd5b613c676780539a81ada525d560c01b614385565b613c7b6736664c8e5f023eea60c01b614385565b613c8f6707aa28d33f25a9cc60c01b614385565b613ca36704acf237dad5fe4b60c01b614385565b60011515600560008373ffffffffffffffffffffffffffffffffffffffff1673ffffffffffffffffffffffffffffffffffffffff16815260200190815260200160002060000160009054906101000a900460ff16151514613d39576040517f08c379a0000000000000000000000000000000000000000000000000000000008152600401613d3090616332565b60405180910390fd5b613d4d673772baa68b2f15bd60c01b614385565b613d6167b675e2e2761b371260c01b614385565b613d7567ca16f2f88796343f60c01b614385565b613d8967dabcaa4ce01429a160c01b614385565b613d9c6621f710626ebd5a60c01b614385565b613db067b08e00a3124cb29960c01b614385565b600560008473ffffffffffffffffffffffffffffffffffffffff1673ffffffffffffffffffffffffffffffffffffffff16815260200190815260200160002060000160009054906101000a900460ff16915050919050565b613e1c67cc3dbf1064357e8760c01b614385565b33613e3167fb075bfcf845469b60c01b614385565b613e4567c1a4c3c680f3d41560c01b614385565b613e5967eefcf17106c3e89060c01b614385565b613e6d67d5e35333d20037ae60c01b614385565b6000600560008373ffffffffffffffffffffffffffffffffffffffff1673ffffffffffffffffffffffffffffffffffffffff1681526020019081526020016000206001018054613ebc90615c17565b905011613efe576040517f08c379a0000000000000000000000000000000000000000000000000000000008152600401613ef5906162c6565b60405180910390fd5b613f126780539a81ada525d560c01b614385565b613f266736664c8e5f023eea60c01b614385565b613f3a6707aa28d33f25a9cc60c01b614385565b613f4e6704acf237dad5fe4b60c01b614385565b60011515600560008373ffffffffffffffffffffffffffffffffffffffff1673ffffffffffffffffffffffffffffffffffffffff16815260200190815260200160002060000160009054906101000a900460ff16151514613fe4576040517f08c379a0000000000000000000000000000000000000000000000000000000008152600401613fdb90616332565b60405180910390fd5b613ff8673772baa68b2f15bd60c01b614385565b61400c67b675e2e2761b371260c01b614385565b61402067c3fc100138fd518860c01b614385565b61403467495b502f07e84bf860c01b614385565b61404867641d168fb4bf949f60c01b614385565b61405c6748be8a76aeb6092560c01b614385565b600060066000848152602001908152602001600020905061408767b6114dfd773b232b60c01b614385565b61409b6736498f5ea77126bb60c01b614385565b6140af67047dca30e30bff4860c01b614385565b3373ffffffffffffffffffffffffffffffffffffffff168160000160029054906101000a900473ffffffffffffffffffffffffffffffffffffffff1673ffffffffffffffffffffffffffffffffffffffff1614614141576040517f08c379a000000000000000000000000000000000000000000000000000000000815260040161413890616db5565b60405180910390fd5b6141556725eee0395b6f478560c01b614385565b614169676c69f1bda3480e5360c01b614385565b61417d678a80d3a601d1665e60c01b614385565b61419167b36f97ed296ea57060c01b614385565b8060000160009054906101000a900460ff161580156141bf57508060000160019054906101000a900460ff16155b6141fe576040517f08c379a00000000000000000000000000000000000000000000000000000000081526004016141f590616010565b60405180910390fd5b61421267b722acd1816a585960c01b614385565b614226678e5a009a25fc265a60c01b614385565b60018160000160016101000a81548160ff02191690831515021790555061425767bd1f13144b03c62960c01b614385565b61426b6796bb7ffcf4a24f9d60c01b614385565b827f789cf55be980739dad1d0699b93b58e806b51c9d96619bfa8fe0a28abaa7b30c60405160405180910390a2505050565b6142b167de531bd74d12c07660c01b614385565b6142b9614946565b6142cd67c48e79edd87707cb60c01b614385565b6142e1672e3518173790696960c01b614385565b6142f56723cfce99d263e51b60c01b614385565b8060048190555050565b614307614946565b600073ffffffffffffffffffffffffffffffffffffffff168173ffffffffffffffffffffffffffffffffffffffff16036143795760006040517f1e4fbdf70000000000000000000000000000000000000000000000000000000081526004016143709190615b54565b60405180910390fd5b614382816149cd565b50565b50565b600061439e674319e03f7d4298f460c01b614385565b6143b26775f7a1ab0f46e8eb60c01b614385565b60148201519050919050565b6143d267931f5bcd84662a9360c01b614385565b6143e667d34e6a8527ec198860c01b614385565b6143fa67943ec7487d8e784960c01b614385565b61440e67a1c3d8643874cb4960c01b614385565b600560008273ffffffffffffffffffffffffffffffffffffffff1673ffffffffffffffffffffffffffffffffffffffff16815260200190815260200160002060000160009054906101000a900460ff161561449e576040517f08c379a000000000000000000000000000000000000000000000000000000000815260040161449590616e21565b60405180910390fd5b6144b267a6e76954a8e72d4b60c01b614385565b6144c667600e8d962135260d60c01b614385565b6001600560008373ffffffffffffffffffffffffffffffffffffffff1673ffffffffffffffffffffffffffffffffffffffff16815260200190815260200160002060000160006101000a81548160ff02191690831515021790555061453567377a2bd447f7022560c01b614385565b61454967afb18748fa41b38660c01b614385565b600080815480929190600101919050555061456e678932826f26908c0660c01b614385565b61458267e107fd6a6e555ae160c01b614385565b8073ffffffffffffffffffffffffffffffffffffffff167f3da74045128fff0396b39203f81bcedcbcf28586f0f97fb0f41ceb5521566a1560405160405180910390a250565b60606145de67103c5192ceedb40d60c01b614385565b6145f267a73c7e0d35423e4860c01b614385565b614606673c1aaf90fe31201860c01b614385565b816040516020016146179190616e89565b6040516020818303038152906040529050919050565b60007ff0c57e16840df040f15088dc2f81fe391c3923bec73e23a9662efc9c229c6a00905090565b61465d614acc565b61466681614b0c565b50565b614671614acc565b565b7f000000000000000000000000000000000000000000000000000000000000000073ffffffffffffffffffffffffffffffffffffffff163073ffffffffffffffffffffffffffffffffffffffff16148061472057507f000000000000000000000000000000000000000000000000000000000000000073ffffffffffffffffffffffffffffffffffffffff16614707614b92565b73ffffffffffffffffffffffffffffffffffffffff1614155b15614757576040517fe07c8dba00000000000000000000000000000000000000000000000000000000815260040160405180910390fd5b565b61476d6746c7983cb538664860c01b614385565b614775614946565b61478967c843a76b27afa94060c01b614385565b61479d67964e34b34443157960c01b614385565b50565b8173ffffffffffffffffffffffffffffffffffffffff166352d1902d6040518163ffffffff1660e01b8152600401602060405180830381865afa92505050801561480857506040513d601f19601f820116820180604052508101906148059190616ed0565b60015b61484957816040517f4c9c8ce30000000000000000000000000000000000000000000000000000000081526004016148409190615b54565b60405180910390fd5b7f360894a13ba1a3210667c828492db98dca3e2076cc3735a920a3ca505d382bbc60001b81146148b057806040517faa1d49a40000000000000000000000000000000000000000000000000000000081526004016148a79190615446565b60405180910390fd5b6148ba8383614be9565b505050565b7f000000000000000000000000000000000000000000000000000000000000000073ffffffffffffffffffffffffffffffffffffffff163073ffffffffffffffffffffffffffffffffffffffff1614614944576040517fe07c8dba00000000000000000000000000000000000000000000000000000000815260040160405180910390fd5b565b61494e614c5c565b73ffffffffffffffffffffffffffffffffffffffff1661496c613488565b73ffffffffffffffffffffffffffffffffffffffff16146149cb5761498f614c5c565b6040517f118cdaa70000000000000000000000000000000000000000000000000000000081526004016149c29190615b54565b60405180910390fd5b565b60006149d7614aa4565b905060008160000160009054906101000a900473ffffffffffffffffffffffffffffffffffffffff169050828260000160006101000a81548173ffffffffffffffffffffffffffffffffffffffff021916908373ffffffffffffffffffffffffffffffffffffffff1602179055508273ffffffffffffffffffffffffffffffffffffffff168173ffffffffffffffffffffffffffffffffffffffff167f8be0079c531659141344cd1fd0a4f28419497f9722a3daafe3b4186f6b6457e060405160405180910390a3505050565b60007f9016d09d72d40fdae2fd8ceac6b6234c7706214fd39c1cd1e609a0528c199300905090565b614ad4614c64565b614b0a576040517fd7e6bcf800000000000000000000000000000000000000000000000000000000815260040160405180910390fd5b565b614b14614acc565b600073ffffffffffffffffffffffffffffffffffffffff168173ffffffffffffffffffffffffffffffffffffffff1603614b865760006040517f1e4fbdf7000000000000000000000000000000000000000000000000000000008152600401614b7d9190615b54565b60405180910390fd5b614b8f816149cd565b50565b6000614bc07f360894a13ba1a3210667c828492db98dca3e2076cc3735a920a3ca505d382bbc60001b614c84565b60000160009054906101000a900473ffffffffffffffffffffffffffffffffffffffff16905090565b614bf282614c8e565b8173ffffffffffffffffffffffffffffffffffffffff167fbc7cd75a20ee27fd9adebab32041f755214dbc6bffa90cc0225b39da2e5c2d3b60405160405180910390a2600081511115614c4f57614c498282614d5b565b50614c58565b614c57614ddf565b5b5050565b600033905090565b6000614c6e61462d565b60000160089054906101000a900460ff16905090565b6000819050919050565b60008173ffffffffffffffffffffffffffffffffffffffff163b03614cea57806040517f4c9c8ce3000000000000000000000000000000000000000000000000000000008152600401614ce19190615b54565b60405180910390fd5b80614d177f360894a13ba1a3210667c828492db98dca3e2076cc3735a920a3ca505d382bbc60001b614c84565b60000160006101000a81548173ffffffffffffffffffffffffffffffffffffffff021916908373ffffffffffffffffffffffffffffffffffffffff16021790555050565b60606000808473ffffffffffffffffffffffffffffffffffffffff1684604051614d859190616f2e565b600060405180830381855af49150503d8060008114614dc0576040519150601f19603f3d011682016040523d82523d6000602084013e614dc5565b606091505b5091509150614dd5858383614e1c565b9250505092915050565b6000341115614e1a576040517fb398979f00000000000000000000000000000000000000000000000000000000815260040160405180910390fd5b565b606082614e3157614e2c82614eab565b614ea3565b60008251148015614e59575060008473ffffffffffffffffffffffffffffffffffffffff163b145b15614e9b57836040517f9996b315000000000000000000000000000000000000000000000000000000008152600401614e929190615b54565b60405180910390fd5b819050614ea4565b5b9392505050565b600081511115614ebe5780518082602001fd5b6040517fd6bda27500000000000000000000000000000000000000000000000000000000815260040160405180910390fd5b6040518060400160405280600015158152602001606081525090565b604051806101400160405280600015158152602001600015158152602001600073ffffffffffffffffffffffffffffffffffffffff16815260200160608152602001600073ffffffffffffffffffffffffffffffffffffffff168152602001600065ffffffffffff168152602001600065ffffffffffff1681526020016000815260200160008152602001606081525090565b6000819050919050565b614fb281614f9f565b82525050565b6000602082019050614fcd6000830184614fa9565b92915050565b6000604051905090565b600080fd5b600080fd5b600073ffffffffffffffffffffffffffffffffffffffff82169050919050565b600061501282614fe7565b9050919050565b61502281615007565b811461502d57600080fd5b50565b60008135905061503f81615019565b92915050565b600080fd5b600080fd5b6000601f19601f8301169050919050565b7f4e487b7100000000000000000000000000000000000000000000000000000000600052604160045260246000fd5b6150988261504f565b810181811067ffffffffffffffff821117156150b7576150b6615060565b5b80604052505050565b60006150ca614fd3565b90506150d6828261508f565b919050565b600067ffffffffffffffff8211156150f6576150f5615060565b5b6150ff8261504f565b9050602081019050919050565b82818337600083830152505050565b600061512e615129846150db565b6150c0565b90508281526020810184848401111561514a5761514961504a565b5b61515584828561510c565b509392505050565b600082601f83011261517257615171615045565b5b813561518284826020860161511b565b91505092915050565b600080604083850312156151a2576151a1614fdd565b5b60006151b085828601615030565b925050602083013567ffffffffffffffff8111156151d1576151d0614fe2565b5b6151dd8582860161515d565b9150509250929050565b6151f081614f9f565b81146151fb57600080fd5b50565b60008135905061520d816151e7565b92915050565b60006020828403121561522957615228614fdd565b5b6000615237848285016151fe565b91505092915050565b60008115159050919050565b61525581615240565b811461526057600080fd5b50565b6000813590506152728161524c565b92915050565b6000806040838503121561528f5761528e614fdd565b5b600061529d858286016151fe565b92505060206152ae85828601615263565b9150509250929050565b600080604083850312156152cf576152ce614fdd565b5b600083013567ffffffffffffffff8111156152ed576152ec614fe2565b5b6152f98582860161515d565b925050602083013567ffffffffffffffff81111561531a57615319614fe2565b5b6153268582860161515d565b9150509250929050565b600067ffffffffffffffff82111561534b5761534a615060565b5b6153548261504f565b9050602081019050919050565b600061537461536f84615330565b6150c0565b9050828152602081018484840111156153905761538f61504a565b5b61539b84828561510c565b509392505050565b600082601f8301126153b8576153b7615045565b5b81356153c8848260208601615361565b91505092915050565b600080604083850312156153e8576153e7614fdd565b5b60006153f685828601615030565b925050602083013567ffffffffffffffff81111561541757615416614fe2565b5b615423858286016153a3565b9150509250929050565b6000819050919050565b6154408161542d565b82525050565b600060208201905061545b6000830184615437565b92915050565b6000806040838503121561547857615477614fdd565b5b6000615486858286016151fe565b9250506020615497858286016151fe565b9150509250929050565b600081519050919050565b600082825260208201905092915050565b6000819050602082019050919050565b6154d681615240565b82525050565b6154e581615007565b82525050565b600081519050919050565b600082825260208201905092915050565b60005b8381101561552557808201518184015260208101905061550a565b60008484015250505050565b600061553c826154eb565b61554681856154f6565b9350615556818560208601615507565b61555f8161504f565b840191505092915050565b600065ffffffffffff82169050919050565b6155858161556a565b82525050565b61559481614f9f565b82525050565b600081519050919050565b600082825260208201905092915050565b60006155c18261559a565b6155cb81856155a5565b93506155db818560208601615507565b6155e48161504f565b840191505092915050565b60006101408301600083015161560860008601826154cd565b50602083015161561b60208601826154cd565b50604083015161562e60408601826154dc565b50606083015184820360608601526156468282615531565b915050608083015161565b60808601826154dc565b5060a083015161566e60a086018261557c565b5060c083015161568160c086018261557c565b5060e083015161569460e086018261558b565b506101008301516156a961010086018261558b565b506101208301518482036101208601526156c382826155b6565b9150508091505092915050565b60006156dc83836155ef565b905092915050565b6000602082019050919050565b60006156fc826154a1565b61570681856154ac565b935083602082028501615718856154bd565b8060005b85811015615754578484038952815161573585826156d0565b9450615740836156e4565b925060208a0199505060018101905061571c565b50829750879550505050505092915050565b6000604082019050818103600083015261578081856156f1565b905061578f6020830184614fa9565b9392505050565b600082825260208201905092915050565b60006157b28261559a565b6157bc8185615796565b93506157cc818560208601615507565b6157d58161504f565b840191505092915050565b600060208201905081810360008301526157fa81846157a7565b905092915050565b600067ffffffffffffffff82111561581d5761581c615060565b5b602082029050602081019050919050565b600080fd5b600061584661584184615802565b6150c0565b905080838252602082019050602084028301858111156158695761586861582e565b5b835b81811015615892578061587e8882615030565b84526020840193505060208101905061586b565b5050509392505050565b600082601f8301126158b1576158b0615045565b5b81356158c1848260208601615833565b91505092915050565b600067ffffffffffffffff8211156158e5576158e4615060565b5b602082029050602081019050919050565b6000615909615904846158ca565b6150c0565b9050808382526020820190506020840283018581111561592c5761592b61582e565b5b835b81811015615955578061594188826151fe565b84526020840193505060208101905061592e565b5050509392505050565b600082601f83011261597457615973615045565b5b81356159848482602086016158f6565b91505092915050565b600067ffffffffffffffff8211156159a8576159a7615060565b5b602082029050602081019050919050565b60006159cc6159c78461598d565b6150c0565b905080838252602082019050602084028301858111156159ef576159ee61582e565b5b835b81811015615a3657803567ffffffffffffffff811115615a1457615a13615045565b5b808601615a2189826153a3565b855260208501945050506020810190506159f1565b5050509392505050565b600082601f830112615a5557615a54615045565b5b8135615a658482602086016159b9565b91505092915050565b60008060008060808587031215615a8857615a87614fdd565b5b600085013567ffffffffffffffff811115615aa657615aa5614fe2565b5b615ab28782880161589c565b945050602085013567ffffffffffffffff811115615ad357615ad2614fe2565b5b615adf8782880161595f565b935050604085013567ffffffffffffffff811115615b0057615aff614fe2565b5b615b0c87828801615a40565b925050606085013567ffffffffffffffff811115615b2d57615b2c614fe2565b5b615b398782880161515d565b91505092959194509250565b615b4e81615007565b82525050565b6000602082019050615b696000830184615b45565b92915050565b60006020820190508181036000830152615b8981846156f1565b905092915050565b600060208284031215615ba757615ba6614fdd565b5b6000615bb584828501615030565b91505092915050565b615bc781615240565b82525050565b6000602082019050615be26000830184615bbe565b92915050565b7f4e487b7100000000000000000000000000000000000000000000000000000000600052602260045260246000fd5b60006002820490506001821680615c2f57607f821691505b602082108103615c4257615c41615be8565b5b50919050565b7f416c72656164792061206d656d62657200000000000000000000000000000000600082015250565b6000615c7e601083615796565b9150615c8982615c48565b602082019050919050565b60006020820190508181036000830152615cad81615c71565b9050919050565b60008190508160005260206000209050919050565b60006020601f8301049050919050565b600082821b905092915050565b600060088302615d167fffffffffffffffffffffffffffffffffffffffffffffffffffffffffffffffff82615cd9565b615d208683615cd9565b95508019841693508086168417925050509392505050565b6000819050919050565b6000615d5d615d58615d5384614f9f565b615d38565b614f9f565b9050919050565b6000819050919050565b615d7783615d42565b615d8b615d8382615d64565b848454615ce6565b825550505050565b600090565b615da0615d93565b615dab818484615d6e565b505050565b5b81811015615dcf57615dc4600082615d98565b600181019050615db1565b5050565b601f821115615e1457615de581615cb4565b615dee84615cc9565b81016020851015615dfd578190505b615e11615e0985615cc9565b830182615db0565b50505b505050565b600082821c905092915050565b6000615e3760001984600802615e19565b1980831691505092915050565b6000615e508383615e26565b9150826002028217905092915050565b615e698261559a565b67ffffffffffffffff811115615e8257615e81615060565b5b615e8c8254615c17565b615e97828285615dd3565b600060209050601f831160018114615eca5760008415615eb8578287015190505b615ec28582615e44565b865550615f2a565b601f198416615ed886615cb4565b60005b82811015615f0057848901518255600182019150602085019450602081019050615edb565b86831015615f1d5784890151615f19601f891682615e26565b8355505b6001600288020188555050505b505050505050565b7f566f74696e67207374696c6c20676f696e67206f6e0000000000000000000000600082015250565b6000615f68601583615796565b9150615f7382615f32565b602082019050919050565b60006020820190508181036000830152615f9781615f5b565b9050919050565b7f50726f706f73616c20616c7265616479206578656375746564206f722063616e60008201527f63656c6564000000000000000000000000000000000000000000000000000000602082015250565b6000615ffa602583615796565b915061600582615f9e565b604082019050919050565b6000602082019050818103600083015261602981615fed565b9050919050565b7f4e487b7100000000000000000000000000000000000000000000000000000000600052601160045260246000fd5b600061606a82614f9f565b915061607583614f9f565b925082820390508181111561608d5761608c616030565b5b92915050565b7f50726f706f73616c20646f65736e27742068617665206d616a6f72697479207660008201527f6f74650000000000000000000000000000000000000000000000000000000000602082015250565b60006160ef602383615796565b91506160fa82616093565b604082019050919050565b6000602082019050818103600083015261611e816160e2565b9050919050565b7f4e487b7100000000000000000000000000000000000000000000000000000000600052602160045260246000fd5b600081905092915050565b60008190508160005260206000209050919050565b6000815461618181615c17565b61618b8186616154565b945060018216600081146161a657600181146161bb576161ee565b60ff19831686528115158202860193506161ee565b6161c48561615f565b60005b838110156161e6578154818901526001820191506020810190506161c7565b838801955050505b50505092915050565b60006162038284616174565b915081905092915050565b7f50726f706f73616c20657865637574696f6e206661696c656400000000000000600082015250565b6000616244601983615796565b915061624f8261620e565b602082019050919050565b6000602082019050818103600083015261627381616237565b9050919050565b7f4e6f742061206d656d6265720000000000000000000000000000000000000000600082015250565b60006162b0600c83615796565b91506162bb8261627a565b602082019050919050565b600060208201905081810360008301526162df816162a3565b9050919050565b7f4d656d626572206e6f7420617070726f76656400000000000000000000000000600082015250565b600061631c601383615796565b9150616327826162e6565b602082019050919050565b6000602082019050818103600083015261634b8161630f565b9050919050565b7f4e6f7420616e206578697374696e67206d656d62657200000000000000000000600082015250565b6000616388601683615796565b915061639382616352565b602082019050919050565b600060208201905081810360008301526163b78161637b565b9050919050565b7f566f74696e672064656c6179206973206e6f7420736574000000000000000000600082015250565b60006163f4601783615796565b91506163ff826163be565b602082019050919050565b60006020820190508181036000830152616423816163e7565b9050919050565b7f566f74696e6720706572696f64206973206e6f74207365740000000000000000600082015250565b6000616460601883615796565b915061646b8261642a565b602082019050919050565b6000602082019050818103600083015261648f81616453565b9050919050565b60006164a18261556a565b91506164ac8361556a565b9250828201905065ffffffffffff8111156164ca576164c9616030565b5b92915050565b601f821115616511576164e28161615f565b6164eb84615cc9565b810160208510156164fa578190505b61650e61650685615cc9565b830182615db0565b50505b505050565b61651f826154eb565b67ffffffffffffffff81111561653857616537615060565b5b6165428254615c17565b61654d8282856164d0565b600060209050601f831160018114616580576000841561656e578287015190505b6165788582615e44565b8655506165e0565b601f19841661658e8661615f565b60005b828110156165b657848901518255600182019150602085019450602081019050616591565b868310156165d357848901516165cf601f891682615e26565b8355505b6001600288020188555050505b505050505050565b600082825260208201905092915050565b6000616604826154eb565b61660e81856165e8565b935061661e818560208601615507565b6166278161504f565b840191505092915050565b6000602082019050818103600083015261664c81846165f9565b905092915050565b7f566f74696e67206973206e6f7420616c6c6f776564206174207468697320746960008201527f6d65000000000000000000000000000000000000000000000000000000000000602082015250565b60006166b0602283615796565b91506166bb82616654565b604082019050919050565b600060208201905081810360008301526166df816166a3565b9050919050565b7f416c726561647920766f74656420666f7220746869732070726f706f73616c00600082015250565b600061671c601f83615796565b9150616727826166e6565b602082019050919050565b6000602082019050818103600083015261674b8161670f565b9050919050565b600060ff82169050919050565b61676881616752565b82525050565b6000819050919050565b600061679361678e6167898461676e565b615d38565b614f9f565b9050919050565b6167a381616778565b82525050565b600081546167b681615c17565b6167c08186615796565b945060018216600081146167db57600181146167f157616824565b60ff198316865281151560200286019350616824565b6167fa85615cb4565b60005b8381101561681c578154818901526001820191506020810190506167fd565b808801955050505b50505092915050565b60006080820190506168426000830187614fa9565b61684f602083018661675f565b61685c604083018561679a565b818103606083015261686e81846167a9565b905095945050505050565b6000819050919050565b600067ffffffffffffffff82169050919050565b60006168b26168ad6168a884616879565b615d38565b616883565b9050919050565b6168c281616897565b82525050565b60006020820190506168dd60008301846168b9565b92915050565b60006168ee82614f9f565b91506168f983614f9f565b925082820190508082111561691157616910616030565b5b92915050565b7f4e487b7100000000000000000000000000000000000000000000000000000000600052603260045260246000fd5b600081519050919050565b600082825260208201905092915050565b6000819050602082019050919050565b600061697e83836154dc565b60208301905092915050565b6000602082019050919050565b60006169a282616946565b6169ac8185616951565b93506169b783616962565b8060005b838110156169e85781516169cf8882616972565b97506169da8361698a565b9250506001810190506169bb565b5085935050505092915050565b600081519050919050565b600082825260208201905092915050565b6000819050602082019050919050565b6000616a2d838361558b565b60208301905092915050565b6000602082019050919050565b6000616a51826169f5565b616a5b8185616a00565b9350616a6683616a11565b8060005b83811015616a97578151616a7e8882616a21565b9750616a8983616a39565b925050600181019050616a6a565b5085935050505092915050565b600081519050919050565b600082825260208201905092915050565b6000819050602082019050919050565b6000616adc83836155b6565b905092915050565b6000602082019050919050565b6000616afc82616aa4565b616b068185616aaf565b935083602082028501616b1885616ac0565b8060005b85811015616b545784840389528151616b358582616ad0565b9450616b4083616ae4565b925060208a01995050600181019050616b1c565b50829750879550505050505092915050565b600081519050919050565b600082825260208201905092915050565b6000819050602082019050919050565b6000616b9e8383615531565b905092915050565b6000602082019050919050565b6000616bbe82616b66565b616bc88185616b71565b935083602082028501616bda85616b82565b8060005b85811015616c165784840389528151616bf78582616b92565b9450616c0283616ba6565b925060208a01995050600181019050616bde565b50829750879550505050505092915050565b6000616c43616c3e616c398461556a565b615d38565b614f9f565b9050919050565b616c5381616c28565b82525050565b600061012082019050616c6f600083018c614fa9565b616c7c602083018b615b45565b8181036040830152616c8e818a616997565b90508181036060830152616ca28189616a46565b90508181036080830152616cb68188616af1565b905081810360a0830152616cca8187616bb3565b9050616cd960c0830186616c4a565b616ce660e0830185616c4a565b818103610100830152616cf981846157a7565b90509a9950505050505050505050565b7f4e487b7100000000000000000000000000000000000000000000000000000000600052601260045260246000fd5b6000616d4382614f9f565b9150616d4e83614f9f565b925082616d5e57616d5d616d09565b5b828204905092915050565b7f4e6f207065726d697373696f6e20746f2063616e63656c2070726f706f73616c600082015250565b6000616d9f602083615796565b9150616daa82616d69565b602082019050919050565b60006020820190508181036000830152616dce81616d92565b9050919050565b7f4d656d62657220616c726561647920617070726f766564000000000000000000600082015250565b6000616e0b601783615796565b9150616e1682616dd5565b602082019050919050565b60006020820190508181036000830152616e3a81616dfe565b9050919050565b60008160601b9050919050565b6000616e5982616e41565b9050919050565b6000616e6b82616e4e565b9050919050565b616e83616e7e82615007565b616e60565b82525050565b6000616e958284616e72565b60148201915081905092915050565b616ead8161542d565b8114616eb857600080fd5b50565b600081519050616eca81616ea4565b92915050565b600060208284031215616ee657616ee5614fdd565b5b6000616ef484828501616ebb565b91505092915050565b6000616f08826154eb565b616f128185616154565b9350616f22818560208601615507565b80840191505092915050565b6000616f3a8284616efd565b91508190509291505056fea164736f6c634300081b000a","opcodes":"PUSH1 0xA0 PUSH1 0x40 MSTORE ADDRESS PUSH20 0xFFFFFFFFFFFFFFFFFFFFFFFFFFFFFFFFFFFFFFFF AND PUSH1 0x80 SWAP1 PUSH20 0xFFFFFFFFFFFFFFFFFFFFFFFFFFFFFFFFFFFFFFFF AND DUP2 MSTORE POP CALLVALUE DUP1 ISZERO PUSH1 0x42 JUMPI PUSH1 0x0 DUP1 REVERT JUMPDEST POP PUSH1 0x80 MLOAD PUSH2 0x6F52 PUSH2 0x6C PUSH1 0x0 CODECOPY PUSH1 0x0 DUP2 DUP2 PUSH2 0x4675 ADD MSTORE DUP2 DUP2 PUSH2 0x46CA ADD MSTORE PUSH2 0x48C1 ADD MSTORE PUSH2 0x6F52 PUSH1 0x0 RETURN INVALID PUSH1 0x80 PUSH1 0x40 MSTORE PUSH1 0x4 CALLDATASIZE LT PUSH2 0x166 JUMPI PUSH1 0x0 CALLDATALOAD PUSH1 0xE0 SHR DUP1 PUSH4 0x7034731B GT PUSH2 0xD1 JUMPI DUP1 PUSH4 0xAD3CB1CC GT PUSH2 0x8A JUMPI DUP1 PUSH4 0xCFBC02D4 GT PUSH2 0x64 JUMPI DUP1 PUSH4 0xCFBC02D4 EQ PUSH2 0x4E8 JUMPI DUP1 PUSH4 0xE0A8F6F5 EQ PUSH2 0x525 JUMPI DUP1 PUSH4 0xEA0217CF EQ PUSH2 0x54E JUMPI DUP1 PUSH4 0xF2FDE38B EQ PUSH2 0x577 JUMPI PUSH2 0x166 JUMP JUMPDEST DUP1 PUSH4 0xAD3CB1CC EQ PUSH2 0x467 JUMPI DUP1 PUSH4 0xAFE666F6 EQ PUSH2 0x492 JUMPI DUP1 PUSH4 0xB58131B0 EQ PUSH2 0x4BD JUMPI PUSH2 0x166 JUMP JUMPDEST DUP1 PUSH4 0x7034731B EQ PUSH2 0x369 JUMPI DUP1 PUSH4 0x70B0F660 EQ PUSH2 0x394 JUMPI DUP1 PUSH4 0x715018A6 EQ PUSH2 0x3BD JUMPI DUP1 PUSH4 0x7D5E81E2 EQ PUSH2 0x3D4 JUMPI DUP1 PUSH4 0x8DA5CB5B EQ PUSH2 0x411 JUMPI DUP1 PUSH4 0xA2B170B0 EQ PUSH2 0x43C JUMPI PUSH2 0x166 JUMP JUMPDEST DUP1 PUSH4 0x3932ABB1 GT PUSH2 0x123 JUMPI DUP1 PUSH4 0x3932ABB1 EQ PUSH2 0x265 JUMPI DUP1 PUSH4 0x3ECC6A43 EQ PUSH2 0x290 JUMPI DUP1 PUSH4 0x4CD88B76 EQ PUSH2 0x2BB JUMPI DUP1 PUSH4 0x4F1EF286 EQ PUSH2 0x2E4 JUMPI DUP1 PUSH4 0x52D1902D EQ PUSH2 0x300 JUMPI DUP1 PUSH4 0x5643A8B8 EQ PUSH2 0x32B JUMPI PUSH2 0x166 JUMP JUMPDEST DUP1 PUSH4 0x2A251A3 EQ PUSH2 0x16B JUMPI DUP1 PUSH4 0xAA5ADFC EQ PUSH2 0x196 JUMPI DUP1 PUSH4 0xD61B519 EQ PUSH2 0x1BF JUMPI DUP1 PUSH4 0xDA85852 EQ PUSH2 0x1E8 JUMPI DUP1 PUSH4 0x15373E3D EQ PUSH2 0x211 JUMPI DUP1 PUSH4 0x27F5884B EQ PUSH2 0x23A JUMPI JUMPDEST PUSH1 0x0 DUP1 REVERT JUMPDEST CALLVALUE DUP1 ISZERO PUSH2 0x177 JUMPI PUSH1 0x0 DUP1 REVERT JUMPDEST POP PUSH2 0x180 PUSH2 0x5A0 JUMP JUMPDEST PUSH1 0x40 MLOAD PUSH2 0x18D SWAP2 SWAP1 PUSH2 0x4FB8 JUMP JUMPDEST PUSH1 0x40 MLOAD DUP1 SWAP2 SUB SWAP1 RETURN JUMPDEST CALLVALUE DUP1 ISZERO PUSH2 0x1A2 JUMPI PUSH1 0x0 DUP1 REVERT JUMPDEST POP PUSH2 0x1BD PUSH1 0x4 DUP1 CALLDATASIZE SUB DUP2 ADD SWAP1 PUSH2 0x1B8 SWAP2 SWAP1 PUSH2 0x518B JUMP JUMPDEST PUSH2 0x5A6 JUMP JUMPDEST STOP JUMPDEST CALLVALUE DUP1 ISZERO PUSH2 0x1CB JUMPI PUSH1 0x0 DUP1 REVERT JUMPDEST POP PUSH2 0x1E6 PUSH1 0x4 DUP1 CALLDATASIZE SUB DUP2 ADD SWAP1 PUSH2 0x1E1 SWAP2 SWAP1 PUSH2 0x5213 JUMP JUMPDEST PUSH2 0x868 JUMP JUMPDEST STOP JUMPDEST CALLVALUE DUP1 ISZERO PUSH2 0x1F4 JUMPI PUSH1 0x0 DUP1 REVERT JUMPDEST POP PUSH2 0x20F PUSH1 0x4 DUP1 CALLDATASIZE SUB DUP2 ADD SWAP1 PUSH2 0x20A SWAP2 SWAP1 PUSH2 0x518B JUMP JUMPDEST PUSH2 0xF74 JUMP JUMPDEST STOP JUMPDEST CALLVALUE DUP1 ISZERO PUSH2 0x21D JUMPI PUSH1 0x0 DUP1 REVERT JUMPDEST POP PUSH2 0x238 PUSH1 0x4 DUP1 CALLDATASIZE SUB DUP2 ADD SWAP1 PUSH2 0x233 SWAP2 SWAP1 PUSH2 0x5278 JUMP JUMPDEST PUSH2 0x18A6 JUMP JUMPDEST STOP JUMPDEST CALLVALUE DUP1 ISZERO PUSH2 0x246 JUMPI PUSH1 0x0 DUP1 REVERT JUMPDEST POP PUSH2 0x24F PUSH2 0x1FA5 JUMP JUMPDEST PUSH1 0x40 MLOAD PUSH2 0x25C SWAP2 SWAP1 PUSH2 0x4FB8 JUMP JUMPDEST PUSH1 0x40 MLOAD DUP1 SWAP2 SUB SWAP1 RETURN JUMPDEST CALLVALUE DUP1 ISZERO PUSH2 0x271 JUMPI PUSH1 0x0 DUP1 REVERT JUMPDEST POP PUSH2 0x27A PUSH2 0x21D6 JUMP JUMPDEST PUSH1 0x40 MLOAD PUSH2 0x287 SWAP2 SWAP1 PUSH2 0x4FB8 JUMP JUMPDEST PUSH1 0x40 MLOAD DUP1 SWAP2 SUB SWAP1 RETURN JUMPDEST CALLVALUE DUP1 ISZERO PUSH2 0x29C JUMPI PUSH1 0x0 DUP1 REVERT JUMPDEST POP PUSH2 0x2A5 PUSH2 0x21DC JUMP JUMPDEST PUSH1 0x40 MLOAD PUSH2 0x2B2 SWAP2 SWAP1 PUSH2 0x4FB8 JUMP JUMPDEST PUSH1 0x40 MLOAD DUP1 SWAP2 SUB SWAP1 RETURN JUMPDEST CALLVALUE DUP1 ISZERO PUSH2 0x2C7 JUMPI PUSH1 0x0 DUP1 REVERT JUMPDEST POP PUSH2 0x2E2 PUSH1 0x4 DUP1 CALLDATASIZE SUB DUP2 ADD SWAP1 PUSH2 0x2DD SWAP2 SWAP1 PUSH2 0x52B8 JUMP JUMPDEST PUSH2 0x2222 JUMP JUMPDEST STOP JUMPDEST PUSH2 0x2FE PUSH1 0x4 DUP1 CALLDATASIZE SUB DUP2 ADD SWAP1 PUSH2 0x2F9 SWAP2 SWAP1 PUSH2 0x53D1 JUMP JUMPDEST PUSH2 0x2586 JUMP JUMPDEST STOP JUMPDEST CALLVALUE DUP1 ISZERO PUSH2 0x30C JUMPI PUSH1 0x0 DUP1 REVERT JUMPDEST POP PUSH2 0x315 PUSH2 0x25A5 JUMP JUMPDEST PUSH1 0x40 MLOAD PUSH2 0x322 SWAP2 SWAP1 PUSH2 0x5446 JUMP JUMPDEST PUSH1 0x40 MLOAD DUP1 SWAP2 SUB SWAP1 RETURN JUMPDEST CALLVALUE DUP1 ISZERO PUSH2 0x337 JUMPI PUSH1 0x0 DUP1 REVERT JUMPDEST POP PUSH2 0x352 PUSH1 0x4 DUP1 CALLDATASIZE SUB DUP2 ADD SWAP1 PUSH2 0x34D SWAP2 SWAP1 PUSH2 0x5461 JUMP JUMPDEST PUSH2 0x25D8 JUMP JUMPDEST PUSH1 0x40 MLOAD PUSH2 0x360 SWAP3 SWAP2 SWAP1 PUSH2 0x5766 JUMP JUMPDEST PUSH1 0x40 MLOAD DUP1 SWAP2 SUB SWAP1 RETURN JUMPDEST CALLVALUE DUP1 ISZERO PUSH2 0x375 JUMPI PUSH1 0x0 DUP1 REVERT JUMPDEST POP PUSH2 0x37E PUSH2 0x2A8A JUMP JUMPDEST PUSH1 0x40 MLOAD PUSH2 0x38B SWAP2 SWAP1 PUSH2 0x57E0 JUMP JUMPDEST PUSH1 0x40 MLOAD DUP1 SWAP2 SUB SWAP1 RETURN JUMPDEST CALLVALUE DUP1 ISZERO PUSH2 0x3A0 JUMPI PUSH1 0x0 DUP1 REVERT JUMPDEST POP PUSH2 0x3BB PUSH1 0x4 DUP1 CALLDATASIZE SUB DUP2 ADD SWAP1 PUSH2 0x3B6 SWAP2 SWAP1 PUSH2 0x5213 JUMP JUMPDEST PUSH2 0x2B18 JUMP JUMPDEST STOP JUMPDEST CALLVALUE DUP1 ISZERO PUSH2 0x3C9 JUMPI PUSH1 0x0 DUP1 REVERT JUMPDEST POP PUSH2 0x3D2 PUSH2 0x2B7A JUMP JUMPDEST STOP JUMPDEST CALLVALUE DUP1 ISZERO PUSH2 0x3E0 JUMPI PUSH1 0x0 DUP1 REVERT JUMPDEST POP PUSH2 0x3FB PUSH1 0x4 DUP1 CALLDATASIZE SUB DUP2 ADD SWAP1 PUSH2 0x3F6 SWAP2 SWAP1 PUSH2 0x5A6E JUMP JUMPDEST PUSH2 0x2B8E JUMP JUMPDEST PUSH1 0x40 MLOAD PUSH2 0x408 SWAP2 SWAP1 PUSH2 0x4FB8 JUMP JUMPDEST PUSH1 0x40 MLOAD DUP1 SWAP2 SUB SWAP1 RETURN JUMPDEST CALLVALUE DUP1 ISZERO PUSH2 0x41D JUMPI PUSH1 0x0 DUP1 REVERT JUMPDEST POP PUSH2 0x426 PUSH2 0x3488 JUMP JUMPDEST PUSH1 0x40 MLOAD PUSH2 0x433 SWAP2 SWAP1 PUSH2 0x5B54 JUMP JUMPDEST PUSH1 0x40 MLOAD DUP1 SWAP2 SUB SWAP1 RETURN JUMPDEST CALLVALUE DUP1 ISZERO PUSH2 0x448 JUMPI PUSH1 0x0 DUP1 REVERT JUMPDEST POP PUSH2 0x451 PUSH2 0x34C0 JUMP JUMPDEST PUSH1 0x40 MLOAD PUSH2 0x45E SWAP2 SWAP1 PUSH2 0x4FB8 JUMP JUMPDEST PUSH1 0x40 MLOAD DUP1 SWAP2 SUB SWAP1 RETURN JUMPDEST CALLVALUE DUP1 ISZERO PUSH2 0x473 JUMPI PUSH1 0x0 DUP1 REVERT JUMPDEST POP PUSH2 0x47C PUSH2 0x3506 JUMP JUMPDEST PUSH1 0x40 MLOAD PUSH2 0x489 SWAP2 SWAP1 PUSH2 0x57E0 JUMP JUMPDEST PUSH1 0x40 MLOAD DUP1 SWAP2 SUB SWAP1 RETURN JUMPDEST CALLVALUE DUP1 ISZERO PUSH2 0x49E JUMPI PUSH1 0x0 DUP1 REVERT JUMPDEST POP PUSH2 0x4A7 PUSH2 0x353F JUMP JUMPDEST PUSH1 0x40 MLOAD PUSH2 0x4B4 SWAP2 SWAP1 PUSH2 0x5B6F JUMP JUMPDEST PUSH1 0x40 MLOAD DUP1 SWAP2 SUB SWAP1 RETURN JUMPDEST CALLVALUE DUP1 ISZERO PUSH2 0x4C9 JUMPI PUSH1 0x0 DUP1 REVERT JUMPDEST POP PUSH2 0x4D2 PUSH2 0x3B11 JUMP JUMPDEST PUSH1 0x40 MLOAD PUSH2 0x4DF SWAP2 SWAP1 PUSH2 0x4FB8 JUMP JUMPDEST PUSH1 0x40 MLOAD DUP1 SWAP2 SUB SWAP1 RETURN JUMPDEST CALLVALUE DUP1 ISZERO PUSH2 0x4F4 JUMPI PUSH1 0x0 DUP1 REVERT JUMPDEST POP PUSH2 0x50F PUSH1 0x4 DUP1 CALLDATASIZE SUB DUP2 ADD SWAP1 PUSH2 0x50A SWAP2 SWAP1 PUSH2 0x5B91 JUMP JUMPDEST PUSH2 0x3B5B JUMP JUMPDEST PUSH1 0x40 MLOAD PUSH2 0x51C SWAP2 SWAP1 PUSH2 0x5BCD JUMP JUMPDEST PUSH1 0x40 MLOAD DUP1 SWAP2 SUB SWAP1 RETURN JUMPDEST CALLVALUE DUP1 ISZERO PUSH2 0x531 JUMPI PUSH1 0x0 DUP1 REVERT JUMPDEST POP PUSH2 0x54C PUSH1 0x4 DUP1 CALLDATASIZE SUB DUP2 ADD SWAP1 PUSH2 0x547 SWAP2 SWAP1 PUSH2 0x5213 JUMP JUMPDEST PUSH2 0x3E08 JUMP JUMPDEST STOP JUMPDEST CALLVALUE DUP1 ISZERO PUSH2 0x55A JUMPI PUSH1 0x0 DUP1 REVERT JUMPDEST POP PUSH2 0x575 PUSH1 0x4 DUP1 CALLDATASIZE SUB DUP2 ADD SWAP1 PUSH2 0x570 SWAP2 SWAP1 PUSH2 0x5213 JUMP JUMPDEST PUSH2 0x429D JUMP JUMPDEST STOP JUMPDEST CALLVALUE DUP1 ISZERO PUSH2 0x583 JUMPI PUSH1 0x0 DUP1 REVERT JUMPDEST POP PUSH2 0x59E PUSH1 0x4 DUP1 CALLDATASIZE SUB DUP2 ADD SWAP1 PUSH2 0x599 SWAP2 SWAP1 PUSH2 0x5B91 JUMP JUMPDEST PUSH2 0x42FF JUMP JUMPDEST STOP JUMPDEST PUSH1 0x4 SLOAD DUP2 JUMP JUMPDEST PUSH2 0x5BA PUSH8 0xC15C3EA2945D6614 PUSH1 0xC0 SHL PUSH2 0x4385 JUMP JUMPDEST DUP2 PUSH2 0x5CF PUSH8 0xE38A8CCED5B8B373 PUSH1 0xC0 SHL PUSH2 0x4385 JUMP JUMPDEST PUSH2 0x5E3 PUSH8 0xADE61ED2340B66B6 PUSH1 0xC0 SHL PUSH2 0x4385 JUMP JUMPDEST PUSH2 0x5F7 PUSH8 0x9B9125AF79C97C7F PUSH1 0xC0 SHL PUSH2 0x4385 JUMP JUMPDEST PUSH2 0x60B PUSH8 0x65E06443517038E3 PUSH1 0xC0 SHL PUSH2 0x4385 JUMP JUMPDEST PUSH1 0x0 PUSH1 0x5 PUSH1 0x0 DUP4 PUSH20 0xFFFFFFFFFFFFFFFFFFFFFFFFFFFFFFFFFFFFFFFF AND PUSH20 0xFFFFFFFFFFFFFFFFFFFFFFFFFFFFFFFFFFFFFFFF AND DUP2 MSTORE PUSH1 0x20 ADD SWAP1 DUP2 MSTORE PUSH1 0x20 ADD PUSH1 0x0 KECCAK256 PUSH1 0x1 ADD DUP1 SLOAD PUSH2 0x65A SWAP1 PUSH2 0x5C17 JUMP JUMPDEST SWAP1 POP GT ISZERO PUSH2 0x69D JUMPI PUSH1 0x40 MLOAD PUSH32 0x8C379A000000000000000000000000000000000000000000000000000000000 DUP2 MSTORE PUSH1 0x4 ADD PUSH2 0x694 SWAP1 PUSH2 0x5C94 JUMP JUMPDEST PUSH1 0x40 MLOAD DUP1 SWAP2 SUB SWAP1 REVERT JUMPDEST PUSH2 0x6B1 PUSH8 0x25B66CE331BA2187 PUSH1 0xC0 SHL PUSH2 0x4385 JUMP JUMPDEST PUSH2 0x6C5 PUSH8 0x6733437EA76ED676 PUSH1 0xC0 SHL PUSH2 0x4385 JUMP JUMPDEST PUSH2 0x6D9 PUSH8 0x8235F03D4573E38 PUSH1 0xC0 SHL PUSH2 0x4385 JUMP JUMPDEST PUSH2 0x6ED PUSH8 0x3EA705780F818DA3 PUSH1 0xC0 SHL PUSH2 0x4385 JUMP JUMPDEST PUSH2 0x701 PUSH8 0xBDE52568C5B11ED0 PUSH1 0xC0 SHL PUSH2 0x4385 JUMP JUMPDEST PUSH2 0x715 PUSH8 0x166F8436D6213FDD PUSH1 0xC0 SHL PUSH2 0x4385 JUMP JUMPDEST PUSH2 0x71D PUSH2 0x4EF0 JUMP JUMPDEST PUSH2 0x731 PUSH8 0xC35055CF5AF5CCBA PUSH1 0xC0 SHL PUSH2 0x4385 JUMP JUMPDEST DUP3 DUP2 PUSH1 0x20 ADD DUP2 SWAP1 MSTORE POP PUSH2 0x74E PUSH8 0x4AE4F124BEC7EF54 PUSH1 0xC0 SHL PUSH2 0x4385 JUMP JUMPDEST PUSH1 0x0 DUP2 PUSH1 0x0 ADD SWAP1 ISZERO ISZERO SWAP1 DUP2 ISZERO ISZERO DUP2 MSTORE POP POP PUSH2 0x773 PUSH8 0x8C72C7A2810F86A7 PUSH1 0xC0 SHL PUSH2 0x4385 JUMP JUMPDEST DUP1 PUSH1 0x5 PUSH1 0x0 DUP7 PUSH20 0xFFFFFFFFFFFFFFFFFFFFFFFFFFFFFFFFFFFFFFFF AND PUSH20 0xFFFFFFFFFFFFFFFFFFFFFFFFFFFFFFFFFFFFFFFF AND DUP2 MSTORE PUSH1 0x20 ADD SWAP1 DUP2 MSTORE PUSH1 0x20 ADD PUSH1 0x0 KECCAK256 PUSH1 0x0 DUP3 ADD MLOAD DUP2 PUSH1 0x0 ADD PUSH1 0x0 PUSH2 0x100 EXP DUP2 SLOAD DUP2 PUSH1 0xFF MUL NOT AND SWAP1 DUP4 ISZERO ISZERO MUL OR SWAP1 SSTORE POP PUSH1 0x20 DUP3 ADD MLOAD DUP2 PUSH1 0x1 ADD SWAP1 DUP2 PUSH2 0x7E8 SWAP2 SWAP1 PUSH2 0x5E60 JUMP JUMPDEST POP SWAP1 POP POP PUSH2 0x800 PUSH8 0x6A677C94502EBAF8 PUSH1 0xC0 SHL PUSH2 0x4385 JUMP JUMPDEST PUSH2 0x814 PUSH8 0xAE812E2B65511AB2 PUSH1 0xC0 SHL PUSH2 0x4385 JUMP JUMPDEST DUP4 PUSH20 0xFFFFFFFFFFFFFFFFFFFFFFFFFFFFFFFFFFFFFFFF AND PUSH32 0x3B09349069A59BCDE8C2609AFC86C80B77C81085AC8CD8662981621F7EA3574B DUP5 PUSH1 0x40 MLOAD PUSH2 0x85A SWAP2 SWAP1 PUSH2 0x57E0 JUMP JUMPDEST PUSH1 0x40 MLOAD DUP1 SWAP2 SUB SWAP1 LOG2 POP POP POP POP JUMP JUMPDEST PUSH2 0x87C PUSH8 0xE337774F760E9A40 PUSH1 0xC0 SHL PUSH2 0x4385 JUMP JUMPDEST PUSH2 0x890 PUSH8 0x46E1310D104B915E PUSH1 0xC0 SHL PUSH2 0x4385 JUMP JUMPDEST PUSH2 0x8A4 PUSH8 0x24571EE16619290A PUSH1 0xC0 SHL PUSH2 0x4385 JUMP JUMPDEST PUSH1 0x0 PUSH1 0x6 PUSH1 0x0 DUP4 DUP2 MSTORE PUSH1 0x20 ADD SWAP1 DUP2 MSTORE PUSH1 0x20 ADD PUSH1 0x0 KECCAK256 SWAP1 POP PUSH2 0x8CF PUSH8 0x7CA0EFF31B38E2BB PUSH1 0xC0 SHL PUSH2 0x4385 JUMP JUMPDEST PUSH2 0x8E3 PUSH8 0x4143D54F2137564F PUSH1 0xC0 SHL PUSH2 0x4385 JUMP JUMPDEST PUSH2 0x8F7 PUSH8 0x733A2835EB3CACAF PUSH1 0xC0 SHL PUSH2 0x4385 JUMP JUMPDEST DUP1 PUSH1 0x2 ADD PUSH1 0x14 SWAP1 SLOAD SWAP1 PUSH2 0x100 EXP SWAP1 DIV PUSH6 0xFFFFFFFFFFFF AND PUSH6 0xFFFFFFFFFFFF AND TIMESTAMP GT DUP1 ISZERO PUSH2 0x941 JUMPI POP DUP1 PUSH1 0x2 ADD PUSH1 0x1A SWAP1 SLOAD SWAP1 PUSH2 0x100 EXP SWAP1 DIV PUSH6 0xFFFFFFFFFFFF AND PUSH6 0xFFFFFFFFFFFF AND TIMESTAMP LT JUMPDEST ISZERO PUSH2 0x981 JUMPI PUSH1 0x40 MLOAD PUSH32 0x8C379A000000000000000000000000000000000000000000000000000000000 DUP2 MSTORE PUSH1 0x4 ADD PUSH2 0x978 SWAP1 PUSH2 0x5F7E JUMP JUMPDEST PUSH1 0x40 MLOAD DUP1 SWAP2 SUB SWAP1 REVERT JUMPDEST PUSH2 0x995 PUSH8 0xB2740785C0D91655 PUSH1 0xC0 SHL PUSH2 0x4385 JUMP JUMPDEST PUSH2 0x9A9 PUSH8 0xFABD2290E3A6A3A7 PUSH1 0xC0 SHL PUSH2 0x4385 JUMP JUMPDEST PUSH2 0x9BD PUSH8 0xA4602ADC2292E548 PUSH1 0xC0 SHL PUSH2 0x4385 JUMP JUMPDEST PUSH2 0x9D1 PUSH8 0xC454F4FD74DD3E45 PUSH1 0xC0 SHL PUSH2 0x4385 JUMP JUMPDEST DUP1 PUSH1 0x0 ADD PUSH1 0x0 SWAP1 SLOAD SWAP1 PUSH2 0x100 EXP SWAP1 DIV PUSH1 0xFF AND ISZERO DUP1 ISZERO PUSH2 0x9FF JUMPI POP DUP1 PUSH1 0x0 ADD PUSH1 0x1 SWAP1 SLOAD SWAP1 PUSH2 0x100 EXP SWAP1 DIV PUSH1 0xFF AND ISZERO JUMPDEST PUSH2 0xA3E JUMPI PUSH1 0x40 MLOAD PUSH32 0x8C379A000000000000000000000000000000000000000000000000000000000 DUP2 MSTORE PUSH1 0x4 ADD PUSH2 0xA35 SWAP1 PUSH2 0x6010 JUMP JUMPDEST PUSH1 0x40 MLOAD DUP1 SWAP2 SUB SWAP1 REVERT JUMPDEST PUSH2 0xA52 PUSH8 0x292D88771F86AD51 PUSH1 0xC0 SHL PUSH2 0x4385 JUMP JUMPDEST PUSH2 0xA66 PUSH8 0xD09CDD8F0381252E PUSH1 0xC0 SHL PUSH2 0x4385 JUMP JUMPDEST PUSH2 0xA7A PUSH8 0xC5A2E7C9F6EEDCA4 PUSH1 0xC0 SHL PUSH2 0x4385 JUMP JUMPDEST PUSH2 0xA8E PUSH8 0xBA38543974C696C9 PUSH1 0xC0 SHL PUSH2 0x4385 JUMP JUMPDEST PUSH1 0x1 PUSH2 0xA98 PUSH2 0x3B11 JUMP JUMPDEST PUSH2 0xAA2 SWAP2 SWAP1 PUSH2 0x605F JUMP JUMPDEST DUP2 PUSH1 0x3 ADD SLOAD GT PUSH2 0xAE7 JUMPI PUSH1 0x40 MLOAD PUSH32 0x8C379A000000000000000000000000000000000000000000000000000000000 DUP2 MSTORE PUSH1 0x4 ADD PUSH2 0xADE SWAP1 PUSH2 0x6105 JUMP JUMPDEST PUSH1 0x40 MLOAD DUP1 SWAP2 SUB SWAP1 REVERT JUMPDEST PUSH2 0xAFB PUSH8 0xDCDE73431E72DDC9 PUSH1 0xC0 SHL PUSH2 0x4385 JUMP JUMPDEST PUSH2 0xB0F PUSH8 0x10367FFF1AEBF41 PUSH1 0xC0 SHL PUSH2 0x4385 JUMP JUMPDEST PUSH2 0xB23 PUSH8 0x26E9D4F85919A793 PUSH1 0xC0 SHL PUSH2 0x4385 JUMP JUMPDEST PUSH1 0x0 PUSH1 0x1 DUP2 GT ISZERO PUSH2 0xB37 JUMPI PUSH2 0xB36 PUSH2 0x6125 JUMP JUMPDEST JUMPDEST PUSH1 0x8 PUSH1 0x0 DUP5 DUP2 MSTORE PUSH1 0x20 ADD SWAP1 DUP2 MSTORE PUSH1 0x20 ADD PUSH1 0x0 KECCAK256 PUSH1 0x0 SWAP1 SLOAD SWAP1 PUSH2 0x100 EXP SWAP1 DIV PUSH1 0xFF AND PUSH1 0x1 DUP2 GT ISZERO PUSH2 0xB6A JUMPI PUSH2 0xB69 PUSH2 0x6125 JUMP JUMPDEST JUMPDEST SUB PUSH2 0xCD3 JUMPI PUSH2 0xB83 PUSH8 0x826BB188CA8E1F69 PUSH1 0xC0 SHL PUSH2 0x4385 JUMP JUMPDEST PUSH2 0xB97 PUSH8 0xA0DC6A2B572237AC PUSH1 0xC0 SHL PUSH2 0x4385 JUMP JUMPDEST PUSH2 0xBAB PUSH8 0xB5EF359AAF7DF06F PUSH1 0xC0 SHL PUSH2 0x4385 JUMP JUMPDEST PUSH2 0xC48 PUSH2 0xC43 DUP3 PUSH1 0x1 ADD DUP1 SLOAD PUSH2 0xBC0 SWAP1 PUSH2 0x5C17 JUMP JUMPDEST DUP1 PUSH1 0x1F ADD PUSH1 0x20 DUP1 SWAP2 DIV MUL PUSH1 0x20 ADD PUSH1 0x40 MLOAD SWAP1 DUP2 ADD PUSH1 0x40 MSTORE DUP1 SWAP3 SWAP2 SWAP1 DUP2 DUP2 MSTORE PUSH1 0x20 ADD DUP3 DUP1 SLOAD PUSH2 0xBEC SWAP1 PUSH2 0x5C17 JUMP JUMPDEST DUP1 ISZERO PUSH2 0xC39 JUMPI DUP1 PUSH1 0x1F LT PUSH2 0xC0E JUMPI PUSH2 0x100 DUP1 DUP4 SLOAD DIV MUL DUP4 MSTORE SWAP2 PUSH1 0x20 ADD SWAP2 PUSH2 0xC39 JUMP JUMPDEST DUP3 ADD SWAP2 SWAP1 PUSH1 0x0 MSTORE PUSH1 0x20 PUSH1 0x0 KECCAK256 SWAP1 JUMPDEST DUP2 SLOAD DUP2 MSTORE SWAP1 PUSH1 0x1 ADD SWAP1 PUSH1 0x20 ADD DUP1 DUP4 GT PUSH2 0xC1C JUMPI DUP3 SWAP1 SUB PUSH1 0x1F AND DUP3 ADD SWAP2 JUMPDEST POP POP POP POP POP PUSH2 0x4388 JUMP JUMPDEST PUSH2 0x43BE JUMP JUMPDEST PUSH2 0xC5C PUSH8 0xC931B195FD31276D PUSH1 0xC0 SHL PUSH2 0x4385 JUMP JUMPDEST PUSH1 0x1 DUP2 PUSH1 0x0 ADD PUSH1 0x0 PUSH2 0x100 EXP DUP2 SLOAD DUP2 PUSH1 0xFF MUL NOT AND SWAP1 DUP4 ISZERO ISZERO MUL OR SWAP1 SSTORE POP PUSH2 0xC8D PUSH8 0x4527D30FB3324F60 PUSH1 0xC0 SHL PUSH2 0x4385 JUMP JUMPDEST PUSH2 0xCA1 PUSH8 0x59E73E4455D5B8CD PUSH1 0xC0 SHL PUSH2 0x4385 JUMP JUMPDEST DUP2 PUSH32 0x712AE1383F79AC853F8D882153778E0260EF8F03B504E2866E0593E04D2B291F PUSH1 0x40 MLOAD PUSH1 0x40 MLOAD DUP1 SWAP2 SUB SWAP1 LOG2 PUSH2 0xF70 JUMP JUMPDEST PUSH2 0xCE7 PUSH8 0x2F17E21FAC71BBA7 PUSH1 0xC0 SHL PUSH2 0x4385 JUMP JUMPDEST PUSH2 0xCFB PUSH8 0x707F97B91E9F7E9D PUSH1 0xC0 SHL PUSH2 0x4385 JUMP JUMPDEST PUSH1 0x1 DUP1 DUP2 GT ISZERO PUSH2 0xD0E JUMPI PUSH2 0xD0D PUSH2 0x6125 JUMP JUMPDEST JUMPDEST PUSH1 0x8 PUSH1 0x0 DUP5 DUP2 MSTORE PUSH1 0x20 ADD SWAP1 DUP2 MSTORE PUSH1 0x20 ADD PUSH1 0x0 KECCAK256 PUSH1 0x0 SWAP1 SLOAD SWAP1 PUSH2 0x100 EXP SWAP1 DIV PUSH1 0xFF AND PUSH1 0x1 DUP2 GT ISZERO PUSH2 0xD41 JUMPI PUSH2 0xD40 PUSH2 0x6125 JUMP JUMPDEST JUMPDEST SUB PUSH2 0xF5A JUMPI PUSH2 0xD5A PUSH8 0xA544A4ADA40D58A8 PUSH1 0xC0 SHL PUSH2 0x4385 JUMP JUMPDEST PUSH2 0xD6E PUSH8 0xBF1F35ACD62D5A68 PUSH1 0xC0 SHL PUSH2 0x4385 JUMP JUMPDEST PUSH2 0xD82 PUSH8 0x7F17A20C55ED1C7D PUSH1 0xC0 SHL PUSH2 0x4385 JUMP JUMPDEST PUSH1 0x0 DUP2 PUSH1 0x2 ADD PUSH1 0x0 SWAP1 SLOAD SWAP1 PUSH2 0x100 EXP SWAP1 DIV PUSH20 0xFFFFFFFFFFFFFFFFFFFFFFFFFFFFFFFFFFFFFFFF AND PUSH20 0xFFFFFFFFFFFFFFFFFFFFFFFFFFFFFFFFFFFFFFFF AND DUP3 PUSH1 0x1 ADD PUSH1 0x40 MLOAD PUSH2 0xDD0 SWAP2 SWAP1 PUSH2 0x61F7 JUMP JUMPDEST PUSH1 0x0 PUSH1 0x40 MLOAD DUP1 DUP4 SUB DUP2 PUSH1 0x0 DUP7 GAS CALL SWAP2 POP POP RETURNDATASIZE DUP1 PUSH1 0x0 DUP2 EQ PUSH2 0xE0D JUMPI PUSH1 0x40 MLOAD SWAP2 POP PUSH1 0x1F NOT PUSH1 0x3F RETURNDATASIZE ADD AND DUP3 ADD PUSH1 0x40 MSTORE RETURNDATASIZE DUP3 MSTORE RETURNDATASIZE PUSH1 0x0 PUSH1 0x20 DUP5 ADD RETURNDATACOPY PUSH2 0xE12 JUMP JUMPDEST PUSH1 0x60 SWAP2 POP JUMPDEST POP POP SWAP1 POP PUSH2 0xE2A PUSH8 0x279DD7C23BD22DBC PUSH1 0xC0 SHL PUSH2 0x4385 JUMP JUMPDEST PUSH2 0xE3E PUSH8 0xD6013C9B4DE69D95 PUSH1 0xC0 SHL PUSH2 0x4385 JUMP JUMPDEST DUP1 PUSH2 0xEBA JUMPI PUSH2 0xE57 PUSH8 0xE70CBA83F952D8C1 PUSH1 0xC0 SHL PUSH2 0x4385 JUMP JUMPDEST PUSH2 0xE6B PUSH8 0x51194983AF9B9D66 PUSH1 0xC0 SHL PUSH2 0x4385 JUMP JUMPDEST PUSH2 0xE7F PUSH8 0x2AD5F63BE947735E PUSH1 0xC0 SHL PUSH2 0x4385 JUMP JUMPDEST PUSH1 0x40 MLOAD PUSH32 0x8C379A000000000000000000000000000000000000000000000000000000000 DUP2 MSTORE PUSH1 0x4 ADD PUSH2 0xEB1 SWAP1 PUSH2 0x625A JUMP JUMPDEST PUSH1 0x40 MLOAD DUP1 SWAP2 SUB SWAP1 REVERT JUMPDEST PUSH2 0xECE PUSH8 0x873A5DE28AC246D PUSH1 0xC0 SHL PUSH2 0x4385 JUMP JUMPDEST PUSH2 0xEE2 PUSH8 0x45E72FB56F6F9176 PUSH1 0xC0 SHL PUSH2 0x4385 JUMP JUMPDEST PUSH1 0x1 DUP3 PUSH1 0x0 ADD PUSH1 0x0 PUSH2 0x100 EXP DUP2 SLOAD DUP2 PUSH1 0xFF MUL NOT AND SWAP1 DUP4 ISZERO ISZERO MUL OR SWAP1 SSTORE POP PUSH2 0xF13 PUSH8 0xB9932F1A79BACCA8 PUSH1 0xC0 SHL PUSH2 0x4385 JUMP JUMPDEST PUSH2 0xF27 PUSH8 0xEA5463426D80966E PUSH1 0xC0 SHL PUSH2 0x4385 JUMP JUMPDEST DUP3 PUSH32 0x712AE1383F79AC853F8D882153778E0260EF8F03B504E2866E0593E04D2B291F PUSH1 0x40 MLOAD PUSH1 0x40 MLOAD DUP1 SWAP2 SUB SWAP1 LOG2 POP PUSH2 0xF6F JUMP JUMPDEST PUSH2 0xF6E PUSH8 0x9A720781291B41C6 PUSH1 0xC0 SHL PUSH2 0x4385 JUMP JUMPDEST JUMPDEST JUMPDEST POP POP JUMP JUMPDEST PUSH2 0xF88 PUSH8 0x19A3A620CE652161 PUSH1 0xC0 SHL PUSH2 0x4385 JUMP JUMPDEST CALLER PUSH2 0xF9D PUSH8 0xFB075BFCF845469B PUSH1 0xC0 SHL PUSH2 0x4385 JUMP JUMPDEST PUSH2 0xFB1 PUSH8 0xC1A4C3C680F3D415 PUSH1 0xC0 SHL PUSH2 0x4385 JUMP JUMPDEST PUSH2 0xFC5 PUSH8 0xEEFCF17106C3E890 PUSH1 0xC0 SHL PUSH2 0x4385 JUMP JUMPDEST PUSH2 0xFD9 PUSH8 0xD5E35333D20037AE PUSH1 0xC0 SHL PUSH2 0x4385 JUMP JUMPDEST PUSH1 0x0 PUSH1 0x5 PUSH1 0x0 DUP4 PUSH20 0xFFFFFFFFFFFFFFFFFFFFFFFFFFFFFFFFFFFFFFFF AND PUSH20 0xFFFFFFFFFFFFFFFFFFFFFFFFFFFFFFFFFFFFFFFF AND DUP2 MSTORE PUSH1 0x20 ADD SWAP1 DUP2 MSTORE PUSH1 0x20 ADD PUSH1 0x0 KECCAK256 PUSH1 0x1 ADD DUP1 SLOAD PUSH2 0x1028 SWAP1 PUSH2 0x5C17 JUMP JUMPDEST SWAP1 POP GT PUSH2 0x106A JUMPI PUSH1 0x40 MLOAD PUSH32 0x8C379A000000000000000000000000000000000000000000000000000000000 DUP2 MSTORE PUSH1 0x4 ADD PUSH2 0x1061 SWAP1 PUSH2 0x62C6 JUMP JUMPDEST PUSH1 0x40 MLOAD DUP1 SWAP2 SUB SWAP1 REVERT JUMPDEST PUSH2 0x107E PUSH8 0x80539A81ADA525D5 PUSH1 0xC0 SHL PUSH2 0x4385 JUMP JUMPDEST PUSH2 0x1092 PUSH8 0x36664C8E5F023EEA PUSH1 0xC0 SHL PUSH2 0x4385 JUMP JUMPDEST PUSH2 0x10A6 PUSH8 0x7AA28D33F25A9CC PUSH1 0xC0 SHL PUSH2 0x4385 JUMP JUMPDEST PUSH2 0x10BA PUSH8 0x4ACF237DAD5FE4B PUSH1 0xC0 SHL PUSH2 0x4385 JUMP JUMPDEST PUSH1 0x1 ISZERO ISZERO PUSH1 0x5 PUSH1 0x0 DUP4 PUSH20 0xFFFFFFFFFFFFFFFFFFFFFFFFFFFFFFFFFFFFFFFF AND PUSH20 0xFFFFFFFFFFFFFFFFFFFFFFFFFFFFFFFFFFFFFFFF AND DUP2 MSTORE PUSH1 0x20 ADD SWAP1 DUP2 MSTORE PUSH1 0x20 ADD PUSH1 0x0 KECCAK256 PUSH1 0x0 ADD PUSH1 0x0 SWAP1 SLOAD SWAP1 PUSH2 0x100 EXP SWAP1 DIV PUSH1 0xFF AND ISZERO ISZERO EQ PUSH2 0x1150 JUMPI PUSH1 0x40 MLOAD PUSH32 0x8C379A000000000000000000000000000000000000000000000000000000000 DUP2 MSTORE PUSH1 0x4 ADD PUSH2 0x1147 SWAP1 PUSH2 0x6332 JUMP JUMPDEST PUSH1 0x40 MLOAD DUP1 SWAP2 SUB SWAP1 REVERT JUMPDEST PUSH2 0x1164 PUSH8 0x3772BAA68B2F15BD PUSH1 0xC0 SHL PUSH2 0x4385 JUMP JUMPDEST PUSH2 0x1178 PUSH8 0xB675E2E2761B3712 PUSH1 0xC0 SHL PUSH2 0x4385 JUMP JUMPDEST PUSH2 0x118C PUSH8 0xC9054CF8420A25D2 PUSH1 0xC0 SHL PUSH2 0x4385 JUMP JUMPDEST PUSH2 0x11A0 PUSH8 0x7BBAD3140FD32D0B PUSH1 0xC0 SHL PUSH2 0x4385 JUMP JUMPDEST DUP3 PUSH2 0x11B5 PUSH8 0x4D71F1643D03A850 PUSH1 0xC0 SHL PUSH2 0x4385 JUMP JUMPDEST PUSH2 0x11C9 PUSH8 0x11E6EAC2C5794FD3 PUSH1 0xC0 SHL PUSH2 0x4385 JUMP JUMPDEST PUSH2 0x11DD PUSH8 0x534D33ECC88294DA PUSH1 0xC0 SHL PUSH2 0x4385 JUMP JUMPDEST PUSH2 0x11F1 PUSH8 0xCA05B5FD2C99963E PUSH1 0xC0 SHL PUSH2 0x4385 JUMP JUMPDEST PUSH1 0x0 PUSH1 0x5 PUSH1 0x0 DUP4 PUSH20 0xFFFFFFFFFFFFFFFFFFFFFFFFFFFFFFFFFFFFFFFF AND PUSH20 0xFFFFFFFFFFFFFFFFFFFFFFFFFFFFFFFFFFFFFFFF AND DUP2 MSTORE PUSH1 0x20 ADD SWAP1 DUP2 MSTORE PUSH1 0x20 ADD PUSH1 0x0 KECCAK256 PUSH1 0x1 ADD DUP1 SLOAD PUSH2 0x1240 SWAP1 PUSH2 0x5C17 JUMP JUMPDEST SWAP1 POP GT PUSH2 0x1282 JUMPI PUSH1 0x40 MLOAD PUSH32 0x8C379A000000000000000000000000000000000000000000000000000000000 DUP2 MSTORE PUSH1 0x4 ADD PUSH2 0x1279 SWAP1 PUSH2 0x639E JUMP JUMPDEST PUSH1 0x40 MLOAD DUP1 SWAP2 SUB SWAP1 REVERT JUMPDEST PUSH2 0x1296 PUSH8 0xC83C6C0842D21310 PUSH1 0xC0 SHL PUSH2 0x4385 JUMP JUMPDEST PUSH2 0x12AA PUSH8 0xFD5C77762C4A1741 PUSH1 0xC0 SHL PUSH2 0x4385 JUMP JUMPDEST PUSH2 0x12BE PUSH8 0x3C434570D4A0CE00 PUSH1 0xC0 SHL PUSH2 0x4385 JUMP JUMPDEST PUSH2 0x12D2 PUSH8 0x6C267111791EA416 PUSH1 0xC0 SHL PUSH2 0x4385 JUMP JUMPDEST PUSH2 0x12E6 PUSH8 0x7AEAC33917389707 PUSH1 0xC0 SHL PUSH2 0x4385 JUMP JUMPDEST PUSH2 0x12FA PUSH8 0x3420E343BB5FEFDF PUSH1 0xC0 SHL PUSH2 0x4385 JUMP JUMPDEST PUSH2 0x130E PUSH8 0x15506C915FC09DFB PUSH1 0xC0 SHL PUSH2 0x4385 JUMP JUMPDEST PUSH2 0x1322 PUSH8 0x4EA39614EAE1BB3C PUSH1 0xC0 SHL PUSH2 0x4385 JUMP JUMPDEST PUSH1 0x0 PUSH1 0x3 SLOAD GT PUSH2 0x1367 JUMPI PUSH1 0x40 MLOAD PUSH32 0x8C379A000000000000000000000000000000000000000000000000000000000 DUP2 MSTORE PUSH1 0x4 ADD PUSH2 0x135E SWAP1 PUSH2 0x640A JUMP JUMPDEST PUSH1 0x40 MLOAD DUP1 SWAP2 SUB SWAP1 REVERT JUMPDEST PUSH2 0x137B PUSH8 0x23AB28B14541B06E PUSH1 0xC0 SHL PUSH2 0x4385 JUMP JUMPDEST PUSH2 0x138F PUSH8 0x6B4C0D526C379A8 PUSH1 0xC0 SHL PUSH2 0x4385 JUMP JUMPDEST PUSH2 0x13A3 PUSH8 0x269B2E11192E1A71 PUSH1 0xC0 SHL PUSH2 0x4385 JUMP JUMPDEST PUSH2 0x13B7 PUSH8 0x887E28B2E78621E8 PUSH1 0xC0 SHL PUSH2 0x4385 JUMP JUMPDEST PUSH2 0x13CB PUSH8 0x5AADD74F6660F076 PUSH1 0xC0 SHL PUSH2 0x4385 JUMP JUMPDEST PUSH2 0x13DF PUSH8 0x80B59AAD48345244 PUSH1 0xC0 SHL PUSH2 0x4385 JUMP JUMPDEST PUSH2 0x13F3 PUSH8 0xFB6FCD238EA39475 PUSH1 0xC0 SHL PUSH2 0x4385 JUMP JUMPDEST PUSH2 0x1407 PUSH8 0x3192852F6A146743 PUSH1 0xC0 SHL PUSH2 0x4385 JUMP JUMPDEST PUSH1 0x0 PUSH1 0x4 SLOAD GT PUSH2 0x144C JUMPI PUSH1 0x40 MLOAD PUSH32 0x8C379A000000000000000000000000000000000000000000000000000000000 DUP2 MSTORE PUSH1 0x4 ADD PUSH2 0x1443 SWAP1 PUSH2 0x6476 JUMP JUMPDEST PUSH1 0x40 MLOAD DUP1 SWAP2 SUB SWAP1 REVERT JUMPDEST PUSH2 0x1460 PUSH8 0xC4EB7EC055F01CF5 PUSH1 0xC0 SHL PUSH2 0x4385 JUMP JUMPDEST PUSH2 0x1474 PUSH8 0xD2A9E4409E55E1D5 PUSH1 0xC0 SHL PUSH2 0x4385 JUMP JUMPDEST PUSH2 0x1488 PUSH8 0xB89147F2A444E4A5 PUSH1 0xC0 SHL PUSH2 0x4385 JUMP JUMPDEST PUSH2 0x149C PUSH8 0xB40E327EEB2D5D5B PUSH1 0xC0 SHL PUSH2 0x4385 JUMP JUMPDEST PUSH2 0x14B0 PUSH8 0x4038E4D92CB14E81 PUSH1 0xC0 SHL PUSH2 0x4385 JUMP JUMPDEST PUSH2 0x14C4 PUSH8 0x49432DA15EC245C7 PUSH1 0xC0 SHL PUSH2 0x4385 JUMP JUMPDEST PUSH1 0x0 TIMESTAMP SWAP1 POP PUSH2 0x14DD PUSH8 0xD1A345B482C3E809 PUSH1 0xC0 SHL PUSH2 0x4385 JUMP JUMPDEST PUSH2 0x14F1 PUSH8 0x53B47607DEC25778 PUSH1 0xC0 SHL PUSH2 0x4385 JUMP JUMPDEST PUSH1 0x0 PUSH2 0x14FB PUSH2 0x34C0 JUMP JUMPDEST DUP3 PUSH2 0x1506 SWAP2 SWAP1 PUSH2 0x6496 JUMP JUMPDEST SWAP1 POP PUSH2 0x151C PUSH8 0xF9F1D2E9D9BAECC7 PUSH1 0xC0 SHL PUSH2 0x4385 JUMP JUMPDEST PUSH2 0x1530 PUSH8 0xED67647B3E2D06E1 PUSH1 0xC0 SHL PUSH2 0x4385 JUMP JUMPDEST PUSH1 0x0 PUSH2 0x153A PUSH2 0x21DC JUMP JUMPDEST DUP3 PUSH2 0x1545 SWAP2 SWAP1 PUSH2 0x6496 JUMP JUMPDEST SWAP1 POP PUSH2 0x155B PUSH8 0x833FD338D3901205 PUSH1 0xC0 SHL PUSH2 0x4385 JUMP JUMPDEST PUSH2 0x156F PUSH8 0x95837FE6F01DD9CB PUSH1 0xC0 SHL PUSH2 0x4385 JUMP JUMPDEST PUSH1 0x0 PUSH2 0x157A DUP9 PUSH2 0x45C8 JUMP JUMPDEST SWAP1 POP PUSH2 0x1590 PUSH8 0xE018417B294FA222 PUSH1 0xC0 SHL PUSH2 0x4385 JUMP JUMPDEST PUSH1 0x40 MLOAD DUP1 PUSH2 0x140 ADD PUSH1 0x40 MSTORE DUP1 PUSH1 0x0 ISZERO ISZERO DUP2 MSTORE PUSH1 0x20 ADD PUSH1 0x0 ISZERO ISZERO DUP2 MSTORE PUSH1 0x20 ADD CALLER PUSH20 0xFFFFFFFFFFFFFFFFFFFFFFFFFFFFFFFFFFFFFFFF AND DUP2 MSTORE PUSH1 0x20 ADD DUP3 DUP2 MSTORE PUSH1 0x20 ADD PUSH2 0xDEAD PUSH20 0xFFFFFFFFFFFFFFFFFFFFFFFFFFFFFFFFFFFFFFFF AND DUP2 MSTORE PUSH1 0x20 ADD DUP5 PUSH6 0xFFFFFFFFFFFF AND DUP2 MSTORE PUSH1 0x20 ADD DUP4 PUSH6 0xFFFFFFFFFFFF AND DUP2 MSTORE PUSH1 0x20 ADD PUSH1 0x0 DUP2 MSTORE PUSH1 0x20 ADD PUSH1 0x0 DUP2 MSTORE PUSH1 0x20 ADD DUP9 DUP2 MSTORE POP PUSH1 0x6 PUSH1 0x0 PUSH1 0x1 SLOAD DUP2 MSTORE PUSH1 0x20 ADD SWAP1 DUP2 MSTORE PUSH1 0x20 ADD PUSH1 0x0 KECCAK256 PUSH1 0x0 DUP3 ADD MLOAD DUP2 PUSH1 0x0 ADD PUSH1 0x0 PUSH2 0x100 EXP DUP2 SLOAD DUP2 PUSH1 0xFF MUL NOT AND SWAP1 DUP4 ISZERO ISZERO MUL OR SWAP1 SSTORE POP PUSH1 0x20 DUP3 ADD MLOAD DUP2 PUSH1 0x0 ADD PUSH1 0x1 PUSH2 0x100 EXP DUP2 SLOAD DUP2 PUSH1 0xFF MUL NOT AND SWAP1 DUP4 ISZERO ISZERO MUL OR SWAP1 SSTORE POP PUSH1 0x40 DUP3 ADD MLOAD DUP2 PUSH1 0x0 ADD PUSH1 0x2 PUSH2 0x100 EXP DUP2 SLOAD DUP2 PUSH20 0xFFFFFFFFFFFFFFFFFFFFFFFFFFFFFFFFFFFFFFFF MUL NOT AND SWAP1 DUP4 PUSH20 0xFFFFFFFFFFFFFFFFFFFFFFFFFFFFFFFFFFFFFFFF AND MUL OR SWAP1 SSTORE POP PUSH1 0x60 DUP3 ADD MLOAD DUP2 PUSH1 0x1 ADD SWAP1 DUP2 PUSH2 0x16CD SWAP2 SWAP1 PUSH2 0x6516 JUMP JUMPDEST POP PUSH1 0x80 DUP3 ADD MLOAD DUP2 PUSH1 0x2 ADD PUSH1 0x0 PUSH2 0x100 EXP DUP2 SLOAD DUP2 PUSH20 0xFFFFFFFFFFFFFFFFFFFFFFFFFFFFFFFFFFFFFFFF MUL NOT AND SWAP1 DUP4 PUSH20 0xFFFFFFFFFFFFFFFFFFFFFFFFFFFFFFFFFFFFFFFF AND MUL OR SWAP1 SSTORE POP PUSH1 0xA0 DUP3 ADD MLOAD DUP2 PUSH1 0x2 ADD PUSH1 0x14 PUSH2 0x100 EXP DUP2 SLOAD DUP2 PUSH6 0xFFFFFFFFFFFF MUL NOT AND SWAP1 DUP4 PUSH6 0xFFFFFFFFFFFF AND MUL OR SWAP1 SSTORE POP PUSH1 0xC0 DUP3 ADD MLOAD DUP2 PUSH1 0x2 ADD PUSH1 0x1A PUSH2 0x100 EXP DUP2 SLOAD DUP2 PUSH6 0xFFFFFFFFFFFF MUL NOT AND SWAP1 DUP4 PUSH6 0xFFFFFFFFFFFF AND MUL OR SWAP1 SSTORE POP PUSH1 0xE0 DUP3 ADD MLOAD DUP2 PUSH1 0x3 ADD SSTORE PUSH2 0x100 DUP3 ADD MLOAD DUP2 PUSH1 0x4 ADD SSTORE PUSH2 0x120 DUP3 ADD MLOAD DUP2 PUSH1 0x5 ADD SWAP1 DUP2 PUSH2 0x1796 SWAP2 SWAP1 PUSH2 0x5E60 JUMP JUMPDEST POP SWAP1 POP POP PUSH2 0x17AE PUSH8 0x3DC8ABA21E7CAC31 PUSH1 0xC0 SHL PUSH2 0x4385 JUMP JUMPDEST PUSH1 0x0 PUSH1 0x8 PUSH1 0x0 PUSH1 0x1 SLOAD DUP2 MSTORE PUSH1 0x20 ADD SWAP1 DUP2 MSTORE PUSH1 0x20 ADD PUSH1 0x0 KECCAK256 PUSH1 0x0 PUSH2 0x100 EXP DUP2 SLOAD DUP2 PUSH1 0xFF MUL NOT AND SWAP1 DUP4 PUSH1 0x1 DUP2 GT ISZERO PUSH2 0x17E7 JUMPI PUSH2 0x17E6 PUSH2 0x6125 JUMP JUMPDEST JUMPDEST MUL OR SWAP1 SSTORE POP PUSH2 0x1800 PUSH8 0xFC0AC34E68F5CAD7 PUSH1 0xC0 SHL PUSH2 0x4385 JUMP JUMPDEST PUSH2 0x1814 PUSH8 0x66A5917EA514D4C5 PUSH1 0xC0 SHL PUSH2 0x4385 JUMP JUMPDEST PUSH1 0x1 SLOAD PUSH1 0x0 PUSH1 0x1 DUP2 GT ISZERO PUSH2 0x182B JUMPI PUSH2 0x182A PUSH2 0x6125 JUMP JUMPDEST JUMPDEST PUSH32 0xA7111A86C2F98A3BAF7875CE595B4575567BB709A32769F65176D6E1CBED526E DUP4 PUSH1 0x40 MLOAD PUSH2 0x185A SWAP2 SWAP1 PUSH2 0x6632 JUMP JUMPDEST PUSH1 0x40 MLOAD DUP1 SWAP2 SUB SWAP1 LOG3 PUSH2 0x1876 PUSH8 0xAAF4A9E37458130C PUSH1 0xC0 SHL PUSH2 0x4385 JUMP JUMPDEST PUSH2 0x188A PUSH8 0x6BC5F2B5C0CF444C PUSH1 0xC0 SHL PUSH2 0x4385 JUMP JUMPDEST PUSH1 0x1 PUSH1 0x0 DUP2 SLOAD DUP1 SWAP3 SWAP2 SWAP1 PUSH1 0x1 ADD SWAP2 SWAP1 POP SSTORE POP POP POP POP POP POP POP POP POP JUMP JUMPDEST PUSH2 0x18BA PUSH8 0x7E1619C0EB6CE64D PUSH1 0xC0 SHL PUSH2 0x4385 JUMP JUMPDEST CALLER PUSH2 0x18CF PUSH8 0xFB075BFCF845469B PUSH1 0xC0 SHL PUSH2 0x4385 JUMP JUMPDEST PUSH2 0x18E3 PUSH8 0xC1A4C3C680F3D415 PUSH1 0xC0 SHL PUSH2 0x4385 JUMP JUMPDEST PUSH2 0x18F7 PUSH8 0xEEFCF17106C3E890 PUSH1 0xC0 SHL PUSH2 0x4385 JUMP JUMPDEST PUSH2 0x190B PUSH8 0xD5E35333D20037AE PUSH1 0xC0 SHL PUSH2 0x4385 JUMP JUMPDEST PUSH1 0x0 PUSH1 0x5 PUSH1 0x0 DUP4 PUSH20 0xFFFFFFFFFFFFFFFFFFFFFFFFFFFFFFFFFFFFFFFF AND PUSH20 0xFFFFFFFFFFFFFFFFFFFFFFFFFFFFFFFFFFFFFFFF AND DUP2 MSTORE PUSH1 0x20 ADD SWAP1 DUP2 MSTORE PUSH1 0x20 ADD PUSH1 0x0 KECCAK256 PUSH1 0x1 ADD DUP1 SLOAD PUSH2 0x195A SWAP1 PUSH2 0x5C17 JUMP JUMPDEST SWAP1 POP GT PUSH2 0x199C JUMPI PUSH1 0x40 MLOAD PUSH32 0x8C379A000000000000000000000000000000000000000000000000000000000 DUP2 MSTORE PUSH1 0x4 ADD PUSH2 0x1993 SWAP1 PUSH2 0x62C6 JUMP JUMPDEST PUSH1 0x40 MLOAD DUP1 SWAP2 SUB SWAP1 REVERT JUMPDEST PUSH2 0x19B0 PUSH8 0x80539A81ADA525D5 PUSH1 0xC0 SHL PUSH2 0x4385 JUMP JUMPDEST PUSH2 0x19C4 PUSH8 0x36664C8E5F023EEA PUSH1 0xC0 SHL PUSH2 0x4385 JUMP JUMPDEST PUSH2 0x19D8 PUSH8 0x7AA28D33F25A9CC PUSH1 0xC0 SHL PUSH2 0x4385 JUMP JUMPDEST PUSH2 0x19EC PUSH8 0x4ACF237DAD5FE4B PUSH1 0xC0 SHL PUSH2 0x4385 JUMP JUMPDEST PUSH1 0x1 ISZERO ISZERO PUSH1 0x5 PUSH1 0x0 DUP4 PUSH20 0xFFFFFFFFFFFFFFFFFFFFFFFFFFFFFFFFFFFFFFFF AND PUSH20 0xFFFFFFFFFFFFFFFFFFFFFFFFFFFFFFFFFFFFFFFF AND DUP2 MSTORE PUSH1 0x20 ADD SWAP1 DUP2 MSTORE PUSH1 0x20 ADD PUSH1 0x0 KECCAK256 PUSH1 0x0 ADD PUSH1 0x0 SWAP1 SLOAD SWAP1 PUSH2 0x100 EXP SWAP1 DIV PUSH1 0xFF AND ISZERO ISZERO EQ PUSH2 0x1A82 JUMPI PUSH1 0x40 MLOAD PUSH32 0x8C379A000000000000000000000000000000000000000000000000000000000 DUP2 MSTORE PUSH1 0x4 ADD PUSH2 0x1A79 SWAP1 PUSH2 0x6332 JUMP JUMPDEST PUSH1 0x40 MLOAD DUP1 SWAP2 SUB SWAP1 REVERT JUMPDEST PUSH2 0x1A96 PUSH8 0x3772BAA68B2F15BD PUSH1 0xC0 SHL PUSH2 0x4385 JUMP JUMPDEST PUSH2 0x1AAA PUSH8 0xB675E2E2761B3712 PUSH1 0xC0 SHL PUSH2 0x4385 JUMP JUMPDEST PUSH2 0x1ABE PUSH8 0xEA49A137E84D6F7C PUSH1 0xC0 SHL PUSH2 0x4385 JUMP JUMPDEST PUSH2 0x1AD2 PUSH8 0xC04DCBB038160645 PUSH1 0xC0 SHL PUSH2 0x4385 JUMP JUMPDEST PUSH2 0x1AE6 PUSH8 0xFC9807296C975D67 PUSH1 0xC0 SHL PUSH2 0x4385 JUMP JUMPDEST PUSH2 0x1AFA PUSH8 0x2DEEA7555B7C4EEF PUSH1 0xC0 SHL PUSH2 0x4385 JUMP JUMPDEST PUSH1 0x0 PUSH1 0x7 PUSH1 0x0 DUP6 DUP2 MSTORE PUSH1 0x20 ADD SWAP1 DUP2 MSTORE PUSH1 0x20 ADD PUSH1 0x0 KECCAK256 SWAP1 POP PUSH2 0x1B25 PUSH8 0xD3AA3BE0A03ABB13 PUSH1 0xC0 SHL PUSH2 0x4385 JUMP JUMPDEST PUSH2 0x1B39 PUSH8 0x5EF3FC389F04083E PUSH1 0xC0 SHL PUSH2 0x4385 JUMP JUMPDEST PUSH1 0x0 PUSH1 0x6 PUSH1 0x0 DUP7 DUP2 MSTORE PUSH1 0x20 ADD SWAP1 DUP2 MSTORE PUSH1 0x20 ADD PUSH1 0x0 KECCAK256 SWAP1 POP PUSH2 0x1B64 PUSH8 0xF2B869B23EFDDE1E PUSH1 0xC0 SHL PUSH2 0x4385 JUMP JUMPDEST PUSH2 0x1B78 PUSH8 0xB56FB60F71208F3F PUSH1 0xC0 SHL PUSH2 0x4385 JUMP JUMPDEST PUSH2 0x1B8C PUSH8 0xE773EFA5F9695C0 PUSH1 0xC0 SHL PUSH2 0x4385 JUMP JUMPDEST DUP1 PUSH1 0x2 ADD PUSH1 0x14 SWAP1 SLOAD SWAP1 PUSH2 0x100 EXP SWAP1 DIV PUSH6 0xFFFFFFFFFFFF AND PUSH6 0xFFFFFFFFFFFF AND TIMESTAMP GT DUP1 ISZERO PUSH2 0x1BD6 JUMPI POP DUP1 PUSH1 0x2 ADD PUSH1 0x1A SWAP1 SLOAD SWAP1 PUSH2 0x100 EXP SWAP1 DIV PUSH6 0xFFFFFFFFFFFF AND PUSH6 0xFFFFFFFFFFFF AND TIMESTAMP LT JUMPDEST PUSH2 0x1C15 JUMPI PUSH1 0x40 MLOAD PUSH32 0x8C379A000000000000000000000000000000000000000000000000000000000 DUP2 MSTORE PUSH1 0x4 ADD PUSH2 0x1C0C SWAP1 PUSH2 0x66C6 JUMP JUMPDEST PUSH1 0x40 MLOAD DUP1 SWAP2 SUB SWAP1 REVERT JUMPDEST PUSH2 0x1C29 PUSH8 0x76C3F6A80AE07F2D PUSH1 0xC0 SHL PUSH2 0x4385 JUMP JUMPDEST PUSH2 0x1C3D PUSH8 0x85D69FFD0FAF812F PUSH1 0xC0 SHL PUSH2 0x4385 JUMP JUMPDEST PUSH2 0x1C51 PUSH8 0x974BFE9930E9512B PUSH1 0xC0 SHL PUSH2 0x4385 JUMP JUMPDEST PUSH2 0x1C65 PUSH8 0x118515BFED4CD507 PUSH1 0xC0 SHL PUSH2 0x4385 JUMP JUMPDEST DUP2 PUSH1 0x0 ADD PUSH1 0x0 CALLER PUSH20 0xFFFFFFFFFFFFFFFFFFFFFFFFFFFFFFFFFFFFFFFF AND PUSH20 0xFFFFFFFFFFFFFFFFFFFFFFFFFFFFFFFFFFFFFFFF AND DUP2 MSTORE PUSH1 0x20 ADD SWAP1 DUP2 MSTORE PUSH1 0x20 ADD PUSH1 0x0 KECCAK256 PUSH1 0x0 SWAP1 SLOAD SWAP1 PUSH2 0x100 EXP SWAP1 DIV PUSH1 0xFF AND ISZERO DUP1 ISZERO PUSH2 0x1D0D JUMPI POP DUP2 PUSH1 0x1 ADD PUSH1 0x0 CALLER PUSH20 0xFFFFFFFFFFFFFFFFFFFFFFFFFFFFFFFFFFFFFFFF AND PUSH20 0xFFFFFFFFFFFFFFFFFFFFFFFFFFFFFFFFFFFFFFFF AND DUP2 MSTORE PUSH1 0x20 ADD SWAP1 DUP2 MSTORE PUSH1 0x20 ADD PUSH1 0x0 KECCAK256 PUSH1 0x0 SWAP1 SLOAD SWAP1 PUSH2 0x100 EXP SWAP1 DIV PUSH1 0xFF AND ISZERO JUMPDEST PUSH2 0x1D4C JUMPI PUSH1 0x40 MLOAD PUSH32 0x8C379A000000000000000000000000000000000000000000000000000000000 DUP2 MSTORE PUSH1 0x4 ADD PUSH2 0x1D43 SWAP1 PUSH2 0x6732 JUMP JUMPDEST PUSH1 0x40 MLOAD DUP1 SWAP2 SUB SWAP1 REVERT JUMPDEST PUSH2 0x1D60 PUSH8 0x6142B52C85F66BC3 PUSH1 0xC0 SHL PUSH2 0x4385 JUMP JUMPDEST PUSH2 0x1D74 PUSH8 0xEE8431B1EBBF9EA7 PUSH1 0xC0 SHL PUSH2 0x4385 JUMP JUMPDEST PUSH2 0x1D88 PUSH8 0xD61AA49C254CB6E3 PUSH1 0xC0 SHL PUSH2 0x4385 JUMP JUMPDEST DUP4 ISZERO PUSH2 0x1E51 JUMPI PUSH2 0x1DA2 PUSH8 0x6A18EDF98F193EC4 PUSH1 0xC0 SHL PUSH2 0x4385 JUMP JUMPDEST PUSH2 0x1DB6 PUSH8 0x2F75F55B7488AD2A PUSH1 0xC0 SHL PUSH2 0x4385 JUMP JUMPDEST PUSH2 0x1DCA PUSH8 0xCC3E86FA398CD726 PUSH1 0xC0 SHL PUSH2 0x4385 JUMP JUMPDEST DUP1 PUSH1 0x3 ADD PUSH1 0x0 DUP2 SLOAD DUP1 SWAP3 SWAP2 SWAP1 PUSH1 0x1 ADD SWAP2 SWAP1 POP SSTORE POP PUSH2 0x1DF2 PUSH8 0xE941BE765A91C4C8 PUSH1 0xC0 SHL PUSH2 0x4385 JUMP JUMPDEST PUSH1 0x1 DUP3 PUSH1 0x0 ADD PUSH1 0x0 CALLER PUSH20 0xFFFFFFFFFFFFFFFFFFFFFFFFFFFFFFFFFFFFFFFF AND PUSH20 0xFFFFFFFFFFFFFFFFFFFFFFFFFFFFFFFFFFFFFFFF AND DUP2 MSTORE PUSH1 0x20 ADD SWAP1 DUP2 MSTORE PUSH1 0x20 ADD PUSH1 0x0 KECCAK256 PUSH1 0x0 PUSH2 0x100 EXP DUP2 SLOAD DUP2 PUSH1 0xFF MUL NOT AND SWAP1 DUP4 ISZERO ISZERO MUL OR SWAP1 SSTORE POP PUSH2 0x1F10 JUMP JUMPDEST PUSH2 0x1E65 PUSH8 0xC197A856241FC9F4 PUSH1 0xC0 SHL PUSH2 0x4385 JUMP JUMPDEST PUSH2 0x1E79 PUSH8 0x6990501246CAFEB4 PUSH1 0xC0 SHL PUSH2 0x4385 JUMP JUMPDEST PUSH2 0x1E8D PUSH8 0xEBCD647F74A59C6B PUSH1 0xC0 SHL PUSH2 0x4385 JUMP JUMPDEST DUP1 PUSH1 0x4 ADD PUSH1 0x0 DUP2 SLOAD DUP1 SWAP3 SWAP2 SWAP1 PUSH1 0x1 ADD SWAP2 SWAP1 POP SSTORE POP PUSH2 0x1EB5 PUSH8 0x2283026DA3F33168 PUSH1 0xC0 SHL PUSH2 0x4385 JUMP JUMPDEST PUSH1 0x1 DUP3 PUSH1 0x1 ADD PUSH1 0x0 CALLER PUSH20 0xFFFFFFFFFFFFFFFFFFFFFFFFFFFFFFFFFFFFFFFF AND PUSH20 0xFFFFFFFFFFFFFFFFFFFFFFFFFFFFFFFFFFFFFFFF AND DUP2 MSTORE PUSH1 0x20 ADD SWAP1 DUP2 MSTORE PUSH1 0x20 ADD PUSH1 0x0 KECCAK256 PUSH1 0x0 PUSH2 0x100 EXP DUP2 SLOAD DUP2 PUSH1 0xFF MUL NOT AND SWAP1 DUP4 ISZERO ISZERO MUL OR SWAP1 SSTORE POP JUMPDEST PUSH2 0x1F24 PUSH8 0xFC79AF117E56CF26 PUSH1 0xC0 SHL PUSH2 0x4385 JUMP JUMPDEST PUSH2 0x1F38 PUSH8 0x641E0C20A9FEC609 PUSH1 0xC0 SHL PUSH2 0x4385 JUMP JUMPDEST CALLER PUSH20 0xFFFFFFFFFFFFFFFFFFFFFFFFFFFFFFFFFFFFFFFF AND PUSH32 0xB8E138887D0AA13BAB447E82DE9D5C1777041ECD21CA36BA824FF1E6C07DDDA4 DUP7 DUP7 PUSH2 0x1F7D JUMPI PUSH1 0x0 PUSH2 0x1F80 JUMP JUMPDEST PUSH1 0x1 JUMPDEST PUSH1 0x0 DUP6 PUSH1 0x5 ADD PUSH1 0x40 MLOAD PUSH2 0x1F96 SWAP5 SWAP4 SWAP3 SWAP2 SWAP1 PUSH2 0x682D JUMP JUMPDEST PUSH1 0x40 MLOAD DUP1 SWAP2 SUB SWAP1 LOG2 POP POP POP POP POP JUMP JUMPDEST PUSH1 0x0 PUSH2 0x1FBB PUSH8 0xF6AF478933C588EE PUSH1 0xC0 SHL PUSH2 0x4385 JUMP JUMPDEST PUSH2 0x1FCF PUSH8 0x23FEFA6EA44591FA PUSH1 0xC0 SHL PUSH2 0x4385 JUMP JUMPDEST PUSH2 0x1FE3 PUSH8 0x6A82211D099F0587 PUSH1 0xC0 SHL PUSH2 0x4385 JUMP JUMPDEST PUSH1 0x0 PUSH1 0x1 SLOAD SWAP1 POP PUSH2 0x1FFE PUSH8 0x22D55A9543AC743A PUSH1 0xC0 SHL PUSH2 0x4385 JUMP JUMPDEST PUSH2 0x2012 PUSH8 0x2601817610696356 PUSH1 0xC0 SHL PUSH2 0x4385 JUMP JUMPDEST PUSH1 0x0 TIMESTAMP SWAP1 POP PUSH2 0x202B PUSH8 0x4A5B11D59A6F13AA PUSH1 0xC0 SHL PUSH2 0x4385 JUMP JUMPDEST PUSH2 0x203F PUSH8 0x63D366E511CA6DB6 PUSH1 0xC0 SHL PUSH2 0x4385 JUMP JUMPDEST PUSH1 0x0 JUMPDEST DUP3 DUP2 LT ISZERO PUSH2 0x21D0 JUMPI PUSH2 0x205E PUSH8 0xA45E913C0EF5E0B6 PUSH1 0xC0 SHL PUSH2 0x4385 JUMP JUMPDEST PUSH2 0x2072 PUSH8 0x8627C323D77D1ABA PUSH1 0xC0 SHL PUSH2 0x4385 JUMP JUMPDEST PUSH1 0x6 PUSH1 0x0 DUP3 DUP2 MSTORE PUSH1 0x20 ADD SWAP1 DUP2 MSTORE PUSH1 0x20 ADD PUSH1 0x0 KECCAK256 PUSH1 0x0 ADD PUSH1 0x0 SWAP1 SLOAD SWAP1 PUSH2 0x100 EXP SWAP1 DIV PUSH1 0xFF AND ISZERO DUP1 ISZERO PUSH2 0x20C4 JUMPI POP PUSH1 0x6 PUSH1 0x0 DUP3 DUP2 MSTORE PUSH1 0x20 ADD SWAP1 DUP2 MSTORE PUSH1 0x20 ADD PUSH1 0x0 KECCAK256 PUSH1 0x0 ADD PUSH1 0x1 SWAP1 SLOAD SWAP1 PUSH2 0x100 EXP SWAP1 DIV PUSH1 0xFF AND ISZERO JUMPDEST DUP1 ISZERO PUSH2 0x20FF JUMPI POP PUSH1 0x6 PUSH1 0x0 DUP3 DUP2 MSTORE PUSH1 0x20 ADD SWAP1 DUP2 MSTORE PUSH1 0x20 ADD PUSH1 0x0 KECCAK256 PUSH1 0x2 ADD PUSH1 0x14 SWAP1 SLOAD SWAP1 PUSH2 0x100 EXP SWAP1 DIV PUSH6 0xFFFFFFFFFFFF AND PUSH6 0xFFFFFFFFFFFF AND DUP3 GT JUMPDEST DUP1 ISZERO PUSH2 0x213A JUMPI POP PUSH1 0x6 PUSH1 0x0 DUP3 DUP2 MSTORE PUSH1 0x20 ADD SWAP1 DUP2 MSTORE PUSH1 0x20 ADD PUSH1 0x0 KECCAK256 PUSH1 0x2 ADD PUSH1 0x1A SWAP1 SLOAD SWAP1 PUSH2 0x100 EXP SWAP1 DIV PUSH6 0xFFFFFFFFFFFF AND PUSH6 0xFFFFFFFFFFFF AND DUP3 LT JUMPDEST ISZERO PUSH2 0x2188 JUMPI PUSH2 0x2153 PUSH8 0xDB1BD6CB21585EAF PUSH1 0xC0 SHL PUSH2 0x4385 JUMP JUMPDEST PUSH2 0x2167 PUSH8 0xAC5A22ADDDC0AC4C PUSH1 0xC0 SHL PUSH2 0x4385 JUMP JUMPDEST PUSH2 0x217B PUSH8 0xEA51C5381F1C7551 PUSH1 0xC0 SHL PUSH2 0x4385 JUMP JUMPDEST DUP4 DUP1 PUSH1 0x1 ADD SWAP5 POP POP PUSH2 0x219D JUMP JUMPDEST PUSH2 0x219C PUSH8 0x641CD0A9F3D37D40 PUSH1 0xC0 SHL PUSH2 0x4385 JUMP JUMPDEST JUMPDEST PUSH2 0x21B1 PUSH8 0x8BB452ACB5B3DC1D PUSH1 0xC0 SHL PUSH2 0x4385 JUMP JUMPDEST PUSH2 0x21C5 PUSH8 0xFEEA11B56A19C3D8 PUSH1 0xC0 SHL PUSH2 0x4385 JUMP JUMPDEST DUP1 PUSH1 0x1 ADD SWAP1 POP PUSH2 0x2042 JUMP JUMPDEST POP POP POP SWAP1 JUMP JUMPDEST PUSH1 0x3 SLOAD DUP2 JUMP JUMPDEST PUSH1 0x0 PUSH2 0x21F2 PUSH8 0xB1C97ADB8AB3DEFE PUSH1 0xC0 SHL PUSH2 0x4385 JUMP JUMPDEST PUSH2 0x2206 PUSH8 0x15414DE5D411238B PUSH1 0xC0 SHL PUSH2 0x4385 JUMP JUMPDEST PUSH2 0x221A PUSH8 0xDC9ECD21F24A3B91 PUSH1 0xC0 SHL PUSH2 0x4385 JUMP JUMPDEST PUSH1 0x4 SLOAD SWAP1 POP SWAP1 JUMP JUMPDEST PUSH2 0x2236 PUSH8 0x7E102C9DCA1921C9 PUSH1 0xC0 SHL PUSH2 0x4385 JUMP JUMPDEST PUSH1 0x0 PUSH2 0x2240 PUSH2 0x462D JUMP JUMPDEST SWAP1 POP PUSH1 0x0 DUP2 PUSH1 0x0 ADD PUSH1 0x8 SWAP1 SLOAD SWAP1 PUSH2 0x100 EXP SWAP1 DIV PUSH1 0xFF AND ISZERO SWAP1 POP PUSH1 0x0 DUP3 PUSH1 0x0 ADD PUSH1 0x0 SWAP1 SLOAD SWAP1 PUSH2 0x100 EXP SWAP1 DIV PUSH8 0xFFFFFFFFFFFFFFFF AND SWAP1 POP PUSH1 0x0 DUP1 DUP3 PUSH8 0xFFFFFFFFFFFFFFFF AND EQ DUP1 ISZERO PUSH2 0x228E JUMPI POP DUP3 JUMPDEST SWAP1 POP PUSH1 0x0 PUSH1 0x1 DUP4 PUSH8 0xFFFFFFFFFFFFFFFF AND EQ DUP1 ISZERO PUSH2 0x22C3 JUMPI POP PUSH1 0x0 ADDRESS PUSH20 0xFFFFFFFFFFFFFFFFFFFFFFFFFFFFFFFFFFFFFFFF AND EXTCODESIZE EQ JUMPDEST SWAP1 POP DUP2 ISZERO DUP1 ISZERO PUSH2 0x22D1 JUMPI POP DUP1 ISZERO JUMPDEST ISZERO PUSH2 0x2308 JUMPI PUSH1 0x40 MLOAD PUSH32 0xF92EE8A900000000000000000000000000000000000000000000000000000000 DUP2 MSTORE PUSH1 0x4 ADD PUSH1 0x40 MLOAD DUP1 SWAP2 SUB SWAP1 REVERT JUMPDEST PUSH1 0x1 DUP6 PUSH1 0x0 ADD PUSH1 0x0 PUSH2 0x100 EXP DUP2 SLOAD DUP2 PUSH8 0xFFFFFFFFFFFFFFFF MUL NOT AND SWAP1 DUP4 PUSH8 0xFFFFFFFFFFFFFFFF AND MUL OR SWAP1 SSTORE POP DUP4 ISZERO PUSH2 0x2358 JUMPI PUSH1 0x1 DUP6 PUSH1 0x0 ADD PUSH1 0x8 PUSH2 0x100 EXP DUP2 SLOAD DUP2 PUSH1 0xFF MUL NOT AND SWAP1 DUP4 ISZERO ISZERO MUL OR SWAP1 SSTORE POP JUMPDEST PUSH2 0x236C PUSH8 0xA1F541CA7EDC3F3C PUSH1 0xC0 SHL PUSH2 0x4385 JUMP JUMPDEST PUSH2 0x2380 PUSH8 0x30A6553F67756D44 PUSH1 0xC0 SHL PUSH2 0x4385 JUMP JUMPDEST PUSH2 0x2394 PUSH8 0x1CC91E8041FEE8EE PUSH1 0xC0 SHL PUSH2 0x4385 JUMP JUMPDEST PUSH2 0x23A8 PUSH8 0xD5C2B14A305F76C2 PUSH1 0xC0 SHL PUSH2 0x4385 JUMP JUMPDEST PUSH2 0x23B1 CALLER PUSH2 0x4655 JUMP JUMPDEST PUSH2 0x23C5 PUSH8 0xA5F3238CC6B23CDF PUSH1 0xC0 SHL PUSH2 0x4385 JUMP JUMPDEST PUSH2 0x23D9 PUSH8 0x7D30BA20331466FA PUSH1 0xC0 SHL PUSH2 0x4385 JUMP JUMPDEST PUSH2 0x23E1 PUSH2 0x4669 JUMP JUMPDEST PUSH2 0x23F5 PUSH8 0x7843A9633A89854E PUSH1 0xC0 SHL PUSH2 0x4385 JUMP JUMPDEST PUSH2 0x2409 PUSH8 0x9345C46CC6956041 PUSH1 0xC0 SHL PUSH2 0x4385 JUMP JUMPDEST PUSH2 0x2411 PUSH2 0x4EF0 JUMP JUMPDEST PUSH2 0x2425 PUSH8 0xFF9D746696A0197F PUSH1 0xC0 SHL PUSH2 0x4385 JUMP JUMPDEST DUP7 DUP2 PUSH1 0x20 ADD DUP2 SWAP1 MSTORE POP PUSH2 0x2442 PUSH8 0xF838D539AFA5DC6A PUSH1 0xC0 SHL PUSH2 0x4385 JUMP JUMPDEST PUSH1 0x1 DUP2 PUSH1 0x0 ADD SWAP1 ISZERO ISZERO SWAP1 DUP2 ISZERO ISZERO DUP2 MSTORE POP POP PUSH2 0x2467 PUSH8 0x530A39CE6B4E0ECE PUSH1 0xC0 SHL PUSH2 0x4385 JUMP JUMPDEST DUP1 PUSH1 0x5 PUSH1 0x0 CALLER PUSH20 0xFFFFFFFFFFFFFFFFFFFFFFFFFFFFFFFFFFFFFFFF AND PUSH20 0xFFFFFFFFFFFFFFFFFFFFFFFFFFFFFFFFFFFFFFFF AND DUP2 MSTORE PUSH1 0x20 ADD SWAP1 DUP2 MSTORE PUSH1 0x20 ADD PUSH1 0x0 KECCAK256 PUSH1 0x0 DUP3 ADD MLOAD DUP2 PUSH1 0x0 ADD PUSH1 0x0 PUSH2 0x100 EXP DUP2 SLOAD DUP2 PUSH1 0xFF MUL NOT AND SWAP1 DUP4 ISZERO ISZERO MUL OR SWAP1 SSTORE POP PUSH1 0x20 DUP3 ADD MLOAD DUP2 PUSH1 0x1 ADD SWAP1 DUP2 PUSH2 0x24DC SWAP2 SWAP1 PUSH2 0x5E60 JUMP JUMPDEST POP SWAP1 POP POP PUSH2 0x24F4 PUSH8 0x8375E39705AE8CFF PUSH1 0xC0 SHL PUSH2 0x4385 JUMP JUMPDEST PUSH1 0x1 PUSH1 0x0 DUP2 SWAP1 SSTORE POP PUSH2 0x2510 PUSH8 0xB409037CC53FEDEF PUSH1 0xC0 SHL PUSH2 0x4385 JUMP JUMPDEST DUP8 PUSH1 0x2 SWAP1 DUP2 PUSH2 0x251F SWAP2 SWAP1 PUSH2 0x5E60 JUMP JUMPDEST POP POP DUP4 ISZERO PUSH2 0x257D JUMPI PUSH1 0x0 DUP6 PUSH1 0x0 ADD PUSH1 0x8 PUSH2 0x100 EXP DUP2 SLOAD DUP2 PUSH1 0xFF MUL NOT AND SWAP1 DUP4 ISZERO ISZERO MUL OR SWAP1 SSTORE POP PUSH32 0xC7F505B2F371AE2175EE4913F4499E1F2633A7B5936321EED1CDAEB6115181D2 PUSH1 0x1 PUSH1 0x40 MLOAD PUSH2 0x2574 SWAP2 SWAP1 PUSH2 0x68C8 JUMP JUMPDEST PUSH1 0x40 MLOAD DUP1 SWAP2 SUB SWAP1 LOG1 JUMPDEST POP POP POP POP POP POP POP JUMP JUMPDEST PUSH2 0x258E PUSH2 0x4673 JUMP JUMPDEST PUSH2 0x2597 DUP3 PUSH2 0x4759 JUMP JUMPDEST PUSH2 0x25A1 DUP3 DUP3 PUSH2 0x47A0 JUMP JUMPDEST POP POP JUMP JUMPDEST PUSH1 0x0 PUSH2 0x25AF PUSH2 0x48BF JUMP JUMPDEST PUSH32 0x360894A13BA1A3210667C828492DB98DCA3E2076CC3735A920A3CA505D382BBC PUSH1 0x0 SHL SWAP1 POP SWAP1 JUMP JUMPDEST PUSH1 0x60 PUSH1 0x0 PUSH2 0x25F0 PUSH8 0x22C97B7286E43DAA PUSH1 0xC0 SHL PUSH2 0x4385 JUMP JUMPDEST PUSH2 0x2604 PUSH8 0x1D7518CD7744BD1F PUSH1 0xC0 SHL PUSH2 0x4385 JUMP JUMPDEST DUP3 PUSH8 0xFFFFFFFFFFFFFFFF DUP2 GT ISZERO PUSH2 0x261E JUMPI PUSH2 0x261D PUSH2 0x5060 JUMP JUMPDEST JUMPDEST PUSH1 0x40 MLOAD SWAP1 DUP1 DUP3 MSTORE DUP1 PUSH1 0x20 MUL PUSH1 0x20 ADD DUP3 ADD PUSH1 0x40 MSTORE DUP1 ISZERO PUSH2 0x2657 JUMPI DUP2 PUSH1 0x20 ADD JUMPDEST PUSH2 0x2644 PUSH2 0x4F0C JUMP JUMPDEST DUP2 MSTORE PUSH1 0x20 ADD SWAP1 PUSH1 0x1 SWAP1 SUB SWAP1 DUP2 PUSH2 0x263C JUMPI SWAP1 POP JUMPDEST POP SWAP2 POP PUSH2 0x266E PUSH8 0x36779A7D0CADB750 PUSH1 0xC0 SHL PUSH2 0x4385 JUMP JUMPDEST PUSH2 0x2682 PUSH8 0x47EECB58696E6DEC PUSH1 0xC0 SHL PUSH2 0x4385 JUMP JUMPDEST PUSH1 0x0 DUP4 SWAP1 POP PUSH2 0x269B PUSH8 0xDD20F159BBAF9D05 PUSH1 0xC0 SHL PUSH2 0x4385 JUMP JUMPDEST PUSH2 0x26AF PUSH8 0x70ED242D78689147 PUSH1 0xC0 SHL PUSH2 0x4385 JUMP JUMPDEST DUP5 DUP4 MLOAD PUSH2 0x26BC SWAP2 SWAP1 PUSH2 0x605F JUMP JUMPDEST DUP2 GT ISZERO PUSH2 0x26FF JUMPI PUSH2 0x26D7 PUSH8 0x85364677FD48F0B3 PUSH1 0xC0 SHL PUSH2 0x4385 JUMP JUMPDEST PUSH2 0x26EB PUSH8 0xAAC42DADCCEC224C PUSH1 0xC0 SHL PUSH2 0x4385 JUMP JUMPDEST DUP5 DUP4 MLOAD PUSH2 0x26F8 SWAP2 SWAP1 PUSH2 0x605F JUMP JUMPDEST SWAP1 POP PUSH2 0x2714 JUMP JUMPDEST PUSH2 0x2713 PUSH8 0xC8A70738652ED875 PUSH1 0xC0 SHL PUSH2 0x4385 JUMP JUMPDEST JUMPDEST PUSH2 0x2728 PUSH8 0x6E5F718EC60F65C2 PUSH1 0xC0 SHL PUSH2 0x4385 JUMP JUMPDEST PUSH2 0x273C PUSH8 0xA1C7D2EEDE2DE0FF PUSH1 0xC0 SHL PUSH2 0x4385 JUMP JUMPDEST PUSH1 0x0 JUMPDEST DUP2 DUP2 LT ISZERO PUSH2 0x2A48 JUMPI PUSH2 0x275B PUSH8 0x4ABD2FA7495B4DC PUSH1 0xC0 SHL PUSH2 0x4385 JUMP JUMPDEST PUSH1 0x6 PUSH1 0x0 DUP3 DUP9 PUSH2 0x276B SWAP2 SWAP1 PUSH2 0x68E3 JUMP JUMPDEST DUP2 MSTORE PUSH1 0x20 ADD SWAP1 DUP2 MSTORE PUSH1 0x20 ADD PUSH1 0x0 KECCAK256 PUSH1 0x40 MLOAD DUP1 PUSH2 0x140 ADD PUSH1 0x40 MSTORE SWAP1 DUP2 PUSH1 0x0 DUP3 ADD PUSH1 0x0 SWAP1 SLOAD SWAP1 PUSH2 0x100 EXP SWAP1 DIV PUSH1 0xFF AND ISZERO ISZERO ISZERO ISZERO DUP2 MSTORE PUSH1 0x20 ADD PUSH1 0x0 DUP3 ADD PUSH1 0x1 SWAP1 SLOAD SWAP1 PUSH2 0x100 EXP SWAP1 DIV PUSH1 0xFF AND ISZERO ISZERO ISZERO ISZERO DUP2 MSTORE PUSH1 0x20 ADD PUSH1 0x0 DUP3 ADD PUSH1 0x2 SWAP1 SLOAD SWAP1 PUSH2 0x100 EXP SWAP1 DIV PUSH20 0xFFFFFFFFFFFFFFFFFFFFFFFFFFFFFFFFFFFFFFFF AND PUSH20 0xFFFFFFFFFFFFFFFFFFFFFFFFFFFFFFFFFFFFFFFF AND PUSH20 0xFFFFFFFFFFFFFFFFFFFFFFFFFFFFFFFFFFFFFFFF AND DUP2 MSTORE PUSH1 0x20 ADD PUSH1 0x1 DUP3 ADD DUP1 SLOAD PUSH2 0x2821 SWAP1 PUSH2 0x5C17 JUMP JUMPDEST DUP1 PUSH1 0x1F ADD PUSH1 0x20 DUP1 SWAP2 DIV MUL PUSH1 0x20 ADD PUSH1 0x40 MLOAD SWAP1 DUP2 ADD PUSH1 0x40 MSTORE DUP1 SWAP3 SWAP2 SWAP1 DUP2 DUP2 MSTORE PUSH1 0x20 ADD DUP3 DUP1 SLOAD PUSH2 0x284D SWAP1 PUSH2 0x5C17 JUMP JUMPDEST DUP1 ISZERO PUSH2 0x289A JUMPI DUP1 PUSH1 0x1F LT PUSH2 0x286F JUMPI PUSH2 0x100 DUP1 DUP4 SLOAD DIV MUL DUP4 MSTORE SWAP2 PUSH1 0x20 ADD SWAP2 PUSH2 0x289A JUMP JUMPDEST DUP3 ADD SWAP2 SWAP1 PUSH1 0x0 MSTORE PUSH1 0x20 PUSH1 0x0 KECCAK256 SWAP1 JUMPDEST DUP2 SLOAD DUP2 MSTORE SWAP1 PUSH1 0x1 ADD SWAP1 PUSH1 0x20 ADD DUP1 DUP4 GT PUSH2 0x287D JUMPI DUP3 SWAP1 SUB PUSH1 0x1F AND DUP3 ADD SWAP2 JUMPDEST POP POP POP POP POP DUP2 MSTORE PUSH1 0x20 ADD PUSH1 0x2 DUP3 ADD PUSH1 0x0 SWAP1 SLOAD SWAP1 PUSH2 0x100 EXP SWAP1 DIV PUSH20 0xFFFFFFFFFFFFFFFFFFFFFFFFFFFFFFFFFFFFFFFF AND PUSH20 0xFFFFFFFFFFFFFFFFFFFFFFFFFFFFFFFFFFFFFFFF AND PUSH20 0xFFFFFFFFFFFFFFFFFFFFFFFFFFFFFFFFFFFFFFFF AND DUP2 MSTORE PUSH1 0x20 ADD PUSH1 0x2 DUP3 ADD PUSH1 0x14 SWAP1 SLOAD SWAP1 PUSH2 0x100 EXP SWAP1 DIV PUSH6 0xFFFFFFFFFFFF AND PUSH6 0xFFFFFFFFFFFF AND PUSH6 0xFFFFFFFFFFFF AND DUP2 MSTORE PUSH1 0x20 ADD PUSH1 0x2 DUP3 ADD PUSH1 0x1A SWAP1 SLOAD SWAP1 PUSH2 0x100 EXP SWAP1 DIV PUSH6 0xFFFFFFFFFFFF AND PUSH6 0xFFFFFFFFFFFF AND PUSH6 0xFFFFFFFFFFFF AND DUP2 MSTORE PUSH1 0x20 ADD PUSH1 0x3 DUP3 ADD SLOAD DUP2 MSTORE PUSH1 0x20 ADD PUSH1 0x4 DUP3 ADD SLOAD DUP2 MSTORE PUSH1 0x20 ADD PUSH1 0x5 DUP3 ADD DUP1 SLOAD PUSH2 0x2975 SWAP1 PUSH2 0x5C17 JUMP JUMPDEST DUP1 PUSH1 0x1F ADD PUSH1 0x20 DUP1 SWAP2 DIV MUL PUSH1 0x20 ADD PUSH1 0x40 MLOAD SWAP1 DUP2 ADD PUSH1 0x40 MSTORE DUP1 SWAP3 SWAP2 SWAP1 DUP2 DUP2 MSTORE PUSH1 0x20 ADD DUP3 DUP1 SLOAD PUSH2 0x29A1 SWAP1 PUSH2 0x5C17 JUMP JUMPDEST DUP1 ISZERO PUSH2 0x29EE JUMPI DUP1 PUSH1 0x1F LT PUSH2 0x29C3 JUMPI PUSH2 0x100 DUP1 DUP4 SLOAD DIV MUL DUP4 MSTORE SWAP2 PUSH1 0x20 ADD SWAP2 PUSH2 0x29EE JUMP JUMPDEST DUP3 ADD SWAP2 SWAP1 PUSH1 0x0 MSTORE PUSH1 0x20 PUSH1 0x0 KECCAK256 SWAP1 JUMPDEST DUP2 SLOAD DUP2 MSTORE SWAP1 PUSH1 0x1 ADD SWAP1 PUSH1 0x20 ADD DUP1 DUP4 GT PUSH2 0x29D1 JUMPI DUP3 SWAP1 SUB PUSH1 0x1F AND DUP3 ADD SWAP2 JUMPDEST POP POP POP POP POP DUP2 MSTORE POP POP DUP5 DUP3 DUP2 MLOAD DUP2 LT PUSH2 0x2A0A JUMPI PUSH2 0x2A09 PUSH2 0x6917 JUMP JUMPDEST JUMPDEST PUSH1 0x20 MUL PUSH1 0x20 ADD ADD DUP2 SWAP1 MSTORE POP PUSH2 0x2A29 PUSH8 0x225BA18B524AA29F PUSH1 0xC0 SHL PUSH2 0x4385 JUMP JUMPDEST PUSH2 0x2A3D PUSH8 0x18E9383B3E82392C PUSH1 0xC0 SHL PUSH2 0x4385 JUMP JUMPDEST DUP1 PUSH1 0x1 ADD SWAP1 POP PUSH2 0x273F JUMP JUMPDEST POP PUSH2 0x2A5D PUSH8 0x655B27C5E03836A4 PUSH1 0xC0 SHL PUSH2 0x4385 JUMP JUMPDEST PUSH2 0x2A71 PUSH8 0x216D2A74C95EAF7 PUSH1 0xC0 SHL PUSH2 0x4385 JUMP JUMPDEST DUP3 DUP2 DUP7 PUSH2 0x2A7E SWAP2 SWAP1 PUSH2 0x68E3 JUMP JUMPDEST SWAP3 POP SWAP3 POP POP SWAP3 POP SWAP3 SWAP1 POP JUMP JUMPDEST PUSH1 0x2 DUP1 SLOAD PUSH2 0x2A97 SWAP1 PUSH2 0x5C17 JUMP JUMPDEST DUP1 PUSH1 0x1F ADD PUSH1 0x20 DUP1 SWAP2 DIV MUL PUSH1 0x20 ADD PUSH1 0x40 MLOAD SWAP1 DUP2 ADD PUSH1 0x40 MSTORE DUP1 SWAP3 SWAP2 SWAP1 DUP2 DUP2 MSTORE PUSH1 0x20 ADD DUP3 DUP1 SLOAD PUSH2 0x2AC3 SWAP1 PUSH2 0x5C17 JUMP JUMPDEST DUP1 ISZERO PUSH2 0x2B10 JUMPI DUP1 PUSH1 0x1F LT PUSH2 0x2AE5 JUMPI PUSH2 0x100 DUP1 DUP4 SLOAD DIV MUL DUP4 MSTORE SWAP2 PUSH1 0x20 ADD SWAP2 PUSH2 0x2B10 JUMP JUMPDEST DUP3 ADD SWAP2 SWAP1 PUSH1 0x0 MSTORE PUSH1 0x20 PUSH1 0x0 KECCAK256 SWAP1 JUMPDEST DUP2 SLOAD DUP2 MSTORE SWAP1 PUSH1 0x1 ADD SWAP1 PUSH1 0x20 ADD DUP1 DUP4 GT PUSH2 0x2AF3 JUMPI DUP3 SWAP1 SUB PUSH1 0x1F AND DUP3 ADD SWAP2 JUMPDEST POP POP POP POP POP DUP2 JUMP JUMPDEST PUSH2 0x2B2C PUSH8 0x7F5DCC9ACDC3A8D2 PUSH1 0xC0 SHL PUSH2 0x4385 JUMP JUMPDEST PUSH2 0x2B34 PUSH2 0x4946 JUMP JUMPDEST PUSH2 0x2B48 PUSH8 0x3504A8084799283B PUSH1 0xC0 SHL PUSH2 0x4385 JUMP JUMPDEST PUSH2 0x2B5C PUSH8 0xF1A89C0BDAEA3E7C PUSH1 0xC0 SHL PUSH2 0x4385 JUMP JUMPDEST PUSH2 0x2B70 PUSH8 0x2664F3EDE90EC976 PUSH1 0xC0 SHL PUSH2 0x4385 JUMP JUMPDEST DUP1 PUSH1 0x3 DUP2 SWAP1 SSTORE POP POP JUMP JUMPDEST PUSH2 0x2B82 PUSH2 0x4946 JUMP JUMPDEST PUSH2 0x2B8C PUSH1 0x0 PUSH2 0x49CD JUMP JUMPDEST JUMP JUMPDEST PUSH1 0x0 PUSH2 0x2BA4 PUSH8 0xABA0C161043E682E PUSH1 0xC0 SHL PUSH2 0x4385 JUMP JUMPDEST CALLER PUSH2 0x2BB9 PUSH8 0xFB075BFCF845469B PUSH1 0xC0 SHL PUSH2 0x4385 JUMP JUMPDEST PUSH2 0x2BCD PUSH8 0xC1A4C3C680F3D415 PUSH1 0xC0 SHL PUSH2 0x4385 JUMP JUMPDEST PUSH2 0x2BE1 PUSH8 0xEEFCF17106C3E890 PUSH1 0xC0 SHL PUSH2 0x4385 JUMP JUMPDEST PUSH2 0x2BF5 PUSH8 0xD5E35333D20037AE PUSH1 0xC0 SHL PUSH2 0x4385 JUMP JUMPDEST PUSH1 0x0 PUSH1 0x5 PUSH1 0x0 DUP4 PUSH20 0xFFFFFFFFFFFFFFFFFFFFFFFFFFFFFFFFFFFFFFFF AND PUSH20 0xFFFFFFFFFFFFFFFFFFFFFFFFFFFFFFFFFFFFFFFF AND DUP2 MSTORE PUSH1 0x20 ADD SWAP1 DUP2 MSTORE PUSH1 0x20 ADD PUSH1 0x0 KECCAK256 PUSH1 0x1 ADD DUP1 SLOAD PUSH2 0x2C44 SWAP1 PUSH2 0x5C17 JUMP JUMPDEST SWAP1 POP GT PUSH2 0x2C86 JUMPI PUSH1 0x40 MLOAD PUSH32 0x8C379A000000000000000000000000000000000000000000000000000000000 DUP2 MSTORE PUSH1 0x4 ADD PUSH2 0x2C7D SWAP1 PUSH2 0x62C6 JUMP JUMPDEST PUSH1 0x40 MLOAD DUP1 SWAP2 SUB SWAP1 REVERT JUMPDEST PUSH2 0x2C9A PUSH8 0x80539A81ADA525D5 PUSH1 0xC0 SHL PUSH2 0x4385 JUMP JUMPDEST PUSH2 0x2CAE PUSH8 0x36664C8E5F023EEA PUSH1 0xC0 SHL PUSH2 0x4385 JUMP JUMPDEST PUSH2 0x2CC2 PUSH8 0x7AA28D33F25A9CC PUSH1 0xC0 SHL PUSH2 0x4385 JUMP JUMPDEST PUSH2 0x2CD6 PUSH8 0x4ACF237DAD5FE4B PUSH1 0xC0 SHL PUSH2 0x4385 JUMP JUMPDEST PUSH1 0x1 ISZERO ISZERO PUSH1 0x5 PUSH1 0x0 DUP4 PUSH20 0xFFFFFFFFFFFFFFFFFFFFFFFFFFFFFFFFFFFFFFFF AND PUSH20 0xFFFFFFFFFFFFFFFFFFFFFFFFFFFFFFFFFFFFFFFF AND DUP2 MSTORE PUSH1 0x20 ADD SWAP1 DUP2 MSTORE PUSH1 0x20 ADD PUSH1 0x0 KECCAK256 PUSH1 0x0 ADD PUSH1 0x0 SWAP1 SLOAD SWAP1 PUSH2 0x100 EXP SWAP1 DIV PUSH1 0xFF AND ISZERO ISZERO EQ PUSH2 0x2D6C JUMPI PUSH1 0x40 MLOAD PUSH32 0x8C379A000000000000000000000000000000000000000000000000000000000 DUP2 MSTORE PUSH1 0x4 ADD PUSH2 0x2D63 SWAP1 PUSH2 0x6332 JUMP JUMPDEST PUSH1 0x40 MLOAD DUP1 SWAP2 SUB SWAP1 REVERT JUMPDEST PUSH2 0x2D80 PUSH8 0x3772BAA68B2F15BD PUSH1 0xC0 SHL PUSH2 0x4385 JUMP JUMPDEST PUSH2 0x2D94 PUSH8 0xB675E2E2761B3712 PUSH1 0xC0 SHL PUSH2 0x4385 JUMP JUMPDEST PUSH2 0x2DA8 PUSH8 0xA7428A2F977103BB PUSH1 0xC0 SHL PUSH2 0x4385 JUMP JUMPDEST PUSH2 0x2DBC PUSH8 0xBBFD2AEAB18B7DE0 PUSH1 0xC0 SHL PUSH2 0x4385 JUMP JUMPDEST PUSH2 0x2DD0 PUSH8 0x7AEAC33917389707 PUSH1 0xC0 SHL PUSH2 0x4385 JUMP JUMPDEST PUSH2 0x2DE4 PUSH8 0x3420E343BB5FEFDF PUSH1 0xC0 SHL PUSH2 0x4385 JUMP JUMPDEST PUSH2 0x2DF8 PUSH8 0x15506C915FC09DFB PUSH1 0xC0 SHL PUSH2 0x4385 JUMP JUMPDEST PUSH2 0x2E0C PUSH8 0x4EA39614EAE1BB3C PUSH1 0xC0 SHL PUSH2 0x4385 JUMP JUMPDEST PUSH1 0x0 PUSH1 0x3 SLOAD GT PUSH2 0x2E51 JUMPI PUSH1 0x40 MLOAD PUSH32 0x8C379A000000000000000000000000000000000000000000000000000000000 DUP2 MSTORE PUSH1 0x4 ADD PUSH2 0x2E48 SWAP1 PUSH2 0x640A JUMP JUMPDEST PUSH1 0x40 MLOAD DUP1 SWAP2 SUB SWAP1 REVERT JUMPDEST PUSH2 0x2E65 PUSH8 0x23AB28B14541B06E PUSH1 0xC0 SHL PUSH2 0x4385 JUMP JUMPDEST PUSH2 0x2E79 PUSH8 0x6B4C0D526C379A8 PUSH1 0xC0 SHL PUSH2 0x4385 JUMP JUMPDEST PUSH2 0x2E8D PUSH8 0x60222C8E8CB9CE32 PUSH1 0xC0 SHL PUSH2 0x4385 JUMP JUMPDEST PUSH2 0x2EA1 PUSH8 0x6A7E651827AB2043 PUSH1 0xC0 SHL PUSH2 0x4385 JUMP JUMPDEST PUSH2 0x2EB5 PUSH8 0x5AADD74F6660F076 PUSH1 0xC0 SHL PUSH2 0x4385 JUMP JUMPDEST PUSH2 0x2EC9 PUSH8 0x80B59AAD48345244 PUSH1 0xC0 SHL PUSH2 0x4385 JUMP JUMPDEST PUSH2 0x2EDD PUSH8 0xFB6FCD238EA39475 PUSH1 0xC0 SHL PUSH2 0x4385 JUMP JUMPDEST PUSH2 0x2EF1 PUSH8 0x3192852F6A146743 PUSH1 0xC0 SHL PUSH2 0x4385 JUMP JUMPDEST PUSH1 0x0 PUSH1 0x4 SLOAD GT PUSH2 0x2F36 JUMPI PUSH1 0x40 MLOAD PUSH32 0x8C379A000000000000000000000000000000000000000000000000000000000 DUP2 MSTORE PUSH1 0x4 ADD PUSH2 0x2F2D SWAP1 PUSH2 0x6476 JUMP JUMPDEST PUSH1 0x40 MLOAD DUP1 SWAP2 SUB SWAP1 REVERT JUMPDEST PUSH2 0x2F4A PUSH8 0xC4EB7EC055F01CF5 PUSH1 0xC0 SHL PUSH2 0x4385 JUMP JUMPDEST PUSH2 0x2F5E PUSH8 0xD2A9E4409E55E1D5 PUSH1 0xC0 SHL PUSH2 0x4385 JUMP JUMPDEST PUSH2 0x2F72 PUSH8 0x59D9EDF90B352EF7 PUSH1 0xC0 SHL PUSH2 0x4385 JUMP JUMPDEST PUSH2 0x2F86 PUSH8 0x9A8015FF1779B876 PUSH1 0xC0 SHL PUSH2 0x4385 JUMP JUMPDEST PUSH2 0x2F9A PUSH8 0xB67510212D4BAC43 PUSH1 0xC0 SHL PUSH2 0x4385 JUMP JUMPDEST PUSH2 0x2FAE PUSH8 0xBDDFA0B703D3A2B0 PUSH1 0xC0 SHL PUSH2 0x4385 JUMP JUMPDEST PUSH1 0x0 TIMESTAMP SWAP1 POP PUSH2 0x2FC7 PUSH8 0x4014A148D6DB0A87 PUSH1 0xC0 SHL PUSH2 0x4385 JUMP JUMPDEST PUSH2 0x2FDB PUSH8 0x6173686C916D1860 PUSH1 0xC0 SHL PUSH2 0x4385 JUMP JUMPDEST PUSH1 0x0 PUSH2 0x2FE5 PUSH2 0x34C0 JUMP JUMPDEST DUP3 PUSH2 0x2FF0 SWAP2 SWAP1 PUSH2 0x6496 JUMP JUMPDEST SWAP1 POP PUSH2 0x3006 PUSH8 0x7C2CAB52AB95D4B0 PUSH1 0xC0 SHL PUSH2 0x4385 JUMP JUMPDEST PUSH2 0x301A PUSH8 0xF7E743DECC4A7A65 PUSH1 0xC0 SHL PUSH2 0x4385 JUMP JUMPDEST PUSH1 0x0 PUSH2 0x3024 PUSH2 0x21DC JUMP JUMPDEST DUP3 PUSH2 0x302F SWAP2 SWAP1 PUSH2 0x6496 JUMP JUMPDEST SWAP1 POP PUSH2 0x3045 PUSH8 0x617CE190D18D5B37 PUSH1 0xC0 SHL PUSH2 0x4385 JUMP JUMPDEST PUSH1 0x1 SLOAD SWAP5 POP PUSH2 0x305E PUSH8 0x36A350152F3EC7A5 PUSH1 0xC0 SHL PUSH2 0x4385 JUMP JUMPDEST PUSH1 0x40 MLOAD DUP1 PUSH2 0x140 ADD PUSH1 0x40 MSTORE DUP1 PUSH1 0x0 ISZERO ISZERO DUP2 MSTORE PUSH1 0x20 ADD PUSH1 0x0 ISZERO ISZERO DUP2 MSTORE PUSH1 0x20 ADD CALLER PUSH20 0xFFFFFFFFFFFFFFFFFFFFFFFFFFFFFFFFFFFFFFFF AND DUP2 MSTORE PUSH1 0x20 ADD DUP9 PUSH1 0x0 DUP2 MLOAD DUP2 LT PUSH2 0x30AC JUMPI PUSH2 0x30AB PUSH2 0x6917 JUMP JUMPDEST JUMPDEST PUSH1 0x20 MUL PUSH1 0x20 ADD ADD MLOAD DUP2 MSTORE PUSH1 0x20 ADD DUP11 PUSH1 0x0 DUP2 MLOAD DUP2 LT PUSH2 0x30CD JUMPI PUSH2 0x30CC PUSH2 0x6917 JUMP JUMPDEST JUMPDEST PUSH1 0x20 MUL PUSH1 0x20 ADD ADD MLOAD PUSH20 0xFFFFFFFFFFFFFFFFFFFFFFFFFFFFFFFFFFFFFFFF AND DUP2 MSTORE PUSH1 0x20 ADD DUP4 PUSH6 0xFFFFFFFFFFFF AND DUP2 MSTORE PUSH1 0x20 ADD DUP3 PUSH6 0xFFFFFFFFFFFF AND DUP2 MSTORE PUSH1 0x20 ADD PUSH1 0x0 DUP2 MSTORE PUSH1 0x20 ADD PUSH1 0x0 DUP2 MSTORE PUSH1 0x20 ADD DUP8 DUP2 MSTORE POP PUSH1 0x6 PUSH1 0x0 PUSH1 0x1 SLOAD DUP2 MSTORE PUSH1 0x20 ADD SWAP1 DUP2 MSTORE PUSH1 0x20 ADD PUSH1 0x0 KECCAK256 PUSH1 0x0 DUP3 ADD MLOAD DUP2 PUSH1 0x0 ADD PUSH1 0x0 PUSH2 0x100 EXP DUP2 SLOAD DUP2 PUSH1 0xFF MUL NOT AND SWAP1 DUP4 ISZERO ISZERO MUL OR SWAP1 SSTORE POP PUSH1 0x20 DUP3 ADD MLOAD DUP2 PUSH1 0x0 ADD PUSH1 0x1 PUSH2 0x100 EXP DUP2 SLOAD DUP2 PUSH1 0xFF MUL NOT AND SWAP1 DUP4 ISZERO ISZERO MUL OR SWAP1 SSTORE POP PUSH1 0x40 DUP3 ADD MLOAD DUP2 PUSH1 0x0 ADD PUSH1 0x2 PUSH2 0x100 EXP DUP2 SLOAD DUP2 PUSH20 0xFFFFFFFFFFFFFFFFFFFFFFFFFFFFFFFFFFFFFFFF MUL NOT AND SWAP1 DUP4 PUSH20 0xFFFFFFFFFFFFFFFFFFFFFFFFFFFFFFFFFFFFFFFF AND MUL OR SWAP1 SSTORE POP PUSH1 0x60 DUP3 ADD MLOAD DUP2 PUSH1 0x1 ADD SWAP1 DUP2 PUSH2 0x31CF SWAP2 SWAP1 PUSH2 0x6516 JUMP JUMPDEST POP PUSH1 0x80 DUP3 ADD MLOAD DUP2 PUSH1 0x2 ADD PUSH1 0x0 PUSH2 0x100 EXP DUP2 SLOAD DUP2 PUSH20 0xFFFFFFFFFFFFFFFFFFFFFFFFFFFFFFFFFFFFFFFF MUL NOT AND SWAP1 DUP4 PUSH20 0xFFFFFFFFFFFFFFFFFFFFFFFFFFFFFFFFFFFFFFFF AND MUL OR SWAP1 SSTORE POP PUSH1 0xA0 DUP3 ADD MLOAD DUP2 PUSH1 0x2 ADD PUSH1 0x14 PUSH2 0x100 EXP DUP2 SLOAD DUP2 PUSH6 0xFFFFFFFFFFFF MUL NOT AND SWAP1 DUP4 PUSH6 0xFFFFFFFFFFFF AND MUL OR SWAP1 SSTORE POP PUSH1 0xC0 DUP3 ADD MLOAD DUP2 PUSH1 0x2 ADD PUSH1 0x1A PUSH2 0x100 EXP DUP2 SLOAD DUP2 PUSH6 0xFFFFFFFFFFFF MUL NOT AND SWAP1 DUP4 PUSH6 0xFFFFFFFFFFFF AND MUL OR SWAP1 SSTORE POP PUSH1 0xE0 DUP3 ADD MLOAD DUP2 PUSH1 0x3 ADD SSTORE PUSH2 0x100 DUP3 ADD MLOAD DUP2 PUSH1 0x4 ADD SSTORE PUSH2 0x120 DUP3 ADD MLOAD DUP2 PUSH1 0x5 ADD SWAP1 DUP2 PUSH2 0x3298 SWAP2 SWAP1 PUSH2 0x5E60 JUMP JUMPDEST POP SWAP1 POP POP PUSH2 0x32B0 PUSH8 0x6DDA4BB4598968A6 PUSH1 0xC0 SHL PUSH2 0x4385 JUMP JUMPDEST PUSH1 0x1 PUSH1 0x8 PUSH1 0x0 PUSH1 0x1 SLOAD DUP2 MSTORE PUSH1 0x20 ADD SWAP1 DUP2 MSTORE PUSH1 0x20 ADD PUSH1 0x0 KECCAK256 PUSH1 0x0 PUSH2 0x100 EXP DUP2 SLOAD DUP2 PUSH1 0xFF MUL NOT AND SWAP1 DUP4 PUSH1 0x1 DUP2 GT ISZERO PUSH2 0x32E9 JUMPI PUSH2 0x32E8 PUSH2 0x6125 JUMP JUMPDEST JUMPDEST MUL OR SWAP1 SSTORE POP PUSH2 0x3302 PUSH8 0x708FF32754FC75EF PUSH1 0xC0 SHL PUSH2 0x4385 JUMP JUMPDEST PUSH2 0x3316 PUSH8 0xC9B35D06DD3FD4A5 PUSH1 0xC0 SHL PUSH2 0x4385 JUMP JUMPDEST PUSH1 0x1 SLOAD PUSH1 0x1 DUP1 DUP2 GT ISZERO PUSH2 0x332C JUMPI PUSH2 0x332B PUSH2 0x6125 JUMP JUMPDEST JUMPDEST PUSH32 0xA7111A86C2F98A3BAF7875CE595B4575567BB709A32769F65176D6E1CBED526E DUP10 PUSH1 0x0 DUP2 MLOAD DUP2 LT PUSH2 0x3361 JUMPI PUSH2 0x3360 PUSH2 0x6917 JUMP JUMPDEST JUMPDEST PUSH1 0x20 MUL PUSH1 0x20 ADD ADD MLOAD PUSH1 0x40 MLOAD PUSH2 0x3376 SWAP2 SWAP1 PUSH2 0x6632 JUMP JUMPDEST PUSH1 0x40 MLOAD DUP1 SWAP2 SUB SWAP1 LOG3 PUSH2 0x3392 PUSH8 0xDE37AAAFBF3C2886 PUSH1 0xC0 SHL PUSH2 0x4385 JUMP JUMPDEST PUSH2 0x33A6 PUSH8 0x9E727B9A683B60BA PUSH1 0xC0 SHL PUSH2 0x4385 JUMP JUMPDEST PUSH1 0x60 PUSH2 0x33BC PUSH8 0x560318693FC149E0 PUSH1 0xC0 SHL PUSH2 0x4385 JUMP JUMPDEST PUSH2 0x33D0 PUSH8 0xF7ACB9D5C12FBB16 PUSH1 0xC0 SHL PUSH2 0x4385 JUMP JUMPDEST PUSH32 0x7D84A6263AE0D98D3329BD7B46BB4E8D6F98CD35A7ADB45C274C8B7FD5EBD5E0 PUSH1 0x1 SLOAD CALLER DUP13 DUP13 DUP6 DUP14 DUP10 DUP10 DUP16 PUSH1 0x40 MLOAD PUSH2 0x3411 SWAP10 SWAP9 SWAP8 SWAP7 SWAP6 SWAP5 SWAP4 SWAP3 SWAP2 SWAP1 PUSH2 0x6C59 JUMP JUMPDEST PUSH1 0x40 MLOAD DUP1 SWAP2 SUB SWAP1 LOG1 PUSH2 0x342D PUSH8 0x727E6ECF0A1CF9BD PUSH1 0xC0 SHL PUSH2 0x4385 JUMP JUMPDEST PUSH2 0x3441 PUSH8 0xEE32AD28888E4914 PUSH1 0xC0 SHL PUSH2 0x4385 JUMP JUMPDEST PUSH1 0x1 PUSH1 0x0 DUP2 SLOAD DUP1 SWAP3 SWAP2 SWAP1 PUSH1 0x1 ADD SWAP2 SWAP1 POP SSTORE POP PUSH2 0x3467 PUSH8 0x858DA7F750A0977A PUSH1 0xC0 SHL PUSH2 0x4385 JUMP JUMPDEST PUSH2 0x347B PUSH8 0xFE269288C43539F PUSH1 0xC0 SHL PUSH2 0x4385 JUMP JUMPDEST POP POP POP POP POP SWAP5 SWAP4 POP POP POP POP JUMP JUMPDEST PUSH1 0x0 DUP1 PUSH2 0x3493 PUSH2 0x4AA4 JUMP JUMPDEST SWAP1 POP DUP1 PUSH1 0x0 ADD PUSH1 0x0 SWAP1 SLOAD SWAP1 PUSH2 0x100 EXP SWAP1 DIV PUSH20 0xFFFFFFFFFFFFFFFFFFFFFFFFFFFFFFFFFFFFFFFF AND SWAP2 POP POP SWAP1 JUMP JUMPDEST PUSH1 0x0 PUSH2 0x34D6 PUSH8 0xA5FF78D86ECACF1D PUSH1 0xC0 SHL PUSH2 0x4385 JUMP JUMPDEST PUSH2 0x34EA PUSH8 0x878AF09A2400DD55 PUSH1 0xC0 SHL PUSH2 0x4385 JUMP JUMPDEST PUSH2 0x34FE PUSH8 0x7562EAA43CD2BEC6 PUSH1 0xC0 SHL PUSH2 0x4385 JUMP JUMPDEST PUSH1 0x3 SLOAD SWAP1 POP SWAP1 JUMP JUMPDEST PUSH1 0x40 MLOAD DUP1 PUSH1 0x40 ADD PUSH1 0x40 MSTORE DUP1 PUSH1 0x5 DUP2 MSTORE PUSH1 0x20 ADD PUSH32 0x352E302E30000000000000000000000000000000000000000000000000000000 DUP2 MSTORE POP DUP2 JUMP JUMPDEST PUSH1 0x60 PUSH2 0x3555 PUSH8 0xFAA666674903AFD9 PUSH1 0xC0 SHL PUSH2 0x4385 JUMP JUMPDEST PUSH2 0x3569 PUSH8 0x37F50BA5DE107B14 PUSH1 0xC0 SHL PUSH2 0x4385 JUMP JUMPDEST PUSH2 0x357D PUSH8 0xB7F21CB72EE7E2B3 PUSH1 0xC0 SHL PUSH2 0x4385 JUMP JUMPDEST PUSH1 0x0 PUSH2 0x3587 PUSH2 0x1FA5 JUMP JUMPDEST SWAP1 POP PUSH2 0x359D PUSH8 0xA97E83CBAE524DEE PUSH1 0xC0 SHL PUSH2 0x4385 JUMP JUMPDEST PUSH2 0x35B1 PUSH8 0xFC127D7770A279C2 PUSH1 0xC0 SHL PUSH2 0x4385 JUMP JUMPDEST PUSH1 0x0 DUP2 PUSH8 0xFFFFFFFFFFFFFFFF DUP2 GT ISZERO PUSH2 0x35CD JUMPI PUSH2 0x35CC PUSH2 0x5060 JUMP JUMPDEST JUMPDEST PUSH1 0x40 MLOAD SWAP1 DUP1 DUP3 MSTORE DUP1 PUSH1 0x20 MUL PUSH1 0x20 ADD DUP3 ADD PUSH1 0x40 MSTORE DUP1 ISZERO PUSH2 0x3606 JUMPI DUP2 PUSH1 0x20 ADD JUMPDEST PUSH2 0x35F3 PUSH2 0x4F0C JUMP JUMPDEST DUP2 MSTORE PUSH1 0x20 ADD SWAP1 PUSH1 0x1 SWAP1 SUB SWAP1 DUP2 PUSH2 0x35EB JUMPI SWAP1 POP JUMPDEST POP SWAP1 POP PUSH2 0x361D PUSH8 0x367FFB75F36A6CD9 PUSH1 0xC0 SHL PUSH2 0x4385 JUMP JUMPDEST PUSH2 0x3631 PUSH8 0xC6B9AA17DEF9282B PUSH1 0xC0 SHL PUSH2 0x4385 JUMP JUMPDEST PUSH1 0x0 TIMESTAMP SWAP1 POP PUSH2 0x364A PUSH8 0xBB31BB28C4C6EB9D PUSH1 0xC0 SHL PUSH2 0x4385 JUMP JUMPDEST PUSH2 0x365E PUSH8 0xDFAF3BFE3BBCF80F PUSH1 0xC0 SHL PUSH2 0x4385 JUMP JUMPDEST PUSH1 0x0 PUSH2 0x3674 PUSH8 0x728AC1386ED7B8B3 PUSH1 0xC0 SHL PUSH2 0x4385 JUMP JUMPDEST PUSH2 0x3688 PUSH8 0x149E5384457C636E PUSH1 0xC0 SHL PUSH2 0x4385 JUMP JUMPDEST PUSH1 0x0 JUMPDEST PUSH1 0x1 SLOAD DUP2 LT ISZERO PUSH2 0x3ADE JUMPI PUSH2 0x36A9 PUSH8 0xEB07C0B4685C6F34 PUSH1 0xC0 SHL PUSH2 0x4385 JUMP JUMPDEST PUSH2 0x36BD PUSH8 0xE5D04616C3CBB444 PUSH1 0xC0 SHL PUSH2 0x4385 JUMP JUMPDEST PUSH1 0x6 PUSH1 0x0 DUP3 DUP2 MSTORE PUSH1 0x20 ADD SWAP1 DUP2 MSTORE PUSH1 0x20 ADD PUSH1 0x0 KECCAK256 PUSH1 0x0 ADD PUSH1 0x0 SWAP1 SLOAD SWAP1 PUSH2 0x100 EXP SWAP1 DIV PUSH1 0xFF AND ISZERO DUP1 ISZERO PUSH2 0x370F JUMPI POP PUSH1 0x6 PUSH1 0x0 DUP3 DUP2 MSTORE PUSH1 0x20 ADD SWAP1 DUP2 MSTORE PUSH1 0x20 ADD PUSH1 0x0 KECCAK256 PUSH1 0x0 ADD PUSH1 0x1 SWAP1 SLOAD SWAP1 PUSH2 0x100 EXP SWAP1 DIV PUSH1 0xFF AND ISZERO JUMPDEST DUP1 ISZERO PUSH2 0x374A JUMPI POP PUSH1 0x6 PUSH1 0x0 DUP3 DUP2 MSTORE PUSH1 0x20 ADD SWAP1 DUP2 MSTORE PUSH1 0x20 ADD PUSH1 0x0 KECCAK256 PUSH1 0x2 ADD PUSH1 0x14 SWAP1 SLOAD SWAP1 PUSH2 0x100 EXP SWAP1 DIV PUSH6 0xFFFFFFFFFFFF AND PUSH6 0xFFFFFFFFFFFF AND DUP4 GT JUMPDEST DUP1 ISZERO PUSH2 0x3785 JUMPI POP PUSH1 0x6 PUSH1 0x0 DUP3 DUP2 MSTORE PUSH1 0x20 ADD SWAP1 DUP2 MSTORE PUSH1 0x20 ADD PUSH1 0x0 KECCAK256 PUSH1 0x2 ADD PUSH1 0x1A SWAP1 SLOAD SWAP1 PUSH2 0x100 EXP SWAP1 DIV PUSH6 0xFFFFFFFFFFFF AND PUSH6 0xFFFFFFFFFFFF AND DUP4 LT JUMPDEST ISZERO PUSH2 0x3A96 JUMPI PUSH2 0x379E PUSH8 0x490DA009F77A692F PUSH1 0xC0 SHL PUSH2 0x4385 JUMP JUMPDEST PUSH2 0x37B2 PUSH8 0xB15A7C3093D0A117 PUSH1 0xC0 SHL PUSH2 0x4385 JUMP JUMPDEST PUSH1 0x6 PUSH1 0x0 DUP3 DUP2 MSTORE PUSH1 0x20 ADD SWAP1 DUP2 MSTORE PUSH1 0x20 ADD PUSH1 0x0 KECCAK256 PUSH1 0x40 MLOAD DUP1 PUSH2 0x140 ADD PUSH1 0x40 MSTORE SWAP1 DUP2 PUSH1 0x0 DUP3 ADD PUSH1 0x0 SWAP1 SLOAD SWAP1 PUSH2 0x100 EXP SWAP1 DIV PUSH1 0xFF AND ISZERO ISZERO ISZERO ISZERO DUP2 MSTORE PUSH1 0x20 ADD PUSH1 0x0 DUP3 ADD PUSH1 0x1 SWAP1 SLOAD SWAP1 PUSH2 0x100 EXP SWAP1 DIV PUSH1 0xFF AND ISZERO ISZERO ISZERO ISZERO DUP2 MSTORE PUSH1 0x20 ADD PUSH1 0x0 DUP3 ADD PUSH1 0x2 SWAP1 SLOAD SWAP1 PUSH2 0x100 EXP SWAP1 DIV PUSH20 0xFFFFFFFFFFFFFFFFFFFFFFFFFFFFFFFFFFFFFFFF AND PUSH20 0xFFFFFFFFFFFFFFFFFFFFFFFFFFFFFFFFFFFFFFFF AND PUSH20 0xFFFFFFFFFFFFFFFFFFFFFFFFFFFFFFFFFFFFFFFF AND DUP2 MSTORE PUSH1 0x20 ADD PUSH1 0x1 DUP3 ADD DUP1 SLOAD PUSH2 0x386D SWAP1 PUSH2 0x5C17 JUMP JUMPDEST DUP1 PUSH1 0x1F ADD PUSH1 0x20 DUP1 SWAP2 DIV MUL PUSH1 0x20 ADD PUSH1 0x40 MLOAD SWAP1 DUP2 ADD PUSH1 0x40 MSTORE DUP1 SWAP3 SWAP2 SWAP1 DUP2 DUP2 MSTORE PUSH1 0x20 ADD DUP3 DUP1 SLOAD PUSH2 0x3899 SWAP1 PUSH2 0x5C17 JUMP JUMPDEST DUP1 ISZERO PUSH2 0x38E6 JUMPI DUP1 PUSH1 0x1F LT PUSH2 0x38BB JUMPI PUSH2 0x100 DUP1 DUP4 SLOAD DIV MUL DUP4 MSTORE SWAP2 PUSH1 0x20 ADD SWAP2 PUSH2 0x38E6 JUMP JUMPDEST DUP3 ADD SWAP2 SWAP1 PUSH1 0x0 MSTORE PUSH1 0x20 PUSH1 0x0 KECCAK256 SWAP1 JUMPDEST DUP2 SLOAD DUP2 MSTORE SWAP1 PUSH1 0x1 ADD SWAP1 PUSH1 0x20 ADD DUP1 DUP4 GT PUSH2 0x38C9 JUMPI DUP3 SWAP1 SUB PUSH1 0x1F AND DUP3 ADD SWAP2 JUMPDEST POP POP POP POP POP DUP2 MSTORE PUSH1 0x20 ADD PUSH1 0x2 DUP3 ADD PUSH1 0x0 SWAP1 SLOAD SWAP1 PUSH2 0x100 EXP SWAP1 DIV PUSH20 0xFFFFFFFFFFFFFFFFFFFFFFFFFFFFFFFFFFFFFFFF AND PUSH20 0xFFFFFFFFFFFFFFFFFFFFFFFFFFFFFFFFFFFFFFFF AND PUSH20 0xFFFFFFFFFFFFFFFFFFFFFFFFFFFFFFFFFFFFFFFF AND DUP2 MSTORE PUSH1 0x20 ADD PUSH1 0x2 DUP3 ADD PUSH1 0x14 SWAP1 SLOAD SWAP1 PUSH2 0x100 EXP SWAP1 DIV PUSH6 0xFFFFFFFFFFFF AND PUSH6 0xFFFFFFFFFFFF AND PUSH6 0xFFFFFFFFFFFF AND DUP2 MSTORE PUSH1 0x20 ADD PUSH1 0x2 DUP3 ADD PUSH1 0x1A SWAP1 SLOAD SWAP1 PUSH2 0x100 EXP SWAP1 DIV PUSH6 0xFFFFFFFFFFFF AND PUSH6 0xFFFFFFFFFFFF AND PUSH6 0xFFFFFFFFFFFF AND DUP2 MSTORE PUSH1 0x20 ADD PUSH1 0x3 DUP3 ADD SLOAD DUP2 MSTORE PUSH1 0x20 ADD PUSH1 0x4 DUP3 ADD SLOAD DUP2 MSTORE PUSH1 0x20 ADD PUSH1 0x5 DUP3 ADD DUP1 SLOAD PUSH2 0x39C1 SWAP1 PUSH2 0x5C17 JUMP JUMPDEST DUP1 PUSH1 0x1F ADD PUSH1 0x20 DUP1 SWAP2 DIV MUL PUSH1 0x20 ADD PUSH1 0x40 MLOAD SWAP1 DUP2 ADD PUSH1 0x40 MSTORE DUP1 SWAP3 SWAP2 SWAP1 DUP2 DUP2 MSTORE PUSH1 0x20 ADD DUP3 DUP1 SLOAD PUSH2 0x39ED SWAP1 PUSH2 0x5C17 JUMP JUMPDEST DUP1 ISZERO PUSH2 0x3A3A JUMPI DUP1 PUSH1 0x1F LT PUSH2 0x3A0F JUMPI PUSH2 0x100 DUP1 DUP4 SLOAD DIV MUL DUP4 MSTORE SWAP2 PUSH1 0x20 ADD SWAP2 PUSH2 0x3A3A JUMP JUMPDEST DUP3 ADD SWAP2 SWAP1 PUSH1 0x0 MSTORE PUSH1 0x20 PUSH1 0x0 KECCAK256 SWAP1 JUMPDEST DUP2 SLOAD DUP2 MSTORE SWAP1 PUSH1 0x1 ADD SWAP1 PUSH1 0x20 ADD DUP1 DUP4 GT PUSH2 0x3A1D JUMPI DUP3 SWAP1 SUB PUSH1 0x1F AND DUP3 ADD SWAP2 JUMPDEST POP POP POP POP POP DUP2 MSTORE POP POP DUP5 DUP4 DUP2 MLOAD DUP2 LT PUSH2 0x3A56 JUMPI PUSH2 0x3A55 PUSH2 0x6917 JUMP JUMPDEST JUMPDEST PUSH1 0x20 MUL PUSH1 0x20 ADD ADD DUP2 SWAP1 MSTORE POP PUSH2 0x3A75 PUSH8 0xAE85993EBBC3FBC PUSH1 0xC0 SHL PUSH2 0x4385 JUMP JUMPDEST PUSH2 0x3A89 PUSH8 0x12927D69E2F53F6D PUSH1 0xC0 SHL PUSH2 0x4385 JUMP JUMPDEST DUP2 DUP1 PUSH1 0x1 ADD SWAP3 POP POP PUSH2 0x3AAB JUMP JUMPDEST PUSH2 0x3AAA PUSH8 0x881558AA43F193A3 PUSH1 0xC0 SHL PUSH2 0x4385 JUMP JUMPDEST JUMPDEST PUSH2 0x3ABF PUSH8 0xE735D4CD6FB8F820 PUSH1 0xC0 SHL PUSH2 0x4385 JUMP JUMPDEST PUSH2 0x3AD3 PUSH8 0x702DFB22F70AE8A6 PUSH1 0xC0 SHL PUSH2 0x4385 JUMP JUMPDEST DUP1 PUSH1 0x1 ADD SWAP1 POP PUSH2 0x368B JUMP JUMPDEST POP PUSH2 0x3AF3 PUSH8 0xA01098A4FECC1FF1 PUSH1 0xC0 SHL PUSH2 0x4385 JUMP JUMPDEST PUSH2 0x3B07 PUSH8 0x4A62205EA9F7F366 PUSH1 0xC0 SHL PUSH2 0x4385 JUMP JUMPDEST DUP3 SWAP5 POP POP POP POP POP SWAP1 JUMP JUMPDEST PUSH1 0x0 PUSH2 0x3B27 PUSH8 0x92551046D814C1AD PUSH1 0xC0 SHL PUSH2 0x4385 JUMP JUMPDEST PUSH2 0x3B3B PUSH8 0xC5EA70DCC89A61D8 PUSH1 0xC0 SHL PUSH2 0x4385 JUMP JUMPDEST PUSH1 0x2 PUSH1 0x1 PUSH1 0x0 SLOAD PUSH2 0x3B4C SWAP2 SWAP1 PUSH2 0x68E3 JUMP JUMPDEST PUSH2 0x3B56 SWAP2 SWAP1 PUSH2 0x6D38 JUMP JUMPDEST SWAP1 POP SWAP1 JUMP JUMPDEST PUSH1 0x0 PUSH2 0x3B71 PUSH8 0x2F05B324D0FD2751 PUSH1 0xC0 SHL PUSH2 0x4385 JUMP JUMPDEST CALLER PUSH2 0x3B86 PUSH8 0xFB075BFCF845469B PUSH1 0xC0 SHL PUSH2 0x4385 JUMP JUMPDEST PUSH2 0x3B9A PUSH8 0xC1A4C3C680F3D415 PUSH1 0xC0 SHL PUSH2 0x4385 JUMP JUMPDEST PUSH2 0x3BAE PUSH8 0xEEFCF17106C3E890 PUSH1 0xC0 SHL PUSH2 0x4385 JUMP JUMPDEST PUSH2 0x3BC2 PUSH8 0xD5E35333D20037AE PUSH1 0xC0 SHL PUSH2 0x4385 JUMP JUMPDEST PUSH1 0x0 PUSH1 0x5 PUSH1 0x0 DUP4 PUSH20 0xFFFFFFFFFFFFFFFFFFFFFFFFFFFFFFFFFFFFFFFF AND PUSH20 0xFFFFFFFFFFFFFFFFFFFFFFFFFFFFFFFFFFFFFFFF AND DUP2 MSTORE PUSH1 0x20 ADD SWAP1 DUP2 MSTORE PUSH1 0x20 ADD PUSH1 0x0 KECCAK256 PUSH1 0x1 ADD DUP1 SLOAD PUSH2 0x3C11 SWAP1 PUSH2 0x5C17 JUMP JUMPDEST SWAP1 POP GT PUSH2 0x3C53 JUMPI PUSH1 0x40 MLOAD PUSH32 0x8C379A000000000000000000000000000000000000000000000000000000000 DUP2 MSTORE PUSH1 0x4 ADD PUSH2 0x3C4A SWAP1 PUSH2 0x62C6 JUMP JUMPDEST PUSH1 0x40 MLOAD DUP1 SWAP2 SUB SWAP1 REVERT JUMPDEST PUSH2 0x3C67 PUSH8 0x80539A81ADA525D5 PUSH1 0xC0 SHL PUSH2 0x4385 JUMP JUMPDEST PUSH2 0x3C7B PUSH8 0x36664C8E5F023EEA PUSH1 0xC0 SHL PUSH2 0x4385 JUMP JUMPDEST PUSH2 0x3C8F PUSH8 0x7AA28D33F25A9CC PUSH1 0xC0 SHL PUSH2 0x4385 JUMP JUMPDEST PUSH2 0x3CA3 PUSH8 0x4ACF237DAD5FE4B PUSH1 0xC0 SHL PUSH2 0x4385 JUMP JUMPDEST PUSH1 0x1 ISZERO ISZERO PUSH1 0x5 PUSH1 0x0 DUP4 PUSH20 0xFFFFFFFFFFFFFFFFFFFFFFFFFFFFFFFFFFFFFFFF AND PUSH20 0xFFFFFFFFFFFFFFFFFFFFFFFFFFFFFFFFFFFFFFFF AND DUP2 MSTORE PUSH1 0x20 ADD SWAP1 DUP2 MSTORE PUSH1 0x20 ADD PUSH1 0x0 KECCAK256 PUSH1 0x0 ADD PUSH1 0x0 SWAP1 SLOAD SWAP1 PUSH2 0x100 EXP SWAP1 DIV PUSH1 0xFF AND ISZERO ISZERO EQ PUSH2 0x3D39 JUMPI PUSH1 0x40 MLOAD PUSH32 0x8C379A000000000000000000000000000000000000000000000000000000000 DUP2 MSTORE PUSH1 0x4 ADD PUSH2 0x3D30 SWAP1 PUSH2 0x6332 JUMP JUMPDEST PUSH1 0x40 MLOAD DUP1 SWAP2 SUB SWAP1 REVERT JUMPDEST PUSH2 0x3D4D PUSH8 0x3772BAA68B2F15BD PUSH1 0xC0 SHL PUSH2 0x4385 JUMP JUMPDEST PUSH2 0x3D61 PUSH8 0xB675E2E2761B3712 PUSH1 0xC0 SHL PUSH2 0x4385 JUMP JUMPDEST PUSH2 0x3D75 PUSH8 0xCA16F2F88796343F PUSH1 0xC0 SHL PUSH2 0x4385 JUMP JUMPDEST PUSH2 0x3D89 PUSH8 0xDABCAA4CE01429A1 PUSH1 0xC0 SHL PUSH2 0x4385 JUMP JUMPDEST PUSH2 0x3D9C PUSH7 0x21F710626EBD5A PUSH1 0xC0 SHL PUSH2 0x4385 JUMP JUMPDEST PUSH2 0x3DB0 PUSH8 0xB08E00A3124CB299 PUSH1 0xC0 SHL PUSH2 0x4385 JUMP JUMPDEST PUSH1 0x5 PUSH1 0x0 DUP5 PUSH20 0xFFFFFFFFFFFFFFFFFFFFFFFFFFFFFFFFFFFFFFFF AND PUSH20 0xFFFFFFFFFFFFFFFFFFFFFFFFFFFFFFFFFFFFFFFF AND DUP2 MSTORE PUSH1 0x20 ADD SWAP1 DUP2 MSTORE PUSH1 0x20 ADD PUSH1 0x0 KECCAK256 PUSH1 0x0 ADD PUSH1 0x0 SWAP1 SLOAD SWAP1 PUSH2 0x100 EXP SWAP1 DIV PUSH1 0xFF AND SWAP2 POP POP SWAP2 SWAP1 POP JUMP JUMPDEST PUSH2 0x3E1C PUSH8 0xCC3DBF1064357E87 PUSH1 0xC0 SHL PUSH2 0x4385 JUMP JUMPDEST CALLER PUSH2 0x3E31 PUSH8 0xFB075BFCF845469B PUSH1 0xC0 SHL PUSH2 0x4385 JUMP JUMPDEST PUSH2 0x3E45 PUSH8 0xC1A4C3C680F3D415 PUSH1 0xC0 SHL PUSH2 0x4385 JUMP JUMPDEST PUSH2 0x3E59 PUSH8 0xEEFCF17106C3E890 PUSH1 0xC0 SHL PUSH2 0x4385 JUMP JUMPDEST PUSH2 0x3E6D PUSH8 0xD5E35333D20037AE PUSH1 0xC0 SHL PUSH2 0x4385 JUMP JUMPDEST PUSH1 0x0 PUSH1 0x5 PUSH1 0x0 DUP4 PUSH20 0xFFFFFFFFFFFFFFFFFFFFFFFFFFFFFFFFFFFFFFFF AND PUSH20 0xFFFFFFFFFFFFFFFFFFFFFFFFFFFFFFFFFFFFFFFF AND DUP2 MSTORE PUSH1 0x20 ADD SWAP1 DUP2 MSTORE PUSH1 0x20 ADD PUSH1 0x0 KECCAK256 PUSH1 0x1 ADD DUP1 SLOAD PUSH2 0x3EBC SWAP1 PUSH2 0x5C17 JUMP JUMPDEST SWAP1 POP GT PUSH2 0x3EFE JUMPI PUSH1 0x40 MLOAD PUSH32 0x8C379A000000000000000000000000000000000000000000000000000000000 DUP2 MSTORE PUSH1 0x4 ADD PUSH2 0x3EF5 SWAP1 PUSH2 0x62C6 JUMP JUMPDEST PUSH1 0x40 MLOAD DUP1 SWAP2 SUB SWAP1 REVERT JUMPDEST PUSH2 0x3F12 PUSH8 0x80539A81ADA525D5 PUSH1 0xC0 SHL PUSH2 0x4385 JUMP JUMPDEST PUSH2 0x3F26 PUSH8 0x36664C8E5F023EEA PUSH1 0xC0 SHL PUSH2 0x4385 JUMP JUMPDEST PUSH2 0x3F3A PUSH8 0x7AA28D33F25A9CC PUSH1 0xC0 SHL PUSH2 0x4385 JUMP JUMPDEST PUSH2 0x3F4E PUSH8 0x4ACF237DAD5FE4B PUSH1 0xC0 SHL PUSH2 0x4385 JUMP JUMPDEST PUSH1 0x1 ISZERO ISZERO PUSH1 0x5 PUSH1 0x0 DUP4 PUSH20 0xFFFFFFFFFFFFFFFFFFFFFFFFFFFFFFFFFFFFFFFF AND PUSH20 0xFFFFFFFFFFFFFFFFFFFFFFFFFFFFFFFFFFFFFFFF AND DUP2 MSTORE PUSH1 0x20 ADD SWAP1 DUP2 MSTORE PUSH1 0x20 ADD PUSH1 0x0 KECCAK256 PUSH1 0x0 ADD PUSH1 0x0 SWAP1 SLOAD SWAP1 PUSH2 0x100 EXP SWAP1 DIV PUSH1 0xFF AND ISZERO ISZERO EQ PUSH2 0x3FE4 JUMPI PUSH1 0x40 MLOAD PUSH32 0x8C379A000000000000000000000000000000000000000000000000000000000 DUP2 MSTORE PUSH1 0x4 ADD PUSH2 0x3FDB SWAP1 PUSH2 0x6332 JUMP JUMPDEST PUSH1 0x40 MLOAD DUP1 SWAP2 SUB SWAP1 REVERT JUMPDEST PUSH2 0x3FF8 PUSH8 0x3772BAA68B2F15BD PUSH1 0xC0 SHL PUSH2 0x4385 JUMP JUMPDEST PUSH2 0x400C PUSH8 0xB675E2E2761B3712 PUSH1 0xC0 SHL PUSH2 0x4385 JUMP JUMPDEST PUSH2 0x4020 PUSH8 0xC3FC100138FD5188 PUSH1 0xC0 SHL PUSH2 0x4385 JUMP JUMPDEST PUSH2 0x4034 PUSH8 0x495B502F07E84BF8 PUSH1 0xC0 SHL PUSH2 0x4385 JUMP JUMPDEST PUSH2 0x4048 PUSH8 0x641D168FB4BF949F PUSH1 0xC0 SHL PUSH2 0x4385 JUMP JUMPDEST PUSH2 0x405C PUSH8 0x48BE8A76AEB60925 PUSH1 0xC0 SHL PUSH2 0x4385 JUMP JUMPDEST PUSH1 0x0 PUSH1 0x6 PUSH1 0x0 DUP5 DUP2 MSTORE PUSH1 0x20 ADD SWAP1 DUP2 MSTORE PUSH1 0x20 ADD PUSH1 0x0 KECCAK256 SWAP1 POP PUSH2 0x4087 PUSH8 0xB6114DFD773B232B PUSH1 0xC0 SHL PUSH2 0x4385 JUMP JUMPDEST PUSH2 0x409B PUSH8 0x36498F5EA77126BB PUSH1 0xC0 SHL PUSH2 0x4385 JUMP JUMPDEST PUSH2 0x40AF PUSH8 0x47DCA30E30BFF48 PUSH1 0xC0 SHL PUSH2 0x4385 JUMP JUMPDEST CALLER PUSH20 0xFFFFFFFFFFFFFFFFFFFFFFFFFFFFFFFFFFFFFFFF AND DUP2 PUSH1 0x0 ADD PUSH1 0x2 SWAP1 SLOAD SWAP1 PUSH2 0x100 EXP SWAP1 DIV PUSH20 0xFFFFFFFFFFFFFFFFFFFFFFFFFFFFFFFFFFFFFFFF AND PUSH20 0xFFFFFFFFFFFFFFFFFFFFFFFFFFFFFFFFFFFFFFFF AND EQ PUSH2 0x4141 JUMPI PUSH1 0x40 MLOAD PUSH32 0x8C379A000000000000000000000000000000000000000000000000000000000 DUP2 MSTORE PUSH1 0x4 ADD PUSH2 0x4138 SWAP1 PUSH2 0x6DB5 JUMP JUMPDEST PUSH1 0x40 MLOAD DUP1 SWAP2 SUB SWAP1 REVERT JUMPDEST PUSH2 0x4155 PUSH8 0x25EEE0395B6F4785 PUSH1 0xC0 SHL PUSH2 0x4385 JUMP JUMPDEST PUSH2 0x4169 PUSH8 0x6C69F1BDA3480E53 PUSH1 0xC0 SHL PUSH2 0x4385 JUMP JUMPDEST PUSH2 0x417D PUSH8 0x8A80D3A601D1665E PUSH1 0xC0 SHL PUSH2 0x4385 JUMP JUMPDEST PUSH2 0x4191 PUSH8 0xB36F97ED296EA570 PUSH1 0xC0 SHL PUSH2 0x4385 JUMP JUMPDEST DUP1 PUSH1 0x0 ADD PUSH1 0x0 SWAP1 SLOAD SWAP1 PUSH2 0x100 EXP SWAP1 DIV PUSH1 0xFF AND ISZERO DUP1 ISZERO PUSH2 0x41BF JUMPI POP DUP1 PUSH1 0x0 ADD PUSH1 0x1 SWAP1 SLOAD SWAP1 PUSH2 0x100 EXP SWAP1 DIV PUSH1 0xFF AND ISZERO JUMPDEST PUSH2 0x41FE JUMPI PUSH1 0x40 MLOAD PUSH32 0x8C379A000000000000000000000000000000000000000000000000000000000 DUP2 MSTORE PUSH1 0x4 ADD PUSH2 0x41F5 SWAP1 PUSH2 0x6010 JUMP JUMPDEST PUSH1 0x40 MLOAD DUP1 SWAP2 SUB SWAP1 REVERT JUMPDEST PUSH2 0x4212 PUSH8 0xB722ACD1816A5859 PUSH1 0xC0 SHL PUSH2 0x4385 JUMP JUMPDEST PUSH2 0x4226 PUSH8 0x8E5A009A25FC265A PUSH1 0xC0 SHL PUSH2 0x4385 JUMP JUMPDEST PUSH1 0x1 DUP2 PUSH1 0x0 ADD PUSH1 0x1 PUSH2 0x100 EXP DUP2 SLOAD DUP2 PUSH1 0xFF MUL NOT AND SWAP1 DUP4 ISZERO ISZERO MUL OR SWAP1 SSTORE POP PUSH2 0x4257 PUSH8 0xBD1F13144B03C629 PUSH1 0xC0 SHL PUSH2 0x4385 JUMP JUMPDEST PUSH2 0x426B PUSH8 0x96BB7FFCF4A24F9D PUSH1 0xC0 SHL PUSH2 0x4385 JUMP JUMPDEST DUP3 PUSH32 0x789CF55BE980739DAD1D0699B93B58E806B51C9D96619BFA8FE0A28ABAA7B30C PUSH1 0x40 MLOAD PUSH1 0x40 MLOAD DUP1 SWAP2 SUB SWAP1 LOG2 POP POP POP JUMP JUMPDEST PUSH2 0x42B1 PUSH8 0xDE531BD74D12C076 PUSH1 0xC0 SHL PUSH2 0x4385 JUMP JUMPDEST PUSH2 0x42B9 PUSH2 0x4946 JUMP JUMPDEST PUSH2 0x42CD PUSH8 0xC48E79EDD87707CB PUSH1 0xC0 SHL PUSH2 0x4385 JUMP JUMPDEST PUSH2 0x42E1 PUSH8 0x2E35181737906969 PUSH1 0xC0 SHL PUSH2 0x4385 JUMP JUMPDEST PUSH2 0x42F5 PUSH8 0x23CFCE99D263E51B PUSH1 0xC0 SHL PUSH2 0x4385 JUMP JUMPDEST DUP1 PUSH1 0x4 DUP2 SWAP1 SSTORE POP POP JUMP JUMPDEST PUSH2 0x4307 PUSH2 0x4946 JUMP JUMPDEST PUSH1 0x0 PUSH20 0xFFFFFFFFFFFFFFFFFFFFFFFFFFFFFFFFFFFFFFFF AND DUP2 PUSH20 0xFFFFFFFFFFFFFFFFFFFFFFFFFFFFFFFFFFFFFFFF AND SUB PUSH2 0x4379 JUMPI PUSH1 0x0 PUSH1 0x40 MLOAD PUSH32 0x1E4FBDF700000000000000000000000000000000000000000000000000000000 DUP2 MSTORE PUSH1 0x4 ADD PUSH2 0x4370 SWAP2 SWAP1 PUSH2 0x5B54 JUMP JUMPDEST PUSH1 0x40 MLOAD DUP1 SWAP2 SUB SWAP1 REVERT JUMPDEST PUSH2 0x4382 DUP2 PUSH2 0x49CD JUMP JUMPDEST POP JUMP JUMPDEST POP JUMP JUMPDEST PUSH1 0x0 PUSH2 0x439E PUSH8 0x4319E03F7D4298F4 PUSH1 0xC0 SHL PUSH2 0x4385 JUMP JUMPDEST PUSH2 0x43B2 PUSH8 0x75F7A1AB0F46E8EB PUSH1 0xC0 SHL PUSH2 0x4385 JUMP JUMPDEST PUSH1 0x14 DUP3 ADD MLOAD SWAP1 POP SWAP2 SWAP1 POP JUMP JUMPDEST PUSH2 0x43D2 PUSH8 0x931F5BCD84662A93 PUSH1 0xC0 SHL PUSH2 0x4385 JUMP JUMPDEST PUSH2 0x43E6 PUSH8 0xD34E6A8527EC1988 PUSH1 0xC0 SHL PUSH2 0x4385 JUMP JUMPDEST PUSH2 0x43FA PUSH8 0x943EC7487D8E7849 PUSH1 0xC0 SHL PUSH2 0x4385 JUMP JUMPDEST PUSH2 0x440E PUSH8 0xA1C3D8643874CB49 PUSH1 0xC0 SHL PUSH2 0x4385 JUMP JUMPDEST PUSH1 0x5 PUSH1 0x0 DUP3 PUSH20 0xFFFFFFFFFFFFFFFFFFFFFFFFFFFFFFFFFFFFFFFF AND PUSH20 0xFFFFFFFFFFFFFFFFFFFFFFFFFFFFFFFFFFFFFFFF AND DUP2 MSTORE PUSH1 0x20 ADD SWAP1 DUP2 MSTORE PUSH1 0x20 ADD PUSH1 0x0 KECCAK256 PUSH1 0x0 ADD PUSH1 0x0 SWAP1 SLOAD SWAP1 PUSH2 0x100 EXP SWAP1 DIV PUSH1 0xFF AND ISZERO PUSH2 0x449E JUMPI PUSH1 0x40 MLOAD PUSH32 0x8C379A000000000000000000000000000000000000000000000000000000000 DUP2 MSTORE PUSH1 0x4 ADD PUSH2 0x4495 SWAP1 PUSH2 0x6E21 JUMP JUMPDEST PUSH1 0x40 MLOAD DUP1 SWAP2 SUB SWAP1 REVERT JUMPDEST PUSH2 0x44B2 PUSH8 0xA6E76954A8E72D4B PUSH1 0xC0 SHL PUSH2 0x4385 JUMP JUMPDEST PUSH2 0x44C6 PUSH8 0x600E8D962135260D PUSH1 0xC0 SHL PUSH2 0x4385 JUMP JUMPDEST PUSH1 0x1 PUSH1 0x5 PUSH1 0x0 DUP4 PUSH20 0xFFFFFFFFFFFFFFFFFFFFFFFFFFFFFFFFFFFFFFFF AND PUSH20 0xFFFFFFFFFFFFFFFFFFFFFFFFFFFFFFFFFFFFFFFF AND DUP2 MSTORE PUSH1 0x20 ADD SWAP1 DUP2 MSTORE PUSH1 0x20 ADD PUSH1 0x0 KECCAK256 PUSH1 0x0 ADD PUSH1 0x0 PUSH2 0x100 EXP DUP2 SLOAD DUP2 PUSH1 0xFF MUL NOT AND SWAP1 DUP4 ISZERO ISZERO MUL OR SWAP1 SSTORE POP PUSH2 0x4535 PUSH8 0x377A2BD447F70225 PUSH1 0xC0 SHL PUSH2 0x4385 JUMP JUMPDEST PUSH2 0x4549 PUSH8 0xAFB18748FA41B386 PUSH1 0xC0 SHL PUSH2 0x4385 JUMP JUMPDEST PUSH1 0x0 DUP1 DUP2 SLOAD DUP1 SWAP3 SWAP2 SWAP1 PUSH1 0x1 ADD SWAP2 SWAP1 POP SSTORE POP PUSH2 0x456E PUSH8 0x8932826F26908C06 PUSH1 0xC0 SHL PUSH2 0x4385 JUMP JUMPDEST PUSH2 0x4582 PUSH8 0xE107FD6A6E555AE1 PUSH1 0xC0 SHL PUSH2 0x4385 JUMP JUMPDEST DUP1 PUSH20 0xFFFFFFFFFFFFFFFFFFFFFFFFFFFFFFFFFFFFFFFF AND PUSH32 0x3DA74045128FFF0396B39203F81BCEDCBCF28586F0F97FB0F41CEB5521566A15 PUSH1 0x40 MLOAD PUSH1 0x40 MLOAD DUP1 SWAP2 SUB SWAP1 LOG2 POP JUMP JUMPDEST PUSH1 0x60 PUSH2 0x45DE PUSH8 0x103C5192CEEDB40D PUSH1 0xC0 SHL PUSH2 0x4385 JUMP JUMPDEST PUSH2 0x45F2 PUSH8 0xA73C7E0D35423E48 PUSH1 0xC0 SHL PUSH2 0x4385 JUMP JUMPDEST PUSH2 0x4606 PUSH8 0x3C1AAF90FE312018 PUSH1 0xC0 SHL PUSH2 0x4385 JUMP JUMPDEST DUP2 PUSH1 0x40 MLOAD PUSH1 0x20 ADD PUSH2 0x4617 SWAP2 SWAP1 PUSH2 0x6E89 JUMP JUMPDEST PUSH1 0x40 MLOAD PUSH1 0x20 DUP2 DUP4 SUB SUB DUP2 MSTORE SWAP1 PUSH1 0x40 MSTORE SWAP1 POP SWAP2 SWAP1 POP JUMP JUMPDEST PUSH1 0x0 PUSH32 0xF0C57E16840DF040F15088DC2F81FE391C3923BEC73E23A9662EFC9C229C6A00 SWAP1 POP SWAP1 JUMP JUMPDEST PUSH2 0x465D PUSH2 0x4ACC JUMP JUMPDEST PUSH2 0x4666 DUP2 PUSH2 0x4B0C JUMP JUMPDEST POP JUMP JUMPDEST PUSH2 0x4671 PUSH2 0x4ACC JUMP JUMPDEST JUMP JUMPDEST PUSH32 0x0 PUSH20 0xFFFFFFFFFFFFFFFFFFFFFFFFFFFFFFFFFFFFFFFF AND ADDRESS PUSH20 0xFFFFFFFFFFFFFFFFFFFFFFFFFFFFFFFFFFFFFFFF AND EQ DUP1 PUSH2 0x4720 JUMPI POP PUSH32 0x0 PUSH20 0xFFFFFFFFFFFFFFFFFFFFFFFFFFFFFFFFFFFFFFFF AND PUSH2 0x4707 PUSH2 0x4B92 JUMP JUMPDEST PUSH20 0xFFFFFFFFFFFFFFFFFFFFFFFFFFFFFFFFFFFFFFFF AND EQ ISZERO JUMPDEST ISZERO PUSH2 0x4757 JUMPI PUSH1 0x40 MLOAD PUSH32 0xE07C8DBA00000000000000000000000000000000000000000000000000000000 DUP2 MSTORE PUSH1 0x4 ADD PUSH1 0x40 MLOAD DUP1 SWAP2 SUB SWAP1 REVERT JUMPDEST JUMP JUMPDEST PUSH2 0x476D PUSH8 0x46C7983CB5386648 PUSH1 0xC0 SHL PUSH2 0x4385 JUMP JUMPDEST PUSH2 0x4775 PUSH2 0x4946 JUMP JUMPDEST PUSH2 0x4789 PUSH8 0xC843A76B27AFA940 PUSH1 0xC0 SHL PUSH2 0x4385 JUMP JUMPDEST PUSH2 0x479D PUSH8 0x964E34B344431579 PUSH1 0xC0 SHL PUSH2 0x4385 JUMP JUMPDEST POP JUMP JUMPDEST DUP2 PUSH20 0xFFFFFFFFFFFFFFFFFFFFFFFFFFFFFFFFFFFFFFFF AND PUSH4 0x52D1902D PUSH1 0x40 MLOAD DUP2 PUSH4 0xFFFFFFFF AND PUSH1 0xE0 SHL DUP2 MSTORE PUSH1 0x4 ADD PUSH1 0x20 PUSH1 0x40 MLOAD DUP1 DUP4 SUB DUP2 DUP7 GAS STATICCALL SWAP3 POP POP POP DUP1 ISZERO PUSH2 0x4808 JUMPI POP PUSH1 0x40 MLOAD RETURNDATASIZE PUSH1 0x1F NOT PUSH1 0x1F DUP3 ADD AND DUP3 ADD DUP1 PUSH1 0x40 MSTORE POP DUP2 ADD SWAP1 PUSH2 0x4805 SWAP2 SWAP1 PUSH2 0x6ED0 JUMP JUMPDEST PUSH1 0x1 JUMPDEST PUSH2 0x4849 JUMPI DUP2 PUSH1 0x40 MLOAD PUSH32 0x4C9C8CE300000000000000000000000000000000000000000000000000000000 DUP2 MSTORE PUSH1 0x4 ADD PUSH2 0x4840 SWAP2 SWAP1 PUSH2 0x5B54 JUMP JUMPDEST PUSH1 0x40 MLOAD DUP1 SWAP2 SUB SWAP1 REVERT JUMPDEST PUSH32 0x360894A13BA1A3210667C828492DB98DCA3E2076CC3735A920A3CA505D382BBC PUSH1 0x0 SHL DUP2 EQ PUSH2 0x48B0 JUMPI DUP1 PUSH1 0x40 MLOAD PUSH32 0xAA1D49A400000000000000000000000000000000000000000000000000000000 DUP2 MSTORE PUSH1 0x4 ADD PUSH2 0x48A7 SWAP2 SWAP1 PUSH2 0x5446 JUMP JUMPDEST PUSH1 0x40 MLOAD DUP1 SWAP2 SUB SWAP1 REVERT JUMPDEST PUSH2 0x48BA DUP4 DUP4 PUSH2 0x4BE9 JUMP JUMPDEST POP POP POP JUMP JUMPDEST PUSH32 0x0 PUSH20 0xFFFFFFFFFFFFFFFFFFFFFFFFFFFFFFFFFFFFFFFF AND ADDRESS PUSH20 0xFFFFFFFFFFFFFFFFFFFFFFFFFFFFFFFFFFFFFFFF AND EQ PUSH2 0x4944 JUMPI PUSH1 0x40 MLOAD PUSH32 0xE07C8DBA00000000000000000000000000000000000000000000000000000000 DUP2 MSTORE PUSH1 0x4 ADD PUSH1 0x40 MLOAD DUP1 SWAP2 SUB SWAP1 REVERT JUMPDEST JUMP JUMPDEST PUSH2 0x494E PUSH2 0x4C5C JUMP JUMPDEST PUSH20 0xFFFFFFFFFFFFFFFFFFFFFFFFFFFFFFFFFFFFFFFF AND PUSH2 0x496C PUSH2 0x3488 JUMP JUMPDEST PUSH20 0xFFFFFFFFFFFFFFFFFFFFFFFFFFFFFFFFFFFFFFFF AND EQ PUSH2 0x49CB JUMPI PUSH2 0x498F PUSH2 0x4C5C JUMP JUMPDEST PUSH1 0x40 MLOAD PUSH32 0x118CDAA700000000000000000000000000000000000000000000000000000000 DUP2 MSTORE PUSH1 0x4 ADD PUSH2 0x49C2 SWAP2 SWAP1 PUSH2 0x5B54 JUMP JUMPDEST PUSH1 0x40 MLOAD DUP1 SWAP2 SUB SWAP1 REVERT JUMPDEST JUMP JUMPDEST PUSH1 0x0 PUSH2 0x49D7 PUSH2 0x4AA4 JUMP JUMPDEST SWAP1 POP PUSH1 0x0 DUP2 PUSH1 0x0 ADD PUSH1 0x0 SWAP1 SLOAD SWAP1 PUSH2 0x100 EXP SWAP1 DIV PUSH20 0xFFFFFFFFFFFFFFFFFFFFFFFFFFFFFFFFFFFFFFFF AND SWAP1 POP DUP3 DUP3 PUSH1 0x0 ADD PUSH1 0x0 PUSH2 0x100 EXP DUP2 SLOAD DUP2 PUSH20 0xFFFFFFFFFFFFFFFFFFFFFFFFFFFFFFFFFFFFFFFF MUL NOT AND SWAP1 DUP4 PUSH20 0xFFFFFFFFFFFFFFFFFFFFFFFFFFFFFFFFFFFFFFFF AND MUL OR SWAP1 SSTORE POP DUP3 PUSH20 0xFFFFFFFFFFFFFFFFFFFFFFFFFFFFFFFFFFFFFFFF AND DUP2 PUSH20 0xFFFFFFFFFFFFFFFFFFFFFFFFFFFFFFFFFFFFFFFF AND PUSH32 0x8BE0079C531659141344CD1FD0A4F28419497F9722A3DAAFE3B4186F6B6457E0 PUSH1 0x40 MLOAD PUSH1 0x40 MLOAD DUP1 SWAP2 SUB SWAP1 LOG3 POP POP POP JUMP JUMPDEST PUSH1 0x0 PUSH32 0x9016D09D72D40FDAE2FD8CEAC6B6234C7706214FD39C1CD1E609A0528C199300 SWAP1 POP SWAP1 JUMP JUMPDEST PUSH2 0x4AD4 PUSH2 0x4C64 JUMP JUMPDEST PUSH2 0x4B0A JUMPI PUSH1 0x40 MLOAD PUSH32 0xD7E6BCF800000000000000000000000000000000000000000000000000000000 DUP2 MSTORE PUSH1 0x4 ADD PUSH1 0x40 MLOAD DUP1 SWAP2 SUB SWAP1 REVERT JUMPDEST JUMP JUMPDEST PUSH2 0x4B14 PUSH2 0x4ACC JUMP JUMPDEST PUSH1 0x0 PUSH20 0xFFFFFFFFFFFFFFFFFFFFFFFFFFFFFFFFFFFFFFFF AND DUP2 PUSH20 0xFFFFFFFFFFFFFFFFFFFFFFFFFFFFFFFFFFFFFFFF AND SUB PUSH2 0x4B86 JUMPI PUSH1 0x0 PUSH1 0x40 MLOAD PUSH32 0x1E4FBDF700000000000000000000000000000000000000000000000000000000 DUP2 MSTORE PUSH1 0x4 ADD PUSH2 0x4B7D SWAP2 SWAP1 PUSH2 0x5B54 JUMP JUMPDEST PUSH1 0x40 MLOAD DUP1 SWAP2 SUB SWAP1 REVERT JUMPDEST PUSH2 0x4B8F DUP2 PUSH2 0x49CD JUMP JUMPDEST POP JUMP JUMPDEST PUSH1 0x0 PUSH2 0x4BC0 PUSH32 0x360894A13BA1A3210667C828492DB98DCA3E2076CC3735A920A3CA505D382BBC PUSH1 0x0 SHL PUSH2 0x4C84 JUMP JUMPDEST PUSH1 0x0 ADD PUSH1 0x0 SWAP1 SLOAD SWAP1 PUSH2 0x100 EXP SWAP1 DIV PUSH20 0xFFFFFFFFFFFFFFFFFFFFFFFFFFFFFFFFFFFFFFFF AND SWAP1 POP SWAP1 JUMP JUMPDEST PUSH2 0x4BF2 DUP3 PUSH2 0x4C8E JUMP JUMPDEST DUP2 PUSH20 0xFFFFFFFFFFFFFFFFFFFFFFFFFFFFFFFFFFFFFFFF AND PUSH32 0xBC7CD75A20EE27FD9ADEBAB32041F755214DBC6BFFA90CC0225B39DA2E5C2D3B PUSH1 0x40 MLOAD PUSH1 0x40 MLOAD DUP1 SWAP2 SUB SWAP1 LOG2 PUSH1 0x0 DUP2 MLOAD GT ISZERO PUSH2 0x4C4F JUMPI PUSH2 0x4C49 DUP3 DUP3 PUSH2 0x4D5B JUMP JUMPDEST POP PUSH2 0x4C58 JUMP JUMPDEST PUSH2 0x4C57 PUSH2 0x4DDF JUMP JUMPDEST JUMPDEST POP POP JUMP JUMPDEST PUSH1 0x0 CALLER SWAP1 POP SWAP1 JUMP JUMPDEST PUSH1 0x0 PUSH2 0x4C6E PUSH2 0x462D JUMP JUMPDEST PUSH1 0x0 ADD PUSH1 0x8 SWAP1 SLOAD SWAP1 PUSH2 0x100 EXP SWAP1 DIV PUSH1 0xFF AND SWAP1 POP SWAP1 JUMP JUMPDEST PUSH1 0x0 DUP2 SWAP1 POP SWAP2 SWAP1 POP JUMP JUMPDEST PUSH1 0x0 DUP2 PUSH20 0xFFFFFFFFFFFFFFFFFFFFFFFFFFFFFFFFFFFFFFFF AND EXTCODESIZE SUB PUSH2 0x4CEA JUMPI DUP1 PUSH1 0x40 MLOAD PUSH32 0x4C9C8CE300000000000000000000000000000000000000000000000000000000 DUP2 MSTORE PUSH1 0x4 ADD PUSH2 0x4CE1 SWAP2 SWAP1 PUSH2 0x5B54 JUMP JUMPDEST PUSH1 0x40 MLOAD DUP1 SWAP2 SUB SWAP1 REVERT JUMPDEST DUP1 PUSH2 0x4D17 PUSH32 0x360894A13BA1A3210667C828492DB98DCA3E2076CC3735A920A3CA505D382BBC PUSH1 0x0 SHL PUSH2 0x4C84 JUMP JUMPDEST PUSH1 0x0 ADD PUSH1 0x0 PUSH2 0x100 EXP DUP2 SLOAD DUP2 PUSH20 0xFFFFFFFFFFFFFFFFFFFFFFFFFFFFFFFFFFFFFFFF MUL NOT AND SWAP1 DUP4 PUSH20 0xFFFFFFFFFFFFFFFFFFFFFFFFFFFFFFFFFFFFFFFF AND MUL OR SWAP1 SSTORE POP POP JUMP JUMPDEST PUSH1 0x60 PUSH1 0x0 DUP1 DUP5 PUSH20 0xFFFFFFFFFFFFFFFFFFFFFFFFFFFFFFFFFFFFFFFF AND DUP5 PUSH1 0x40 MLOAD PUSH2 0x4D85 SWAP2 SWAP1 PUSH2 0x6F2E JUMP JUMPDEST PUSH1 0x0 PUSH1 0x40 MLOAD DUP1 DUP4 SUB DUP2 DUP6 GAS DELEGATECALL SWAP2 POP POP RETURNDATASIZE DUP1 PUSH1 0x0 DUP2 EQ PUSH2 0x4DC0 JUMPI PUSH1 0x40 MLOAD SWAP2 POP PUSH1 0x1F NOT PUSH1 0x3F RETURNDATASIZE ADD AND DUP3 ADD PUSH1 0x40 MSTORE RETURNDATASIZE DUP3 MSTORE RETURNDATASIZE PUSH1 0x0 PUSH1 0x20 DUP5 ADD RETURNDATACOPY PUSH2 0x4DC5 JUMP JUMPDEST PUSH1 0x60 SWAP2 POP JUMPDEST POP SWAP2 POP SWAP2 POP PUSH2 0x4DD5 DUP6 DUP4 DUP4 PUSH2 0x4E1C JUMP JUMPDEST SWAP3 POP POP POP SWAP3 SWAP2 POP POP JUMP JUMPDEST PUSH1 0x0 CALLVALUE GT ISZERO PUSH2 0x4E1A JUMPI PUSH1 0x40 MLOAD PUSH32 0xB398979F00000000000000000000000000000000000000000000000000000000 DUP2 MSTORE PUSH1 0x4 ADD PUSH1 0x40 MLOAD DUP1 SWAP2 SUB SWAP1 REVERT JUMPDEST JUMP JUMPDEST PUSH1 0x60 DUP3 PUSH2 0x4E31 JUMPI PUSH2 0x4E2C DUP3 PUSH2 0x4EAB JUMP JUMPDEST PUSH2 0x4EA3 JUMP JUMPDEST PUSH1 0x0 DUP3 MLOAD EQ DUP1 ISZERO PUSH2 0x4E59 JUMPI POP PUSH1 0x0 DUP5 PUSH20 0xFFFFFFFFFFFFFFFFFFFFFFFFFFFFFFFFFFFFFFFF AND EXTCODESIZE EQ JUMPDEST ISZERO PUSH2 0x4E9B JUMPI DUP4 PUSH1 0x40 MLOAD PUSH32 0x9996B31500000000000000000000000000000000000000000000000000000000 DUP2 MSTORE PUSH1 0x4 ADD PUSH2 0x4E92 SWAP2 SWAP1 PUSH2 0x5B54 JUMP JUMPDEST PUSH1 0x40 MLOAD DUP1 SWAP2 SUB SWAP1 REVERT JUMPDEST DUP2 SWAP1 POP PUSH2 0x4EA4 JUMP JUMPDEST JUMPDEST SWAP4 SWAP3 POP POP POP JUMP JUMPDEST PUSH1 0x0 DUP2 MLOAD GT ISZERO PUSH2 0x4EBE JUMPI DUP1 MLOAD DUP1 DUP3 PUSH1 0x20 ADD REVERT JUMPDEST PUSH1 0x40 MLOAD PUSH32 0xD6BDA27500000000000000000000000000000000000000000000000000000000 DUP2 MSTORE PUSH1 0x4 ADD PUSH1 0x40 MLOAD DUP1 SWAP2 SUB SWAP1 REVERT JUMPDEST PUSH1 0x40 MLOAD DUP1 PUSH1 0x40 ADD PUSH1 0x40 MSTORE DUP1 PUSH1 0x0 ISZERO ISZERO DUP2 MSTORE PUSH1 0x20 ADD PUSH1 0x60 DUP2 MSTORE POP SWAP1 JUMP JUMPDEST PUSH1 0x40 MLOAD DUP1 PUSH2 0x140 ADD PUSH1 0x40 MSTORE DUP1 PUSH1 0x0 ISZERO ISZERO DUP2 MSTORE PUSH1 0x20 ADD PUSH1 0x0 ISZERO ISZERO DUP2 MSTORE PUSH1 0x20 ADD PUSH1 0x0 PUSH20 0xFFFFFFFFFFFFFFFFFFFFFFFFFFFFFFFFFFFFFFFF AND DUP2 MSTORE PUSH1 0x20 ADD PUSH1 0x60 DUP2 MSTORE PUSH1 0x20 ADD PUSH1 0x0 PUSH20 0xFFFFFFFFFFFFFFFFFFFFFFFFFFFFFFFFFFFFFFFF AND DUP2 MSTORE PUSH1 0x20 ADD PUSH1 0x0 PUSH6 0xFFFFFFFFFFFF AND DUP2 MSTORE PUSH1 0x20 ADD PUSH1 0x0 PUSH6 0xFFFFFFFFFFFF AND DUP2 MSTORE PUSH1 0x20 ADD PUSH1 0x0 DUP2 MSTORE PUSH1 0x20 ADD PUSH1 0x0 DUP2 MSTORE PUSH1 0x20 ADD PUSH1 0x60 DUP2 MSTORE POP SWAP1 JUMP JUMPDEST PUSH1 0x0 DUP2 SWAP1 POP SWAP2 SWAP1 POP JUMP JUMPDEST PUSH2 0x4FB2 DUP2 PUSH2 0x4F9F JUMP JUMPDEST DUP3 MSTORE POP POP JUMP JUMPDEST PUSH1 0x0 PUSH1 0x20 DUP3 ADD SWAP1 POP PUSH2 0x4FCD PUSH1 0x0 DUP4 ADD DUP5 PUSH2 0x4FA9 JUMP JUMPDEST SWAP3 SWAP2 POP POP JUMP JUMPDEST PUSH1 0x0 PUSH1 0x40 MLOAD SWAP1 POP SWAP1 JUMP JUMPDEST PUSH1 0x0 DUP1 REVERT JUMPDEST PUSH1 0x0 DUP1 REVERT JUMPDEST PUSH1 0x0 PUSH20 0xFFFFFFFFFFFFFFFFFFFFFFFFFFFFFFFFFFFFFFFF DUP3 AND SWAP1 POP SWAP2 SWAP1 POP JUMP JUMPDEST PUSH1 0x0 PUSH2 0x5012 DUP3 PUSH2 0x4FE7 JUMP JUMPDEST SWAP1 POP SWAP2 SWAP1 POP JUMP JUMPDEST PUSH2 0x5022 DUP2 PUSH2 0x5007 JUMP JUMPDEST DUP2 EQ PUSH2 0x502D JUMPI PUSH1 0x0 DUP1 REVERT JUMPDEST POP JUMP JUMPDEST PUSH1 0x0 DUP2 CALLDATALOAD SWAP1 POP PUSH2 0x503F DUP2 PUSH2 0x5019 JUMP JUMPDEST SWAP3 SWAP2 POP POP JUMP JUMPDEST PUSH1 0x0 DUP1 REVERT JUMPDEST PUSH1 0x0 DUP1 REVERT JUMPDEST PUSH1 0x0 PUSH1 0x1F NOT PUSH1 0x1F DUP4 ADD AND SWAP1 POP SWAP2 SWAP1 POP JUMP JUMPDEST PUSH32 0x4E487B7100000000000000000000000000000000000000000000000000000000 PUSH1 0x0 MSTORE PUSH1 0x41 PUSH1 0x4 MSTORE PUSH1 0x24 PUSH1 0x0 REVERT JUMPDEST PUSH2 0x5098 DUP3 PUSH2 0x504F JUMP JUMPDEST DUP2 ADD DUP2 DUP2 LT PUSH8 0xFFFFFFFFFFFFFFFF DUP3 GT OR ISZERO PUSH2 0x50B7 JUMPI PUSH2 0x50B6 PUSH2 0x5060 JUMP JUMPDEST JUMPDEST DUP1 PUSH1 0x40 MSTORE POP POP POP JUMP JUMPDEST PUSH1 0x0 PUSH2 0x50CA PUSH2 0x4FD3 JUMP JUMPDEST SWAP1 POP PUSH2 0x50D6 DUP3 DUP3 PUSH2 0x508F JUMP JUMPDEST SWAP2 SWAP1 POP JUMP JUMPDEST PUSH1 0x0 PUSH8 0xFFFFFFFFFFFFFFFF DUP3 GT ISZERO PUSH2 0x50F6 JUMPI PUSH2 0x50F5 PUSH2 0x5060 JUMP JUMPDEST JUMPDEST PUSH2 0x50FF DUP3 PUSH2 0x504F JUMP JUMPDEST SWAP1 POP PUSH1 0x20 DUP2 ADD SWAP1 POP SWAP2 SWAP1 POP JUMP JUMPDEST DUP3 DUP2 DUP4 CALLDATACOPY PUSH1 0x0 DUP4 DUP4 ADD MSTORE POP POP POP JUMP JUMPDEST PUSH1 0x0 PUSH2 0x512E PUSH2 0x5129 DUP5 PUSH2 0x50DB JUMP JUMPDEST PUSH2 0x50C0 JUMP JUMPDEST SWAP1 POP DUP3 DUP2 MSTORE PUSH1 0x20 DUP2 ADD DUP5 DUP5 DUP5 ADD GT ISZERO PUSH2 0x514A JUMPI PUSH2 0x5149 PUSH2 0x504A JUMP JUMPDEST JUMPDEST PUSH2 0x5155 DUP5 DUP3 DUP6 PUSH2 0x510C JUMP JUMPDEST POP SWAP4 SWAP3 POP POP POP JUMP JUMPDEST PUSH1 0x0 DUP3 PUSH1 0x1F DUP4 ADD SLT PUSH2 0x5172 JUMPI PUSH2 0x5171 PUSH2 0x5045 JUMP JUMPDEST JUMPDEST DUP2 CALLDATALOAD PUSH2 0x5182 DUP5 DUP3 PUSH1 0x20 DUP7 ADD PUSH2 0x511B JUMP JUMPDEST SWAP2 POP POP SWAP3 SWAP2 POP POP JUMP JUMPDEST PUSH1 0x0 DUP1 PUSH1 0x40 DUP4 DUP6 SUB SLT ISZERO PUSH2 0x51A2 JUMPI PUSH2 0x51A1 PUSH2 0x4FDD JUMP JUMPDEST JUMPDEST PUSH1 0x0 PUSH2 0x51B0 DUP6 DUP3 DUP7 ADD PUSH2 0x5030 JUMP JUMPDEST SWAP3 POP POP PUSH1 0x20 DUP4 ADD CALLDATALOAD PUSH8 0xFFFFFFFFFFFFFFFF DUP2 GT ISZERO PUSH2 0x51D1 JUMPI PUSH2 0x51D0 PUSH2 0x4FE2 JUMP JUMPDEST JUMPDEST PUSH2 0x51DD DUP6 DUP3 DUP7 ADD PUSH2 0x515D JUMP JUMPDEST SWAP2 POP POP SWAP3 POP SWAP3 SWAP1 POP JUMP JUMPDEST PUSH2 0x51F0 DUP2 PUSH2 0x4F9F JUMP JUMPDEST DUP2 EQ PUSH2 0x51FB JUMPI PUSH1 0x0 DUP1 REVERT JUMPDEST POP JUMP JUMPDEST PUSH1 0x0 DUP2 CALLDATALOAD SWAP1 POP PUSH2 0x520D DUP2 PUSH2 0x51E7 JUMP JUMPDEST SWAP3 SWAP2 POP POP JUMP JUMPDEST PUSH1 0x0 PUSH1 0x20 DUP3 DUP5 SUB SLT ISZERO PUSH2 0x5229 JUMPI PUSH2 0x5228 PUSH2 0x4FDD JUMP JUMPDEST JUMPDEST PUSH1 0x0 PUSH2 0x5237 DUP5 DUP3 DUP6 ADD PUSH2 0x51FE JUMP JUMPDEST SWAP2 POP POP SWAP3 SWAP2 POP POP JUMP JUMPDEST PUSH1 0x0 DUP2 ISZERO ISZERO SWAP1 POP SWAP2 SWAP1 POP JUMP JUMPDEST PUSH2 0x5255 DUP2 PUSH2 0x5240 JUMP JUMPDEST DUP2 EQ PUSH2 0x5260 JUMPI PUSH1 0x0 DUP1 REVERT JUMPDEST POP JUMP JUMPDEST PUSH1 0x0 DUP2 CALLDATALOAD SWAP1 POP PUSH2 0x5272 DUP2 PUSH2 0x524C JUMP JUMPDEST SWAP3 SWAP2 POP POP JUMP JUMPDEST PUSH1 0x0 DUP1 PUSH1 0x40 DUP4 DUP6 SUB SLT ISZERO PUSH2 0x528F JUMPI PUSH2 0x528E PUSH2 0x4FDD JUMP JUMPDEST JUMPDEST PUSH1 0x0 PUSH2 0x529D DUP6 DUP3 DUP7 ADD PUSH2 0x51FE JUMP JUMPDEST SWAP3 POP POP PUSH1 0x20 PUSH2 0x52AE DUP6 DUP3 DUP7 ADD PUSH2 0x5263 JUMP JUMPDEST SWAP2 POP POP SWAP3 POP SWAP3 SWAP1 POP JUMP JUMPDEST PUSH1 0x0 DUP1 PUSH1 0x40 DUP4 DUP6 SUB SLT ISZERO PUSH2 0x52CF JUMPI PUSH2 0x52CE PUSH2 0x4FDD JUMP JUMPDEST JUMPDEST PUSH1 0x0 DUP4 ADD CALLDATALOAD PUSH8 0xFFFFFFFFFFFFFFFF DUP2 GT ISZERO PUSH2 0x52ED JUMPI PUSH2 0x52EC PUSH2 0x4FE2 JUMP JUMPDEST JUMPDEST PUSH2 0x52F9 DUP6 DUP3 DUP7 ADD PUSH2 0x515D JUMP JUMPDEST SWAP3 POP POP PUSH1 0x20 DUP4 ADD CALLDATALOAD PUSH8 0xFFFFFFFFFFFFFFFF DUP2 GT ISZERO PUSH2 0x531A JUMPI PUSH2 0x5319 PUSH2 0x4FE2 JUMP JUMPDEST JUMPDEST PUSH2 0x5326 DUP6 DUP3 DUP7 ADD PUSH2 0x515D JUMP JUMPDEST SWAP2 POP POP SWAP3 POP SWAP3 SWAP1 POP JUMP JUMPDEST PUSH1 0x0 PUSH8 0xFFFFFFFFFFFFFFFF DUP3 GT ISZERO PUSH2 0x534B JUMPI PUSH2 0x534A PUSH2 0x5060 JUMP JUMPDEST JUMPDEST PUSH2 0x5354 DUP3 PUSH2 0x504F JUMP JUMPDEST SWAP1 POP PUSH1 0x20 DUP2 ADD SWAP1 POP SWAP2 SWAP1 POP JUMP JUMPDEST PUSH1 0x0 PUSH2 0x5374 PUSH2 0x536F DUP5 PUSH2 0x5330 JUMP JUMPDEST PUSH2 0x50C0 JUMP JUMPDEST SWAP1 POP DUP3 DUP2 MSTORE PUSH1 0x20 DUP2 ADD DUP5 DUP5 DUP5 ADD GT ISZERO PUSH2 0x5390 JUMPI PUSH2 0x538F PUSH2 0x504A JUMP JUMPDEST JUMPDEST PUSH2 0x539B DUP5 DUP3 DUP6 PUSH2 0x510C JUMP JUMPDEST POP SWAP4 SWAP3 POP POP POP JUMP JUMPDEST PUSH1 0x0 DUP3 PUSH1 0x1F DUP4 ADD SLT PUSH2 0x53B8 JUMPI PUSH2 0x53B7 PUSH2 0x5045 JUMP JUMPDEST JUMPDEST DUP2 CALLDATALOAD PUSH2 0x53C8 DUP5 DUP3 PUSH1 0x20 DUP7 ADD PUSH2 0x5361 JUMP JUMPDEST SWAP2 POP POP SWAP3 SWAP2 POP POP JUMP JUMPDEST PUSH1 0x0 DUP1 PUSH1 0x40 DUP4 DUP6 SUB SLT ISZERO PUSH2 0x53E8 JUMPI PUSH2 0x53E7 PUSH2 0x4FDD JUMP JUMPDEST JUMPDEST PUSH1 0x0 PUSH2 0x53F6 DUP6 DUP3 DUP7 ADD PUSH2 0x5030 JUMP JUMPDEST SWAP3 POP POP PUSH1 0x20 DUP4 ADD CALLDATALOAD PUSH8 0xFFFFFFFFFFFFFFFF DUP2 GT ISZERO PUSH2 0x5417 JUMPI PUSH2 0x5416 PUSH2 0x4FE2 JUMP JUMPDEST JUMPDEST PUSH2 0x5423 DUP6 DUP3 DUP7 ADD PUSH2 0x53A3 JUMP JUMPDEST SWAP2 POP POP SWAP3 POP SWAP3 SWAP1 POP JUMP JUMPDEST PUSH1 0x0 DUP2 SWAP1 POP SWAP2 SWAP1 POP JUMP JUMPDEST PUSH2 0x5440 DUP2 PUSH2 0x542D JUMP JUMPDEST DUP3 MSTORE POP POP JUMP JUMPDEST PUSH1 0x0 PUSH1 0x20 DUP3 ADD SWAP1 POP PUSH2 0x545B PUSH1 0x0 DUP4 ADD DUP5 PUSH2 0x5437 JUMP JUMPDEST SWAP3 SWAP2 POP POP JUMP JUMPDEST PUSH1 0x0 DUP1 PUSH1 0x40 DUP4 DUP6 SUB SLT ISZERO PUSH2 0x5478 JUMPI PUSH2 0x5477 PUSH2 0x4FDD JUMP JUMPDEST JUMPDEST PUSH1 0x0 PUSH2 0x5486 DUP6 DUP3 DUP7 ADD PUSH2 0x51FE JUMP JUMPDEST SWAP3 POP POP PUSH1 0x20 PUSH2 0x5497 DUP6 DUP3 DUP7 ADD PUSH2 0x51FE JUMP JUMPDEST SWAP2 POP POP SWAP3 POP SWAP3 SWAP1 POP JUMP JUMPDEST PUSH1 0x0 DUP2 MLOAD SWAP1 POP SWAP2 SWAP1 POP JUMP JUMPDEST PUSH1 0x0 DUP3 DUP3 MSTORE PUSH1 0x20 DUP3 ADD SWAP1 POP SWAP3 SWAP2 POP POP JUMP JUMPDEST PUSH1 0x0 DUP2 SWAP1 POP PUSH1 0x20 DUP3 ADD SWAP1 POP SWAP2 SWAP1 POP JUMP JUMPDEST PUSH2 0x54D6 DUP2 PUSH2 0x5240 JUMP JUMPDEST DUP3 MSTORE POP POP JUMP JUMPDEST PUSH2 0x54E5 DUP2 PUSH2 0x5007 JUMP JUMPDEST DUP3 MSTORE POP POP JUMP JUMPDEST PUSH1 0x0 DUP2 MLOAD SWAP1 POP SWAP2 SWAP1 POP JUMP JUMPDEST PUSH1 0x0 DUP3 DUP3 MSTORE PUSH1 0x20 DUP3 ADD SWAP1 POP SWAP3 SWAP2 POP POP JUMP JUMPDEST PUSH1 0x0 JUMPDEST DUP4 DUP2 LT ISZERO PUSH2 0x5525 JUMPI DUP1 DUP3 ADD MLOAD DUP2 DUP5 ADD MSTORE PUSH1 0x20 DUP2 ADD SWAP1 POP PUSH2 0x550A JUMP JUMPDEST PUSH1 0x0 DUP5 DUP5 ADD MSTORE POP POP POP POP JUMP JUMPDEST PUSH1 0x0 PUSH2 0x553C DUP3 PUSH2 0x54EB JUMP JUMPDEST PUSH2 0x5546 DUP2 DUP6 PUSH2 0x54F6 JUMP JUMPDEST SWAP4 POP PUSH2 0x5556 DUP2 DUP6 PUSH1 0x20 DUP7 ADD PUSH2 0x5507 JUMP JUMPDEST PUSH2 0x555F DUP2 PUSH2 0x504F JUMP JUMPDEST DUP5 ADD SWAP2 POP POP SWAP3 SWAP2 POP POP JUMP JUMPDEST PUSH1 0x0 PUSH6 0xFFFFFFFFFFFF DUP3 AND SWAP1 POP SWAP2 SWAP1 POP JUMP JUMPDEST PUSH2 0x5585 DUP2 PUSH2 0x556A JUMP JUMPDEST DUP3 MSTORE POP POP JUMP JUMPDEST PUSH2 0x5594 DUP2 PUSH2 0x4F9F JUMP JUMPDEST DUP3 MSTORE POP POP JUMP JUMPDEST PUSH1 0x0 DUP2 MLOAD SWAP1 POP SWAP2 SWAP1 POP JUMP JUMPDEST PUSH1 0x0 DUP3 DUP3 MSTORE PUSH1 0x20 DUP3 ADD SWAP1 POP SWAP3 SWAP2 POP POP JUMP JUMPDEST PUSH1 0x0 PUSH2 0x55C1 DUP3 PUSH2 0x559A JUMP JUMPDEST PUSH2 0x55CB DUP2 DUP6 PUSH2 0x55A5 JUMP JUMPDEST SWAP4 POP PUSH2 0x55DB DUP2 DUP6 PUSH1 0x20 DUP7 ADD PUSH2 0x5507 JUMP JUMPDEST PUSH2 0x55E4 DUP2 PUSH2 0x504F JUMP JUMPDEST DUP5 ADD SWAP2 POP POP SWAP3 SWAP2 POP POP JUMP JUMPDEST PUSH1 0x0 PUSH2 0x140 DUP4 ADD PUSH1 0x0 DUP4 ADD MLOAD PUSH2 0x5608 PUSH1 0x0 DUP7 ADD DUP3 PUSH2 0x54CD JUMP JUMPDEST POP PUSH1 0x20 DUP4 ADD MLOAD PUSH2 0x561B PUSH1 0x20 DUP7 ADD DUP3 PUSH2 0x54CD JUMP JUMPDEST POP PUSH1 0x40 DUP4 ADD MLOAD PUSH2 0x562E PUSH1 0x40 DUP7 ADD DUP3 PUSH2 0x54DC JUMP JUMPDEST POP PUSH1 0x60 DUP4 ADD MLOAD DUP5 DUP3 SUB PUSH1 0x60 DUP7 ADD MSTORE PUSH2 0x5646 DUP3 DUP3 PUSH2 0x5531 JUMP JUMPDEST SWAP2 POP POP PUSH1 0x80 DUP4 ADD MLOAD PUSH2 0x565B PUSH1 0x80 DUP7 ADD DUP3 PUSH2 0x54DC JUMP JUMPDEST POP PUSH1 0xA0 DUP4 ADD MLOAD PUSH2 0x566E PUSH1 0xA0 DUP7 ADD DUP3 PUSH2 0x557C JUMP JUMPDEST POP PUSH1 0xC0 DUP4 ADD MLOAD PUSH2 0x5681 PUSH1 0xC0 DUP7 ADD DUP3 PUSH2 0x557C JUMP JUMPDEST POP PUSH1 0xE0 DUP4 ADD MLOAD PUSH2 0x5694 PUSH1 0xE0 DUP7 ADD DUP3 PUSH2 0x558B JUMP JUMPDEST POP PUSH2 0x100 DUP4 ADD MLOAD PUSH2 0x56A9 PUSH2 0x100 DUP7 ADD DUP3 PUSH2 0x558B JUMP JUMPDEST POP PUSH2 0x120 DUP4 ADD MLOAD DUP5 DUP3 SUB PUSH2 0x120 DUP7 ADD MSTORE PUSH2 0x56C3 DUP3 DUP3 PUSH2 0x55B6 JUMP JUMPDEST SWAP2 POP POP DUP1 SWAP2 POP POP SWAP3 SWAP2 POP POP JUMP JUMPDEST PUSH1 0x0 PUSH2 0x56DC DUP4 DUP4 PUSH2 0x55EF JUMP JUMPDEST SWAP1 POP SWAP3 SWAP2 POP POP JUMP JUMPDEST PUSH1 0x0 PUSH1 0x20 DUP3 ADD SWAP1 POP SWAP2 SWAP1 POP JUMP JUMPDEST PUSH1 0x0 PUSH2 0x56FC DUP3 PUSH2 0x54A1 JUMP JUMPDEST PUSH2 0x5706 DUP2 DUP6 PUSH2 0x54AC JUMP JUMPDEST SWAP4 POP DUP4 PUSH1 0x20 DUP3 MUL DUP6 ADD PUSH2 0x5718 DUP6 PUSH2 0x54BD JUMP JUMPDEST DUP1 PUSH1 0x0 JUMPDEST DUP6 DUP2 LT ISZERO PUSH2 0x5754 JUMPI DUP5 DUP5 SUB DUP10 MSTORE DUP2 MLOAD PUSH2 0x5735 DUP6 DUP3 PUSH2 0x56D0 JUMP JUMPDEST SWAP5 POP PUSH2 0x5740 DUP4 PUSH2 0x56E4 JUMP JUMPDEST SWAP3 POP PUSH1 0x20 DUP11 ADD SWAP10 POP POP PUSH1 0x1 DUP2 ADD SWAP1 POP PUSH2 0x571C JUMP JUMPDEST POP DUP3 SWAP8 POP DUP8 SWAP6 POP POP POP POP POP POP SWAP3 SWAP2 POP POP JUMP JUMPDEST PUSH1 0x0 PUSH1 0x40 DUP3 ADD SWAP1 POP DUP2 DUP2 SUB PUSH1 0x0 DUP4 ADD MSTORE PUSH2 0x5780 DUP2 DUP6 PUSH2 0x56F1 JUMP JUMPDEST SWAP1 POP PUSH2 0x578F PUSH1 0x20 DUP4 ADD DUP5 PUSH2 0x4FA9 JUMP JUMPDEST SWAP4 SWAP3 POP POP POP JUMP JUMPDEST PUSH1 0x0 DUP3 DUP3 MSTORE PUSH1 0x20 DUP3 ADD SWAP1 POP SWAP3 SWAP2 POP POP JUMP JUMPDEST PUSH1 0x0 PUSH2 0x57B2 DUP3 PUSH2 0x559A JUMP JUMPDEST PUSH2 0x57BC DUP2 DUP6 PUSH2 0x5796 JUMP JUMPDEST SWAP4 POP PUSH2 0x57CC DUP2 DUP6 PUSH1 0x20 DUP7 ADD PUSH2 0x5507 JUMP JUMPDEST PUSH2 0x57D5 DUP2 PUSH2 0x504F JUMP JUMPDEST DUP5 ADD SWAP2 POP POP SWAP3 SWAP2 POP POP JUMP JUMPDEST PUSH1 0x0 PUSH1 0x20 DUP3 ADD SWAP1 POP DUP2 DUP2 SUB PUSH1 0x0 DUP4 ADD MSTORE PUSH2 0x57FA DUP2 DUP5 PUSH2 0x57A7 JUMP JUMPDEST SWAP1 POP SWAP3 SWAP2 POP POP JUMP JUMPDEST PUSH1 0x0 PUSH8 0xFFFFFFFFFFFFFFFF DUP3 GT ISZERO PUSH2 0x581D JUMPI PUSH2 0x581C PUSH2 0x5060 JUMP JUMPDEST JUMPDEST PUSH1 0x20 DUP3 MUL SWAP1 POP PUSH1 0x20 DUP2 ADD SWAP1 POP SWAP2 SWAP1 POP JUMP JUMPDEST PUSH1 0x0 DUP1 REVERT JUMPDEST PUSH1 0x0 PUSH2 0x5846 PUSH2 0x5841 DUP5 PUSH2 0x5802 JUMP JUMPDEST PUSH2 0x50C0 JUMP JUMPDEST SWAP1 POP DUP1 DUP4 DUP3 MSTORE PUSH1 0x20 DUP3 ADD SWAP1 POP PUSH1 0x20 DUP5 MUL DUP4 ADD DUP6 DUP2 GT ISZERO PUSH2 0x5869 JUMPI PUSH2 0x5868 PUSH2 0x582E JUMP JUMPDEST JUMPDEST DUP4 JUMPDEST DUP2 DUP2 LT ISZERO PUSH2 0x5892 JUMPI DUP1 PUSH2 0x587E DUP9 DUP3 PUSH2 0x5030 JUMP JUMPDEST DUP5 MSTORE PUSH1 0x20 DUP5 ADD SWAP4 POP POP PUSH1 0x20 DUP2 ADD SWAP1 POP PUSH2 0x586B JUMP JUMPDEST POP POP POP SWAP4 SWAP3 POP POP POP JUMP JUMPDEST PUSH1 0x0 DUP3 PUSH1 0x1F DUP4 ADD SLT PUSH2 0x58B1 JUMPI PUSH2 0x58B0 PUSH2 0x5045 JUMP JUMPDEST JUMPDEST DUP2 CALLDATALOAD PUSH2 0x58C1 DUP5 DUP3 PUSH1 0x20 DUP7 ADD PUSH2 0x5833 JUMP JUMPDEST SWAP2 POP POP SWAP3 SWAP2 POP POP JUMP JUMPDEST PUSH1 0x0 PUSH8 0xFFFFFFFFFFFFFFFF DUP3 GT ISZERO PUSH2 0x58E5 JUMPI PUSH2 0x58E4 PUSH2 0x5060 JUMP JUMPDEST JUMPDEST PUSH1 0x20 DUP3 MUL SWAP1 POP PUSH1 0x20 DUP2 ADD SWAP1 POP SWAP2 SWAP1 POP JUMP JUMPDEST PUSH1 0x0 PUSH2 0x5909 PUSH2 0x5904 DUP5 PUSH2 0x58CA JUMP JUMPDEST PUSH2 0x50C0 JUMP JUMPDEST SWAP1 POP DUP1 DUP4 DUP3 MSTORE PUSH1 0x20 DUP3 ADD SWAP1 POP PUSH1 0x20 DUP5 MUL DUP4 ADD DUP6 DUP2 GT ISZERO PUSH2 0x592C JUMPI PUSH2 0x592B PUSH2 0x582E JUMP JUMPDEST JUMPDEST DUP4 JUMPDEST DUP2 DUP2 LT ISZERO PUSH2 0x5955 JUMPI DUP1 PUSH2 0x5941 DUP9 DUP3 PUSH2 0x51FE JUMP JUMPDEST DUP5 MSTORE PUSH1 0x20 DUP5 ADD SWAP4 POP POP PUSH1 0x20 DUP2 ADD SWAP1 POP PUSH2 0x592E JUMP JUMPDEST POP POP POP SWAP4 SWAP3 POP POP POP JUMP JUMPDEST PUSH1 0x0 DUP3 PUSH1 0x1F DUP4 ADD SLT PUSH2 0x5974 JUMPI PUSH2 0x5973 PUSH2 0x5045 JUMP JUMPDEST JUMPDEST DUP2 CALLDATALOAD PUSH2 0x5984 DUP5 DUP3 PUSH1 0x20 DUP7 ADD PUSH2 0x58F6 JUMP JUMPDEST SWAP2 POP POP SWAP3 SWAP2 POP POP JUMP JUMPDEST PUSH1 0x0 PUSH8 0xFFFFFFFFFFFFFFFF DUP3 GT ISZERO PUSH2 0x59A8 JUMPI PUSH2 0x59A7 PUSH2 0x5060 JUMP JUMPDEST JUMPDEST PUSH1 0x20 DUP3 MUL SWAP1 POP PUSH1 0x20 DUP2 ADD SWAP1 POP SWAP2 SWAP1 POP JUMP JUMPDEST PUSH1 0x0 PUSH2 0x59CC PUSH2 0x59C7 DUP5 PUSH2 0x598D JUMP JUMPDEST PUSH2 0x50C0 JUMP JUMPDEST SWAP1 POP DUP1 DUP4 DUP3 MSTORE PUSH1 0x20 DUP3 ADD SWAP1 POP PUSH1 0x20 DUP5 MUL DUP4 ADD DUP6 DUP2 GT ISZERO PUSH2 0x59EF JUMPI PUSH2 0x59EE PUSH2 0x582E JUMP JUMPDEST JUMPDEST DUP4 JUMPDEST DUP2 DUP2 LT ISZERO PUSH2 0x5A36 JUMPI DUP1 CALLDATALOAD PUSH8 0xFFFFFFFFFFFFFFFF DUP2 GT ISZERO PUSH2 0x5A14 JUMPI PUSH2 0x5A13 PUSH2 0x5045 JUMP JUMPDEST JUMPDEST DUP1 DUP7 ADD PUSH2 0x5A21 DUP10 DUP3 PUSH2 0x53A3 JUMP JUMPDEST DUP6 MSTORE PUSH1 0x20 DUP6 ADD SWAP5 POP POP POP PUSH1 0x20 DUP2 ADD SWAP1 POP PUSH2 0x59F1 JUMP JUMPDEST POP POP POP SWAP4 SWAP3 POP POP POP JUMP JUMPDEST PUSH1 0x0 DUP3 PUSH1 0x1F DUP4 ADD SLT PUSH2 0x5A55 JUMPI PUSH2 0x5A54 PUSH2 0x5045 JUMP JUMPDEST JUMPDEST DUP2 CALLDATALOAD PUSH2 0x5A65 DUP5 DUP3 PUSH1 0x20 DUP7 ADD PUSH2 0x59B9 JUMP JUMPDEST SWAP2 POP POP SWAP3 SWAP2 POP POP JUMP JUMPDEST PUSH1 0x0 DUP1 PUSH1 0x0 DUP1 PUSH1 0x80 DUP6 DUP8 SUB SLT ISZERO PUSH2 0x5A88 JUMPI PUSH2 0x5A87 PUSH2 0x4FDD JUMP JUMPDEST JUMPDEST PUSH1 0x0 DUP6 ADD CALLDATALOAD PUSH8 0xFFFFFFFFFFFFFFFF DUP2 GT ISZERO PUSH2 0x5AA6 JUMPI PUSH2 0x5AA5 PUSH2 0x4FE2 JUMP JUMPDEST JUMPDEST PUSH2 0x5AB2 DUP8 DUP3 DUP9 ADD PUSH2 0x589C JUMP JUMPDEST SWAP5 POP POP PUSH1 0x20 DUP6 ADD CALLDATALOAD PUSH8 0xFFFFFFFFFFFFFFFF DUP2 GT ISZERO PUSH2 0x5AD3 JUMPI PUSH2 0x5AD2 PUSH2 0x4FE2 JUMP JUMPDEST JUMPDEST PUSH2 0x5ADF DUP8 DUP3 DUP9 ADD PUSH2 0x595F JUMP JUMPDEST SWAP4 POP POP PUSH1 0x40 DUP6 ADD CALLDATALOAD PUSH8 0xFFFFFFFFFFFFFFFF DUP2 GT ISZERO PUSH2 0x5B00 JUMPI PUSH2 0x5AFF PUSH2 0x4FE2 JUMP JUMPDEST JUMPDEST PUSH2 0x5B0C DUP8 DUP3 DUP9 ADD PUSH2 0x5A40 JUMP JUMPDEST SWAP3 POP POP PUSH1 0x60 DUP6 ADD CALLDATALOAD PUSH8 0xFFFFFFFFFFFFFFFF DUP2 GT ISZERO PUSH2 0x5B2D JUMPI PUSH2 0x5B2C PUSH2 0x4FE2 JUMP JUMPDEST JUMPDEST PUSH2 0x5B39 DUP8 DUP3 DUP9 ADD PUSH2 0x515D JUMP JUMPDEST SWAP2 POP POP SWAP3 SWAP6 SWAP2 SWAP5 POP SWAP3 POP JUMP JUMPDEST PUSH2 0x5B4E DUP2 PUSH2 0x5007 JUMP JUMPDEST DUP3 MSTORE POP POP JUMP JUMPDEST PUSH1 0x0 PUSH1 0x20 DUP3 ADD SWAP1 POP PUSH2 0x5B69 PUSH1 0x0 DUP4 ADD DUP5 PUSH2 0x5B45 JUMP JUMPDEST SWAP3 SWAP2 POP POP JUMP JUMPDEST PUSH1 0x0 PUSH1 0x20 DUP3 ADD SWAP1 POP DUP2 DUP2 SUB PUSH1 0x0 DUP4 ADD MSTORE PUSH2 0x5B89 DUP2 DUP5 PUSH2 0x56F1 JUMP JUMPDEST SWAP1 POP SWAP3 SWAP2 POP POP JUMP JUMPDEST PUSH1 0x0 PUSH1 0x20 DUP3 DUP5 SUB SLT ISZERO PUSH2 0x5BA7 JUMPI PUSH2 0x5BA6 PUSH2 0x4FDD JUMP JUMPDEST JUMPDEST PUSH1 0x0 PUSH2 0x5BB5 DUP5 DUP3 DUP6 ADD PUSH2 0x5030 JUMP JUMPDEST SWAP2 POP POP SWAP3 SWAP2 POP POP JUMP JUMPDEST PUSH2 0x5BC7 DUP2 PUSH2 0x5240 JUMP JUMPDEST DUP3 MSTORE POP POP JUMP JUMPDEST PUSH1 0x0 PUSH1 0x20 DUP3 ADD SWAP1 POP PUSH2 0x5BE2 PUSH1 0x0 DUP4 ADD DUP5 PUSH2 0x5BBE JUMP JUMPDEST SWAP3 SWAP2 POP POP JUMP JUMPDEST PUSH32 0x4E487B7100000000000000000000000000000000000000000000000000000000 PUSH1 0x0 MSTORE PUSH1 0x22 PUSH1 0x4 MSTORE PUSH1 0x24 PUSH1 0x0 REVERT JUMPDEST PUSH1 0x0 PUSH1 0x2 DUP3 DIV SWAP1 POP PUSH1 0x1 DUP3 AND DUP1 PUSH2 0x5C2F JUMPI PUSH1 0x7F DUP3 AND SWAP2 POP JUMPDEST PUSH1 0x20 DUP3 LT DUP2 SUB PUSH2 0x5C42 JUMPI PUSH2 0x5C41 PUSH2 0x5BE8 JUMP JUMPDEST JUMPDEST POP SWAP2 SWAP1 POP JUMP JUMPDEST PUSH32 0x416C72656164792061206D656D62657200000000000000000000000000000000 PUSH1 0x0 DUP3 ADD MSTORE POP JUMP JUMPDEST PUSH1 0x0 PUSH2 0x5C7E PUSH1 0x10 DUP4 PUSH2 0x5796 JUMP JUMPDEST SWAP2 POP PUSH2 0x5C89 DUP3 PUSH2 0x5C48 JUMP JUMPDEST PUSH1 0x20 DUP3 ADD SWAP1 POP SWAP2 SWAP1 POP JUMP JUMPDEST PUSH1 0x0 PUSH1 0x20 DUP3 ADD SWAP1 POP DUP2 DUP2 SUB PUSH1 0x0 DUP4 ADD MSTORE PUSH2 0x5CAD DUP2 PUSH2 0x5C71 JUMP JUMPDEST SWAP1 POP SWAP2 SWAP1 POP JUMP JUMPDEST PUSH1 0x0 DUP2 SWAP1 POP DUP2 PUSH1 0x0 MSTORE PUSH1 0x20 PUSH1 0x0 KECCAK256 SWAP1 POP SWAP2 SWAP1 POP JUMP JUMPDEST PUSH1 0x0 PUSH1 0x20 PUSH1 0x1F DUP4 ADD DIV SWAP1 POP SWAP2 SWAP1 POP JUMP JUMPDEST PUSH1 0x0 DUP3 DUP3 SHL SWAP1 POP SWAP3 SWAP2 POP POP JUMP JUMPDEST PUSH1 0x0 PUSH1 0x8 DUP4 MUL PUSH2 0x5D16 PUSH32 0xFFFFFFFFFFFFFFFFFFFFFFFFFFFFFFFFFFFFFFFFFFFFFFFFFFFFFFFFFFFFFFFF DUP3 PUSH2 0x5CD9 JUMP JUMPDEST PUSH2 0x5D20 DUP7 DUP4 PUSH2 0x5CD9 JUMP JUMPDEST SWAP6 POP DUP1 NOT DUP5 AND SWAP4 POP DUP1 DUP7 AND DUP5 OR SWAP3 POP POP POP SWAP4 SWAP3 POP POP POP JUMP JUMPDEST PUSH1 0x0 DUP2 SWAP1 POP SWAP2 SWAP1 POP JUMP JUMPDEST PUSH1 0x0 PUSH2 0x5D5D PUSH2 0x5D58 PUSH2 0x5D53 DUP5 PUSH2 0x4F9F JUMP JUMPDEST PUSH2 0x5D38 JUMP JUMPDEST PUSH2 0x4F9F JUMP JUMPDEST SWAP1 POP SWAP2 SWAP1 POP JUMP JUMPDEST PUSH1 0x0 DUP2 SWAP1 POP SWAP2 SWAP1 POP JUMP JUMPDEST PUSH2 0x5D77 DUP4 PUSH2 0x5D42 JUMP JUMPDEST PUSH2 0x5D8B PUSH2 0x5D83 DUP3 PUSH2 0x5D64 JUMP JUMPDEST DUP5 DUP5 SLOAD PUSH2 0x5CE6 JUMP JUMPDEST DUP3 SSTORE POP POP POP POP JUMP JUMPDEST PUSH1 0x0 SWAP1 JUMP JUMPDEST PUSH2 0x5DA0 PUSH2 0x5D93 JUMP JUMPDEST PUSH2 0x5DAB DUP2 DUP5 DUP5 PUSH2 0x5D6E JUMP JUMPDEST POP POP POP JUMP JUMPDEST JUMPDEST DUP2 DUP2 LT ISZERO PUSH2 0x5DCF JUMPI PUSH2 0x5DC4 PUSH1 0x0 DUP3 PUSH2 0x5D98 JUMP JUMPDEST PUSH1 0x1 DUP2 ADD SWAP1 POP PUSH2 0x5DB1 JUMP JUMPDEST POP POP JUMP JUMPDEST PUSH1 0x1F DUP3 GT ISZERO PUSH2 0x5E14 JUMPI PUSH2 0x5DE5 DUP2 PUSH2 0x5CB4 JUMP JUMPDEST PUSH2 0x5DEE DUP5 PUSH2 0x5CC9 JUMP JUMPDEST DUP2 ADD PUSH1 0x20 DUP6 LT ISZERO PUSH2 0x5DFD JUMPI DUP2 SWAP1 POP JUMPDEST PUSH2 0x5E11 PUSH2 0x5E09 DUP6 PUSH2 0x5CC9 JUMP JUMPDEST DUP4 ADD DUP3 PUSH2 0x5DB0 JUMP JUMPDEST POP POP JUMPDEST POP POP POP JUMP JUMPDEST PUSH1 0x0 DUP3 DUP3 SHR SWAP1 POP SWAP3 SWAP2 POP POP JUMP JUMPDEST PUSH1 0x0 PUSH2 0x5E37 PUSH1 0x0 NOT DUP5 PUSH1 0x8 MUL PUSH2 0x5E19 JUMP JUMPDEST NOT DUP1 DUP4 AND SWAP2 POP POP SWAP3 SWAP2 POP POP JUMP JUMPDEST PUSH1 0x0 PUSH2 0x5E50 DUP4 DUP4 PUSH2 0x5E26 JUMP JUMPDEST SWAP2 POP DUP3 PUSH1 0x2 MUL DUP3 OR SWAP1 POP SWAP3 SWAP2 POP POP JUMP JUMPDEST PUSH2 0x5E69 DUP3 PUSH2 0x559A JUMP JUMPDEST PUSH8 0xFFFFFFFFFFFFFFFF DUP2 GT ISZERO PUSH2 0x5E82 JUMPI PUSH2 0x5E81 PUSH2 0x5060 JUMP JUMPDEST JUMPDEST PUSH2 0x5E8C DUP3 SLOAD PUSH2 0x5C17 JUMP JUMPDEST PUSH2 0x5E97 DUP3 DUP3 DUP6 PUSH2 0x5DD3 JUMP JUMPDEST PUSH1 0x0 PUSH1 0x20 SWAP1 POP PUSH1 0x1F DUP4 GT PUSH1 0x1 DUP2 EQ PUSH2 0x5ECA JUMPI PUSH1 0x0 DUP5 ISZERO PUSH2 0x5EB8 JUMPI DUP3 DUP8 ADD MLOAD SWAP1 POP JUMPDEST PUSH2 0x5EC2 DUP6 DUP3 PUSH2 0x5E44 JUMP JUMPDEST DUP7 SSTORE POP PUSH2 0x5F2A JUMP JUMPDEST PUSH1 0x1F NOT DUP5 AND PUSH2 0x5ED8 DUP7 PUSH2 0x5CB4 JUMP JUMPDEST PUSH1 0x0 JUMPDEST DUP3 DUP2 LT ISZERO PUSH2 0x5F00 JUMPI DUP5 DUP10 ADD MLOAD DUP3 SSTORE PUSH1 0x1 DUP3 ADD SWAP2 POP PUSH1 0x20 DUP6 ADD SWAP5 POP PUSH1 0x20 DUP2 ADD SWAP1 POP PUSH2 0x5EDB JUMP JUMPDEST DUP7 DUP4 LT ISZERO PUSH2 0x5F1D JUMPI DUP5 DUP10 ADD MLOAD PUSH2 0x5F19 PUSH1 0x1F DUP10 AND DUP3 PUSH2 0x5E26 JUMP JUMPDEST DUP4 SSTORE POP JUMPDEST PUSH1 0x1 PUSH1 0x2 DUP9 MUL ADD DUP9 SSTORE POP POP POP JUMPDEST POP POP POP POP POP POP JUMP JUMPDEST PUSH32 0x566F74696E67207374696C6C20676F696E67206F6E0000000000000000000000 PUSH1 0x0 DUP3 ADD MSTORE POP JUMP JUMPDEST PUSH1 0x0 PUSH2 0x5F68 PUSH1 0x15 DUP4 PUSH2 0x5796 JUMP JUMPDEST SWAP2 POP PUSH2 0x5F73 DUP3 PUSH2 0x5F32 JUMP JUMPDEST PUSH1 0x20 DUP3 ADD SWAP1 POP SWAP2 SWAP1 POP JUMP JUMPDEST PUSH1 0x0 PUSH1 0x20 DUP3 ADD SWAP1 POP DUP2 DUP2 SUB PUSH1 0x0 DUP4 ADD MSTORE PUSH2 0x5F97 DUP2 PUSH2 0x5F5B JUMP JUMPDEST SWAP1 POP SWAP2 SWAP1 POP JUMP JUMPDEST PUSH32 0x50726F706F73616C20616C7265616479206578656375746564206F722063616E PUSH1 0x0 DUP3 ADD MSTORE PUSH32 0x63656C6564000000000000000000000000000000000000000000000000000000 PUSH1 0x20 DUP3 ADD MSTORE POP JUMP JUMPDEST PUSH1 0x0 PUSH2 0x5FFA PUSH1 0x25 DUP4 PUSH2 0x5796 JUMP JUMPDEST SWAP2 POP PUSH2 0x6005 DUP3 PUSH2 0x5F9E JUMP JUMPDEST PUSH1 0x40 DUP3 ADD SWAP1 POP SWAP2 SWAP1 POP JUMP JUMPDEST PUSH1 0x0 PUSH1 0x20 DUP3 ADD SWAP1 POP DUP2 DUP2 SUB PUSH1 0x0 DUP4 ADD MSTORE PUSH2 0x6029 DUP2 PUSH2 0x5FED JUMP JUMPDEST SWAP1 POP SWAP2 SWAP1 POP JUMP JUMPDEST PUSH32 0x4E487B7100000000000000000000000000000000000000000000000000000000 PUSH1 0x0 MSTORE PUSH1 0x11 PUSH1 0x4 MSTORE PUSH1 0x24 PUSH1 0x0 REVERT JUMPDEST PUSH1 0x0 PUSH2 0x606A DUP3 PUSH2 0x4F9F JUMP JUMPDEST SWAP2 POP PUSH2 0x6075 DUP4 PUSH2 0x4F9F JUMP JUMPDEST SWAP3 POP DUP3 DUP3 SUB SWAP1 POP DUP2 DUP2 GT ISZERO PUSH2 0x608D JUMPI PUSH2 0x608C PUSH2 0x6030 JUMP JUMPDEST JUMPDEST SWAP3 SWAP2 POP POP JUMP JUMPDEST PUSH32 0x50726F706F73616C20646F65736E27742068617665206D616A6F726974792076 PUSH1 0x0 DUP3 ADD MSTORE PUSH32 0x6F74650000000000000000000000000000000000000000000000000000000000 PUSH1 0x20 DUP3 ADD MSTORE POP JUMP JUMPDEST PUSH1 0x0 PUSH2 0x60EF PUSH1 0x23 DUP4 PUSH2 0x5796 JUMP JUMPDEST SWAP2 POP PUSH2 0x60FA DUP3 PUSH2 0x6093 JUMP JUMPDEST PUSH1 0x40 DUP3 ADD SWAP1 POP SWAP2 SWAP1 POP JUMP JUMPDEST PUSH1 0x0 PUSH1 0x20 DUP3 ADD SWAP1 POP DUP2 DUP2 SUB PUSH1 0x0 DUP4 ADD MSTORE PUSH2 0x611E DUP2 PUSH2 0x60E2 JUMP JUMPDEST SWAP1 POP SWAP2 SWAP1 POP JUMP JUMPDEST PUSH32 0x4E487B7100000000000000000000000000000000000000000000000000000000 PUSH1 0x0 MSTORE PUSH1 0x21 PUSH1 0x4 MSTORE PUSH1 0x24 PUSH1 0x0 REVERT JUMPDEST PUSH1 0x0 DUP2 SWAP1 POP SWAP3 SWAP2 POP POP JUMP JUMPDEST PUSH1 0x0 DUP2 SWAP1 POP DUP2 PUSH1 0x0 MSTORE PUSH1 0x20 PUSH1 0x0 KECCAK256 SWAP1 POP SWAP2 SWAP1 POP JUMP JUMPDEST PUSH1 0x0 DUP2 SLOAD PUSH2 0x6181 DUP2 PUSH2 0x5C17 JUMP JUMPDEST PUSH2 0x618B DUP2 DUP7 PUSH2 0x6154 JUMP JUMPDEST SWAP5 POP PUSH1 0x1 DUP3 AND PUSH1 0x0 DUP2 EQ PUSH2 0x61A6 JUMPI PUSH1 0x1 DUP2 EQ PUSH2 0x61BB JUMPI PUSH2 0x61EE JUMP JUMPDEST PUSH1 0xFF NOT DUP4 AND DUP7 MSTORE DUP2 ISZERO ISZERO DUP3 MUL DUP7 ADD SWAP4 POP PUSH2 0x61EE JUMP JUMPDEST PUSH2 0x61C4 DUP6 PUSH2 0x615F JUMP JUMPDEST PUSH1 0x0 JUMPDEST DUP4 DUP2 LT ISZERO PUSH2 0x61E6 JUMPI DUP2 SLOAD DUP2 DUP10 ADD MSTORE PUSH1 0x1 DUP3 ADD SWAP2 POP PUSH1 0x20 DUP2 ADD SWAP1 POP PUSH2 0x61C7 JUMP JUMPDEST DUP4 DUP9 ADD SWAP6 POP POP POP JUMPDEST POP POP POP SWAP3 SWAP2 POP POP JUMP JUMPDEST PUSH1 0x0 PUSH2 0x6203 DUP3 DUP5 PUSH2 0x6174 JUMP JUMPDEST SWAP2 POP DUP2 SWAP1 POP SWAP3 SWAP2 POP POP JUMP JUMPDEST PUSH32 0x50726F706F73616C20657865637574696F6E206661696C656400000000000000 PUSH1 0x0 DUP3 ADD MSTORE POP JUMP JUMPDEST PUSH1 0x0 PUSH2 0x6244 PUSH1 0x19 DUP4 PUSH2 0x5796 JUMP JUMPDEST SWAP2 POP PUSH2 0x624F DUP3 PUSH2 0x620E JUMP JUMPDEST PUSH1 0x20 DUP3 ADD SWAP1 POP SWAP2 SWAP1 POP JUMP JUMPDEST PUSH1 0x0 PUSH1 0x20 DUP3 ADD SWAP1 POP DUP2 DUP2 SUB PUSH1 0x0 DUP4 ADD MSTORE PUSH2 0x6273 DUP2 PUSH2 0x6237 JUMP JUMPDEST SWAP1 POP SWAP2 SWAP1 POP JUMP JUMPDEST PUSH32 0x4E6F742061206D656D6265720000000000000000000000000000000000000000 PUSH1 0x0 DUP3 ADD MSTORE POP JUMP JUMPDEST PUSH1 0x0 PUSH2 0x62B0 PUSH1 0xC DUP4 PUSH2 0x5796 JUMP JUMPDEST SWAP2 POP PUSH2 0x62BB DUP3 PUSH2 0x627A JUMP JUMPDEST PUSH1 0x20 DUP3 ADD SWAP1 POP SWAP2 SWAP1 POP JUMP JUMPDEST PUSH1 0x0 PUSH1 0x20 DUP3 ADD SWAP1 POP DUP2 DUP2 SUB PUSH1 0x0 DUP4 ADD MSTORE PUSH2 0x62DF DUP2 PUSH2 0x62A3 JUMP JUMPDEST SWAP1 POP SWAP2 SWAP1 POP JUMP JUMPDEST PUSH32 0x4D656D626572206E6F7420617070726F76656400000000000000000000000000 PUSH1 0x0 DUP3 ADD MSTORE POP JUMP JUMPDEST PUSH1 0x0 PUSH2 0x631C PUSH1 0x13 DUP4 PUSH2 0x5796 JUMP JUMPDEST SWAP2 POP PUSH2 0x6327 DUP3 PUSH2 0x62E6 JUMP JUMPDEST PUSH1 0x20 DUP3 ADD SWAP1 POP SWAP2 SWAP1 POP JUMP JUMPDEST PUSH1 0x0 PUSH1 0x20 DUP3 ADD SWAP1 POP DUP2 DUP2 SUB PUSH1 0x0 DUP4 ADD MSTORE PUSH2 0x634B DUP2 PUSH2 0x630F JUMP JUMPDEST SWAP1 POP SWAP2 SWAP1 POP JUMP JUMPDEST PUSH32 0x4E6F7420616E206578697374696E67206D656D62657200000000000000000000 PUSH1 0x0 DUP3 ADD MSTORE POP JUMP JUMPDEST PUSH1 0x0 PUSH2 0x6388 PUSH1 0x16 DUP4 PUSH2 0x5796 JUMP JUMPDEST SWAP2 POP PUSH2 0x6393 DUP3 PUSH2 0x6352 JUMP JUMPDEST PUSH1 0x20 DUP3 ADD SWAP1 POP SWAP2 SWAP1 POP JUMP JUMPDEST PUSH1 0x0 PUSH1 0x20 DUP3 ADD SWAP1 POP DUP2 DUP2 SUB PUSH1 0x0 DUP4 ADD MSTORE PUSH2 0x63B7 DUP2 PUSH2 0x637B JUMP JUMPDEST SWAP1 POP SWAP2 SWAP1 POP JUMP JUMPDEST PUSH32 0x566F74696E672064656C6179206973206E6F7420736574000000000000000000 PUSH1 0x0 DUP3 ADD MSTORE POP JUMP JUMPDEST PUSH1 0x0 PUSH2 0x63F4 PUSH1 0x17 DUP4 PUSH2 0x5796 JUMP JUMPDEST SWAP2 POP PUSH2 0x63FF DUP3 PUSH2 0x63BE JUMP JUMPDEST PUSH1 0x20 DUP3 ADD SWAP1 POP SWAP2 SWAP1 POP JUMP JUMPDEST PUSH1 0x0 PUSH1 0x20 DUP3 ADD SWAP1 POP DUP2 DUP2 SUB PUSH1 0x0 DUP4 ADD MSTORE PUSH2 0x6423 DUP2 PUSH2 0x63E7 JUMP JUMPDEST SWAP1 POP SWAP2 SWAP1 POP JUMP JUMPDEST PUSH32 0x566F74696E6720706572696F64206973206E6F74207365740000000000000000 PUSH1 0x0 DUP3 ADD MSTORE POP JUMP JUMPDEST PUSH1 0x0 PUSH2 0x6460 PUSH1 0x18 DUP4 PUSH2 0x5796 JUMP JUMPDEST SWAP2 POP PUSH2 0x646B DUP3 PUSH2 0x642A JUMP JUMPDEST PUSH1 0x20 DUP3 ADD SWAP1 POP SWAP2 SWAP1 POP JUMP JUMPDEST PUSH1 0x0 PUSH1 0x20 DUP3 ADD SWAP1 POP DUP2 DUP2 SUB PUSH1 0x0 DUP4 ADD MSTORE PUSH2 0x648F DUP2 PUSH2 0x6453 JUMP JUMPDEST SWAP1 POP SWAP2 SWAP1 POP JUMP JUMPDEST PUSH1 0x0 PUSH2 0x64A1 DUP3 PUSH2 0x556A JUMP JUMPDEST SWAP2 POP PUSH2 0x64AC DUP4 PUSH2 0x556A JUMP JUMPDEST SWAP3 POP DUP3 DUP3 ADD SWAP1 POP PUSH6 0xFFFFFFFFFFFF DUP2 GT ISZERO PUSH2 0x64CA JUMPI PUSH2 0x64C9 PUSH2 0x6030 JUMP JUMPDEST JUMPDEST SWAP3 SWAP2 POP POP JUMP JUMPDEST PUSH1 0x1F DUP3 GT ISZERO PUSH2 0x6511 JUMPI PUSH2 0x64E2 DUP2 PUSH2 0x615F JUMP JUMPDEST PUSH2 0x64EB DUP5 PUSH2 0x5CC9 JUMP JUMPDEST DUP2 ADD PUSH1 0x20 DUP6 LT ISZERO PUSH2 0x64FA JUMPI DUP2 SWAP1 POP JUMPDEST PUSH2 0x650E PUSH2 0x6506 DUP6 PUSH2 0x5CC9 JUMP JUMPDEST DUP4 ADD DUP3 PUSH2 0x5DB0 JUMP JUMPDEST POP POP JUMPDEST POP POP POP JUMP JUMPDEST PUSH2 0x651F DUP3 PUSH2 0x54EB JUMP JUMPDEST PUSH8 0xFFFFFFFFFFFFFFFF DUP2 GT ISZERO PUSH2 0x6538 JUMPI PUSH2 0x6537 PUSH2 0x5060 JUMP JUMPDEST JUMPDEST PUSH2 0x6542 DUP3 SLOAD PUSH2 0x5C17 JUMP JUMPDEST PUSH2 0x654D DUP3 DUP3 DUP6 PUSH2 0x64D0 JUMP JUMPDEST PUSH1 0x0 PUSH1 0x20 SWAP1 POP PUSH1 0x1F DUP4 GT PUSH1 0x1 DUP2 EQ PUSH2 0x6580 JUMPI PUSH1 0x0 DUP5 ISZERO PUSH2 0x656E JUMPI DUP3 DUP8 ADD MLOAD SWAP1 POP JUMPDEST PUSH2 0x6578 DUP6 DUP3 PUSH2 0x5E44 JUMP JUMPDEST DUP7 SSTORE POP PUSH2 0x65E0 JUMP JUMPDEST PUSH1 0x1F NOT DUP5 AND PUSH2 0x658E DUP7 PUSH2 0x615F JUMP JUMPDEST PUSH1 0x0 JUMPDEST DUP3 DUP2 LT ISZERO PUSH2 0x65B6 JUMPI DUP5 DUP10 ADD MLOAD DUP3 SSTORE PUSH1 0x1 DUP3 ADD SWAP2 POP PUSH1 0x20 DUP6 ADD SWAP5 POP PUSH1 0x20 DUP2 ADD SWAP1 POP PUSH2 0x6591 JUMP JUMPDEST DUP7 DUP4 LT ISZERO PUSH2 0x65D3 JUMPI DUP5 DUP10 ADD MLOAD PUSH2 0x65CF PUSH1 0x1F DUP10 AND DUP3 PUSH2 0x5E26 JUMP JUMPDEST DUP4 SSTORE POP JUMPDEST PUSH1 0x1 PUSH1 0x2 DUP9 MUL ADD DUP9 SSTORE POP POP POP JUMPDEST POP POP POP POP POP POP JUMP JUMPDEST PUSH1 0x0 DUP3 DUP3 MSTORE PUSH1 0x20 DUP3 ADD SWAP1 POP SWAP3 SWAP2 POP POP JUMP JUMPDEST PUSH1 0x0 PUSH2 0x6604 DUP3 PUSH2 0x54EB JUMP JUMPDEST PUSH2 0x660E DUP2 DUP6 PUSH2 0x65E8 JUMP JUMPDEST SWAP4 POP PUSH2 0x661E DUP2 DUP6 PUSH1 0x20 DUP7 ADD PUSH2 0x5507 JUMP JUMPDEST PUSH2 0x6627 DUP2 PUSH2 0x504F JUMP JUMPDEST DUP5 ADD SWAP2 POP POP SWAP3 SWAP2 POP POP JUMP JUMPDEST PUSH1 0x0 PUSH1 0x20 DUP3 ADD SWAP1 POP DUP2 DUP2 SUB PUSH1 0x0 DUP4 ADD MSTORE PUSH2 0x664C DUP2 DUP5 PUSH2 0x65F9 JUMP JUMPDEST SWAP1 POP SWAP3 SWAP2 POP POP JUMP JUMPDEST PUSH32 0x566F74696E67206973206E6F7420616C6C6F7765642061742074686973207469 PUSH1 0x0 DUP3 ADD MSTORE PUSH32 0x6D65000000000000000000000000000000000000000000000000000000000000 PUSH1 0x20 DUP3 ADD MSTORE POP JUMP JUMPDEST PUSH1 0x0 PUSH2 0x66B0 PUSH1 0x22 DUP4 PUSH2 0x5796 JUMP JUMPDEST SWAP2 POP PUSH2 0x66BB DUP3 PUSH2 0x6654 JUMP JUMPDEST PUSH1 0x40 DUP3 ADD SWAP1 POP SWAP2 SWAP1 POP JUMP JUMPDEST PUSH1 0x0 PUSH1 0x20 DUP3 ADD SWAP1 POP DUP2 DUP2 SUB PUSH1 0x0 DUP4 ADD MSTORE PUSH2 0x66DF DUP2 PUSH2 0x66A3 JUMP JUMPDEST SWAP1 POP SWAP2 SWAP1 POP JUMP JUMPDEST PUSH32 0x416C726561647920766F74656420666F7220746869732070726F706F73616C00 PUSH1 0x0 DUP3 ADD MSTORE POP JUMP JUMPDEST PUSH1 0x0 PUSH2 0x671C PUSH1 0x1F DUP4 PUSH2 0x5796 JUMP JUMPDEST SWAP2 POP PUSH2 0x6727 DUP3 PUSH2 0x66E6 JUMP JUMPDEST PUSH1 0x20 DUP3 ADD SWAP1 POP SWAP2 SWAP1 POP JUMP JUMPDEST PUSH1 0x0 PUSH1 0x20 DUP3 ADD SWAP1 POP DUP2 DUP2 SUB PUSH1 0x0 DUP4 ADD MSTORE PUSH2 0x674B DUP2 PUSH2 0x670F JUMP JUMPDEST SWAP1 POP SWAP2 SWAP1 POP JUMP JUMPDEST PUSH1 0x0 PUSH1 0xFF DUP3 AND SWAP1 POP SWAP2 SWAP1 POP JUMP JUMPDEST PUSH2 0x6768 DUP2 PUSH2 0x6752 JUMP JUMPDEST DUP3 MSTORE POP POP JUMP JUMPDEST PUSH1 0x0 DUP2 SWAP1 POP SWAP2 SWAP1 POP JUMP JUMPDEST PUSH1 0x0 PUSH2 0x6793 PUSH2 0x678E PUSH2 0x6789 DUP5 PUSH2 0x676E JUMP JUMPDEST PUSH2 0x5D38 JUMP JUMPDEST PUSH2 0x4F9F JUMP JUMPDEST SWAP1 POP SWAP2 SWAP1 POP JUMP JUMPDEST PUSH2 0x67A3 DUP2 PUSH2 0x6778 JUMP JUMPDEST DUP3 MSTORE POP POP JUMP JUMPDEST PUSH1 0x0 DUP2 SLOAD PUSH2 0x67B6 DUP2 PUSH2 0x5C17 JUMP JUMPDEST PUSH2 0x67C0 DUP2 DUP7 PUSH2 0x5796 JUMP JUMPDEST SWAP5 POP PUSH1 0x1 DUP3 AND PUSH1 0x0 DUP2 EQ PUSH2 0x67DB JUMPI PUSH1 0x1 DUP2 EQ PUSH2 0x67F1 JUMPI PUSH2 0x6824 JUMP JUMPDEST PUSH1 0xFF NOT DUP4 AND DUP7 MSTORE DUP2 ISZERO ISZERO PUSH1 0x20 MUL DUP7 ADD SWAP4 POP PUSH2 0x6824 JUMP JUMPDEST PUSH2 0x67FA DUP6 PUSH2 0x5CB4 JUMP JUMPDEST PUSH1 0x0 JUMPDEST DUP4 DUP2 LT ISZERO PUSH2 0x681C JUMPI DUP2 SLOAD DUP2 DUP10 ADD MSTORE PUSH1 0x1 DUP3 ADD SWAP2 POP PUSH1 0x20 DUP2 ADD SWAP1 POP PUSH2 0x67FD JUMP JUMPDEST DUP1 DUP9 ADD SWAP6 POP POP POP JUMPDEST POP POP POP SWAP3 SWAP2 POP POP JUMP JUMPDEST PUSH1 0x0 PUSH1 0x80 DUP3 ADD SWAP1 POP PUSH2 0x6842 PUSH1 0x0 DUP4 ADD DUP8 PUSH2 0x4FA9 JUMP JUMPDEST PUSH2 0x684F PUSH1 0x20 DUP4 ADD DUP7 PUSH2 0x675F JUMP JUMPDEST PUSH2 0x685C PUSH1 0x40 DUP4 ADD DUP6 PUSH2 0x679A JUMP JUMPDEST DUP2 DUP2 SUB PUSH1 0x60 DUP4 ADD MSTORE PUSH2 0x686E DUP2 DUP5 PUSH2 0x67A9 JUMP JUMPDEST SWAP1 POP SWAP6 SWAP5 POP POP POP POP POP JUMP JUMPDEST PUSH1 0x0 DUP2 SWAP1 POP SWAP2 SWAP1 POP JUMP JUMPDEST PUSH1 0x0 PUSH8 0xFFFFFFFFFFFFFFFF DUP3 AND SWAP1 POP SWAP2 SWAP1 POP JUMP JUMPDEST PUSH1 0x0 PUSH2 0x68B2 PUSH2 0x68AD PUSH2 0x68A8 DUP5 PUSH2 0x6879 JUMP JUMPDEST PUSH2 0x5D38 JUMP JUMPDEST PUSH2 0x6883 JUMP JUMPDEST SWAP1 POP SWAP2 SWAP1 POP JUMP JUMPDEST PUSH2 0x68C2 DUP2 PUSH2 0x6897 JUMP JUMPDEST DUP3 MSTORE POP POP JUMP JUMPDEST PUSH1 0x0 PUSH1 0x20 DUP3 ADD SWAP1 POP PUSH2 0x68DD PUSH1 0x0 DUP4 ADD DUP5 PUSH2 0x68B9 JUMP JUMPDEST SWAP3 SWAP2 POP POP JUMP JUMPDEST PUSH1 0x0 PUSH2 0x68EE DUP3 PUSH2 0x4F9F JUMP JUMPDEST SWAP2 POP PUSH2 0x68F9 DUP4 PUSH2 0x4F9F JUMP JUMPDEST SWAP3 POP DUP3 DUP3 ADD SWAP1 POP DUP1 DUP3 GT ISZERO PUSH2 0x6911 JUMPI PUSH2 0x6910 PUSH2 0x6030 JUMP JUMPDEST JUMPDEST SWAP3 SWAP2 POP POP JUMP JUMPDEST PUSH32 0x4E487B7100000000000000000000000000000000000000000000000000000000 PUSH1 0x0 MSTORE PUSH1 0x32 PUSH1 0x4 MSTORE PUSH1 0x24 PUSH1 0x0 REVERT JUMPDEST PUSH1 0x0 DUP2 MLOAD SWAP1 POP SWAP2 SWAP1 POP JUMP JUMPDEST PUSH1 0x0 DUP3 DUP3 MSTORE PUSH1 0x20 DUP3 ADD SWAP1 POP SWAP3 SWAP2 POP POP JUMP JUMPDEST PUSH1 0x0 DUP2 SWAP1 POP PUSH1 0x20 DUP3 ADD SWAP1 POP SWAP2 SWAP1 POP JUMP JUMPDEST PUSH1 0x0 PUSH2 0x697E DUP4 DUP4 PUSH2 0x54DC JUMP JUMPDEST PUSH1 0x20 DUP4 ADD SWAP1 POP SWAP3 SWAP2 POP POP JUMP JUMPDEST PUSH1 0x0 PUSH1 0x20 DUP3 ADD SWAP1 POP SWAP2 SWAP1 POP JUMP JUMPDEST PUSH1 0x0 PUSH2 0x69A2 DUP3 PUSH2 0x6946 JUMP JUMPDEST PUSH2 0x69AC DUP2 DUP6 PUSH2 0x6951 JUMP JUMPDEST SWAP4 POP PUSH2 0x69B7 DUP4 PUSH2 0x6962 JUMP JUMPDEST DUP1 PUSH1 0x0 JUMPDEST DUP4 DUP2 LT ISZERO PUSH2 0x69E8 JUMPI DUP2 MLOAD PUSH2 0x69CF DUP9 DUP3 PUSH2 0x6972 JUMP JUMPDEST SWAP8 POP PUSH2 0x69DA DUP4 PUSH2 0x698A JUMP JUMPDEST SWAP3 POP POP PUSH1 0x1 DUP2 ADD SWAP1 POP PUSH2 0x69BB JUMP JUMPDEST POP DUP6 SWAP4 POP POP POP POP SWAP3 SWAP2 POP POP JUMP JUMPDEST PUSH1 0x0 DUP2 MLOAD SWAP1 POP SWAP2 SWAP1 POP JUMP JUMPDEST PUSH1 0x0 DUP3 DUP3 MSTORE PUSH1 0x20 DUP3 ADD SWAP1 POP SWAP3 SWAP2 POP POP JUMP JUMPDEST PUSH1 0x0 DUP2 SWAP1 POP PUSH1 0x20 DUP3 ADD SWAP1 POP SWAP2 SWAP1 POP JUMP JUMPDEST PUSH1 0x0 PUSH2 0x6A2D DUP4 DUP4 PUSH2 0x558B JUMP JUMPDEST PUSH1 0x20 DUP4 ADD SWAP1 POP SWAP3 SWAP2 POP POP JUMP JUMPDEST PUSH1 0x0 PUSH1 0x20 DUP3 ADD SWAP1 POP SWAP2 SWAP1 POP JUMP JUMPDEST PUSH1 0x0 PUSH2 0x6A51 DUP3 PUSH2 0x69F5 JUMP JUMPDEST PUSH2 0x6A5B DUP2 DUP6 PUSH2 0x6A00 JUMP JUMPDEST SWAP4 POP PUSH2 0x6A66 DUP4 PUSH2 0x6A11 JUMP JUMPDEST DUP1 PUSH1 0x0 JUMPDEST DUP4 DUP2 LT ISZERO PUSH2 0x6A97 JUMPI DUP2 MLOAD PUSH2 0x6A7E DUP9 DUP3 PUSH2 0x6A21 JUMP JUMPDEST SWAP8 POP PUSH2 0x6A89 DUP4 PUSH2 0x6A39 JUMP JUMPDEST SWAP3 POP POP PUSH1 0x1 DUP2 ADD SWAP1 POP PUSH2 0x6A6A JUMP JUMPDEST POP DUP6 SWAP4 POP POP POP POP SWAP3 SWAP2 POP POP JUMP JUMPDEST PUSH1 0x0 DUP2 MLOAD SWAP1 POP SWAP2 SWAP1 POP JUMP JUMPDEST PUSH1 0x0 DUP3 DUP3 MSTORE PUSH1 0x20 DUP3 ADD SWAP1 POP SWAP3 SWAP2 POP POP JUMP JUMPDEST PUSH1 0x0 DUP2 SWAP1 POP PUSH1 0x20 DUP3 ADD SWAP1 POP SWAP2 SWAP1 POP JUMP JUMPDEST PUSH1 0x0 PUSH2 0x6ADC DUP4 DUP4 PUSH2 0x55B6 JUMP JUMPDEST SWAP1 POP SWAP3 SWAP2 POP POP JUMP JUMPDEST PUSH1 0x0 PUSH1 0x20 DUP3 ADD SWAP1 POP SWAP2 SWAP1 POP JUMP JUMPDEST PUSH1 0x0 PUSH2 0x6AFC DUP3 PUSH2 0x6AA4 JUMP JUMPDEST PUSH2 0x6B06 DUP2 DUP6 PUSH2 0x6AAF JUMP JUMPDEST SWAP4 POP DUP4 PUSH1 0x20 DUP3 MUL DUP6 ADD PUSH2 0x6B18 DUP6 PUSH2 0x6AC0 JUMP JUMPDEST DUP1 PUSH1 0x0 JUMPDEST DUP6 DUP2 LT ISZERO PUSH2 0x6B54 JUMPI DUP5 DUP5 SUB DUP10 MSTORE DUP2 MLOAD PUSH2 0x6B35 DUP6 DUP3 PUSH2 0x6AD0 JUMP JUMPDEST SWAP5 POP PUSH2 0x6B40 DUP4 PUSH2 0x6AE4 JUMP JUMPDEST SWAP3 POP PUSH1 0x20 DUP11 ADD SWAP10 POP POP PUSH1 0x1 DUP2 ADD SWAP1 POP PUSH2 0x6B1C JUMP JUMPDEST POP DUP3 SWAP8 POP DUP8 SWAP6 POP POP POP POP POP POP SWAP3 SWAP2 POP POP JUMP JUMPDEST PUSH1 0x0 DUP2 MLOAD SWAP1 POP SWAP2 SWAP1 POP JUMP JUMPDEST PUSH1 0x0 DUP3 DUP3 MSTORE PUSH1 0x20 DUP3 ADD SWAP1 POP SWAP3 SWAP2 POP POP JUMP JUMPDEST PUSH1 0x0 DUP2 SWAP1 POP PUSH1 0x20 DUP3 ADD SWAP1 POP SWAP2 SWAP1 POP JUMP JUMPDEST PUSH1 0x0 PUSH2 0x6B9E DUP4 DUP4 PUSH2 0x5531 JUMP JUMPDEST SWAP1 POP SWAP3 SWAP2 POP POP JUMP JUMPDEST PUSH1 0x0 PUSH1 0x20 DUP3 ADD SWAP1 POP SWAP2 SWAP1 POP JUMP JUMPDEST PUSH1 0x0 PUSH2 0x6BBE DUP3 PUSH2 0x6B66 JUMP JUMPDEST PUSH2 0x6BC8 DUP2 DUP6 PUSH2 0x6B71 JUMP JUMPDEST SWAP4 POP DUP4 PUSH1 0x20 DUP3 MUL DUP6 ADD PUSH2 0x6BDA DUP6 PUSH2 0x6B82 JUMP JUMPDEST DUP1 PUSH1 0x0 JUMPDEST DUP6 DUP2 LT ISZERO PUSH2 0x6C16 JUMPI DUP5 DUP5 SUB DUP10 MSTORE DUP2 MLOAD PUSH2 0x6BF7 DUP6 DUP3 PUSH2 0x6B92 JUMP JUMPDEST SWAP5 POP PUSH2 0x6C02 DUP4 PUSH2 0x6BA6 JUMP JUMPDEST SWAP3 POP PUSH1 0x20 DUP11 ADD SWAP10 POP POP PUSH1 0x1 DUP2 ADD SWAP1 POP PUSH2 0x6BDE JUMP JUMPDEST POP DUP3 SWAP8 POP DUP8 SWAP6 POP POP POP POP POP POP SWAP3 SWAP2 POP POP JUMP JUMPDEST PUSH1 0x0 PUSH2 0x6C43 PUSH2 0x6C3E PUSH2 0x6C39 DUP5 PUSH2 0x556A JUMP JUMPDEST PUSH2 0x5D38 JUMP JUMPDEST PUSH2 0x4F9F JUMP JUMPDEST SWAP1 POP SWAP2 SWAP1 POP JUMP JUMPDEST PUSH2 0x6C53 DUP2 PUSH2 0x6C28 JUMP JUMPDEST DUP3 MSTORE POP POP JUMP JUMPDEST PUSH1 0x0 PUSH2 0x120 DUP3 ADD SWAP1 POP PUSH2 0x6C6F PUSH1 0x0 DUP4 ADD DUP13 PUSH2 0x4FA9 JUMP JUMPDEST PUSH2 0x6C7C PUSH1 0x20 DUP4 ADD DUP12 PUSH2 0x5B45 JUMP JUMPDEST DUP2 DUP2 SUB PUSH1 0x40 DUP4 ADD MSTORE PUSH2 0x6C8E DUP2 DUP11 PUSH2 0x6997 JUMP JUMPDEST SWAP1 POP DUP2 DUP2 SUB PUSH1 0x60 DUP4 ADD MSTORE PUSH2 0x6CA2 DUP2 DUP10 PUSH2 0x6A46 JUMP JUMPDEST SWAP1 POP DUP2 DUP2 SUB PUSH1 0x80 DUP4 ADD MSTORE PUSH2 0x6CB6 DUP2 DUP9 PUSH2 0x6AF1 JUMP JUMPDEST SWAP1 POP DUP2 DUP2 SUB PUSH1 0xA0 DUP4 ADD MSTORE PUSH2 0x6CCA DUP2 DUP8 PUSH2 0x6BB3 JUMP JUMPDEST SWAP1 POP PUSH2 0x6CD9 PUSH1 0xC0 DUP4 ADD DUP7 PUSH2 0x6C4A JUMP JUMPDEST PUSH2 0x6CE6 PUSH1 0xE0 DUP4 ADD DUP6 PUSH2 0x6C4A JUMP JUMPDEST DUP2 DUP2 SUB PUSH2 0x100 DUP4 ADD MSTORE PUSH2 0x6CF9 DUP2 DUP5 PUSH2 0x57A7 JUMP JUMPDEST SWAP1 POP SWAP11 SWAP10 POP POP POP POP POP POP POP POP POP POP JUMP JUMPDEST PUSH32 0x4E487B7100000000000000000000000000000000000000000000000000000000 PUSH1 0x0 MSTORE PUSH1 0x12 PUSH1 0x4 MSTORE PUSH1 0x24 PUSH1 0x0 REVERT JUMPDEST PUSH1 0x0 PUSH2 0x6D43 DUP3 PUSH2 0x4F9F JUMP JUMPDEST SWAP2 POP PUSH2 0x6D4E DUP4 PUSH2 0x4F9F JUMP JUMPDEST SWAP3 POP DUP3 PUSH2 0x6D5E JUMPI PUSH2 0x6D5D PUSH2 0x6D09 JUMP JUMPDEST JUMPDEST DUP3 DUP3 DIV SWAP1 POP SWAP3 SWAP2 POP POP JUMP JUMPDEST PUSH32 0x4E6F207065726D697373696F6E20746F2063616E63656C2070726F706F73616C PUSH1 0x0 DUP3 ADD MSTORE POP JUMP JUMPDEST PUSH1 0x0 PUSH2 0x6D9F PUSH1 0x20 DUP4 PUSH2 0x5796 JUMP JUMPDEST SWAP2 POP PUSH2 0x6DAA DUP3 PUSH2 0x6D69 JUMP JUMPDEST PUSH1 0x20 DUP3 ADD SWAP1 POP SWAP2 SWAP1 POP JUMP JUMPDEST PUSH1 0x0 PUSH1 0x20 DUP3 ADD SWAP1 POP DUP2 DUP2 SUB PUSH1 0x0 DUP4 ADD MSTORE PUSH2 0x6DCE DUP2 PUSH2 0x6D92 JUMP JUMPDEST SWAP1 POP SWAP2 SWAP1 POP JUMP JUMPDEST PUSH32 0x4D656D62657220616C726561647920617070726F766564000000000000000000 PUSH1 0x0 DUP3 ADD MSTORE POP JUMP JUMPDEST PUSH1 0x0 PUSH2 0x6E0B PUSH1 0x17 DUP4 PUSH2 0x5796 JUMP JUMPDEST SWAP2 POP PUSH2 0x6E16 DUP3 PUSH2 0x6DD5 JUMP JUMPDEST PUSH1 0x20 DUP3 ADD SWAP1 POP SWAP2 SWAP1 POP JUMP JUMPDEST PUSH1 0x0 PUSH1 0x20 DUP3 ADD SWAP1 POP DUP2 DUP2 SUB PUSH1 0x0 DUP4 ADD MSTORE PUSH2 0x6E3A DUP2 PUSH2 0x6DFE JUMP JUMPDEST SWAP1 POP SWAP2 SWAP1 POP JUMP JUMPDEST PUSH1 0x0 DUP2 PUSH1 0x60 SHL SWAP1 POP SWAP2 SWAP1 POP JUMP JUMPDEST PUSH1 0x0 PUSH2 0x6E59 DUP3 PUSH2 0x6E41 JUMP JUMPDEST SWAP1 POP SWAP2 SWAP1 POP JUMP JUMPDEST PUSH1 0x0 PUSH2 0x6E6B DUP3 PUSH2 0x6E4E JUMP JUMPDEST SWAP1 POP SWAP2 SWAP1 POP JUMP JUMPDEST PUSH2 0x6E83 PUSH2 0x6E7E DUP3 PUSH2 0x5007 JUMP JUMPDEST PUSH2 0x6E60 JUMP JUMPDEST DUP3 MSTORE POP POP JUMP JUMPDEST PUSH1 0x0 PUSH2 0x6E95 DUP3 DUP5 PUSH2 0x6E72 JUMP JUMPDEST PUSH1 0x14 DUP3 ADD SWAP2 POP DUP2 SWAP1 POP SWAP3 SWAP2 POP POP JUMP JUMPDEST PUSH2 0x6EAD DUP2 PUSH2 0x542D JUMP JUMPDEST DUP2 EQ PUSH2 0x6EB8 JUMPI PUSH1 0x0 DUP1 REVERT JUMPDEST POP JUMP JUMPDEST PUSH1 0x0 DUP2 MLOAD SWAP1 POP PUSH2 0x6ECA DUP2 PUSH2 0x6EA4 JUMP JUMPDEST SWAP3 SWAP2 POP POP JUMP JUMPDEST PUSH1 0x0 PUSH1 0x20 DUP3 DUP5 SUB SLT ISZERO PUSH2 0x6EE6 JUMPI PUSH2 0x6EE5 PUSH2 0x4FDD JUMP JUMPDEST JUMPDEST PUSH1 0x0 PUSH2 0x6EF4 DUP5 DUP3 DUP6 ADD PUSH2 0x6EBB JUMP JUMPDEST SWAP2 POP POP SWAP3 SWAP2 POP POP JUMP JUMPDEST PUSH1 0x0 PUSH2 0x6F08 DUP3 PUSH2 0x54EB JUMP JUMPDEST PUSH2 0x6F12 DUP2 DUP6 PUSH2 0x6154 JUMP JUMPDEST SWAP4 POP PUSH2 0x6F22 DUP2 DUP6 PUSH1 0x20 DUP7 ADD PUSH2 0x5507 JUMP JUMPDEST DUP1 DUP5 ADD SWAP2 POP POP SWAP3 SWAP2 POP POP JUMP JUMPDEST PUSH1 0x0 PUSH2 0x6F3A DUP3 DUP5 PUSH2 0x6EFD JUMP JUMPDEST SWAP2 POP DUP2 SWAP1 POP SWAP3 SWAP2 POP POP JUMP INVALID LOG1 PUSH5 0x736F6C6343 STOP ADDMOD SHL STOP EXP "},"methodIdentifiers":{"UPGRADE_INTERFACE_VERSION()":"ad3cb1cc","cancelProposal(uint256)":"e0a8f6f5","castVote(uint256,bool)":"15373e3d","checkIsMemberApproved(address)":"cfbc02d4","daoURI()":"7034731b","executeProposal(uint256)":"0d61b519","getOngoingProposals()":"afe666f6","getOngoingProposalsCount()":"27f5884b","getProposalsByPage(uint256,uint256)":"5643a8b8","getVotingDelay()":"a2b170b0","getVotingPeriod()":"3ecc6a43","initialize(string,string)":"4cd88b76","newMemberApprovalProposal(address,string)":"0da85852","owner()":"8da5cb5b","proposalThreshold()":"b58131b0","propose(address[],uint256[],bytes[],string)":"7d5e81e2","proxiableUUID()":"52d1902d","registerMember(address,string)":"0aa5adfc","renounceOwnership()":"715018a6","setVotingDelay(uint256)":"70b0f660","setVotingPeriod(uint256)":"ea0217cf","transferOwnership(address)":"f2fde38b","upgradeToAndCall(address,bytes)":"4f1ef286","votingDelay()":"3932abb1","votingPeriod()":"02a251a3"}},"storageLayout":{"storage":[{"astId":2193,"contract":"contracts/FincubeDAO.sol:FinCubeDAO","label":"memberCount","offset":0,"slot":"0","type":"t_uint256"},{"astId":2195,"contract":"contracts/FincubeDAO.sol:FinCubeDAO","label":"proposalCount","offset":0,"slot":"1","type":"t_uint256"},{"astId":2197,"contract":"contracts/FincubeDAO.sol:FinCubeDAO","label":"daoURI","offset":0,"slot":"2","type":"t_string_storage"},{"astId":2199,"contract":"contracts/FincubeDAO.sol:FinCubeDAO","label":"votingDelay","offset":0,"slot":"3","type":"t_uint256"},{"astId":2201,"contract":"contracts/FincubeDAO.sol:FinCubeDAO","label":"votingPeriod","offset":0,"slot":"4","type":"t_uint256"},{"astId":2248,"contract":"contracts/FincubeDAO.sol:FinCubeDAO","label":"members","offset":0,"slot":"5","type":"t_mapping(t_address,t_struct(Member)2207_storage)"},{"astId":2253,"contract":"contracts/FincubeDAO.sol:FinCubeDAO","label":"proposals","offset":0,"slot":"6","type":"t_mapping(t_uint256,t_struct(Proposal)2233_storage)"},{"astId":2258,"contract":"contracts/FincubeDAO.sol:FinCubeDAO","label":"proposalVotes","offset":0,"slot":"7","type":"t_mapping(t_uint256,t_struct(ProposalVotes)2243_storage)"},{"astId":2263,"contract":"contracts/FincubeDAO.sol:FinCubeDAO","label":"proposalType","offset":0,"slot":"8","type":"t_mapping(t_uint256,t_enum(ProposalType)2211)"}],"types":{"t_address":{"encoding":"inplace","label":"address","numberOfBytes":"20"},"t_bool":{"encoding":"inplace","label":"bool","numberOfBytes":"1"},"t_bytes_storage":{"encoding":"bytes","label":"bytes","numberOfBytes":"32"},"t_enum(ProposalType)2211":{"encoding":"inplace","label":"enum FinCubeDAO.ProposalType","numberOfBytes":"1"},"t_mapping(t_address,t_bool)":{"encoding":"mapping","key":"t_address","label":"mapping(address => bool)","numberOfBytes":"32","value":"t_bool"},"t_mapping(t_address,t_struct(Member)2207_storage)":{"encoding":"mapping","key":"t_address","label":"mapping(address => struct FinCubeDAO.Member)","numberOfBytes":"32","value":"t_struct(Member)2207_storage"},"t_mapping(t_uint256,t_enum(ProposalType)2211)":{"encoding":"mapping","key":"t_uint256","label":"mapping(uint256 => enum FinCubeDAO.ProposalType)","numberOfBytes":"32","value":"t_enum(ProposalType)2211"},"t_mapping(t_uint256,t_struct(Proposal)2233_storage)":{"encoding":"mapping","key":"t_uint256","label":"mapping(uint256 => struct FinCubeDAO.Proposal)","numberOfBytes":"32","value":"t_struct(Proposal)2233_storage"},"t_mapping(t_uint256,t_struct(ProposalVotes)2243_storage)":{"encoding":"mapping","key":"t_uint256","label":"mapping(uint256 => struct FinCubeDAO.ProposalVotes)","numberOfBytes":"32","value":"t_struct(ProposalVotes)2243_storage"},"t_string_storage":{"encoding":"bytes","label":"string","numberOfBytes":"32"},"t_struct(Member)2207_storage":{"encoding":"inplace","label":"struct FinCubeDAO.Member","members":[{"astId":2204,"contract":"contracts/FincubeDAO.sol:FinCubeDAO","label":"status","offset":0,"slot":"0","type":"t_bool"},{"astId":2206,"contract":"contracts/FincubeDAO.sol:FinCubeDAO","label":"memberURI","offset":0,"slot":"1","type":"t_string_storage"}],"numberOfBytes":"64"},"t_struct(Proposal)2233_storage":{"encoding":"inplace","label":"struct FinCubeDAO.Proposal","members":[{"astId":2214,"contract":"contracts/FincubeDAO.sol:FinCubeDAO","label":"executed","offset":0,"slot":"0","type":"t_bool"},{"astId":2216,"contract":"contracts/FincubeDAO.sol:FinCubeDAO","label":"canceled","offset":1,"slot":"0","type":"t_bool"},{"astId":2218,"contract":"contracts/FincubeDAO.sol:FinCubeDAO","label":"proposer","offset":2,"slot":"0","type":"t_address"},{"astId":2220,"contract":"contracts/FincubeDAO.sol:FinCubeDAO","label":"data","offset":0,"slot":"1","type":"t_bytes_storage"},{"astId":2222,"contract":"contracts/FincubeDAO.sol:FinCubeDAO","label":"target","offset":0,"slot":"2","type":"t_address"},{"astId":2224,"contract":"contracts/FincubeDAO.sol:FinCubeDAO","label":"voteStart","offset":20,"slot":"2","type":"t_uint48"},{"astId":2226,"contract":"contracts/FincubeDAO.sol:FinCubeDAO","label":"voteDuration","offset":26,"slot":"2","type":"t_uint48"},{"astId":2228,"contract":"contracts/FincubeDAO.sol:FinCubeDAO","label":"yesvotes","offset":0,"slot":"3","type":"t_uint256"},{"astId":2230,"contract":"contracts/FincubeDAO.sol:FinCubeDAO","label":"novotes","offset":0,"slot":"4","type":"t_uint256"},{"astId":2232,"contract":"contracts/FincubeDAO.sol:FinCubeDAO","label":"proposalURI","offset":0,"slot":"5","type":"t_string_storage"}],"numberOfBytes":"192"},"t_struct(ProposalVotes)2243_storage":{"encoding":"inplace","label":"struct FinCubeDAO.ProposalVotes","members":[{"astId":2238,"contract":"contracts/FincubeDAO.sol:FinCubeDAO","label":"isYesVote","offset":0,"slot":"0","type":"t_mapping(t_address,t_bool)"},{"astId":2242,"contract":"contracts/FincubeDAO.sol:FinCubeDAO","label":"isNoVote","offset":0,"slot":"1","type":"t_mapping(t_address,t_bool)"}],"numberOfBytes":"64"},"t_uint256":{"encoding":"inplace","label":"uint256","numberOfBytes":"32"},"t_uint48":{"encoding":"inplace","label":"uint48","numberOfBytes":"6"}}}}}}