{"contracts/bytes32vsStringExample.sol":{"GasComparisonContract":{"abi":[{"inputs":[],"name":"setBytes32Text","outputs":[],"stateMutability":"nonpayable","type":"function"},{"inputs":[],"name":"setStringText","outputs":[],"stateMutability":"nonpayable","type":"function"}],"evm":{"bytecode":{"linkReferences":{},"object":"6080604052348015600f57600080fd5b5061013c8061001f6000396000f3fe608060405234801561001057600080fd5b50600436106100365760003560e01c806340a343561461003b5780635f8be9fc14610045575b600080fd5b61004361004f565b005b61004d6100b3565b005b6100636782e7862b1bab7f4b60c01b61012c565b61007767b50a43bf7dab37b960c01b61012c565b61008b67d64275c5065f8e8d60c01b61012c565b60007f2e2e2e2e2e000000000000000000000000000000000000000000000000000000905050565b6100c767430eab3ccc58408f60c01b61012c565b6100db67d45a0b681278ad8560c01b61012c565b6100ef67a0076313a5b601f460c01b61012c565b60006040518060400160405280600581526020017f2e2e2e2e2e000000000000000000000000000000000000000000000000000000815250905050565b5056fea164736f6c634300081b000a","opcodes":"PUSH1 0x80 PUSH1 0x40 MSTORE CALLVALUE DUP1 ISZERO PUSH1 0xF JUMPI PUSH1 0x0 DUP1 REVERT JUMPDEST POP PUSH2 0x13C DUP1 PUSH2 0x1F PUSH1 0x0 CODECOPY PUSH1 0x0 RETURN INVALID PUSH1 0x80 PUSH1 0x40 MSTORE CALLVALUE DUP1 ISZERO PUSH2 0x10 JUMPI PUSH1 0x0 DUP1 REVERT JUMPDEST POP PUSH1 0x4 CALLDATASIZE LT PUSH2 0x36 JUMPI PUSH1 0x0 CALLDATALOAD PUSH1 0xE0 SHR DUP1 PUSH4 0x40A34356 EQ PUSH2 0x3B JUMPI DUP1 PUSH4 0x5F8BE9FC EQ PUSH2 0x45 JUMPI JUMPDEST PUSH1 0x0 DUP1 REVERT JUMPDEST PUSH2 0x43 PUSH2 0x4F JUMP JUMPDEST STOP JUMPDEST PUSH2 0x4D PUSH2 0xB3 JUMP JUMPDEST STOP JUMPDEST PUSH2 0x63 PUSH8 0x82E7862B1BAB7F4B PUSH1 0xC0 SHL PUSH2 0x12C JUMP JUMPDEST PUSH2 0x77 PUSH8 0xB50A43BF7DAB37B9 PUSH1 0xC0 SHL PUSH2 0x12C JUMP JUMPDEST PUSH2 0x8B PUSH8 0xD64275C5065F8E8D PUSH1 0xC0 SHL PUSH2 0x12C JUMP JUMPDEST PUSH1 0x0 PUSH32 0x2E2E2E2E2E000000000000000000000000000000000000000000000000000000 SWAP1 POP POP JUMP JUMPDEST PUSH2 0xC7 PUSH8 0x430EAB3CCC58408F PUSH1 0xC0 SHL PUSH2 0x12C JUMP JUMPDEST PUSH2 0xDB PUSH8 0xD45A0B681278AD85 PUSH1 0xC0 SHL PUSH2 0x12C JUMP JUMPDEST PUSH2 0xEF PUSH8 0xA0076313A5B601F4 PUSH1 0xC0 SHL PUSH2 0x12C JUMP JUMPDEST PUSH1 0x0 PUSH1 0x40 MLOAD DUP1 PUSH1 0x40 ADD PUSH1 0x40 MSTORE DUP1 PUSH1 0x5 DUP2 MSTORE PUSH1 0x20 ADD PUSH32 0x2E2E2E2E2E000000000000000000000000000000000000000000000000000000 DUP2 MSTORE POP SWAP1 POP POP JUMP JUMPDEST POP JUMP INVALID LOG1 PUSH5 0x736F6C6343 STOP ADDMOD SHL STOP EXP "},"methodIdentifiers":{"setBytes32Text()":"40a34356","setStringText()":"5f8be9fc"}},"storageLayout":{"storage":[],"types":null}}}}