{"contracts/Initiazlie&Reinitialize.sol":{"GasCostExample":{"abi":[{"inputs":[],"stateMutability":"nonpayable","type":"constructor"},{"inputs":[],"name":"initializeWithNonZero","outputs":[],"stateMutability":"nonpayable","type":"function"},{"inputs":[],"name":"initializeWithZero","outputs":[],"stateMutability":"nonpayable","type":"function"},{"inputs":[],"name":"initializedVar","outputs":[{"internalType":"uint256","name":"","type":"uint256"}],"stateMutability":"view","type":"function"},{"inputs":[],"name":"nonZeroInitializedVar","outputs":[{"internalType":"uint256","name":"","type":"uint256"}],"stateMutability":"view","type":"function"},{"inputs":[],"name":"nonZeroToNonZeroVar","outputs":[{"internalType":"uint256","name":"","type":"uint256"}],"stateMutability":"view","type":"function"},{"inputs":[],"name":"nonZeroToZeroVar","outputs":[{"internalType":"uint256","name":"","type":"uint256"}],"stateMutability":"view","type":"function"},{"inputs":[{"internalType":"uint256","name":"_value","type":"uint256"}],"name":"reInitializeFromNonZeroToNonZero","outputs":[],"stateMutability":"nonpayable","type":"function"},{"inputs":[],"name":"reInitializeFromNonZeroToZero","outputs":[],"stateMutability":"nonpayable","type":"function"},{"inputs":[{"internalType":"uint256","name":"_value","type":"uint256"}],"name":"reInitializeFromZeroToNonZero","outputs":[],"stateMutability":"nonpayable","type":"function"},{"inputs":[],"name":"reInitializeFromZeroToZero","outputs":[],"stateMutability":"nonpayable","type":"function"},{"inputs":[{"internalType":"uint256","name":"_value","type":"uint256"}],"name":"setInitializedVar","outputs":[],"stateMutability":"nonpayable","type":"function"},{"inputs":[],"name":"uninitializedVar","outputs":[{"internalType":"uint256","name":"","type":"uint256"}],"stateMutability":"view","type":"function"},{"inputs":[],"name":"zeroInitializedVar","outputs":[{"internalType":"uint256","name":"","type":"uint256"}],"stateMutability":"view","type":"function"},{"inputs":[],"name":"zeroToNonZeroVar","outputs":[{"internalType":"uint256","name":"","type":"uint256"}],"stateMutability":"view","type":"function"},{"inputs":[],"name":"zeroToZeroVar","outputs":[{"internalType":"uint256","name":"","type":"uint256"}],"stateMutability":"view","type":"function"}],"evm":{"bytecode":{"linkReferences":{},"object":"6080604052348015600f57600080fd5b50602867e33e556f4b1d3a3c60c01b602c60201b60201c565b602f565b50565b6105068061003e6000396000f3fe608060405234801561001057600080fd5b50600436106100f55760003560e01c80639b8119d111610097578063d425487011610066578063d4254870146101f0578063d97993c31461020c578063e7f30e961461022a578063fcb1040914610248576100f5565b80639b8119d1146101a0578063b686a465146101be578063b9672e29146101c8578063bc22d053146101d2576100f5565b806342c201f7116100d357806342c201f71461012c5780635d80cd3514610148578063748b59a91461016657806389a68d1114610182576100f5565b806317de1657146100fa5780632c3023a5146101185780632d59ad4214610122575b600080fd5b610102610266565b60405161010f9190610480565b60405180910390f35b61012061026c565b005b61012a6102ba565b005b610146600480360381019061014191906104cc565b6102ec565b005b61015061031e565b60405161015d9190610480565b60405180910390f35b610180600480360381019061017b91906104cc565b610324565b005b61018a610372565b6040516101979190610480565b60405180910390f35b6101a8610378565b6040516101b59190610480565b60405180910390f35b6101c661037e565b005b6101d06103b0565b005b6101da6103fe565b6040516101e79190610480565b60405180910390f35b61020a600480360381019061020591906104cc565b610404565b005b610214610452565b6040516102219190610480565b60405180910390f35b610232610458565b60405161023f9190610480565b60405180910390f35b61025061045e565b60405161025d9190610480565b60405180910390f35b60015481565b610280673ece5d2bca4e777a60c01b610464565b61029467ef4ce2e21a78d81060c01b610464565b602d6004819055506102b067ff445613c9fb7c8860c01b610464565b6000600481905550565b6102ce67f478609958f3f8b660c01b610464565b6102e267cb3e32d75b8fe42360c01b610464565b6000600281905550565b61030067ebcf5225b0d0d13460c01b610464565b61031467415245757e969f0760c01b610464565b8060018190555050565b60025481565b610338670628e4eeaf6f6bd960c01b610464565b61034c674adaa52d441289f260c01b610464565b60006006819055506103686768d3d5201d10901460c01b610464565b8060068190555050565b60045481565b60005481565b610392679b77f8c1995f3f9260c01b610464565b6103a667f134fa20f2b71dbb60c01b610464565b602a600381905550565b6103c467a1bdac3246e56cfb60c01b610464565b6103d867efd9463828846ae660c01b610464565b60006007819055506103f467afc28c88b25ae6a660c01b610464565b6000600781905550565b60035481565b610418674ddfd0229efa497160c01b610464565b61042c67b1d962782aff6b6560c01b610464565b8060058190555061044767dec052f0bce4f3cd60c01b610464565b602d60058190555050565b60065481565b60075481565b60055481565b50565b6000819050919050565b61047a81610467565b82525050565b60006020820190506104956000830184610471565b92915050565b600080fd5b6104a981610467565b81146104b457600080fd5b50565b6000813590506104c6816104a0565b92915050565b6000602082840312156104e2576104e161049b565b5b60006104f0848285016104b7565b9150509291505056fea164736f6c634300081b000a","opcodes":"PUSH1 0x80 PUSH1 0x40 MSTORE CALLVALUE DUP1 ISZERO PUSH1 0xF JUMPI PUSH1 0x0 DUP1 REVERT JUMPDEST POP PUSH1 0x28 PUSH8 0xE33E556F4B1D3A3C PUSH1 0xC0 SHL PUSH1 0x2C PUSH1 0x20 SHL PUSH1 0x20 SHR JUMP JUMPDEST PUSH1 0x2F JUMP JUMPDEST POP JUMP JUMPDEST PUSH2 0x506 DUP1 PUSH2 0x3E PUSH1 0x0 CODECOPY PUSH1 0x0 RETURN INVALID PUSH1 0x80 PUSH1 0x40 MSTORE CALLVALUE DUP1 ISZERO PUSH2 0x10 JUMPI PUSH1 0x0 DUP1 REVERT JUMPDEST POP PUSH1 0x4 CALLDATASIZE LT PUSH2 0xF5 JUMPI PUSH1 0x0 CALLDATALOAD PUSH1 0xE0 SHR DUP1 PUSH4 0x9B8119D1 GT PUSH2 0x97 JUMPI DUP1 PUSH4 0xD4254870 GT PUSH2 0x66 JUMPI DUP1 PUSH4 0xD4254870 EQ PUSH2 0x1F0 JUMPI DUP1 PUSH4 0xD97993C3 EQ PUSH2 0x20C JUMPI DUP1 PUSH4 0xE7F30E96 EQ PUSH2 0x22A JUMPI DUP1 PUSH4 0xFCB10409 EQ PUSH2 0x248 JUMPI PUSH2 0xF5 JUMP JUMPDEST DUP1 PUSH4 0x9B8119D1 EQ PUSH2 0x1A0 JUMPI DUP1 PUSH4 0xB686A465 EQ PUSH2 0x1BE JUMPI DUP1 PUSH4 0xB9672E29 EQ PUSH2 0x1C8 JUMPI DUP1 PUSH4 0xBC22D053 EQ PUSH2 0x1D2 JUMPI PUSH2 0xF5 JUMP JUMPDEST DUP1 PUSH4 0x42C201F7 GT PUSH2 0xD3 JUMPI DUP1 PUSH4 0x42C201F7 EQ PUSH2 0x12C JUMPI DUP1 PUSH4 0x5D80CD35 EQ PUSH2 0x148 JUMPI DUP1 PUSH4 0x748B59A9 EQ PUSH2 0x166 JUMPI DUP1 PUSH4 0x89A68D11 EQ PUSH2 0x182 JUMPI PUSH2 0xF5 JUMP JUMPDEST DUP1 PUSH4 0x17DE1657 EQ PUSH2 0xFA JUMPI DUP1 PUSH4 0x2C3023A5 EQ PUSH2 0x118 JUMPI DUP1 PUSH4 0x2D59AD42 EQ PUSH2 0x122 JUMPI JUMPDEST PUSH1 0x0 DUP1 REVERT JUMPDEST PUSH2 0x102 PUSH2 0x266 JUMP JUMPDEST PUSH1 0x40 MLOAD PUSH2 0x10F SWAP2 SWAP1 PUSH2 0x480 JUMP JUMPDEST PUSH1 0x40 MLOAD DUP1 SWAP2 SUB SWAP1 RETURN JUMPDEST PUSH2 0x120 PUSH2 0x26C JUMP JUMPDEST STOP JUMPDEST PUSH2 0x12A PUSH2 0x2BA JUMP JUMPDEST STOP JUMPDEST PUSH2 0x146 PUSH1 0x4 DUP1 CALLDATASIZE SUB DUP2 ADD SWAP1 PUSH2 0x141 SWAP2 SWAP1 PUSH2 0x4CC JUMP JUMPDEST PUSH2 0x2EC JUMP JUMPDEST STOP JUMPDEST PUSH2 0x150 PUSH2 0x31E JUMP JUMPDEST PUSH1 0x40 MLOAD PUSH2 0x15D SWAP2 SWAP1 PUSH2 0x480 JUMP JUMPDEST PUSH1 0x40 MLOAD DUP1 SWAP2 SUB SWAP1 RETURN JUMPDEST PUSH2 0x180 PUSH1 0x4 DUP1 CALLDATASIZE SUB DUP2 ADD SWAP1 PUSH2 0x17B SWAP2 SWAP1 PUSH2 0x4CC JUMP JUMPDEST PUSH2 0x324 JUMP JUMPDEST STOP JUMPDEST PUSH2 0x18A PUSH2 0x372 JUMP JUMPDEST PUSH1 0x40 MLOAD PUSH2 0x197 SWAP2 SWAP1 PUSH2 0x480 JUMP JUMPDEST PUSH1 0x40 MLOAD DUP1 SWAP2 SUB SWAP1 RETURN JUMPDEST PUSH2 0x1A8 PUSH2 0x378 JUMP JUMPDEST PUSH1 0x40 MLOAD PUSH2 0x1B5 SWAP2 SWAP1 PUSH2 0x480 JUMP JUMPDEST PUSH1 0x40 MLOAD DUP1 SWAP2 SUB SWAP1 RETURN JUMPDEST PUSH2 0x1C6 PUSH2 0x37E JUMP JUMPDEST STOP JUMPDEST PUSH2 0x1D0 PUSH2 0x3B0 JUMP JUMPDEST STOP JUMPDEST PUSH2 0x1DA PUSH2 0x3FE JUMP JUMPDEST PUSH1 0x40 MLOAD PUSH2 0x1E7 SWAP2 SWAP1 PUSH2 0x480 JUMP JUMPDEST PUSH1 0x40 MLOAD DUP1 SWAP2 SUB SWAP1 RETURN JUMPDEST PUSH2 0x20A PUSH1 0x4 DUP1 CALLDATASIZE SUB DUP2 ADD SWAP1 PUSH2 0x205 SWAP2 SWAP1 PUSH2 0x4CC JUMP JUMPDEST PUSH2 0x404 JUMP JUMPDEST STOP JUMPDEST PUSH2 0x214 PUSH2 0x452 JUMP JUMPDEST PUSH1 0x40 MLOAD PUSH2 0x221 SWAP2 SWAP1 PUSH2 0x480 JUMP JUMPDEST PUSH1 0x40 MLOAD DUP1 SWAP2 SUB SWAP1 RETURN JUMPDEST PUSH2 0x232 PUSH2 0x458 JUMP JUMPDEST PUSH1 0x40 MLOAD PUSH2 0x23F SWAP2 SWAP1 PUSH2 0x480 JUMP JUMPDEST PUSH1 0x40 MLOAD DUP1 SWAP2 SUB SWAP1 RETURN JUMPDEST PUSH2 0x250 PUSH2 0x45E JUMP JUMPDEST PUSH1 0x40 MLOAD PUSH2 0x25D SWAP2 SWAP1 PUSH2 0x480 JUMP JUMPDEST PUSH1 0x40 MLOAD DUP1 SWAP2 SUB SWAP1 RETURN JUMPDEST PUSH1 0x1 SLOAD DUP2 JUMP JUMPDEST PUSH2 0x280 PUSH8 0x3ECE5D2BCA4E777A PUSH1 0xC0 SHL PUSH2 0x464 JUMP JUMPDEST PUSH2 0x294 PUSH8 0xEF4CE2E21A78D810 PUSH1 0xC0 SHL PUSH2 0x464 JUMP JUMPDEST PUSH1 0x2D PUSH1 0x4 DUP2 SWAP1 SSTORE POP PUSH2 0x2B0 PUSH8 0xFF445613C9FB7C88 PUSH1 0xC0 SHL PUSH2 0x464 JUMP JUMPDEST PUSH1 0x0 PUSH1 0x4 DUP2 SWAP1 SSTORE POP JUMP JUMPDEST PUSH2 0x2CE PUSH8 0xF478609958F3F8B6 PUSH1 0xC0 SHL PUSH2 0x464 JUMP JUMPDEST PUSH2 0x2E2 PUSH8 0xCB3E32D75B8FE423 PUSH1 0xC0 SHL PUSH2 0x464 JUMP JUMPDEST PUSH1 0x0 PUSH1 0x2 DUP2 SWAP1 SSTORE POP JUMP JUMPDEST PUSH2 0x300 PUSH8 0xEBCF5225B0D0D134 PUSH1 0xC0 SHL PUSH2 0x464 JUMP JUMPDEST PUSH2 0x314 PUSH8 0x415245757E969F07 PUSH1 0xC0 SHL PUSH2 0x464 JUMP JUMPDEST DUP1 PUSH1 0x1 DUP2 SWAP1 SSTORE POP POP JUMP JUMPDEST PUSH1 0x2 SLOAD DUP2 JUMP JUMPDEST PUSH2 0x338 PUSH8 0x628E4EEAF6F6BD9 PUSH1 0xC0 SHL PUSH2 0x464 JUMP JUMPDEST PUSH2 0x34C PUSH8 0x4ADAA52D441289F2 PUSH1 0xC0 SHL PUSH2 0x464 JUMP JUMPDEST PUSH1 0x0 PUSH1 0x6 DUP2 SWAP1 SSTORE POP PUSH2 0x368 PUSH8 0x68D3D5201D109014 PUSH1 0xC0 SHL PUSH2 0x464 JUMP JUMPDEST DUP1 PUSH1 0x6 DUP2 SWAP1 SSTORE POP POP JUMP JUMPDEST PUSH1 0x4 SLOAD DUP2 JUMP JUMPDEST PUSH1 0x0 SLOAD DUP2 JUMP JUMPDEST PUSH2 0x392 PUSH8 0x9B77F8C1995F3F92 PUSH1 0xC0 SHL PUSH2 0x464 JUMP JUMPDEST PUSH2 0x3A6 PUSH8 0xF134FA20F2B71DBB PUSH1 0xC0 SHL PUSH2 0x464 JUMP JUMPDEST PUSH1 0x2A PUSH1 0x3 DUP2 SWAP1 SSTORE POP JUMP JUMPDEST PUSH2 0x3C4 PUSH8 0xA1BDAC3246E56CFB PUSH1 0xC0 SHL PUSH2 0x464 JUMP JUMPDEST PUSH2 0x3D8 PUSH8 0xEFD9463828846AE6 PUSH1 0xC0 SHL PUSH2 0x464 JUMP JUMPDEST PUSH1 0x0 PUSH1 0x7 DUP2 SWAP1 SSTORE POP PUSH2 0x3F4 PUSH8 0xAFC28C88B25AE6A6 PUSH1 0xC0 SHL PUSH2 0x464 JUMP JUMPDEST PUSH1 0x0 PUSH1 0x7 DUP2 SWAP1 SSTORE POP JUMP JUMPDEST PUSH1 0x3 SLOAD DUP2 JUMP JUMPDEST PUSH2 0x418 PUSH8 0x4DDFD0229EFA4971 PUSH1 0xC0 SHL PUSH2 0x464 JUMP JUMPDEST PUSH2 0x42C PUSH8 0xB1D962782AFF6B65 PUSH1 0xC0 SHL PUSH2 0x464 JUMP JUMPDEST DUP1 PUSH1 0x5 DUP2 SWAP1 SSTORE POP PUSH2 0x447 PUSH8 0xDEC052F0BCE4F3CD PUSH1 0xC0 SHL PUSH2 0x464 JUMP JUMPDEST PUSH1 0x2D PUSH1 0x5 DUP2 SWAP1 SSTORE POP POP JUMP JUMPDEST PUSH1 0x6 SLOAD DUP2 JUMP JUMPDEST PUSH1 0x7 SLOAD DUP2 JUMP JUMPDEST PUSH1 0x5 SLOAD DUP2 JUMP JUMPDEST POP JUMP JUMPDEST PUSH1 0x0 DUP2 SWAP1 POP SWAP2 SWAP1 POP JUMP JUMPDEST PUSH2 0x47A DUP2 PUSH2 0x467 JUMP JUMPDEST DUP3 MSTORE POP POP JUMP JUMPDEST PUSH1 0x0 PUSH1 0x20 DUP3 ADD SWAP1 POP PUSH2 0x495 PUSH1 0x0 DUP4 ADD DUP5 PUSH2 0x471 JUMP JUMPDEST SWAP3 SWAP2 POP POP JUMP JUMPDEST PUSH1 0x0 DUP1 REVERT JUMPDEST PUSH2 0x4A9 DUP2 PUSH2 0x467 JUMP JUMPDEST DUP2 EQ PUSH2 0x4B4 JUMPI PUSH1 0x0 DUP1 REVERT JUMPDEST POP JUMP JUMPDEST PUSH1 0x0 DUP2 CALLDATALOAD SWAP1 POP PUSH2 0x4C6 DUP2 PUSH2 0x4A0 JUMP JUMPDEST SWAP3 SWAP2 POP POP JUMP JUMPDEST PUSH1 0x0 PUSH1 0x20 DUP3 DUP5 SUB SLT ISZERO PUSH2 0x4E2 JUMPI PUSH2 0x4E1 PUSH2 0x49B JUMP JUMPDEST JUMPDEST PUSH1 0x0 PUSH2 0x4F0 DUP5 DUP3 DUP6 ADD PUSH2 0x4B7 JUMP JUMPDEST SWAP2 POP POP SWAP3 SWAP2 POP POP JUMP INVALID LOG1 PUSH5 0x736F6C6343 STOP ADDMOD SHL STOP EXP "},"methodIdentifiers":{"initializeWithNonZero()":"b686a465","initializeWithZero()":"2d59ad42","initializedVar()":"17de1657","nonZeroInitializedVar()":"bc22d053","nonZeroToNonZeroVar()":"fcb10409","nonZeroToZeroVar()":"89a68d11","reInitializeFromNonZeroToNonZero(uint256)":"d4254870","reInitializeFromNonZeroToZero()":"2c3023a5","reInitializeFromZeroToNonZero(uint256)":"748b59a9","reInitializeFromZeroToZero()":"b9672e29","setInitializedVar(uint256)":"42c201f7","uninitializedVar()":"9b8119d1","zeroInitializedVar()":"5d80cd35","zeroToNonZeroVar()":"d97993c3","zeroToZeroVar()":"e7f30e96"}},"storageLayout":{"storage":[{"astId":4297,"contract":"contracts/Initiazlie&Reinitialize.sol:GasCostExample","label":"uninitializedVar","offset":0,"slot":"0","type":"t_uint256"},{"astId":4299,"contract":"contracts/Initiazlie&Reinitialize.sol:GasCostExample","label":"initializedVar","offset":0,"slot":"1","type":"t_uint256"},{"astId":4301,"contract":"contracts/Initiazlie&Reinitialize.sol:GasCostExample","label":"zeroInitializedVar","offset":0,"slot":"2","type":"t_uint256"},{"astId":4303,"contract":"contracts/Initiazlie&Reinitialize.sol:GasCostExample","label":"nonZeroInitializedVar","offset":0,"slot":"3","type":"t_uint256"},{"astId":4305,"contract":"contracts/Initiazlie&Reinitialize.sol:GasCostExample","label":"nonZeroToZeroVar","offset":0,"slot":"4","type":"t_uint256"},{"astId":4307,"contract":"contracts/Initiazlie&Reinitialize.sol:GasCostExample","label":"nonZeroToNonZeroVar","offset":0,"slot":"5","type":"t_uint256"},{"astId":4309,"contract":"contracts/Initiazlie&Reinitialize.sol:GasCostExample","label":"zeroToNonZeroVar","offset":0,"slot":"6","type":"t_uint256"},{"astId":4311,"contract":"contracts/Initiazlie&Reinitialize.sol:GasCostExample","label":"zeroToZeroVar","offset":0,"slot":"7","type":"t_uint256"}],"types":{"t_uint256":{"encoding":"inplace","label":"uint256","numberOfBytes":"32"}}}}}}