{"contracts/loopingExample.sol":{"LoopCheck1Contract":{"abi":[{"inputs":[],"name":"loopCheck1","outputs":[],"stateMutability":"nonpayable","type":"function"}],"evm":{"bytecode":{"linkReferences":{},"object":"6080604052348015600f57600080fd5b506102598061001f6000396000f3fe608060405234801561001057600080fd5b506004361061002b5760003560e01c8063b680a87014610030575b600080fd5b61003861003a565b005b61004e67f58d3b69582d205e60c01b6101eb565b610062672e1441700243042160c01b6101eb565b61007667eb6584b02ec6fab660c01b6101eb565b6000600367ffffffffffffffff811115610093576100926101ee565b5b6040519080825280602002602001820160405280156100c15781602001602082028036833780820191505090505b5090506100d8674ea4a8283c8f687260c01b6101eb565b6001816000815181106100ee576100ed61021d565b5b60200260200101818152505061010e67052b3887d8961b0c60c01b6101eb565b6002816001815181106101245761012361021d565b5b60200260200101818152505061014467d25477314260660160c01b6101eb565b60038160028151811061015a5761015961021d565b5b60200260200101818152505061017a676aa61f2de8b4849460c01b6101eb565b61018e67488caf8ba83e383660c01b6101eb565b6000815190506101a867c84d522d3bcfc32960c01b6101eb565b6101bc677d5f2fea5700b19260c01b6101eb565b60005b818110156101e6576101db672a0ee69f87ad114560c01b6101eb565b8060010190506101bf565b505050565b50565b7f4e487b7100000000000000000000000000000000000000000000000000000000600052604160045260246000fd5b7f4e487b7100000000000000000000000000000000000000000000000000000000600052603260045260246000fdfea164736f6c634300081b000a","opcodes":"PUSH1 0x80 PUSH1 0x40 MSTORE CALLVALUE DUP1 ISZERO PUSH1 0xF JUMPI PUSH1 0x0 DUP1 REVERT JUMPDEST POP PUSH2 0x259 DUP1 PUSH2 0x1F PUSH1 0x0 CODECOPY PUSH1 0x0 RETURN INVALID PUSH1 0x80 PUSH1 0x40 MSTORE CALLVALUE DUP1 ISZERO PUSH2 0x10 JUMPI PUSH1 0x0 DUP1 REVERT JUMPDEST POP PUSH1 0x4 CALLDATASIZE LT PUSH2 0x2B JUMPI PUSH1 0x0 CALLDATALOAD PUSH1 0xE0 SHR DUP1 PUSH4 0xB680A870 EQ PUSH2 0x30 JUMPI JUMPDEST PUSH1 0x0 DUP1 REVERT JUMPDEST PUSH2 0x38 PUSH2 0x3A JUMP JUMPDEST STOP JUMPDEST PUSH2 0x4E PUSH8 0xF58D3B69582D205E PUSH1 0xC0 SHL PUSH2 0x1EB JUMP JUMPDEST PUSH2 0x62 PUSH8 0x2E14417002430421 PUSH1 0xC0 SHL PUSH2 0x1EB JUMP JUMPDEST PUSH2 0x76 PUSH8 0xEB6584B02EC6FAB6 PUSH1 0xC0 SHL PUSH2 0x1EB JUMP JUMPDEST PUSH1 0x0 PUSH1 0x3 PUSH8 0xFFFFFFFFFFFFFFFF DUP2 GT ISZERO PUSH2 0x93 JUMPI PUSH2 0x92 PUSH2 0x1EE JUMP JUMPDEST JUMPDEST PUSH1 0x40 MLOAD SWAP1 DUP1 DUP3 MSTORE DUP1 PUSH1 0x20 MUL PUSH1 0x20 ADD DUP3 ADD PUSH1 0x40 MSTORE DUP1 ISZERO PUSH2 0xC1 JUMPI DUP2 PUSH1 0x20 ADD PUSH1 0x20 DUP3 MUL DUP1 CALLDATASIZE DUP4 CALLDATACOPY DUP1 DUP3 ADD SWAP2 POP POP SWAP1 POP JUMPDEST POP SWAP1 POP PUSH2 0xD8 PUSH8 0x4EA4A8283C8F6872 PUSH1 0xC0 SHL PUSH2 0x1EB JUMP JUMPDEST PUSH1 0x1 DUP2 PUSH1 0x0 DUP2 MLOAD DUP2 LT PUSH2 0xEE JUMPI PUSH2 0xED PUSH2 0x21D JUMP JUMPDEST JUMPDEST PUSH1 0x20 MUL PUSH1 0x20 ADD ADD DUP2 DUP2 MSTORE POP POP PUSH2 0x10E PUSH8 0x52B3887D8961B0C PUSH1 0xC0 SHL PUSH2 0x1EB JUMP JUMPDEST PUSH1 0x2 DUP2 PUSH1 0x1 DUP2 MLOAD DUP2 LT PUSH2 0x124 JUMPI PUSH2 0x123 PUSH2 0x21D JUMP JUMPDEST JUMPDEST PUSH1 0x20 MUL PUSH1 0x20 ADD ADD DUP2 DUP2 MSTORE POP POP PUSH2 0x144 PUSH8 0xD254773142606601 PUSH1 0xC0 SHL PUSH2 0x1EB JUMP JUMPDEST PUSH1 0x3 DUP2 PUSH1 0x2 DUP2 MLOAD DUP2 LT PUSH2 0x15A JUMPI PUSH2 0x159 PUSH2 0x21D JUMP JUMPDEST JUMPDEST PUSH1 0x20 MUL PUSH1 0x20 ADD ADD DUP2 DUP2 MSTORE POP POP PUSH2 0x17A PUSH8 0x6AA61F2DE8B48494 PUSH1 0xC0 SHL PUSH2 0x1EB JUMP JUMPDEST PUSH2 0x18E PUSH8 0x488CAF8BA83E3836 PUSH1 0xC0 SHL PUSH2 0x1EB JUMP JUMPDEST PUSH1 0x0 DUP2 MLOAD SWAP1 POP PUSH2 0x1A8 PUSH8 0xC84D522D3BCFC329 PUSH1 0xC0 SHL PUSH2 0x1EB JUMP JUMPDEST PUSH2 0x1BC PUSH8 0x7D5F2FEA5700B192 PUSH1 0xC0 SHL PUSH2 0x1EB JUMP JUMPDEST PUSH1 0x0 JUMPDEST DUP2 DUP2 LT ISZERO PUSH2 0x1E6 JUMPI PUSH2 0x1DB PUSH8 0x2A0EE69F87AD1145 PUSH1 0xC0 SHL PUSH2 0x1EB JUMP JUMPDEST DUP1 PUSH1 0x1 ADD SWAP1 POP PUSH2 0x1BF JUMP JUMPDEST POP POP POP JUMP JUMPDEST POP JUMP JUMPDEST PUSH32 0x4E487B7100000000000000000000000000000000000000000000000000000000 PUSH1 0x0 MSTORE PUSH1 0x41 PUSH1 0x4 MSTORE PUSH1 0x24 PUSH1 0x0 REVERT JUMPDEST PUSH32 0x4E487B7100000000000000000000000000000000000000000000000000000000 PUSH1 0x0 MSTORE PUSH1 0x32 PUSH1 0x4 MSTORE PUSH1 0x24 PUSH1 0x0 REVERT INVALID LOG1 PUSH5 0x736F6C6343 STOP ADDMOD SHL STOP EXP "},"methodIdentifiers":{"loopCheck1()":"b680a870"}}}}}