{"contracts/loopingExample.sol":{"LoopCheck2Contract":{"abi":[{"inputs":[],"name":"loopCheck2","outputs":[],"stateMutability":"nonpayable","type":"function"}],"evm":{"bytecode":{"linkReferences":{},"object":"6080604052348015600f57600080fd5b506102818061001f6000396000f3fe608060405234801561001057600080fd5b506004361061002b5760003560e01c8063340dd78414610030575b600080fd5b61003861003a565b005b61004e674299a31fdfbabc2c60c01b610213565b61006267cca60e77031b723860c01b610213565b61007667a1bdfdf3914c61d760c01b610213565b6000600367ffffffffffffffff81111561009357610092610216565b5b6040519080825280602002602001820160405280156100c15781602001602082028036833780820191505090505b5090506100d86780b1e4440225dab360c01b610213565b6001816000815181106100ee576100ed610245565b5b60200260200101818152505061010e675f7e78e89473e08b60c01b610213565b60028160018151811061012457610123610245565b5b602002602001018181525050610144672ab53cc7288471dc60c01b610213565b60038160028151811061015a57610159610245565b5b60200260200101818152505061017a67e364931a9acfde6860c01b610213565b61018e670e23d3a2dedae9aa60c01b610213565b60006101a4675b56810362556a8160c01b610213565b6101b8674c89a59b2f161de560c01b610213565b6000825190506101d267d615c59f080aa08660c01b610213565b6101e6678c66e71806f5370560c01b610213565b5b8082101561020e576102036742559c777df48a6860c01b610213565b8160010191506101e7565b505050565b50565b7f4e487b7100000000000000000000000000000000000000000000000000000000600052604160045260246000fd5b7f4e487b7100000000000000000000000000000000000000000000000000000000600052603260045260246000fdfea164736f6c634300081b000a","opcodes":"PUSH1 0x80 PUSH1 0x40 MSTORE CALLVALUE DUP1 ISZERO PUSH1 0xF JUMPI PUSH1 0x0 DUP1 REVERT JUMPDEST POP PUSH2 0x281 DUP1 PUSH2 0x1F PUSH1 0x0 CODECOPY PUSH1 0x0 RETURN INVALID PUSH1 0x80 PUSH1 0x40 MSTORE CALLVALUE DUP1 ISZERO PUSH2 0x10 JUMPI PUSH1 0x0 DUP1 REVERT JUMPDEST POP PUSH1 0x4 CALLDATASIZE LT PUSH2 0x2B JUMPI PUSH1 0x0 CALLDATALOAD PUSH1 0xE0 SHR DUP1 PUSH4 0x340DD784 EQ PUSH2 0x30 JUMPI JUMPDEST PUSH1 0x0 DUP1 REVERT JUMPDEST PUSH2 0x38 PUSH2 0x3A JUMP JUMPDEST STOP JUMPDEST PUSH2 0x4E PUSH8 0x4299A31FDFBABC2C PUSH1 0xC0 SHL PUSH2 0x213 JUMP JUMPDEST PUSH2 0x62 PUSH8 0xCCA60E77031B7238 PUSH1 0xC0 SHL PUSH2 0x213 JUMP JUMPDEST PUSH2 0x76 PUSH8 0xA1BDFDF3914C61D7 PUSH1 0xC0 SHL PUSH2 0x213 JUMP JUMPDEST PUSH1 0x0 PUSH1 0x3 PUSH8 0xFFFFFFFFFFFFFFFF DUP2 GT ISZERO PUSH2 0x93 JUMPI PUSH2 0x92 PUSH2 0x216 JUMP JUMPDEST JUMPDEST PUSH1 0x40 MLOAD SWAP1 DUP1 DUP3 MSTORE DUP1 PUSH1 0x20 MUL PUSH1 0x20 ADD DUP3 ADD PUSH1 0x40 MSTORE DUP1 ISZERO PUSH2 0xC1 JUMPI DUP2 PUSH1 0x20 ADD PUSH1 0x20 DUP3 MUL DUP1 CALLDATASIZE DUP4 CALLDATACOPY DUP1 DUP3 ADD SWAP2 POP POP SWAP1 POP JUMPDEST POP SWAP1 POP PUSH2 0xD8 PUSH8 0x80B1E4440225DAB3 PUSH1 0xC0 SHL PUSH2 0x213 JUMP JUMPDEST PUSH1 0x1 DUP2 PUSH1 0x0 DUP2 MLOAD DUP2 LT PUSH2 0xEE JUMPI PUSH2 0xED PUSH2 0x245 JUMP JUMPDEST JUMPDEST PUSH1 0x20 MUL PUSH1 0x20 ADD ADD DUP2 DUP2 MSTORE POP POP PUSH2 0x10E PUSH8 0x5F7E78E89473E08B PUSH1 0xC0 SHL PUSH2 0x213 JUMP JUMPDEST PUSH1 0x2 DUP2 PUSH1 0x1 DUP2 MLOAD DUP2 LT PUSH2 0x124 JUMPI PUSH2 0x123 PUSH2 0x245 JUMP JUMPDEST JUMPDEST PUSH1 0x20 MUL PUSH1 0x20 ADD ADD DUP2 DUP2 MSTORE POP POP PUSH2 0x144 PUSH8 0x2AB53CC7288471DC PUSH1 0xC0 SHL PUSH2 0x213 JUMP JUMPDEST PUSH1 0x3 DUP2 PUSH1 0x2 DUP2 MLOAD DUP2 LT PUSH2 0x15A JUMPI PUSH2 0x159 PUSH2 0x245 JUMP JUMPDEST JUMPDEST PUSH1 0x20 MUL PUSH1 0x20 ADD ADD DUP2 DUP2 MSTORE POP POP PUSH2 0x17A PUSH8 0xE364931A9ACFDE68 PUSH1 0xC0 SHL PUSH2 0x213 JUMP JUMPDEST PUSH2 0x18E PUSH8 0xE23D3A2DEDAE9AA PUSH1 0xC0 SHL PUSH2 0x213 JUMP JUMPDEST PUSH1 0x0 PUSH2 0x1A4 PUSH8 0x5B56810362556A81 PUSH1 0xC0 SHL PUSH2 0x213 JUMP JUMPDEST PUSH2 0x1B8 PUSH8 0x4C89A59B2F161DE5 PUSH1 0xC0 SHL PUSH2 0x213 JUMP JUMPDEST PUSH1 0x0 DUP3 MLOAD SWAP1 POP PUSH2 0x1D2 PUSH8 0xD615C59F080AA086 PUSH1 0xC0 SHL PUSH2 0x213 JUMP JUMPDEST PUSH2 0x1E6 PUSH8 0x8C66E71806F53705 PUSH1 0xC0 SHL PUSH2 0x213 JUMP JUMPDEST JUMPDEST DUP1 DUP3 LT ISZERO PUSH2 0x20E JUMPI PUSH2 0x203 PUSH8 0x42559C777DF48A68 PUSH1 0xC0 SHL PUSH2 0x213 JUMP JUMPDEST DUP2 PUSH1 0x1 ADD SWAP2 POP PUSH2 0x1E7 JUMP JUMPDEST POP POP POP JUMP JUMPDEST POP JUMP JUMPDEST PUSH32 0x4E487B7100000000000000000000000000000000000000000000000000000000 PUSH1 0x0 MSTORE PUSH1 0x41 PUSH1 0x4 MSTORE PUSH1 0x24 PUSH1 0x0 REVERT JUMPDEST PUSH32 0x4E487B7100000000000000000000000000000000000000000000000000000000 PUSH1 0x0 MSTORE PUSH1 0x32 PUSH1 0x4 MSTORE PUSH1 0x24 PUSH1 0x0 REVERT INVALID LOG1 PUSH5 0x736F6C6343 STOP ADDMOD SHL STOP EXP "},"methodIdentifiers":{"loopCheck2()":"340dd784"}}}}}