{"contracts/OperatorExample.sol":{"Operator2":{"abi":[{"inputs":[],"name":"increment","outputs":[],"stateMutability":"nonpayable","type":"function"}],"evm":{"bytecode":{"linkReferences":{},"object":"608060405260008055348015601357600080fd5b5060e4806100226000396000f3fe6080604052348015600f57600080fd5b506004361060285760003560e01c8063d09de08a14602d575b600080fd5b60336035565b005b604767c1589b20f252f63a60c01b606e565b60596743c5f33cdc228e5860c01b606e565b60016000546066919060aa565b600081905550565b50565b6000819050919050565b7f4e487b7100000000000000000000000000000000000000000000000000000000600052601160045260246000fd5b600060b3826071565b915060bc836071565b925082820190508082111560d15760d0607b565b5b9291505056fea164736f6c634300081b000a","opcodes":"PUSH1 0x80 PUSH1 0x40 MSTORE PUSH1 0x0 DUP1 SSTORE CALLVALUE DUP1 ISZERO PUSH1 0x13 JUMPI PUSH1 0x0 DUP1 REVERT JUMPDEST POP PUSH1 0xE4 DUP1 PUSH2 0x22 PUSH1 0x0 CODECOPY PUSH1 0x0 RETURN INVALID PUSH1 0x80 PUSH1 0x40 MSTORE CALLVALUE DUP1 ISZERO PUSH1 0xF JUMPI PUSH1 0x0 DUP1 REVERT JUMPDEST POP PUSH1 0x4 CALLDATASIZE LT PUSH1 0x28 JUMPI PUSH1 0x0 CALLDATALOAD PUSH1 0xE0 SHR DUP1 PUSH4 0xD09DE08A EQ PUSH1 0x2D JUMPI JUMPDEST PUSH1 0x0 DUP1 REVERT JUMPDEST PUSH1 0x33 PUSH1 0x35 JUMP JUMPDEST STOP JUMPDEST PUSH1 0x47 PUSH8 0xC1589B20F252F63A PUSH1 0xC0 SHL PUSH1 0x6E JUMP JUMPDEST PUSH1 0x59 PUSH8 0x43C5F33CDC228E58 PUSH1 0xC0 SHL PUSH1 0x6E JUMP JUMPDEST PUSH1 0x1 PUSH1 0x0 SLOAD PUSH1 0x66 SWAP2 SWAP1 PUSH1 0xAA JUMP JUMPDEST PUSH1 0x0 DUP2 SWAP1 SSTORE POP JUMP JUMPDEST POP JUMP JUMPDEST PUSH1 0x0 DUP2 SWAP1 POP SWAP2 SWAP1 POP JUMP JUMPDEST PUSH32 0x4E487B7100000000000000000000000000000000000000000000000000000000 PUSH1 0x0 MSTORE PUSH1 0x11 PUSH1 0x4 MSTORE PUSH1 0x24 PUSH1 0x0 REVERT JUMPDEST PUSH1 0x0 PUSH1 0xB3 DUP3 PUSH1 0x71 JUMP JUMPDEST SWAP2 POP PUSH1 0xBC DUP4 PUSH1 0x71 JUMP JUMPDEST SWAP3 POP DUP3 DUP3 ADD SWAP1 POP DUP1 DUP3 GT ISZERO PUSH1 0xD1 JUMPI PUSH1 0xD0 PUSH1 0x7B JUMP JUMPDEST JUMPDEST SWAP3 SWAP2 POP POP JUMP INVALID LOG1 PUSH5 0x736F6C6343 STOP ADDMOD SHL STOP EXP "},"methodIdentifiers":{"increment()":"d09de08a"}}}}}