{"contracts/uint8VSuint256.sol":{"GasComparison":{"abi":[{"inputs":[{"internalType":"uint8","name":"iterations","type":"uint8"}],"name":"loopWithUint256","outputs":[],"stateMutability":"nonpayable","type":"function"},{"inputs":[{"internalType":"uint8","name":"iterations","type":"uint8"}],"name":"loopWithUint8","outputs":[],"stateMutability":"nonpayable","type":"function"},{"inputs":[{"internalType":"uint256","name":"_value","type":"uint256"}],"name":"setUint256Value","outputs":[],"stateMutability":"nonpayable","type":"function"},{"inputs":[{"internalType":"uint8","name":"_value","type":"uint8"}],"name":"setUint8Value","outputs":[],"stateMutability":"nonpayable","type":"function"},{"inputs":[],"name":"uint256Value","outputs":[{"internalType":"uint256","name":"","type":"uint256"}],"stateMutability":"view","type":"function"},{"inputs":[],"name":"uint8Value","outputs":[{"internalType":"uint8","name":"","type":"uint8"}],"stateMutability":"view","type":"function"}],"evm":{"bytecode":{"linkReferences":{},"object":"6080604052348015600f57600080fd5b5061049e8061001f6000396000f3fe608060405234801561001057600080fd5b50600436106100625760003560e01c80636498db88146100675780636c4525f7146100855780637e195351146100a157806392f6c449146100bd5780639d7488d3146100d9578063aaef20ea146100f5575b600080fd5b61006f610113565b60405161007c91906102f0565b60405180910390f35b61009f600480360381019061009a9190610349565b610119565b005b6100bb60048036038101906100b69190610349565b61015e565b005b6100d760048036038101906100d291906103a2565b610206565b005b6100f360048036038101906100ee9190610349565b610238565b005b6100fd6102c3565b60405161010a91906103de565b60405180910390f35b60015481565b61012d67f704d81aa39ab89c60c01b6102d4565b6101416799a62c12b6956f3160c01b6102d4565b806000806101000a81548160ff021916908360ff16021790555050565b61017267ed88bc0a174bc63560c01b6102d4565b610186670bfcf22fca2592c160c01b6102d4565b61019a6754d1244026cef54560c01b6102d4565b60005b8160ff168160ff161015610202576101bf679c6fecdac1c4ba7560c01b6102d4565b60016000808282829054906101000a900460ff166101dd9190610428565b92506101000a81548160ff021916908360ff160217905550808060010191505061019d565b5050565b61021a67621a3e561d11a14260c01b6102d4565b61022e6726cf20f2abbe71a760c01b6102d4565b8060018190555050565b61024c6787f9b263029905d060c01b6102d4565b61026067b415119f9b16d62160c01b6102d4565b61027467cfacc99beca3c47f60c01b6102d4565b60005b8160ff168160ff1610156102bf5761029967b31fbef35f3c0cb160c01b6102d4565b60018060008282546102ab919061045d565b925050819055508080600101915050610277565b5050565b60008054906101000a900460ff1681565b50565b6000819050919050565b6102ea816102d7565b82525050565b600060208201905061030560008301846102e1565b92915050565b600080fd5b600060ff82169050919050565b61032681610310565b811461033157600080fd5b50565b6000813590506103438161031d565b92915050565b60006020828403121561035f5761035e61030b565b5b600061036d84828501610334565b91505092915050565b61037f816102d7565b811461038a57600080fd5b50565b60008135905061039c81610376565b92915050565b6000602082840312156103b8576103b761030b565b5b60006103c68482850161038d565b91505092915050565b6103d881610310565b82525050565b60006020820190506103f360008301846103cf565b92915050565b7f4e487b7100000000000000000000000000000000000000000000000000000000600052601160045260246000fd5b600061043382610310565b915061043e83610310565b9250828201905060ff811115610457576104566103f9565b5b92915050565b6000610468826102d7565b9150610473836102d7565b925082820190508082111561048b5761048a6103f9565b5b9291505056fea164736f6c634300081b000a","opcodes":"PUSH1 0x80 PUSH1 0x40 MSTORE CALLVALUE DUP1 ISZERO PUSH1 0xF JUMPI PUSH1 0x0 DUP1 REVERT JUMPDEST POP PUSH2 0x49E DUP1 PUSH2 0x1F PUSH1 0x0 CODECOPY PUSH1 0x0 RETURN INVALID PUSH1 0x80 PUSH1 0x40 MSTORE CALLVALUE DUP1 ISZERO PUSH2 0x10 JUMPI PUSH1 0x0 DUP1 REVERT JUMPDEST POP PUSH1 0x4 CALLDATASIZE LT PUSH2 0x62 JUMPI PUSH1 0x0 CALLDATALOAD PUSH1 0xE0 SHR DUP1 PUSH4 0x6498DB88 EQ PUSH2 0x67 JUMPI DUP1 PUSH4 0x6C4525F7 EQ PUSH2 0x85 JUMPI DUP1 PUSH4 0x7E195351 EQ PUSH2 0xA1 JUMPI DUP1 PUSH4 0x92F6C449 EQ PUSH2 0xBD JUMPI DUP1 PUSH4 0x9D7488D3 EQ PUSH2 0xD9 JUMPI DUP1 PUSH4 0xAAEF20EA EQ PUSH2 0xF5 JUMPI JUMPDEST PUSH1 0x0 DUP1 REVERT JUMPDEST PUSH2 0x6F PUSH2 0x113 JUMP JUMPDEST PUSH1 0x40 MLOAD PUSH2 0x7C SWAP2 SWAP1 PUSH2 0x2F0 JUMP JUMPDEST PUSH1 0x40 MLOAD DUP1 SWAP2 SUB SWAP1 RETURN JUMPDEST PUSH2 0x9F PUSH1 0x4 DUP1 CALLDATASIZE SUB DUP2 ADD SWAP1 PUSH2 0x9A SWAP2 SWAP1 PUSH2 0x349 JUMP JUMPDEST PUSH2 0x119 JUMP JUMPDEST STOP JUMPDEST PUSH2 0xBB PUSH1 0x4 DUP1 CALLDATASIZE SUB DUP2 ADD SWAP1 PUSH2 0xB6 SWAP2 SWAP1 PUSH2 0x349 JUMP JUMPDEST PUSH2 0x15E JUMP JUMPDEST STOP JUMPDEST PUSH2 0xD7 PUSH1 0x4 DUP1 CALLDATASIZE SUB DUP2 ADD SWAP1 PUSH2 0xD2 SWAP2 SWAP1 PUSH2 0x3A2 JUMP JUMPDEST PUSH2 0x206 JUMP JUMPDEST STOP JUMPDEST PUSH2 0xF3 PUSH1 0x4 DUP1 CALLDATASIZE SUB DUP2 ADD SWAP1 PUSH2 0xEE SWAP2 SWAP1 PUSH2 0x349 JUMP JUMPDEST PUSH2 0x238 JUMP JUMPDEST STOP JUMPDEST PUSH2 0xFD PUSH2 0x2C3 JUMP JUMPDEST PUSH1 0x40 MLOAD PUSH2 0x10A SWAP2 SWAP1 PUSH2 0x3DE JUMP JUMPDEST PUSH1 0x40 MLOAD DUP1 SWAP2 SUB SWAP1 RETURN JUMPDEST PUSH1 0x1 SLOAD DUP2 JUMP JUMPDEST PUSH2 0x12D PUSH8 0xF704D81AA39AB89C PUSH1 0xC0 SHL PUSH2 0x2D4 JUMP JUMPDEST PUSH2 0x141 PUSH8 0x99A62C12B6956F31 PUSH1 0xC0 SHL PUSH2 0x2D4 JUMP JUMPDEST DUP1 PUSH1 0x0 DUP1 PUSH2 0x100 EXP DUP2 SLOAD DUP2 PUSH1 0xFF MUL NOT AND SWAP1 DUP4 PUSH1 0xFF AND MUL OR SWAP1 SSTORE POP POP JUMP JUMPDEST PUSH2 0x172 PUSH8 0xED88BC0A174BC635 PUSH1 0xC0 SHL PUSH2 0x2D4 JUMP JUMPDEST PUSH2 0x186 PUSH8 0xBFCF22FCA2592C1 PUSH1 0xC0 SHL PUSH2 0x2D4 JUMP JUMPDEST PUSH2 0x19A PUSH8 0x54D1244026CEF545 PUSH1 0xC0 SHL PUSH2 0x2D4 JUMP JUMPDEST PUSH1 0x0 JUMPDEST DUP2 PUSH1 0xFF AND DUP2 PUSH1 0xFF AND LT ISZERO PUSH2 0x202 JUMPI PUSH2 0x1BF PUSH8 0x9C6FECDAC1C4BA75 PUSH1 0xC0 SHL PUSH2 0x2D4 JUMP JUMPDEST PUSH1 0x1 PUSH1 0x0 DUP1 DUP3 DUP3 DUP3 SWAP1 SLOAD SWAP1 PUSH2 0x100 EXP SWAP1 DIV PUSH1 0xFF AND PUSH2 0x1DD SWAP2 SWAP1 PUSH2 0x428 JUMP JUMPDEST SWAP3 POP PUSH2 0x100 EXP DUP2 SLOAD DUP2 PUSH1 0xFF MUL NOT AND SWAP1 DUP4 PUSH1 0xFF AND MUL OR SWAP1 SSTORE POP DUP1 DUP1 PUSH1 0x1 ADD SWAP2 POP POP PUSH2 0x19D JUMP JUMPDEST POP POP JUMP JUMPDEST PUSH2 0x21A PUSH8 0x621A3E561D11A142 PUSH1 0xC0 SHL PUSH2 0x2D4 JUMP JUMPDEST PUSH2 0x22E PUSH8 0x26CF20F2ABBE71A7 PUSH1 0xC0 SHL PUSH2 0x2D4 JUMP JUMPDEST DUP1 PUSH1 0x1 DUP2 SWAP1 SSTORE POP POP JUMP JUMPDEST PUSH2 0x24C PUSH8 0x87F9B263029905D0 PUSH1 0xC0 SHL PUSH2 0x2D4 JUMP JUMPDEST PUSH2 0x260 PUSH8 0xB415119F9B16D621 PUSH1 0xC0 SHL PUSH2 0x2D4 JUMP JUMPDEST PUSH2 0x274 PUSH8 0xCFACC99BECA3C47F PUSH1 0xC0 SHL PUSH2 0x2D4 JUMP JUMPDEST PUSH1 0x0 JUMPDEST DUP2 PUSH1 0xFF AND DUP2 PUSH1 0xFF AND LT ISZERO PUSH2 0x2BF JUMPI PUSH2 0x299 PUSH8 0xB31FBEF35F3C0CB1 PUSH1 0xC0 SHL PUSH2 0x2D4 JUMP JUMPDEST PUSH1 0x1 DUP1 PUSH1 0x0 DUP3 DUP3 SLOAD PUSH2 0x2AB SWAP2 SWAP1 PUSH2 0x45D JUMP JUMPDEST SWAP3 POP POP DUP2 SWAP1 SSTORE POP DUP1 DUP1 PUSH1 0x1 ADD SWAP2 POP POP PUSH2 0x277 JUMP JUMPDEST POP POP JUMP JUMPDEST PUSH1 0x0 DUP1 SLOAD SWAP1 PUSH2 0x100 EXP SWAP1 DIV PUSH1 0xFF AND DUP2 JUMP JUMPDEST POP JUMP JUMPDEST PUSH1 0x0 DUP2 SWAP1 POP SWAP2 SWAP1 POP JUMP JUMPDEST PUSH2 0x2EA DUP2 PUSH2 0x2D7 JUMP JUMPDEST DUP3 MSTORE POP POP JUMP JUMPDEST PUSH1 0x0 PUSH1 0x20 DUP3 ADD SWAP1 POP PUSH2 0x305 PUSH1 0x0 DUP4 ADD DUP5 PUSH2 0x2E1 JUMP JUMPDEST SWAP3 SWAP2 POP POP JUMP JUMPDEST PUSH1 0x0 DUP1 REVERT JUMPDEST PUSH1 0x0 PUSH1 0xFF DUP3 AND SWAP1 POP SWAP2 SWAP1 POP JUMP JUMPDEST PUSH2 0x326 DUP2 PUSH2 0x310 JUMP JUMPDEST DUP2 EQ PUSH2 0x331 JUMPI PUSH1 0x0 DUP1 REVERT JUMPDEST POP JUMP JUMPDEST PUSH1 0x0 DUP2 CALLDATALOAD SWAP1 POP PUSH2 0x343 DUP2 PUSH2 0x31D JUMP JUMPDEST SWAP3 SWAP2 POP POP JUMP JUMPDEST PUSH1 0x0 PUSH1 0x20 DUP3 DUP5 SUB SLT ISZERO PUSH2 0x35F JUMPI PUSH2 0x35E PUSH2 0x30B JUMP JUMPDEST JUMPDEST PUSH1 0x0 PUSH2 0x36D DUP5 DUP3 DUP6 ADD PUSH2 0x334 JUMP JUMPDEST SWAP2 POP POP SWAP3 SWAP2 POP POP JUMP JUMPDEST PUSH2 0x37F DUP2 PUSH2 0x2D7 JUMP JUMPDEST DUP2 EQ PUSH2 0x38A JUMPI PUSH1 0x0 DUP1 REVERT JUMPDEST POP JUMP JUMPDEST PUSH1 0x0 DUP2 CALLDATALOAD SWAP1 POP PUSH2 0x39C DUP2 PUSH2 0x376 JUMP JUMPDEST SWAP3 SWAP2 POP POP JUMP JUMPDEST PUSH1 0x0 PUSH1 0x20 DUP3 DUP5 SUB SLT ISZERO PUSH2 0x3B8 JUMPI PUSH2 0x3B7 PUSH2 0x30B JUMP JUMPDEST JUMPDEST PUSH1 0x0 PUSH2 0x3C6 DUP5 DUP3 DUP6 ADD PUSH2 0x38D JUMP JUMPDEST SWAP2 POP POP SWAP3 SWAP2 POP POP JUMP JUMPDEST PUSH2 0x3D8 DUP2 PUSH2 0x310 JUMP JUMPDEST DUP3 MSTORE POP POP JUMP JUMPDEST PUSH1 0x0 PUSH1 0x20 DUP3 ADD SWAP1 POP PUSH2 0x3F3 PUSH1 0x0 DUP4 ADD DUP5 PUSH2 0x3CF JUMP JUMPDEST SWAP3 SWAP2 POP POP JUMP JUMPDEST PUSH32 0x4E487B7100000000000000000000000000000000000000000000000000000000 PUSH1 0x0 MSTORE PUSH1 0x11 PUSH1 0x4 MSTORE PUSH1 0x24 PUSH1 0x0 REVERT JUMPDEST PUSH1 0x0 PUSH2 0x433 DUP3 PUSH2 0x310 JUMP JUMPDEST SWAP2 POP PUSH2 0x43E DUP4 PUSH2 0x310 JUMP JUMPDEST SWAP3 POP DUP3 DUP3 ADD SWAP1 POP PUSH1 0xFF DUP2 GT ISZERO PUSH2 0x457 JUMPI PUSH2 0x456 PUSH2 0x3F9 JUMP JUMPDEST JUMPDEST SWAP3 SWAP2 POP POP JUMP JUMPDEST PUSH1 0x0 PUSH2 0x468 DUP3 PUSH2 0x2D7 JUMP JUMPDEST SWAP2 POP PUSH2 0x473 DUP4 PUSH2 0x2D7 JUMP JUMPDEST SWAP3 POP DUP3 DUP3 ADD SWAP1 POP DUP1 DUP3 GT ISZERO PUSH2 0x48B JUMPI PUSH2 0x48A PUSH2 0x3F9 JUMP JUMPDEST JUMPDEST SWAP3 SWAP2 POP POP JUMP INVALID LOG1 PUSH5 0x736F6C6343 STOP ADDMOD SHL STOP EXP "},"methodIdentifiers":{"loopWithUint256(uint8)":"9d7488d3","loopWithUint8(uint8)":"7e195351","setUint256Value(uint256)":"92f6c449","setUint8Value(uint8)":"6c4525f7","uint256Value()":"6498db88","uint8Value()":"aaef20ea"}}}}}