{"contracts/DataLoggingExample.sol":{"EventDataLogging":{"abi":[{"anonymous":false,"inputs":[{"indexed":false,"internalType":"uint256","name":"newValue","type":"uint256"}],"name":"ValueUpdated","type":"event"},{"inputs":[],"name":"getStoredValue","outputs":[{"internalType":"uint256","name":"","type":"uint256"}],"stateMutability":"view","type":"function"},{"inputs":[],"name":"storedValue","outputs":[{"internalType":"uint256","name":"","type":"uint256"}],"stateMutability":"view","type":"function"},{"inputs":[{"internalType":"uint256","name":"newValue","type":"uint256"}],"name":"updateValue","outputs":[],"stateMutability":"nonpayable","type":"function"}],"evm":{"bytecode":{"linkReferences":{},"object":"6080604052348015600f57600080fd5b5061021d8061001f6000396000f3fe608060405234801561001057600080fd5b50600436106100415760003560e01c80630d336a2114610046578063573c0bd3146100645780636d619daa14610080575b600080fd5b61004e61009e565b60405161005b9190610197565b60405180910390f35b61007e600480360381019061007991906101e3565b6100e4565b005b610088610175565b6040516100959190610197565b60405180910390f35b60006100b4675d7083242d256ae460c01b61017b565b6100c867a1f528df99d4756060c01b61017b565b6100dc67224d8f301a8bc0c360c01b61017b565b600054905090565b6100f867e758a473c64bc8aa60c01b61017b565b61010c675e1aa185ef53f49860c01b61017b565b80600081905550610127671437dacad3c7fe3160c01b61017b565b61013b6772b0dccd375d6aad60c01b61017b565b7f4273d0736f60e0dedfe745e86718093d8ec8646ebd2a60cd60643eeced5658118160405161016a9190610197565b60405180910390a150565b60005481565b50565b6000819050919050565b6101918161017e565b82525050565b60006020820190506101ac6000830184610188565b92915050565b600080fd5b6101c08161017e565b81146101cb57600080fd5b50565b6000813590506101dd816101b7565b92915050565b6000602082840312156101f9576101f86101b2565b5b6000610207848285016101ce565b9150509291505056fea164736f6c634300081b000a","opcodes":"PUSH1 0x80 PUSH1 0x40 MSTORE CALLVALUE DUP1 ISZERO PUSH1 0xF JUMPI PUSH1 0x0 DUP1 REVERT JUMPDEST POP PUSH2 0x21D DUP1 PUSH2 0x1F PUSH1 0x0 CODECOPY PUSH1 0x0 RETURN INVALID PUSH1 0x80 PUSH1 0x40 MSTORE CALLVALUE DUP1 ISZERO PUSH2 0x10 JUMPI PUSH1 0x0 DUP1 REVERT JUMPDEST POP PUSH1 0x4 CALLDATASIZE LT PUSH2 0x41 JUMPI PUSH1 0x0 CALLDATALOAD PUSH1 0xE0 SHR DUP1 PUSH4 0xD336A21 EQ PUSH2 0x46 JUMPI DUP1 PUSH4 0x573C0BD3 EQ PUSH2 0x64 JUMPI DUP1 PUSH4 0x6D619DAA EQ PUSH2 0x80 JUMPI JUMPDEST PUSH1 0x0 DUP1 REVERT JUMPDEST PUSH2 0x4E PUSH2 0x9E JUMP JUMPDEST PUSH1 0x40 MLOAD PUSH2 0x5B SWAP2 SWAP1 PUSH2 0x197 JUMP JUMPDEST PUSH1 0x40 MLOAD DUP1 SWAP2 SUB SWAP1 RETURN JUMPDEST PUSH2 0x7E PUSH1 0x4 DUP1 CALLDATASIZE SUB DUP2 ADD SWAP1 PUSH2 0x79 SWAP2 SWAP1 PUSH2 0x1E3 JUMP JUMPDEST PUSH2 0xE4 JUMP JUMPDEST STOP JUMPDEST PUSH2 0x88 PUSH2 0x175 JUMP JUMPDEST PUSH1 0x40 MLOAD PUSH2 0x95 SWAP2 SWAP1 PUSH2 0x197 JUMP JUMPDEST PUSH1 0x40 MLOAD DUP1 SWAP2 SUB SWAP1 RETURN JUMPDEST PUSH1 0x0 PUSH2 0xB4 PUSH8 0x5D7083242D256AE4 PUSH1 0xC0 SHL PUSH2 0x17B JUMP JUMPDEST PUSH2 0xC8 PUSH8 0xA1F528DF99D47560 PUSH1 0xC0 SHL PUSH2 0x17B JUMP JUMPDEST PUSH2 0xDC PUSH8 0x224D8F301A8BC0C3 PUSH1 0xC0 SHL PUSH2 0x17B JUMP JUMPDEST PUSH1 0x0 SLOAD SWAP1 POP SWAP1 JUMP JUMPDEST PUSH2 0xF8 PUSH8 0xE758A473C64BC8AA PUSH1 0xC0 SHL PUSH2 0x17B JUMP JUMPDEST PUSH2 0x10C PUSH8 0x5E1AA185EF53F498 PUSH1 0xC0 SHL PUSH2 0x17B JUMP JUMPDEST DUP1 PUSH1 0x0 DUP2 SWAP1 SSTORE POP PUSH2 0x127 PUSH8 0x1437DACAD3C7FE31 PUSH1 0xC0 SHL PUSH2 0x17B JUMP JUMPDEST PUSH2 0x13B PUSH8 0x72B0DCCD375D6AAD PUSH1 0xC0 SHL PUSH2 0x17B JUMP JUMPDEST PUSH32 0x4273D0736F60E0DEDFE745E86718093D8EC8646EBD2A60CD60643EECED565811 DUP2 PUSH1 0x40 MLOAD PUSH2 0x16A SWAP2 SWAP1 PUSH2 0x197 JUMP JUMPDEST PUSH1 0x40 MLOAD DUP1 SWAP2 SUB SWAP1 LOG1 POP JUMP JUMPDEST PUSH1 0x0 SLOAD DUP2 JUMP JUMPDEST POP JUMP JUMPDEST PUSH1 0x0 DUP2 SWAP1 POP SWAP2 SWAP1 POP JUMP JUMPDEST PUSH2 0x191 DUP2 PUSH2 0x17E JUMP JUMPDEST DUP3 MSTORE POP POP JUMP JUMPDEST PUSH1 0x0 PUSH1 0x20 DUP3 ADD SWAP1 POP PUSH2 0x1AC PUSH1 0x0 DUP4 ADD DUP5 PUSH2 0x188 JUMP JUMPDEST SWAP3 SWAP2 POP POP JUMP JUMPDEST PUSH1 0x0 DUP1 REVERT JUMPDEST PUSH2 0x1C0 DUP2 PUSH2 0x17E JUMP JUMPDEST DUP2 EQ PUSH2 0x1CB JUMPI PUSH1 0x0 DUP1 REVERT JUMPDEST POP JUMP JUMPDEST PUSH1 0x0 DUP2 CALLDATALOAD SWAP1 POP PUSH2 0x1DD DUP2 PUSH2 0x1B7 JUMP JUMPDEST SWAP3 SWAP2 POP POP JUMP JUMPDEST PUSH1 0x0 PUSH1 0x20 DUP3 DUP5 SUB SLT ISZERO PUSH2 0x1F9 JUMPI PUSH2 0x1F8 PUSH2 0x1B2 JUMP JUMPDEST JUMPDEST PUSH1 0x0 PUSH2 0x207 DUP5 DUP3 DUP6 ADD PUSH2 0x1CE JUMP JUMPDEST SWAP2 POP POP SWAP3 SWAP2 POP POP JUMP INVALID LOG1 PUSH5 0x736F6C6343 STOP ADDMOD SHL STOP EXP "},"methodIdentifiers":{"getStoredValue()":"0d336a21","storedValue()":"6d619daa","updateValue(uint256)":"573c0bd3"}}}}}