{"contracts/Initiazlie&Reinitialize.sol":{"GasCostExample":{"abi":[{"inputs":[],"stateMutability":"nonpayable","type":"constructor"},{"inputs":[],"name":"initializeWithNonZero","outputs":[],"stateMutability":"nonpayable","type":"function"},{"inputs":[],"name":"initializeWithZero","outputs":[],"stateMutability":"nonpayable","type":"function"},{"inputs":[],"name":"initializedVar","outputs":[{"internalType":"uint256","name":"","type":"uint256"}],"stateMutability":"view","type":"function"},{"inputs":[],"name":"nonZeroInitializedVar","outputs":[{"internalType":"uint256","name":"","type":"uint256"}],"stateMutability":"view","type":"function"},{"inputs":[],"name":"nonZeroToNonZeroVar","outputs":[{"internalType":"uint256","name":"","type":"uint256"}],"stateMutability":"view","type":"function"},{"inputs":[],"name":"nonZeroToZeroVar","outputs":[{"internalType":"uint256","name":"","type":"uint256"}],"stateMutability":"view","type":"function"},{"inputs":[{"internalType":"uint256","name":"_value","type":"uint256"}],"name":"reInitializeFromNonZeroToNonZero","outputs":[],"stateMutability":"nonpayable","type":"function"},{"inputs":[],"name":"reInitializeFromNonZeroToZero","outputs":[],"stateMutability":"nonpayable","type":"function"},{"inputs":[{"internalType":"uint256","name":"_value","type":"uint256"}],"name":"reInitializeFromZeroToNonZero","outputs":[],"stateMutability":"nonpayable","type":"function"},{"inputs":[],"name":"reInitializeFromZeroToZero","outputs":[],"stateMutability":"nonpayable","type":"function"},{"inputs":[{"internalType":"uint256","name":"_value","type":"uint256"}],"name":"setInitializedVar","outputs":[],"stateMutability":"nonpayable","type":"function"},{"inputs":[],"name":"uninitializedVar","outputs":[{"internalType":"uint256","name":"","type":"uint256"}],"stateMutability":"view","type":"function"},{"inputs":[],"name":"zeroInitializedVar","outputs":[{"internalType":"uint256","name":"","type":"uint256"}],"stateMutability":"view","type":"function"},{"inputs":[],"name":"zeroToNonZeroVar","outputs":[{"internalType":"uint256","name":"","type":"uint256"}],"stateMutability":"view","type":"function"},{"inputs":[],"name":"zeroToZeroVar","outputs":[{"internalType":"uint256","name":"","type":"uint256"}],"stateMutability":"view","type":"function"}],"evm":{"bytecode":{"linkReferences":{},"object":"6080604052348015600f57600080fd5b506028679c91b7b268594b6a60c01b602c60201b60201c565b602f565b50565b6105068061003e6000396000f3fe608060405234801561001057600080fd5b50600436106100f55760003560e01c80639b8119d111610097578063d425487011610066578063d4254870146101f0578063d97993c31461020c578063e7f30e961461022a578063fcb1040914610248576100f5565b80639b8119d1146101a0578063b686a465146101be578063b9672e29146101c8578063bc22d053146101d2576100f5565b806342c201f7116100d357806342c201f71461012c5780635d80cd3514610148578063748b59a91461016657806389a68d1114610182576100f5565b806317de1657146100fa5780632c3023a5146101185780632d59ad4214610122575b600080fd5b610102610266565b60405161010f9190610480565b60405180910390f35b61012061026c565b005b61012a6102ba565b005b610146600480360381019061014191906104cc565b6102ec565b005b61015061031e565b60405161015d9190610480565b60405180910390f35b610180600480360381019061017b91906104cc565b610324565b005b61018a610372565b6040516101979190610480565b60405180910390f35b6101a8610378565b6040516101b59190610480565b60405180910390f35b6101c661037e565b005b6101d06103b0565b005b6101da6103fe565b6040516101e79190610480565b60405180910390f35b61020a600480360381019061020591906104cc565b610404565b005b610214610452565b6040516102219190610480565b60405180910390f35b610232610458565b60405161023f9190610480565b60405180910390f35b61025061045e565b60405161025d9190610480565b60405180910390f35b60015481565b61028067424c875cc84c76b160c01b610464565b61029467ef81b54c9bdb791960c01b610464565b602d6004819055506102b0679727115cf9ceb74260c01b610464565b6000600481905550565b6102ce6722b7dab05bfd4b9a60c01b610464565b6102e267c1d67dcb3d3a863660c01b610464565b6000600281905550565b61030067f991039d4bc416c260c01b610464565b61031467a12069c31bbd629260c01b610464565b8060018190555050565b60025481565b61033867ec70773f9a38675d60c01b610464565b61034c67d0e44f1a938b7c2560c01b610464565b60006006819055506103686701795f703c23330760c01b610464565b8060068190555050565b60045481565b60005481565b610392677d51b570b4d368d560c01b610464565b6103a66784bc133e5140a20460c01b610464565b602a600381905550565b6103c467b28ac4dc51654d3460c01b610464565b6103d867a1b301f3b8ec729b60c01b610464565b60006007819055506103f467ed98f576b551c5af60c01b610464565b6000600781905550565b60035481565b61041867aa7a04bc88673e0860c01b610464565b61042c6732dbeefdd042e81a60c01b610464565b8060058190555061044767110fe81efbdf557d60c01b610464565b602d60058190555050565b60065481565b60075481565b60055481565b50565b6000819050919050565b61047a81610467565b82525050565b60006020820190506104956000830184610471565b92915050565b600080fd5b6104a981610467565b81146104b457600080fd5b50565b6000813590506104c6816104a0565b92915050565b6000602082840312156104e2576104e161049b565b5b60006104f0848285016104b7565b9150509291505056fea164736f6c634300081b000a","opcodes":"PUSH1 0x80 PUSH1 0x40 MSTORE CALLVALUE DUP1 ISZERO PUSH1 0xF JUMPI PUSH1 0x0 DUP1 REVERT JUMPDEST POP PUSH1 0x28 PUSH8 0x9C91B7B268594B6A PUSH1 0xC0 SHL PUSH1 0x2C PUSH1 0x20 SHL PUSH1 0x20 SHR JUMP JUMPDEST PUSH1 0x2F JUMP JUMPDEST POP JUMP JUMPDEST PUSH2 0x506 DUP1 PUSH2 0x3E PUSH1 0x0 CODECOPY PUSH1 0x0 RETURN INVALID PUSH1 0x80 PUSH1 0x40 MSTORE CALLVALUE DUP1 ISZERO PUSH2 0x10 JUMPI PUSH1 0x0 DUP1 REVERT JUMPDEST POP PUSH1 0x4 CALLDATASIZE LT PUSH2 0xF5 JUMPI PUSH1 0x0 CALLDATALOAD PUSH1 0xE0 SHR DUP1 PUSH4 0x9B8119D1 GT PUSH2 0x97 JUMPI DUP1 PUSH4 0xD4254870 GT PUSH2 0x66 JUMPI DUP1 PUSH4 0xD4254870 EQ PUSH2 0x1F0 JUMPI DUP1 PUSH4 0xD97993C3 EQ PUSH2 0x20C JUMPI DUP1 PUSH4 0xE7F30E96 EQ PUSH2 0x22A JUMPI DUP1 PUSH4 0xFCB10409 EQ PUSH2 0x248 JUMPI PUSH2 0xF5 JUMP JUMPDEST DUP1 PUSH4 0x9B8119D1 EQ PUSH2 0x1A0 JUMPI DUP1 PUSH4 0xB686A465 EQ PUSH2 0x1BE JUMPI DUP1 PUSH4 0xB9672E29 EQ PUSH2 0x1C8 JUMPI DUP1 PUSH4 0xBC22D053 EQ PUSH2 0x1D2 JUMPI PUSH2 0xF5 JUMP JUMPDEST DUP1 PUSH4 0x42C201F7 GT PUSH2 0xD3 JUMPI DUP1 PUSH4 0x42C201F7 EQ PUSH2 0x12C JUMPI DUP1 PUSH4 0x5D80CD35 EQ PUSH2 0x148 JUMPI DUP1 PUSH4 0x748B59A9 EQ PUSH2 0x166 JUMPI DUP1 PUSH4 0x89A68D11 EQ PUSH2 0x182 JUMPI PUSH2 0xF5 JUMP JUMPDEST DUP1 PUSH4 0x17DE1657 EQ PUSH2 0xFA JUMPI DUP1 PUSH4 0x2C3023A5 EQ PUSH2 0x118 JUMPI DUP1 PUSH4 0x2D59AD42 EQ PUSH2 0x122 JUMPI JUMPDEST PUSH1 0x0 DUP1 REVERT JUMPDEST PUSH2 0x102 PUSH2 0x266 JUMP JUMPDEST PUSH1 0x40 MLOAD PUSH2 0x10F SWAP2 SWAP1 PUSH2 0x480 JUMP JUMPDEST PUSH1 0x40 MLOAD DUP1 SWAP2 SUB SWAP1 RETURN JUMPDEST PUSH2 0x120 PUSH2 0x26C JUMP JUMPDEST STOP JUMPDEST PUSH2 0x12A PUSH2 0x2BA JUMP JUMPDEST STOP JUMPDEST PUSH2 0x146 PUSH1 0x4 DUP1 CALLDATASIZE SUB DUP2 ADD SWAP1 PUSH2 0x141 SWAP2 SWAP1 PUSH2 0x4CC JUMP JUMPDEST PUSH2 0x2EC JUMP JUMPDEST STOP JUMPDEST PUSH2 0x150 PUSH2 0x31E JUMP JUMPDEST PUSH1 0x40 MLOAD PUSH2 0x15D SWAP2 SWAP1 PUSH2 0x480 JUMP JUMPDEST PUSH1 0x40 MLOAD DUP1 SWAP2 SUB SWAP1 RETURN JUMPDEST PUSH2 0x180 PUSH1 0x4 DUP1 CALLDATASIZE SUB DUP2 ADD SWAP1 PUSH2 0x17B SWAP2 SWAP1 PUSH2 0x4CC JUMP JUMPDEST PUSH2 0x324 JUMP JUMPDEST STOP JUMPDEST PUSH2 0x18A PUSH2 0x372 JUMP JUMPDEST PUSH1 0x40 MLOAD PUSH2 0x197 SWAP2 SWAP1 PUSH2 0x480 JUMP JUMPDEST PUSH1 0x40 MLOAD DUP1 SWAP2 SUB SWAP1 RETURN JUMPDEST PUSH2 0x1A8 PUSH2 0x378 JUMP JUMPDEST PUSH1 0x40 MLOAD PUSH2 0x1B5 SWAP2 SWAP1 PUSH2 0x480 JUMP JUMPDEST PUSH1 0x40 MLOAD DUP1 SWAP2 SUB SWAP1 RETURN JUMPDEST PUSH2 0x1C6 PUSH2 0x37E JUMP JUMPDEST STOP JUMPDEST PUSH2 0x1D0 PUSH2 0x3B0 JUMP JUMPDEST STOP JUMPDEST PUSH2 0x1DA PUSH2 0x3FE JUMP JUMPDEST PUSH1 0x40 MLOAD PUSH2 0x1E7 SWAP2 SWAP1 PUSH2 0x480 JUMP JUMPDEST PUSH1 0x40 MLOAD DUP1 SWAP2 SUB SWAP1 RETURN JUMPDEST PUSH2 0x20A PUSH1 0x4 DUP1 CALLDATASIZE SUB DUP2 ADD SWAP1 PUSH2 0x205 SWAP2 SWAP1 PUSH2 0x4CC JUMP JUMPDEST PUSH2 0x404 JUMP JUMPDEST STOP JUMPDEST PUSH2 0x214 PUSH2 0x452 JUMP JUMPDEST PUSH1 0x40 MLOAD PUSH2 0x221 SWAP2 SWAP1 PUSH2 0x480 JUMP JUMPDEST PUSH1 0x40 MLOAD DUP1 SWAP2 SUB SWAP1 RETURN JUMPDEST PUSH2 0x232 PUSH2 0x458 JUMP JUMPDEST PUSH1 0x40 MLOAD PUSH2 0x23F SWAP2 SWAP1 PUSH2 0x480 JUMP JUMPDEST PUSH1 0x40 MLOAD DUP1 SWAP2 SUB SWAP1 RETURN JUMPDEST PUSH2 0x250 PUSH2 0x45E JUMP JUMPDEST PUSH1 0x40 MLOAD PUSH2 0x25D SWAP2 SWAP1 PUSH2 0x480 JUMP JUMPDEST PUSH1 0x40 MLOAD DUP1 SWAP2 SUB SWAP1 RETURN JUMPDEST PUSH1 0x1 SLOAD DUP2 JUMP JUMPDEST PUSH2 0x280 PUSH8 0x424C875CC84C76B1 PUSH1 0xC0 SHL PUSH2 0x464 JUMP JUMPDEST PUSH2 0x294 PUSH8 0xEF81B54C9BDB7919 PUSH1 0xC0 SHL PUSH2 0x464 JUMP JUMPDEST PUSH1 0x2D PUSH1 0x4 DUP2 SWAP1 SSTORE POP PUSH2 0x2B0 PUSH8 0x9727115CF9CEB742 PUSH1 0xC0 SHL PUSH2 0x464 JUMP JUMPDEST PUSH1 0x0 PUSH1 0x4 DUP2 SWAP1 SSTORE POP JUMP JUMPDEST PUSH2 0x2CE PUSH8 0x22B7DAB05BFD4B9A PUSH1 0xC0 SHL PUSH2 0x464 JUMP JUMPDEST PUSH2 0x2E2 PUSH8 0xC1D67DCB3D3A8636 PUSH1 0xC0 SHL PUSH2 0x464 JUMP JUMPDEST PUSH1 0x0 PUSH1 0x2 DUP2 SWAP1 SSTORE POP JUMP JUMPDEST PUSH2 0x300 PUSH8 0xF991039D4BC416C2 PUSH1 0xC0 SHL PUSH2 0x464 JUMP JUMPDEST PUSH2 0x314 PUSH8 0xA12069C31BBD6292 PUSH1 0xC0 SHL PUSH2 0x464 JUMP JUMPDEST DUP1 PUSH1 0x1 DUP2 SWAP1 SSTORE POP POP JUMP JUMPDEST PUSH1 0x2 SLOAD DUP2 JUMP JUMPDEST PUSH2 0x338 PUSH8 0xEC70773F9A38675D PUSH1 0xC0 SHL PUSH2 0x464 JUMP JUMPDEST PUSH2 0x34C PUSH8 0xD0E44F1A938B7C25 PUSH1 0xC0 SHL PUSH2 0x464 JUMP JUMPDEST PUSH1 0x0 PUSH1 0x6 DUP2 SWAP1 SSTORE POP PUSH2 0x368 PUSH8 0x1795F703C233307 PUSH1 0xC0 SHL PUSH2 0x464 JUMP JUMPDEST DUP1 PUSH1 0x6 DUP2 SWAP1 SSTORE POP POP JUMP JUMPDEST PUSH1 0x4 SLOAD DUP2 JUMP JUMPDEST PUSH1 0x0 SLOAD DUP2 JUMP JUMPDEST PUSH2 0x392 PUSH8 0x7D51B570B4D368D5 PUSH1 0xC0 SHL PUSH2 0x464 JUMP JUMPDEST PUSH2 0x3A6 PUSH8 0x84BC133E5140A204 PUSH1 0xC0 SHL PUSH2 0x464 JUMP JUMPDEST PUSH1 0x2A PUSH1 0x3 DUP2 SWAP1 SSTORE POP JUMP JUMPDEST PUSH2 0x3C4 PUSH8 0xB28AC4DC51654D34 PUSH1 0xC0 SHL PUSH2 0x464 JUMP JUMPDEST PUSH2 0x3D8 PUSH8 0xA1B301F3B8EC729B PUSH1 0xC0 SHL PUSH2 0x464 JUMP JUMPDEST PUSH1 0x0 PUSH1 0x7 DUP2 SWAP1 SSTORE POP PUSH2 0x3F4 PUSH8 0xED98F576B551C5AF PUSH1 0xC0 SHL PUSH2 0x464 JUMP JUMPDEST PUSH1 0x0 PUSH1 0x7 DUP2 SWAP1 SSTORE POP JUMP JUMPDEST PUSH1 0x3 SLOAD DUP2 JUMP JUMPDEST PUSH2 0x418 PUSH8 0xAA7A04BC88673E08 PUSH1 0xC0 SHL PUSH2 0x464 JUMP JUMPDEST PUSH2 0x42C PUSH8 0x32DBEEFDD042E81A PUSH1 0xC0 SHL PUSH2 0x464 JUMP JUMPDEST DUP1 PUSH1 0x5 DUP2 SWAP1 SSTORE POP PUSH2 0x447 PUSH8 0x110FE81EFBDF557D PUSH1 0xC0 SHL PUSH2 0x464 JUMP JUMPDEST PUSH1 0x2D PUSH1 0x5 DUP2 SWAP1 SSTORE POP POP JUMP JUMPDEST PUSH1 0x6 SLOAD DUP2 JUMP JUMPDEST PUSH1 0x7 SLOAD DUP2 JUMP JUMPDEST PUSH1 0x5 SLOAD DUP2 JUMP JUMPDEST POP JUMP JUMPDEST PUSH1 0x0 DUP2 SWAP1 POP SWAP2 SWAP1 POP JUMP JUMPDEST PUSH2 0x47A DUP2 PUSH2 0x467 JUMP JUMPDEST DUP3 MSTORE POP POP JUMP JUMPDEST PUSH1 0x0 PUSH1 0x20 DUP3 ADD SWAP1 POP PUSH2 0x495 PUSH1 0x0 DUP4 ADD DUP5 PUSH2 0x471 JUMP JUMPDEST SWAP3 SWAP2 POP POP JUMP JUMPDEST PUSH1 0x0 DUP1 REVERT JUMPDEST PUSH2 0x4A9 DUP2 PUSH2 0x467 JUMP JUMPDEST DUP2 EQ PUSH2 0x4B4 JUMPI PUSH1 0x0 DUP1 REVERT JUMPDEST POP JUMP JUMPDEST PUSH1 0x0 DUP2 CALLDATALOAD SWAP1 POP PUSH2 0x4C6 DUP2 PUSH2 0x4A0 JUMP JUMPDEST SWAP3 SWAP2 POP POP JUMP JUMPDEST PUSH1 0x0 PUSH1 0x20 DUP3 DUP5 SUB SLT ISZERO PUSH2 0x4E2 JUMPI PUSH2 0x4E1 PUSH2 0x49B JUMP JUMPDEST JUMPDEST PUSH1 0x0 PUSH2 0x4F0 DUP5 DUP3 DUP6 ADD PUSH2 0x4B7 JUMP JUMPDEST SWAP2 POP POP SWAP3 SWAP2 POP POP JUMP INVALID LOG1 PUSH5 0x736F6C6343 STOP ADDMOD SHL STOP EXP "},"methodIdentifiers":{"initializeWithNonZero()":"b686a465","initializeWithZero()":"2d59ad42","initializedVar()":"17de1657","nonZeroInitializedVar()":"bc22d053","nonZeroToNonZeroVar()":"fcb10409","nonZeroToZeroVar()":"89a68d11","reInitializeFromNonZeroToNonZero(uint256)":"d4254870","reInitializeFromNonZeroToZero()":"2c3023a5","reInitializeFromZeroToNonZero(uint256)":"748b59a9","reInitializeFromZeroToZero()":"b9672e29","setInitializedVar(uint256)":"42c201f7","uninitializedVar()":"9b8119d1","zeroInitializedVar()":"5d80cd35","zeroToNonZeroVar()":"d97993c3","zeroToZeroVar()":"e7f30e96"}}}}}