{"contracts/loopingExample.sol":{"LoopCheck3Contract":{"abi":[{"inputs":[],"name":"loopCheck3","outputs":[],"stateMutability":"nonpayable","type":"function"}],"evm":{"bytecode":{"linkReferences":{},"object":"6080604052348015600f57600080fd5b506102e88061001f6000396000f3fe608060405234801561001057600080fd5b506004361061002b5760003560e01c8063549f16b414610030575b600080fd5b61003861003a565b005b61004e674c8140953c722e4b60c01b6101f9565b61006267b704bcd4b25ecf3960c01b6101f9565b61007667be1ef11a189a7bcf60c01b6101f9565b6000600367ffffffffffffffff811115610093576100926101fc565b5b6040519080825280602002602001820160405280156100c15781602001602082028036833780820191505090505b5090506100d867f28f97cfde6a453a60c01b6101f9565b6001816000815181106100ee576100ed61022b565b5b60200260200101818152505061010e67523fc6848c99828160c01b6101f9565b6002816001815181106101245761012361022b565b5b60200260200101818152505061014467887bc58207e4b89b60c01b6101f9565b60038160028151811061015a5761015961022b565b5b60200260200101818152505061017a675a5c18fee25ca53060c01b6101f9565b61018e676c8d1ced0941000a60c01b6101f9565b6000815190506101a86774a4f3f782912ded60c01b6101f9565b6101bc6734cb09ea4f461dcc60c01b6101f9565b60005b818110156101f4576101db67ea5b7fff694a230a60c01b6101f9565b80600101905080806101ec90610293565b9150506101bf565b505050565b50565b7f4e487b7100000000000000000000000000000000000000000000000000000000600052604160045260246000fd5b7f4e487b7100000000000000000000000000000000000000000000000000000000600052603260045260246000fd5b7f4e487b7100000000000000000000000000000000000000000000000000000000600052601160045260246000fd5b6000819050919050565b600061029e82610289565b91507fffffffffffffffffffffffffffffffffffffffffffffffffffffffffffffffff82036102d0576102cf61025a565b5b60018201905091905056fea164736f6c634300081b000a","opcodes":"PUSH1 0x80 PUSH1 0x40 MSTORE CALLVALUE DUP1 ISZERO PUSH1 0xF JUMPI PUSH1 0x0 DUP1 REVERT JUMPDEST POP PUSH2 0x2E8 DUP1 PUSH2 0x1F PUSH1 0x0 CODECOPY PUSH1 0x0 RETURN INVALID PUSH1 0x80 PUSH1 0x40 MSTORE CALLVALUE DUP1 ISZERO PUSH2 0x10 JUMPI PUSH1 0x0 DUP1 REVERT JUMPDEST POP PUSH1 0x4 CALLDATASIZE LT PUSH2 0x2B JUMPI PUSH1 0x0 CALLDATALOAD PUSH1 0xE0 SHR DUP1 PUSH4 0x549F16B4 EQ PUSH2 0x30 JUMPI JUMPDEST PUSH1 0x0 DUP1 REVERT JUMPDEST PUSH2 0x38 PUSH2 0x3A JUMP JUMPDEST STOP JUMPDEST PUSH2 0x4E PUSH8 0x4C8140953C722E4B PUSH1 0xC0 SHL PUSH2 0x1F9 JUMP JUMPDEST PUSH2 0x62 PUSH8 0xB704BCD4B25ECF39 PUSH1 0xC0 SHL PUSH2 0x1F9 JUMP JUMPDEST PUSH2 0x76 PUSH8 0xBE1EF11A189A7BCF PUSH1 0xC0 SHL PUSH2 0x1F9 JUMP JUMPDEST PUSH1 0x0 PUSH1 0x3 PUSH8 0xFFFFFFFFFFFFFFFF DUP2 GT ISZERO PUSH2 0x93 JUMPI PUSH2 0x92 PUSH2 0x1FC JUMP JUMPDEST JUMPDEST PUSH1 0x40 MLOAD SWAP1 DUP1 DUP3 MSTORE DUP1 PUSH1 0x20 MUL PUSH1 0x20 ADD DUP3 ADD PUSH1 0x40 MSTORE DUP1 ISZERO PUSH2 0xC1 JUMPI DUP2 PUSH1 0x20 ADD PUSH1 0x20 DUP3 MUL DUP1 CALLDATASIZE DUP4 CALLDATACOPY DUP1 DUP3 ADD SWAP2 POP POP SWAP1 POP JUMPDEST POP SWAP1 POP PUSH2 0xD8 PUSH8 0xF28F97CFDE6A453A PUSH1 0xC0 SHL PUSH2 0x1F9 JUMP JUMPDEST PUSH1 0x1 DUP2 PUSH1 0x0 DUP2 MLOAD DUP2 LT PUSH2 0xEE JUMPI PUSH2 0xED PUSH2 0x22B JUMP JUMPDEST JUMPDEST PUSH1 0x20 MUL PUSH1 0x20 ADD ADD DUP2 DUP2 MSTORE POP POP PUSH2 0x10E PUSH8 0x523FC6848C998281 PUSH1 0xC0 SHL PUSH2 0x1F9 JUMP JUMPDEST PUSH1 0x2 DUP2 PUSH1 0x1 DUP2 MLOAD DUP2 LT PUSH2 0x124 JUMPI PUSH2 0x123 PUSH2 0x22B JUMP JUMPDEST JUMPDEST PUSH1 0x20 MUL PUSH1 0x20 ADD ADD DUP2 DUP2 MSTORE POP POP PUSH2 0x144 PUSH8 0x887BC58207E4B89B PUSH1 0xC0 SHL PUSH2 0x1F9 JUMP JUMPDEST PUSH1 0x3 DUP2 PUSH1 0x2 DUP2 MLOAD DUP2 LT PUSH2 0x15A JUMPI PUSH2 0x159 PUSH2 0x22B JUMP JUMPDEST JUMPDEST PUSH1 0x20 MUL PUSH1 0x20 ADD ADD DUP2 DUP2 MSTORE POP POP PUSH2 0x17A PUSH8 0x5A5C18FEE25CA530 PUSH1 0xC0 SHL PUSH2 0x1F9 JUMP JUMPDEST PUSH2 0x18E PUSH8 0x6C8D1CED0941000A PUSH1 0xC0 SHL PUSH2 0x1F9 JUMP JUMPDEST PUSH1 0x0 DUP2 MLOAD SWAP1 POP PUSH2 0x1A8 PUSH8 0x74A4F3F782912DED PUSH1 0xC0 SHL PUSH2 0x1F9 JUMP JUMPDEST PUSH2 0x1BC PUSH8 0x34CB09EA4F461DCC PUSH1 0xC0 SHL PUSH2 0x1F9 JUMP JUMPDEST PUSH1 0x0 JUMPDEST DUP2 DUP2 LT ISZERO PUSH2 0x1F4 JUMPI PUSH2 0x1DB PUSH8 0xEA5B7FFF694A230A PUSH1 0xC0 SHL PUSH2 0x1F9 JUMP JUMPDEST DUP1 PUSH1 0x1 ADD SWAP1 POP DUP1 DUP1 PUSH2 0x1EC SWAP1 PUSH2 0x293 JUMP JUMPDEST SWAP2 POP POP PUSH2 0x1BF JUMP JUMPDEST POP POP POP JUMP JUMPDEST POP JUMP JUMPDEST PUSH32 0x4E487B7100000000000000000000000000000000000000000000000000000000 PUSH1 0x0 MSTORE PUSH1 0x41 PUSH1 0x4 MSTORE PUSH1 0x24 PUSH1 0x0 REVERT JUMPDEST PUSH32 0x4E487B7100000000000000000000000000000000000000000000000000000000 PUSH1 0x0 MSTORE PUSH1 0x32 PUSH1 0x4 MSTORE PUSH1 0x24 PUSH1 0x0 REVERT JUMPDEST PUSH32 0x4E487B7100000000000000000000000000000000000000000000000000000000 PUSH1 0x0 MSTORE PUSH1 0x11 PUSH1 0x4 MSTORE PUSH1 0x24 PUSH1 0x0 REVERT JUMPDEST PUSH1 0x0 DUP2 SWAP1 POP SWAP2 SWAP1 POP JUMP JUMPDEST PUSH1 0x0 PUSH2 0x29E DUP3 PUSH2 0x289 JUMP JUMPDEST SWAP2 POP PUSH32 0xFFFFFFFFFFFFFFFFFFFFFFFFFFFFFFFFFFFFFFFFFFFFFFFFFFFFFFFFFFFFFFFF DUP3 SUB PUSH2 0x2D0 JUMPI PUSH2 0x2CF PUSH2 0x25A JUMP JUMPDEST JUMPDEST PUSH1 0x1 DUP3 ADD SWAP1 POP SWAP2 SWAP1 POP JUMP INVALID LOG1 PUSH5 0x736F6C6343 STOP ADDMOD SHL STOP EXP "},"methodIdentifiers":{"loopCheck3()":"549f16b4"}}}}}