{"contracts/refundsExample.sol":{"GasRefundExample":{"abi":[{"inputs":[],"name":"destroyContract","outputs":[],"stateMutability":"nonpayable","type":"function"},{"inputs":[{"internalType":"uint256","name":"_newValue1","type":"uint256"},{"internalType":"uint256","name":"_newValue2","type":"uint256"}],"name":"updateValuesAndFreeStorageSlot","outputs":[],"stateMutability":"nonpayable","type":"function"},{"inputs":[],"name":"value1","outputs":[{"internalType":"uint256","name":"","type":"uint256"}],"stateMutability":"view","type":"function"},{"inputs":[],"name":"value2","outputs":[{"internalType":"uint256","name":"","type":"uint256"}],"stateMutability":"view","type":"function"}],"evm":{"bytecode":{"linkReferences":{},"object":"6080604052348015600f57600080fd5b506103d58061001f6000396000f3fe608060405234801561001057600080fd5b506004361061004c5760003560e01c8063092a5cce146100515780633033413b1461005b5780633b36aa74146100795780635d33a27f14610095575b600080fd5b6100596100b3565b005b6100636101a6565b6040516100709190610239565b60405180910390f35b610093600480360381019061008e9190610285565b6101ac565b005b61009d610217565b6040516100aa9190610239565b60405180910390f35b6100c767283425de9b7576f260c01b61021d565b6100db675324ef092f5d519d60c01b61021d565b6100ef675def6f721b441b3b60c01b61021d565b61010367a3bbd5375b1b2ae260c01b61021d565b60025a61011091906102f4565b5a11610151576040517f08c379a0000000000000000000000000000000000000000000000000000000008152600401610148906103a8565b60405180910390fd5b6101656773eb8bef1f195f2960c01b61021d565b6101796787efd3955220f0c560c01b61021d565b61018d67df186d887bbfb50960c01b61021d565b3373ffffffffffffffffffffffffffffffffffffffff16ff5b60005481565b6101c067c6b757c82a7e559b60c01b61021d565b6101d46739ce073b2a03a26960c01b61021d565b816000819055506101ef67cb65c47785522bf160c01b61021d565b8060018190555061020a67121effca784f14d060c01b61021d565b6000805560006001555050565b60015481565b50565b6000819050919050565b61023381610220565b82525050565b600060208201905061024e600083018461022a565b92915050565b600080fd5b61026281610220565b811461026d57600080fd5b50565b60008135905061027f81610259565b92915050565b6000806040838503121561029c5761029b610254565b5b60006102aa85828601610270565b92505060206102bb85828601610270565b9150509250929050565b7f4e487b7100000000000000000000000000000000000000000000000000000000600052601260045260246000fd5b60006102ff82610220565b915061030a83610220565b92508261031a576103196102c5565b5b828204905092915050565b600082825260208201905092915050565b7f526566756e642063616e6e6f7420737572706173732068616c6620746865206760008201527f6173207573656400000000000000000000000000000000000000000000000000602082015250565b6000610392602783610325565b915061039d82610336565b604082019050919050565b600060208201905081810360008301526103c181610385565b905091905056fea164736f6c634300081b000a","opcodes":"PUSH1 0x80 PUSH1 0x40 MSTORE CALLVALUE DUP1 ISZERO PUSH1 0xF JUMPI PUSH1 0x0 DUP1 REVERT JUMPDEST POP PUSH2 0x3D5 DUP1 PUSH2 0x1F PUSH1 0x0 CODECOPY PUSH1 0x0 RETURN INVALID PUSH1 0x80 PUSH1 0x40 MSTORE CALLVALUE DUP1 ISZERO PUSH2 0x10 JUMPI PUSH1 0x0 DUP1 REVERT JUMPDEST POP PUSH1 0x4 CALLDATASIZE LT PUSH2 0x4C JUMPI PUSH1 0x0 CALLDATALOAD PUSH1 0xE0 SHR DUP1 PUSH4 0x92A5CCE EQ PUSH2 0x51 JUMPI DUP1 PUSH4 0x3033413B EQ PUSH2 0x5B JUMPI DUP1 PUSH4 0x3B36AA74 EQ PUSH2 0x79 JUMPI DUP1 PUSH4 0x5D33A27F EQ PUSH2 0x95 JUMPI JUMPDEST PUSH1 0x0 DUP1 REVERT JUMPDEST PUSH2 0x59 PUSH2 0xB3 JUMP JUMPDEST STOP JUMPDEST PUSH2 0x63 PUSH2 0x1A6 JUMP JUMPDEST PUSH1 0x40 MLOAD PUSH2 0x70 SWAP2 SWAP1 PUSH2 0x239 JUMP JUMPDEST PUSH1 0x40 MLOAD DUP1 SWAP2 SUB SWAP1 RETURN JUMPDEST PUSH2 0x93 PUSH1 0x4 DUP1 CALLDATASIZE SUB DUP2 ADD SWAP1 PUSH2 0x8E SWAP2 SWAP1 PUSH2 0x285 JUMP JUMPDEST PUSH2 0x1AC JUMP JUMPDEST STOP JUMPDEST PUSH2 0x9D PUSH2 0x217 JUMP JUMPDEST PUSH1 0x40 MLOAD PUSH2 0xAA SWAP2 SWAP1 PUSH2 0x239 JUMP JUMPDEST PUSH1 0x40 MLOAD DUP1 SWAP2 SUB SWAP1 RETURN JUMPDEST PUSH2 0xC7 PUSH8 0x283425DE9B7576F2 PUSH1 0xC0 SHL PUSH2 0x21D JUMP JUMPDEST PUSH2 0xDB PUSH8 0x5324EF092F5D519D PUSH1 0xC0 SHL PUSH2 0x21D JUMP JUMPDEST PUSH2 0xEF PUSH8 0x5DEF6F721B441B3B PUSH1 0xC0 SHL PUSH2 0x21D JUMP JUMPDEST PUSH2 0x103 PUSH8 0xA3BBD5375B1B2AE2 PUSH1 0xC0 SHL PUSH2 0x21D JUMP JUMPDEST PUSH1 0x2 GAS PUSH2 0x110 SWAP2 SWAP1 PUSH2 0x2F4 JUMP JUMPDEST GAS GT PUSH2 0x151 JUMPI PUSH1 0x40 MLOAD PUSH32 0x8C379A000000000000000000000000000000000000000000000000000000000 DUP2 MSTORE PUSH1 0x4 ADD PUSH2 0x148 SWAP1 PUSH2 0x3A8 JUMP JUMPDEST PUSH1 0x40 MLOAD DUP1 SWAP2 SUB SWAP1 REVERT JUMPDEST PUSH2 0x165 PUSH8 0x73EB8BEF1F195F29 PUSH1 0xC0 SHL PUSH2 0x21D JUMP JUMPDEST PUSH2 0x179 PUSH8 0x87EFD3955220F0C5 PUSH1 0xC0 SHL PUSH2 0x21D JUMP JUMPDEST PUSH2 0x18D PUSH8 0xDF186D887BBFB509 PUSH1 0xC0 SHL PUSH2 0x21D JUMP JUMPDEST CALLER PUSH20 0xFFFFFFFFFFFFFFFFFFFFFFFFFFFFFFFFFFFFFFFF AND SELFDESTRUCT JUMPDEST PUSH1 0x0 SLOAD DUP2 JUMP JUMPDEST PUSH2 0x1C0 PUSH8 0xC6B757C82A7E559B PUSH1 0xC0 SHL PUSH2 0x21D JUMP JUMPDEST PUSH2 0x1D4 PUSH8 0x39CE073B2A03A269 PUSH1 0xC0 SHL PUSH2 0x21D JUMP JUMPDEST DUP2 PUSH1 0x0 DUP2 SWAP1 SSTORE POP PUSH2 0x1EF PUSH8 0xCB65C47785522BF1 PUSH1 0xC0 SHL PUSH2 0x21D JUMP JUMPDEST DUP1 PUSH1 0x1 DUP2 SWAP1 SSTORE POP PUSH2 0x20A PUSH8 0x121EFFCA784F14D0 PUSH1 0xC0 SHL PUSH2 0x21D JUMP JUMPDEST PUSH1 0x0 DUP1 SSTORE PUSH1 0x0 PUSH1 0x1 SSTORE POP POP JUMP JUMPDEST PUSH1 0x1 SLOAD DUP2 JUMP JUMPDEST POP JUMP JUMPDEST PUSH1 0x0 DUP2 SWAP1 POP SWAP2 SWAP1 POP JUMP JUMPDEST PUSH2 0x233 DUP2 PUSH2 0x220 JUMP JUMPDEST DUP3 MSTORE POP POP JUMP JUMPDEST PUSH1 0x0 PUSH1 0x20 DUP3 ADD SWAP1 POP PUSH2 0x24E PUSH1 0x0 DUP4 ADD DUP5 PUSH2 0x22A JUMP JUMPDEST SWAP3 SWAP2 POP POP JUMP JUMPDEST PUSH1 0x0 DUP1 REVERT JUMPDEST PUSH2 0x262 DUP2 PUSH2 0x220 JUMP JUMPDEST DUP2 EQ PUSH2 0x26D JUMPI PUSH1 0x0 DUP1 REVERT JUMPDEST POP JUMP JUMPDEST PUSH1 0x0 DUP2 CALLDATALOAD SWAP1 POP PUSH2 0x27F DUP2 PUSH2 0x259 JUMP JUMPDEST SWAP3 SWAP2 POP POP JUMP JUMPDEST PUSH1 0x0 DUP1 PUSH1 0x40 DUP4 DUP6 SUB SLT ISZERO PUSH2 0x29C JUMPI PUSH2 0x29B PUSH2 0x254 JUMP JUMPDEST JUMPDEST PUSH1 0x0 PUSH2 0x2AA DUP6 DUP3 DUP7 ADD PUSH2 0x270 JUMP JUMPDEST SWAP3 POP POP PUSH1 0x20 PUSH2 0x2BB DUP6 DUP3 DUP7 ADD PUSH2 0x270 JUMP JUMPDEST SWAP2 POP POP SWAP3 POP SWAP3 SWAP1 POP JUMP JUMPDEST PUSH32 0x4E487B7100000000000000000000000000000000000000000000000000000000 PUSH1 0x0 MSTORE PUSH1 0x12 PUSH1 0x4 MSTORE PUSH1 0x24 PUSH1 0x0 REVERT JUMPDEST PUSH1 0x0 PUSH2 0x2FF DUP3 PUSH2 0x220 JUMP JUMPDEST SWAP2 POP PUSH2 0x30A DUP4 PUSH2 0x220 JUMP JUMPDEST SWAP3 POP DUP3 PUSH2 0x31A JUMPI PUSH2 0x319 PUSH2 0x2C5 JUMP JUMPDEST JUMPDEST DUP3 DUP3 DIV SWAP1 POP SWAP3 SWAP2 POP POP JUMP JUMPDEST PUSH1 0x0 DUP3 DUP3 MSTORE PUSH1 0x20 DUP3 ADD SWAP1 POP SWAP3 SWAP2 POP POP JUMP JUMPDEST PUSH32 0x526566756E642063616E6E6F7420737572706173732068616C66207468652067 PUSH1 0x0 DUP3 ADD MSTORE PUSH32 0x6173207573656400000000000000000000000000000000000000000000000000 PUSH1 0x20 DUP3 ADD MSTORE POP JUMP JUMPDEST PUSH1 0x0 PUSH2 0x392 PUSH1 0x27 DUP4 PUSH2 0x325 JUMP JUMPDEST SWAP2 POP PUSH2 0x39D DUP3 PUSH2 0x336 JUMP JUMPDEST PUSH1 0x40 DUP3 ADD SWAP1 POP SWAP2 SWAP1 POP JUMP JUMPDEST PUSH1 0x0 PUSH1 0x20 DUP3 ADD SWAP1 POP DUP2 DUP2 SUB PUSH1 0x0 DUP4 ADD MSTORE PUSH2 0x3C1 DUP2 PUSH2 0x385 JUMP JUMPDEST SWAP1 POP SWAP2 SWAP1 POP JUMP INVALID LOG1 PUSH5 0x736F6C6343 STOP ADDMOD SHL STOP EXP "},"methodIdentifiers":{"destroyContract()":"092a5cce","updateValuesAndFreeStorageSlot(uint256,uint256)":"3b36aa74","value1()":"3033413b","value2()":"5d33a27f"}}}}}