{
  "_format": "hh-sol-artifact-1",
  "contractName": "WithStreamlining",
  "sourceName": "contracts/returnValueExample.sol",
  "abi": [
    {
      "inputs": [
        {
          "internalType": "uint256",
          "name": "a",
          "type": "uint256"
        },
        {
          "internalType": "uint256",
          "name": "b",
          "type": "uint256"
        }
      ],
      "name": "calculateProduct",
      "outputs": [
        {
          "internalType": "uint256",
          "name": "product",
          "type": "uint256"
        }
      ],
      "stateMutability": "pure",
      "type": "function"
    }
  ],
  "bytecode": "0x6080604052348015600f57600080fd5b506101c48061001f6000396000f3fe608060405234801561001057600080fd5b506004361061002b5760003560e01c8063256bd5d914610030575b600080fd5b61004a600480360381019061004591906100dc565b610060565b604051610057919061012b565b60405180910390f35b600061007667b979df00346ec13660c01b61009e565b61008a6751a30f7425e8e25760c01b61009e565b81836100969190610175565b905092915050565b50565b600080fd5b6000819050919050565b6100b9816100a6565b81146100c457600080fd5b50565b6000813590506100d6816100b0565b92915050565b600080604083850312156100f3576100f26100a1565b5b6000610101858286016100c7565b9250506020610112858286016100c7565b9150509250929050565b610125816100a6565b82525050565b6000602082019050610140600083018461011c565b92915050565b7f4e487b7100000000000000000000000000000000000000000000000000000000600052601160045260246000fd5b6000610180826100a6565b915061018b836100a6565b9250828202610199816100a6565b915082820484148315176101b0576101af610146565b5b509291505056fea164736f6c634300081b000a",
  "linkReferences": {},
  "deployedLinkReferences": {}
}