{
  "_format": "hh-sol-artifact-1",
  "contractName": "WithoutStreamlining",
  "sourceName": "contracts/returnValueExample.sol",
  "abi": [
    {
      "inputs": [
        {
          "internalType": "uint256",
          "name": "a",
          "type": "uint256"
        },
        {
          "internalType": "uint256",
          "name": "b",
          "type": "uint256"
        }
      ],
      "name": "calculateProduct",
      "outputs": [
        {
          "internalType": "uint256",
          "name": "",
          "type": "uint256"
        }
      ],
      "stateMutability": "pure",
      "type": "function"
    }
  ],
  "bytecode": "0x6080604052348015600f57600080fd5b506101d88061001f6000396000f3fe608060405234801561001057600080fd5b506004361061002b5760003560e01c8063256bd5d914610030575b600080fd5b61004a600480360381019061004591906100f0565b610060565b604051610057919061013f565b60405180910390f35b600061007667ec46999bf2f207d060c01b6100b2565b61008a67054231dd33908e1560c01b6100b2565b61009e67580904f970c62ab360c01b6100b2565b81836100aa9190610189565b905092915050565b50565b600080fd5b6000819050919050565b6100cd816100ba565b81146100d857600080fd5b50565b6000813590506100ea816100c4565b92915050565b60008060408385031215610107576101066100b5565b5b6000610115858286016100db565b9250506020610126858286016100db565b9150509250929050565b610139816100ba565b82525050565b60006020820190506101546000830184610130565b92915050565b7f4e487b7100000000000000000000000000000000000000000000000000000000600052601160045260246000fd5b6000610194826100ba565b915061019f836100ba565b92508282026101ad816100ba565b915082820484148315176101c4576101c361015a565b5b509291505056fea164736f6c634300081b000a",
  "linkReferences": {},
  "deployedLinkReferences": {}
}