{
  "_format": "hh-sol-artifact-1",
  "contractName": "LoopCheck1Contract",
  "sourceName": "contracts/loopingExample.sol",
  "abi": [
    {
      "inputs": [],
      "name": "loopCheck1",
      "outputs": [],
      "stateMutability": "nonpayable",
      "type": "function"
    }
  ],
  "bytecode": "0x6080604052348015600f57600080fd5b506102598061001f6000396000f3fe608060405234801561001057600080fd5b506004361061002b5760003560e01c8063b680a87014610030575b600080fd5b61003861003a565b005b61004e67f58d3b69582d205e60c01b6101eb565b610062672e1441700243042160c01b6101eb565b61007667eb6584b02ec6fab660c01b6101eb565b6000600367ffffffffffffffff811115610093576100926101ee565b5b6040519080825280602002602001820160405280156100c15781602001602082028036833780820191505090505b5090506100d8674ea4a8283c8f687260c01b6101eb565b6001816000815181106100ee576100ed61021d565b5b60200260200101818152505061010e67052b3887d8961b0c60c01b6101eb565b6002816001815181106101245761012361021d565b5b60200260200101818152505061014467d25477314260660160c01b6101eb565b60038160028151811061015a5761015961021d565b5b60200260200101818152505061017a676aa61f2de8b4849460c01b6101eb565b61018e67488caf8ba83e383660c01b6101eb565b6000815190506101a867c84d522d3bcfc32960c01b6101eb565b6101bc677d5f2fea5700b19260c01b6101eb565b60005b818110156101e6576101db672a0ee69f87ad114560c01b6101eb565b8060010190506101bf565b505050565b50565b7f4e487b7100000000000000000000000000000000000000000000000000000000600052604160045260246000fd5b7f4e487b7100000000000000000000000000000000000000000000000000000000600052603260045260246000fdfea164736f6c634300081b000a",
  "linkReferences": {},
  "deployedLinkReferences": {}
}