{
  "_format": "hh-sol-artifact-1",
  "contractName": "LoopCheck3Contract",
  "sourceName": "contracts/loopingExample.sol",
  "abi": [
    {
      "inputs": [],
      "name": "loopCheck3",
      "outputs": [],
      "stateMutability": "nonpayable",
      "type": "function"
    }
  ],
  "bytecode": "0x6080604052348015600f57600080fd5b506102e88061001f6000396000f3fe608060405234801561001057600080fd5b506004361061002b5760003560e01c8063549f16b414610030575b600080fd5b61003861003a565b005b61004e674c8140953c722e4b60c01b6101f9565b61006267b704bcd4b25ecf3960c01b6101f9565b61007667be1ef11a189a7bcf60c01b6101f9565b6000600367ffffffffffffffff811115610093576100926101fc565b5b6040519080825280602002602001820160405280156100c15781602001602082028036833780820191505090505b5090506100d867f28f97cfde6a453a60c01b6101f9565b6001816000815181106100ee576100ed61022b565b5b60200260200101818152505061010e67523fc6848c99828160c01b6101f9565b6002816001815181106101245761012361022b565b5b60200260200101818152505061014467887bc58207e4b89b60c01b6101f9565b60038160028151811061015a5761015961022b565b5b60200260200101818152505061017a675a5c18fee25ca53060c01b6101f9565b61018e676c8d1ced0941000a60c01b6101f9565b6000815190506101a86774a4f3f782912ded60c01b6101f9565b6101bc6734cb09ea4f461dcc60c01b6101f9565b60005b818110156101f4576101db67ea5b7fff694a230a60c01b6101f9565b80600101905080806101ec90610293565b9150506101bf565b505050565b50565b7f4e487b7100000000000000000000000000000000000000000000000000000000600052604160045260246000fd5b7f4e487b7100000000000000000000000000000000000000000000000000000000600052603260045260246000fd5b7f4e487b7100000000000000000000000000000000000000000000000000000000600052601160045260246000fd5b6000819050919050565b600061029e82610289565b91507fffffffffffffffffffffffffffffffffffffffffffffffffffffffffffffffff82036102d0576102cf61025a565b5b60018201905091905056fea164736f6c634300081b000a",
  "linkReferences": {},
  "deployedLinkReferences": {}
}