{
  "_format": "hh-sol-artifact-1",
  "contractName": "LoopCheck1Contract",
  "sourceName": "contracts/loopingExample.sol",
  "abi": [
    {
      "inputs": [],
      "name": "loopCheck1",
      "outputs": [],
      "stateMutability": "nonpayable",
      "type": "function"
    }
  ],
  "bytecode": "0x6080604052348015600f57600080fd5b5060ec8061001e6000396000f3fe6080604052348015600f57600080fd5b506004361060285760003560e01c8063b680a87014602d575b600080fd5b60336035565b005b6040805160038082526080820190925260009160208201606080368337019050509050600181600081518110606a57606a60c9565b602002602001018181525050600281600181518110608857608860c9565b60200260200101818152505060038160028151811060a65760a660c9565b6020908102919091010152805160005b8181101560c45760010160b6565b505050565b634e487b7160e01b600052603260045260246000fdfea164736f6c634300081b000a",
  "linkReferences": {},
  "deployedLinkReferences": {}
}