{
  "_format": "hh-sol-artifact-1",
  "contractName": "LoopCheck2Contract",
  "sourceName": "contracts/loopingExample.sol",
  "abi": [
    {
      "inputs": [],
      "name": "loopCheck2",
      "outputs": [],
      "stateMutability": "nonpayable",
      "type": "function"
    }
  ],
  "bytecode": "0x6080604052348015600f57600080fd5b506102818061001f6000396000f3fe608060405234801561001057600080fd5b506004361061002b5760003560e01c8063340dd78414610030575b600080fd5b61003861003a565b005b61004e674299a31fdfbabc2c60c01b610213565b61006267cca60e77031b723860c01b610213565b61007667a1bdfdf3914c61d760c01b610213565b6000600367ffffffffffffffff81111561009357610092610216565b5b6040519080825280602002602001820160405280156100c15781602001602082028036833780820191505090505b5090506100d86780b1e4440225dab360c01b610213565b6001816000815181106100ee576100ed610245565b5b60200260200101818152505061010e675f7e78e89473e08b60c01b610213565b60028160018151811061012457610123610245565b5b602002602001018181525050610144672ab53cc7288471dc60c01b610213565b60038160028151811061015a57610159610245565b5b60200260200101818152505061017a67e364931a9acfde6860c01b610213565b61018e670e23d3a2dedae9aa60c01b610213565b60006101a4675b56810362556a8160c01b610213565b6101b8674c89a59b2f161de560c01b610213565b6000825190506101d267d615c59f080aa08660c01b610213565b6101e6678c66e71806f5370560c01b610213565b5b8082101561020e576102036742559c777df48a6860c01b610213565b8160010191506101e7565b505050565b50565b7f4e487b7100000000000000000000000000000000000000000000000000000000600052604160045260246000fd5b7f4e487b7100000000000000000000000000000000000000000000000000000000600052603260045260246000fdfea164736f6c634300081b000a",
  "linkReferences": {},
  "deployedLinkReferences": {}
}