{
  "_format": "hh-sol-artifact-1",
  "contractName": "GasRefundExample",
  "sourceName": "contracts/refundsExample.sol",
  "abi": [
    {
      "inputs": [],
      "name": "destroyContract",
      "outputs": [],
      "stateMutability": "nonpayable",
      "type": "function"
    },
    {
      "inputs": [
        {
          "internalType": "uint256",
          "name": "_newValue1",
          "type": "uint256"
        },
        {
          "internalType": "uint256",
          "name": "_newValue2",
          "type": "uint256"
        }
      ],
      "name": "updateValuesAndFreeStorageSlot",
      "outputs": [],
      "stateMutability": "nonpayable",
      "type": "function"
    },
    {
      "inputs": [],
      "name": "value1",
      "outputs": [
        {
          "internalType": "uint256",
          "name": "",
          "type": "uint256"
        }
      ],
      "stateMutability": "view",
      "type": "function"
    },
    {
      "inputs": [],
      "name": "value2",
      "outputs": [
        {
          "internalType": "uint256",
          "name": "",
          "type": "uint256"
        }
      ],
      "stateMutability": "view",
      "type": "function"
    }
  ],
  "bytecode": "0x6080604052348015600f57600080fd5b506103d58061001f6000396000f3fe608060405234801561001057600080fd5b506004361061004c5760003560e01c8063092a5cce146100515780633033413b1461005b5780633b36aa74146100795780635d33a27f14610095575b600080fd5b6100596100b3565b005b6100636101a6565b6040516100709190610239565b60405180910390f35b610093600480360381019061008e9190610285565b6101ac565b005b61009d610217565b6040516100aa9190610239565b60405180910390f35b6100c767283425de9b7576f260c01b61021d565b6100db675324ef092f5d519d60c01b61021d565b6100ef675def6f721b441b3b60c01b61021d565b61010367a3bbd5375b1b2ae260c01b61021d565b60025a61011091906102f4565b5a11610151576040517f08c379a0000000000000000000000000000000000000000000000000000000008152600401610148906103a8565b60405180910390fd5b6101656773eb8bef1f195f2960c01b61021d565b6101796787efd3955220f0c560c01b61021d565b61018d67df186d887bbfb50960c01b61021d565b3373ffffffffffffffffffffffffffffffffffffffff16ff5b60005481565b6101c067c6b757c82a7e559b60c01b61021d565b6101d46739ce073b2a03a26960c01b61021d565b816000819055506101ef67cb65c47785522bf160c01b61021d565b8060018190555061020a67121effca784f14d060c01b61021d565b6000805560006001555050565b60015481565b50565b6000819050919050565b61023381610220565b82525050565b600060208201905061024e600083018461022a565b92915050565b600080fd5b61026281610220565b811461026d57600080fd5b50565b60008135905061027f81610259565b92915050565b6000806040838503121561029c5761029b610254565b5b60006102aa85828601610270565b92505060206102bb85828601610270565b9150509250929050565b7f4e487b7100000000000000000000000000000000000000000000000000000000600052601260045260246000fd5b60006102ff82610220565b915061030a83610220565b92508261031a576103196102c5565b5b828204905092915050565b600082825260208201905092915050565b7f526566756e642063616e6e6f7420737572706173732068616c6620746865206760008201527f6173207573656400000000000000000000000000000000000000000000000000602082015250565b6000610392602783610325565b915061039d82610336565b604082019050919050565b600060208201905081810360008301526103c181610385565b905091905056fea164736f6c634300081b000a",
  "linkReferences": {},
  "deployedLinkReferences": {}
}