{
  "_format": "hh-sol-artifact-1",
  "contractName": "Example",
  "sourceName": "contracts/Example.sol",
  "abi": [
    {
      "inputs": [],
      "name": "resetValue",
      "outputs": [],
      "stateMutability": "nonpayable",
      "type": "function"
    },
    {
      "inputs": [
        {
          "internalType": "uint256",
          "name": "_value",
          "type": "uint256"
        }
      ],
      "name": "setValue",
      "outputs": [],
      "stateMutability": "nonpayable",
      "type": "function"
    }
  ],
  "bytecode": "0x6080604052348015600f57600080fd5b50607680601d6000396000f3fe6080604052348015600f57600080fd5b506004361060325760003560e01c806316e9fe8114603757806355241077146041575b600080fd5b603f60008055565b005b603f604c3660046051565b600055565b600060208284031215606257600080fd5b503591905056fea164736f6c634300081b000a",
  "linkReferences": {},
  "deployedLinkReferences": {}
}