{
  "_format": "hh-sol-artifact-1",
  "contractName": "Example",
  "sourceName": "contracts/Example.sol",
  "abi": [
    {
      "inputs": [],
      "name": "resetValue",
      "outputs": [],
      "stateMutability": "nonpayable",
      "type": "function"
    },
    {
      "inputs": [
        {
          "internalType": "uint256",
          "name": "_value",
          "type": "uint256"
        }
      ],
      "name": "setValue",
      "outputs": [],
      "stateMutability": "nonpayable",
      "type": "function"
    }
  ],
  "bytecode": "0x6080604052348015600f57600080fd5b5060ca80601d6000396000f3fe6080604052348015600f57600080fd5b506004361060325760003560e01c806316e9fe8114603757806355241077146041575b600080fd5b603f60008055565b005b603f604c36600460a5565b600181101560a05760405162461bcd60e51b815260206004820152601c60248201527f56616c7565206d7573742062652067726561746572207468616e203000000000604482015260640160405180910390fd5b600055565b60006020828403121560b657600080fd5b503591905056fea164736f6c634300081b000a",
  "linkReferences": {},
  "deployedLinkReferences": {}
}