{
  "_format": "hh-sol-artifact-1",
  "contractName": "GasCostExample",
  "sourceName": "contracts/Initiazlie&Reinitialize.sol",
  "abi": [
    {
      "inputs": [],
      "stateMutability": "nonpayable",
      "type": "constructor"
    },
    {
      "inputs": [],
      "name": "initializeWithNonZero",
      "outputs": [],
      "stateMutability": "nonpayable",
      "type": "function"
    },
    {
      "inputs": [],
      "name": "initializeWithZero",
      "outputs": [],
      "stateMutability": "nonpayable",
      "type": "function"
    },
    {
      "inputs": [],
      "name": "initializedVar",
      "outputs": [
        {
          "internalType": "uint256",
          "name": "",
          "type": "uint256"
        }
      ],
      "stateMutability": "view",
      "type": "function"
    },
    {
      "inputs": [],
      "name": "nonZeroInitializedVar",
      "outputs": [
        {
          "internalType": "uint256",
          "name": "",
          "type": "uint256"
        }
      ],
      "stateMutability": "view",
      "type": "function"
    },
    {
      "inputs": [],
      "name": "nonZeroToNonZeroVar",
      "outputs": [
        {
          "internalType": "uint256",
          "name": "",
          "type": "uint256"
        }
      ],
      "stateMutability": "view",
      "type": "function"
    },
    {
      "inputs": [],
      "name": "nonZeroToZeroVar",
      "outputs": [
        {
          "internalType": "uint256",
          "name": "",
          "type": "uint256"
        }
      ],
      "stateMutability": "view",
      "type": "function"
    },
    {
      "inputs": [
        {
          "internalType": "uint256",
          "name": "_value",
          "type": "uint256"
        }
      ],
      "name": "reInitializeFromNonZeroToNonZero",
      "outputs": [],
      "stateMutability": "nonpayable",
      "type": "function"
    },
    {
      "inputs": [],
      "name": "reInitializeFromNonZeroToZero",
      "outputs": [],
      "stateMutability": "nonpayable",
      "type": "function"
    },
    {
      "inputs": [
        {
          "internalType": "uint256",
          "name": "_value",
          "type": "uint256"
        }
      ],
      "name": "reInitializeFromZeroToNonZero",
      "outputs": [],
      "stateMutability": "nonpayable",
      "type": "function"
    },
    {
      "inputs": [],
      "name": "reInitializeFromZeroToZero",
      "outputs": [],
      "stateMutability": "nonpayable",
      "type": "function"
    },
    {
      "inputs": [
        {
          "internalType": "uint256",
          "name": "_value",
          "type": "uint256"
        }
      ],
      "name": "setInitializedVar",
      "outputs": [],
      "stateMutability": "nonpayable",
      "type": "function"
    },
    {
      "inputs": [],
      "name": "uninitializedVar",
      "outputs": [
        {
          "internalType": "uint256",
          "name": "",
          "type": "uint256"
        }
      ],
      "stateMutability": "view",
      "type": "function"
    },
    {
      "inputs": [],
      "name": "zeroInitializedVar",
      "outputs": [
        {
          "internalType": "uint256",
          "name": "",
          "type": "uint256"
        }
      ],
      "stateMutability": "view",
      "type": "function"
    },
    {
      "inputs": [],
      "name": "zeroToNonZeroVar",
      "outputs": [
        {
          "internalType": "uint256",
          "name": "",
          "type": "uint256"
        }
      ],
      "stateMutability": "view",
      "type": "function"
    },
    {
      "inputs": [],
      "name": "zeroToZeroVar",
      "outputs": [
        {
          "internalType": "uint256",
          "name": "",
          "type": "uint256"
        }
      ],
      "stateMutability": "view",
      "type": "function"
    }
  ],
  "bytecode": "0x6080604052348015600f57600080fd5b506028679c91b7b268594b6a60c01b602c60201b60201c565b602f565b50565b6105068061003e6000396000f3fe608060405234801561001057600080fd5b50600436106100f55760003560e01c80639b8119d111610097578063d425487011610066578063d4254870146101f0578063d97993c31461020c578063e7f30e961461022a578063fcb1040914610248576100f5565b80639b8119d1146101a0578063b686a465146101be578063b9672e29146101c8578063bc22d053146101d2576100f5565b806342c201f7116100d357806342c201f71461012c5780635d80cd3514610148578063748b59a91461016657806389a68d1114610182576100f5565b806317de1657146100fa5780632c3023a5146101185780632d59ad4214610122575b600080fd5b610102610266565b60405161010f9190610480565b60405180910390f35b61012061026c565b005b61012a6102ba565b005b610146600480360381019061014191906104cc565b6102ec565b005b61015061031e565b60405161015d9190610480565b60405180910390f35b610180600480360381019061017b91906104cc565b610324565b005b61018a610372565b6040516101979190610480565b60405180910390f35b6101a8610378565b6040516101b59190610480565b60405180910390f35b6101c661037e565b005b6101d06103b0565b005b6101da6103fe565b6040516101e79190610480565b60405180910390f35b61020a600480360381019061020591906104cc565b610404565b005b610214610452565b6040516102219190610480565b60405180910390f35b610232610458565b60405161023f9190610480565b60405180910390f35b61025061045e565b60405161025d9190610480565b60405180910390f35b60015481565b61028067424c875cc84c76b160c01b610464565b61029467ef81b54c9bdb791960c01b610464565b602d6004819055506102b0679727115cf9ceb74260c01b610464565b6000600481905550565b6102ce6722b7dab05bfd4b9a60c01b610464565b6102e267c1d67dcb3d3a863660c01b610464565b6000600281905550565b61030067f991039d4bc416c260c01b610464565b61031467a12069c31bbd629260c01b610464565b8060018190555050565b60025481565b61033867ec70773f9a38675d60c01b610464565b61034c67d0e44f1a938b7c2560c01b610464565b60006006819055506103686701795f703c23330760c01b610464565b8060068190555050565b60045481565b60005481565b610392677d51b570b4d368d560c01b610464565b6103a66784bc133e5140a20460c01b610464565b602a600381905550565b6103c467b28ac4dc51654d3460c01b610464565b6103d867a1b301f3b8ec729b60c01b610464565b60006007819055506103f467ed98f576b551c5af60c01b610464565b6000600781905550565b60035481565b61041867aa7a04bc88673e0860c01b610464565b61042c6732dbeefdd042e81a60c01b610464565b8060058190555061044767110fe81efbdf557d60c01b610464565b602d60058190555050565b60065481565b60075481565b60055481565b50565b6000819050919050565b61047a81610467565b82525050565b60006020820190506104956000830184610471565b92915050565b600080fd5b6104a981610467565b81146104b457600080fd5b50565b6000813590506104c6816104a0565b92915050565b6000602082840312156104e2576104e161049b565b5b60006104f0848285016104b7565b9150509291505056fea164736f6c634300081b000a",
  "linkReferences": {},
  "deployedLinkReferences": {}
}