{
  "_format": "hh-sol-artifact-1",
  "contractName": "VariableOptimization",
  "sourceName": "contracts/fixedvsVariableExample.sol",
  "abi": [
    {
      "inputs": [
        {
          "internalType": "uint256",
          "name": "newValue",
          "type": "uint256"
        }
      ],
      "name": "addToDynamicArray",
      "outputs": [],
      "stateMutability": "nonpayable",
      "type": "function"
    },
    {
      "inputs": [
        {
          "internalType": "uint256",
          "name": "",
          "type": "uint256"
        }
      ],
      "name": "dynamicArray",
      "outputs": [
        {
          "internalType": "uint256",
          "name": "",
          "type": "uint256"
        }
      ],
      "stateMutability": "view",
      "type": "function"
    },
    {
      "inputs": [],
      "name": "dynamicString",
      "outputs": [
        {
          "internalType": "string",
          "name": "",
          "type": "string"
        }
      ],
      "stateMutability": "view",
      "type": "function"
    },
    {
      "inputs": [
        {
          "internalType": "uint256",
          "name": "",
          "type": "uint256"
        }
      ],
      "name": "fixedSizeArray",
      "outputs": [
        {
          "internalType": "uint256",
          "name": "",
          "type": "uint256"
        }
      ],
      "stateMutability": "view",
      "type": "function"
    },
    {
      "inputs": [],
      "name": "fixedSizeString",
      "outputs": [
        {
          "internalType": "bytes32",
          "name": "",
          "type": "bytes32"
        }
      ],
      "stateMutability": "view",
      "type": "function"
    },
    {
      "inputs": [],
      "name": "fixedVar",
      "outputs": [
        {
          "internalType": "uint256",
          "name": "",
          "type": "uint256"
        }
      ],
      "stateMutability": "view",
      "type": "function"
    },
    {
      "inputs": [],
      "name": "removeFromDynamicArray",
      "outputs": [],
      "stateMutability": "nonpayable",
      "type": "function"
    },
    {
      "inputs": [
        {
          "internalType": "string",
          "name": "_value",
          "type": "string"
        }
      ],
      "name": "setDynamicString",
      "outputs": [],
      "stateMutability": "nonpayable",
      "type": "function"
    },
    {
      "inputs": [],
      "name": "setFixedSizeString",
      "outputs": [],
      "stateMutability": "nonpayable",
      "type": "function"
    }
  ],
  "bytecode": "0x6080604052348015600f57600080fd5b50610b0a8061001f6000396000f3fe608060405234801561001057600080fd5b50600436106100935760003560e01c806363d530711161006657806363d530711461010e5780639a9bdca714610118578063a4a2908c14610148578063bbe8058a14610166578063da5e1cfd1461018257610093565b806310cb52631461009857806312399d88146100b65780631d9e19b9146100e65780635a0aa04f146100f0575b600080fd5b6100a061019e565b6040516100ad9190610498565b60405180910390f35b6100d060048036038101906100cb91906104f3565b6101a4565b6040516100dd9190610498565b60405180910390f35b6100ee6101bf565b005b6100f8610223565b60405161010591906105b0565b60405180910390f35b6101166102b1565b005b610132600480360381019061012d91906104f3565b6103af565b60405161013f9190610498565b60405180910390f35b6101506103d3565b60405161015d91906105eb565b60405180910390f35b610180600480360381019061017b919061073b565b6103d9565b005b61019c600480360381019061019791906104f3565b610414565b005b60005481565b600181600581106101b457600080fd5b016000915090505481565b6101d367fa236265e0d32cdb60c01b61047c565b6101e767a3d9ba114db2c59d60c01b61047c565b6101fb67d13dfde066050fc660c01b61047c565b60007f2e2e2e2e2e000000000000000000000000000000000000000000000000000000905050565b60088054610230906107b3565b80601f016020809104026020016040519081016040528092919081815260200182805461025c906107b3565b80156102a95780601f1061027e576101008083540402835291602001916102a9565b820191906000526020600020905b81548152906001019060200180831161028c57829003601f168201915b505050505081565b6102c5677cf667b88e7cdf8360c01b61047c565b6102d967b120b3bef6e25c4e60c01b61047c565b6102ed6765bb4387d90526f560c01b61047c565b61030167efb1c8ad489d50f960c01b61047c565b600060068054905011610349576040517f08c379a000000000000000000000000000000000000000000000000000000000815260040161034090610830565b60405180910390fd5b61035d670203c9b980a298dc60c01b61047c565b61037167eb2c286e4e0d8fe860c01b61047c565b610385675e423ed51e6f0b2060c01b61047c565b600680548061039757610396610850565b5b60019003818190600052602060002001600090559055565b600681815481106103bf57600080fd5b906000526020600020016000915090505481565b60075481565b6103ed67e14a6285e5776ef260c01b61047c565b6104016750527a77abbf556060c01b61047c565b80600890816104109190610a2b565b5050565b6104286702c120a133d033f360c01b61047c565b61043c674314b0ff275f373160c01b61047c565b610450677a3151fd8194cd0b60c01b61047c565b600681908060018154018082558091505060019003906000526020600020016000909190919091505550565b50565b6000819050919050565b6104928161047f565b82525050565b60006020820190506104ad6000830184610489565b92915050565b6000604051905090565b600080fd5b600080fd5b6104d08161047f565b81146104db57600080fd5b50565b6000813590506104ed816104c7565b92915050565b600060208284031215610509576105086104bd565b5b6000610517848285016104de565b91505092915050565b600081519050919050565b600082825260208201905092915050565b60005b8381101561055a57808201518184015260208101905061053f565b60008484015250505050565b6000601f19601f8301169050919050565b600061058282610520565b61058c818561052b565b935061059c81856020860161053c565b6105a581610566565b840191505092915050565b600060208201905081810360008301526105ca8184610577565b905092915050565b6000819050919050565b6105e5816105d2565b82525050565b600060208201905061060060008301846105dc565b92915050565b600080fd5b600080fd5b7f4e487b7100000000000000000000000000000000000000000000000000000000600052604160045260246000fd5b61064882610566565b810181811067ffffffffffffffff8211171561066757610666610610565b5b80604052505050565b600061067a6104b3565b9050610686828261063f565b919050565b600067ffffffffffffffff8211156106a6576106a5610610565b5b6106af82610566565b9050602081019050919050565b82818337600083830152505050565b60006106de6106d98461068b565b610670565b9050828152602081018484840111156106fa576106f961060b565b5b6107058482856106bc565b509392505050565b600082601f83011261072257610721610606565b5b81356107328482602086016106cb565b91505092915050565b600060208284031215610751576107506104bd565b5b600082013567ffffffffffffffff81111561076f5761076e6104c2565b5b61077b8482850161070d565b91505092915050565b7f4e487b7100000000000000000000000000000000000000000000000000000000600052602260045260246000fd5b600060028204905060018216806107cb57607f821691505b6020821081036107de576107dd610784565b5b50919050565b7f417272617920697320656d707479000000000000000000000000000000000000600082015250565b600061081a600e8361052b565b9150610825826107e4565b602082019050919050565b600060208201905081810360008301526108498161080d565b9050919050565b7f4e487b7100000000000000000000000000000000000000000000000000000000600052603160045260246000fd5b60008190508160005260206000209050919050565b60006020601f8301049050919050565b600082821b905092915050565b6000600883026108e17fffffffffffffffffffffffffffffffffffffffffffffffffffffffffffffffff826108a4565b6108eb86836108a4565b95508019841693508086168417925050509392505050565b6000819050919050565b600061092861092361091e8461047f565b610903565b61047f565b9050919050565b6000819050919050565b6109428361090d565b61095661094e8261092f565b8484546108b1565b825550505050565b600090565b61096b61095e565b610976818484610939565b505050565b5b8181101561099a5761098f600082610963565b60018101905061097c565b5050565b601f8211156109df576109b08161087f565b6109b984610894565b810160208510156109c8578190505b6109dc6109d485610894565b83018261097b565b50505b505050565b600082821c905092915050565b6000610a02600019846008026109e4565b1980831691505092915050565b6000610a1b83836109f1565b9150826002028217905092915050565b610a3482610520565b67ffffffffffffffff811115610a4d57610a4c610610565b5b610a5782546107b3565b610a6282828561099e565b600060209050601f831160018114610a955760008415610a83578287015190505b610a8d8582610a0f565b865550610af5565b601f198416610aa38661087f565b60005b82811015610acb57848901518255600182019150602085019450602081019050610aa6565b86831015610ae85784890151610ae4601f8916826109f1565b8355505b6001600288020188555050505b50505050505056fea164736f6c634300081b000a",
  "linkReferences": {},
  "deployedLinkReferences": {}
}