{
  "_format": "hh-sol-artifact-1",
  "contractName": "EventDataLogging",
  "sourceName": "contracts/DataLoggingExample.sol",
  "abi": [
    {
      "anonymous": false,
      "inputs": [
        {
          "indexed": false,
          "internalType": "uint256",
          "name": "newValue",
          "type": "uint256"
        }
      ],
      "name": "ValueUpdated",
      "type": "event"
    },
    {
      "inputs": [],
      "name": "getStoredValue",
      "outputs": [
        {
          "internalType": "uint256",
          "name": "",
          "type": "uint256"
        }
      ],
      "stateMutability": "view",
      "type": "function"
    },
    {
      "inputs": [],
      "name": "storedValue",
      "outputs": [
        {
          "internalType": "uint256",
          "name": "",
          "type": "uint256"
        }
      ],
      "stateMutability": "view",
      "type": "function"
    },
    {
      "inputs": [
        {
          "internalType": "uint256",
          "name": "newValue",
          "type": "uint256"
        }
      ],
      "name": "updateValue",
      "outputs": [],
      "stateMutability": "nonpayable",
      "type": "function"
    }
  ],
  "bytecode": "0x6080604052348015600f57600080fd5b5061021d8061001f6000396000f3fe608060405234801561001057600080fd5b50600436106100415760003560e01c80630d336a2114610046578063573c0bd3146100645780636d619daa14610080575b600080fd5b61004e61009e565b60405161005b9190610197565b60405180910390f35b61007e600480360381019061007991906101e3565b6100e4565b005b610088610175565b6040516100959190610197565b60405180910390f35b60006100b4675d7083242d256ae460c01b61017b565b6100c867a1f528df99d4756060c01b61017b565b6100dc67224d8f301a8bc0c360c01b61017b565b600054905090565b6100f867e758a473c64bc8aa60c01b61017b565b61010c675e1aa185ef53f49860c01b61017b565b80600081905550610127671437dacad3c7fe3160c01b61017b565b61013b6772b0dccd375d6aad60c01b61017b565b7f4273d0736f60e0dedfe745e86718093d8ec8646ebd2a60cd60643eeced5658118160405161016a9190610197565b60405180910390a150565b60005481565b50565b6000819050919050565b6101918161017e565b82525050565b60006020820190506101ac6000830184610188565b92915050565b600080fd5b6101c08161017e565b81146101cb57600080fd5b50565b6000813590506101dd816101b7565b92915050565b6000602082840312156101f9576101f86101b2565b5b6000610207848285016101ce565b9150509291505056fea164736f6c634300081b000a",
  "linkReferences": {},
  "deployedLinkReferences": {}
}