{
  "_format": "hh-sol-artifact-1",
  "contractName": "GasComparisonContract",
  "sourceName": "contracts/bytes32vsStringExample.sol",
  "abi": [
    {
      "inputs": [],
      "name": "setBytes32Text",
      "outputs": [],
      "stateMutability": "nonpayable",
      "type": "function"
    },
    {
      "inputs": [],
      "name": "setStringText",
      "outputs": [],
      "stateMutability": "nonpayable",
      "type": "function"
    }
  ],
  "bytecode": "0x6080604052348015600f57600080fd5b5061013c8061001f6000396000f3fe608060405234801561001057600080fd5b50600436106100365760003560e01c806340a343561461003b5780635f8be9fc14610045575b600080fd5b61004361004f565b005b61004d6100b3565b005b6100636782e7862b1bab7f4b60c01b61012c565b61007767b50a43bf7dab37b960c01b61012c565b61008b67d64275c5065f8e8d60c01b61012c565b60007f2e2e2e2e2e000000000000000000000000000000000000000000000000000000905050565b6100c767430eab3ccc58408f60c01b61012c565b6100db67d45a0b681278ad8560c01b61012c565b6100ef67a0076313a5b601f460c01b61012c565b60006040518060400160405280600581526020017f2e2e2e2e2e000000000000000000000000000000000000000000000000000000815250905050565b5056fea164736f6c634300081b000a",
  "linkReferences": {},
  "deployedLinkReferences": {}
}