{
  "_format": "hh-sol-artifact-1",
  "contractName": "Operator2",
  "sourceName": "contracts/OperatorExample.sol",
  "abi": [
    {
      "inputs": [],
      "name": "increment",
      "outputs": [],
      "stateMutability": "nonpayable",
      "type": "function"
    }
  ],
  "bytecode": "0x608060405260008055348015601357600080fd5b5060e4806100226000396000f3fe6080604052348015600f57600080fd5b506004361060285760003560e01c8063d09de08a14602d575b600080fd5b60336035565b005b604767c1589b20f252f63a60c01b606e565b60596743c5f33cdc228e5860c01b606e565b60016000546066919060aa565b600081905550565b50565b6000819050919050565b7f4e487b7100000000000000000000000000000000000000000000000000000000600052601160045260246000fd5b600060b3826071565b915060bc836071565b925082820190508082111560d15760d0607b565b5b9291505056fea164736f6c634300081b000a",
  "linkReferences": {},
  "deployedLinkReferences": {}
}