{
  "_format": "hh-sol-artifact-1",
  "contractName": "GasComparison",
  "sourceName": "contracts/uint8VSuint256.sol",
  "abi": [
    {
      "inputs": [
        {
          "internalType": "uint8",
          "name": "iterations",
          "type": "uint8"
        }
      ],
      "name": "loopWithUint256",
      "outputs": [],
      "stateMutability": "nonpayable",
      "type": "function"
    },
    {
      "inputs": [
        {
          "internalType": "uint8",
          "name": "iterations",
          "type": "uint8"
        }
      ],
      "name": "loopWithUint8",
      "outputs": [],
      "stateMutability": "nonpayable",
      "type": "function"
    },
    {
      "inputs": [
        {
          "internalType": "uint256",
          "name": "_value",
          "type": "uint256"
        }
      ],
      "name": "setUint256Value",
      "outputs": [],
      "stateMutability": "nonpayable",
      "type": "function"
    },
    {
      "inputs": [
        {
          "internalType": "uint8",
          "name": "_value",
          "type": "uint8"
        }
      ],
      "name": "setUint8Value",
      "outputs": [],
      "stateMutability": "nonpayable",
      "type": "function"
    },
    {
      "inputs": [],
      "name": "uint256Value",
      "outputs": [
        {
          "internalType": "uint256",
          "name": "",
          "type": "uint256"
        }
      ],
      "stateMutability": "view",
      "type": "function"
    },
    {
      "inputs": [],
      "name": "uint8Value",
      "outputs": [
        {
          "internalType": "uint8",
          "name": "",
          "type": "uint8"
        }
      ],
      "stateMutability": "view",
      "type": "function"
    }
  ],
  "bytecode": "0x6080604052348015600f57600080fd5b5061049e8061001f6000396000f3fe608060405234801561001057600080fd5b50600436106100625760003560e01c80636498db88146100675780636c4525f7146100855780637e195351146100a157806392f6c449146100bd5780639d7488d3146100d9578063aaef20ea146100f5575b600080fd5b61006f610113565b60405161007c91906102f0565b60405180910390f35b61009f600480360381019061009a9190610349565b610119565b005b6100bb60048036038101906100b69190610349565b61015e565b005b6100d760048036038101906100d291906103a2565b610206565b005b6100f360048036038101906100ee9190610349565b610238565b005b6100fd6102c3565b60405161010a91906103de565b60405180910390f35b60015481565b61012d67f704d81aa39ab89c60c01b6102d4565b6101416799a62c12b6956f3160c01b6102d4565b806000806101000a81548160ff021916908360ff16021790555050565b61017267ed88bc0a174bc63560c01b6102d4565b610186670bfcf22fca2592c160c01b6102d4565b61019a6754d1244026cef54560c01b6102d4565b60005b8160ff168160ff161015610202576101bf679c6fecdac1c4ba7560c01b6102d4565b60016000808282829054906101000a900460ff166101dd9190610428565b92506101000a81548160ff021916908360ff160217905550808060010191505061019d565b5050565b61021a67621a3e561d11a14260c01b6102d4565b61022e6726cf20f2abbe71a760c01b6102d4565b8060018190555050565b61024c6787f9b263029905d060c01b6102d4565b61026067b415119f9b16d62160c01b6102d4565b61027467cfacc99beca3c47f60c01b6102d4565b60005b8160ff168160ff1610156102bf5761029967b31fbef35f3c0cb160c01b6102d4565b60018060008282546102ab919061045d565b925050819055508080600101915050610277565b5050565b60008054906101000a900460ff1681565b50565b6000819050919050565b6102ea816102d7565b82525050565b600060208201905061030560008301846102e1565b92915050565b600080fd5b600060ff82169050919050565b61032681610310565b811461033157600080fd5b50565b6000813590506103438161031d565b92915050565b60006020828403121561035f5761035e61030b565b5b600061036d84828501610334565b91505092915050565b61037f816102d7565b811461038a57600080fd5b50565b60008135905061039c81610376565b92915050565b6000602082840312156103b8576103b761030b565b5b60006103c68482850161038d565b91505092915050565b6103d881610310565b82525050565b60006020820190506103f360008301846103cf565b92915050565b7f4e487b7100000000000000000000000000000000000000000000000000000000600052601160045260246000fd5b600061043382610310565b915061043e83610310565b9250828201905060ff811115610457576104566103f9565b5b92915050565b6000610468826102d7565b9150610473836102d7565b925082820190508082111561048b5761048a6103f9565b5b9291505056fea164736f6c634300081b000a",
  "linkReferences": {},
  "deployedLinkReferences": {}
}